{
  "_format": "hh-sol-artifact-1",
  "contractName": "QuantumGodToken",
  "sourceName": "contracts/QuantumGodToken.sol",
  "abi": [
    {
      "inputs": [
        {
          "internalType": "address",
          "name": "_aiVerifier",
          "type": "address"
        },
        {
          "internalType": "address",
          "name": "_quantumConsensus",
          "type": "address"
        },
        {
          "internalType": "address",
          "name": "_quantumAIVerifier",
          "type": "address"
        }
      ],
      "stateMutability": "nonpayable",
      "type": "constructor"
    },
    {
      "anonymous": false,
      "inputs": [
        {
          "indexed": true,
          "internalType": "address",
          "name": "owner",
          "type": "address"
        },
        {
          "indexed": true,
          "internalType": "address",
          "name": "spender",
          "type": "address"
        },
        {
          "indexed": false,
          "internalType": "uint256",
          "name": "value",
          "type": "uint256"
        }
      ],
      "name": "Approval",
      "type": "event"
    },
    {
      "anonymous": false,
      "inputs": [
        {
          "indexed": false,
          "internalType": "uint256",
          "name": "goldOunces",
          "type": "uint256"
        },
        {
          "indexed": false,
          "internalType": "uint256",
          "name": "silverOunces",
          "type": "uint256"
        },
        {
          "indexed": false,
          "internalType": "uint256",
          "name": "totalValue",
          "type": "uint256"
        }
      ],
      "name": "MetalReserveUpdated",
      "type": "event"
    },
    {
      "anonymous": false,
      "inputs": [
        {
          "indexed": true,
          "internalType": "address",
          "name": "previousOwner",
          "type": "address"
        },
        {
          "indexed": true,
          "internalType": "address",
          "name": "newOwner",
          "type": "address"
        }
      ],
      "name": "OwnershipTransferred",
      "type": "event"
    },
    {
      "anonymous": false,
      "inputs": [
        {
          "indexed": true,
          "internalType": "uint256",
          "name": "txId",
          "type": "uint256"
        },
        {
          "indexed": true,
          "internalType": "address",
          "name": "from",
          "type": "address"
        },
        {
          "indexed": true,
          "internalType": "address",
          "name": "to",
          "type": "address"
        },
        {
          "indexed": false,
          "internalType": "uint256",
          "name": "amount",
          "type": "uint256"
        }
      ],
      "name": "QuantumTransactionExecuted",
      "type": "event"
    },
    {
      "anonymous": false,
      "inputs": [
        {
          "indexed": true,
          "internalType": "uint256",
          "name": "txId",
          "type": "uint256"
        },
        {
          "indexed": false,
          "internalType": "string",
          "name": "reason",
          "type": "string"
        }
      ],
      "name": "QuantumVerificationFailed",
      "type": "event"
    },
    {
      "anonymous": false,
      "inputs": [
        {
          "indexed": true,
          "internalType": "address",
          "name": "from",
          "type": "address"
        },
        {
          "indexed": false,
          "internalType": "uint256",
          "name": "amount",
          "type": "uint256"
        }
      ],
      "name": "TokensBurned",
      "type": "event"
    },
    {
      "anonymous": false,
      "inputs": [
        {
          "indexed": true,
          "internalType": "address",
          "name": "to",
          "type": "address"
        },
        {
          "indexed": false,
          "internalType": "uint256",
          "name": "amount",
          "type": "uint256"
        },
        {
          "indexed": false,
          "internalType": "bytes32",
          "name": "verificationId",
          "type": "bytes32"
        }
      ],
      "name": "TokensMinted",
      "type": "event"
    },
    {
      "anonymous": false,
      "inputs": [
        {
          "indexed": true,
          "internalType": "address",
          "name": "from",
          "type": "address"
        },
        {
          "indexed": true,
          "internalType": "address",
          "name": "to",
          "type": "address"
        },
        {
          "indexed": false,
          "internalType": "uint256",
          "name": "value",
          "type": "uint256"
        }
      ],
      "name": "Transfer",
      "type": "event"
    },
    {
      "inputs": [],
      "name": "MAX_SUPPLY",
      "outputs": [
        {
          "internalType": "uint256",
          "name": "",
          "type": "uint256"
        }
      ],
      "stateMutability": "view",
      "type": "function"
    },
    {
      "inputs": [],
      "name": "METAL_BACKING_RATIO",
      "outputs": [
        {
          "internalType": "uint256",
          "name": "",
          "type": "uint256"
        }
      ],
      "stateMutability": "view",
      "type": "function"
    },
    {
      "inputs": [],
      "name": "MIN_MINT_AMOUNT",
      "outputs": [
        {
          "internalType": "uint256",
          "name": "",
          "type": "uint256"
        }
      ],
      "stateMutability": "view",
      "type": "function"
    },
    {
      "inputs": [],
      "name": "QUANTUM_VERIFICATION_THRESHOLD",
      "outputs": [
        {
          "internalType": "uint256",
          "name": "",
          "type": "uint256"
        }
      ],
      "stateMutability": "view",
      "type": "function"
    },
    {
      "inputs": [],
      "name": "aiVerifier",
      "outputs": [
        {
          "internalType": "address",
          "name": "",
          "type": "address"
        }
      ],
      "stateMutability": "view",
      "type": "function"
    },
    {
      "inputs": [
        {
          "internalType": "address",
          "name": "owner",
          "type": "address"
        },
        {
          "internalType": "address",
          "name": "spender",
          "type": "address"
        }
      ],
      "name": "allowance",
      "outputs": [
        {
          "internalType": "uint256",
          "name": "",
          "type": "uint256"
        }
      ],
      "stateMutability": "view",
      "type": "function"
    },
    {
      "inputs": [
        {
          "internalType": "address",
          "name": "spender",
          "type": "address"
        },
        {
          "internalType": "uint256",
          "name": "amount",
          "type": "uint256"
        }
      ],
      "name": "approve",
      "outputs": [
        {
          "internalType": "bool",
          "name": "",
          "type": "bool"
        }
      ],
      "stateMutability": "nonpayable",
      "type": "function"
    },
    {
      "inputs": [
        {
          "internalType": "address",
          "name": "account",
          "type": "address"
        }
      ],
      "name": "balanceOf",
      "outputs": [
        {
          "internalType": "uint256",
          "name": "",
          "type": "uint256"
        }
      ],
      "stateMutability": "view",
      "type": "function"
    },
    {
      "inputs": [
        {
          "internalType": "uint256",
          "name": "_amount",
          "type": "uint256"
        }
      ],
      "name": "burn",
      "outputs": [],
      "stateMutability": "nonpayable",
      "type": "function"
    },
    {
      "inputs": [],
      "name": "decimals",
      "outputs": [
        {
          "internalType": "uint8",
          "name": "",
          "type": "uint8"
        }
      ],
      "stateMutability": "view",
      "type": "function"
    },
    {
      "inputs": [
        {
          "internalType": "address",
          "name": "spender",
          "type": "address"
        },
        {
          "internalType": "uint256",
          "name": "subtractedValue",
          "type": "uint256"
        }
      ],
      "name": "decreaseAllowance",
      "outputs": [
        {
          "internalType": "bool",
          "name": "",
          "type": "bool"
        }
      ],
      "stateMutability": "nonpayable",
      "type": "function"
    },
    {
      "inputs": [],
      "name": "getMetalBackingRatio",
      "outputs": [
        {
          "internalType": "uint256",
          "name": "",
          "type": "uint256"
        }
      ],
      "stateMutability": "view",
      "type": "function"
    },
    {
      "inputs": [
        {
          "internalType": "uint256",
          "name": "_txId",
          "type": "uint256"
        }
      ],
      "name": "getQuantumTransaction",
      "outputs": [
        {
          "internalType": "address",
          "name": "from",
          "type": "address"
        },
        {
          "internalType": "address",
          "name": "to",
          "type": "address"
        },
        {
          "internalType": "uint256",
          "name": "amount",
          "type": "uint256"
        },
        {
          "internalType": "bytes32",
          "name": "quantumHash",
          "type": "bytes32"
        },
        {
          "internalType": "uint256",
          "name": "timestamp",
          "type": "uint256"
        },
        {
          "internalType": "bool",
          "name": "verified",
          "type": "bool"
        }
      ],
      "stateMutability": "view",
      "type": "function"
    },
    {
      "inputs": [],
      "name": "getTotalQuantumTransactions",
      "outputs": [
        {
          "internalType": "uint256",
          "name": "",
          "type": "uint256"
        }
      ],
      "stateMutability": "view",
      "type": "function"
    },
    {
      "inputs": [
        {
          "internalType": "address",
          "name": "spender",
          "type": "address"
        },
        {
          "internalType": "uint256",
          "name": "addedValue",
          "type": "uint256"
        }
      ],
      "name": "increaseAllowance",
      "outputs": [
        {
          "internalType": "bool",
          "name": "",
          "type": "bool"
        }
      ],
      "stateMutability": "nonpayable",
      "type": "function"
    },
    {
      "inputs": [
        {
          "internalType": "bytes32",
          "name": "_hash",
          "type": "bytes32"
        }
      ],
      "name": "isQuantumHashValid",
      "outputs": [
        {
          "internalType": "bool",
          "name": "",
          "type": "bool"
        }
      ],
      "stateMutability": "view",
      "type": "function"
    },
    {
      "inputs": [
        {
          "internalType": "address",
          "name": "_to",
          "type": "address"
        },
        {
          "internalType": "uint256",
          "name": "_amount",
          "type": "uint256"
        },
        {
          "internalType": "bytes32",
          "name": "_verificationId",
          "type": "bytes32"
        }
      ],
      "name": "mintWithVerification",
      "outputs": [],
      "stateMutability": "nonpayable",
      "type": "function"
    },
    {
      "inputs": [],
      "name": "name",
      "outputs": [
        {
          "internalType": "string",
          "name": "",
          "type": "string"
        }
      ],
      "stateMutability": "view",
      "type": "function"
    },
    {
      "inputs": [],
      "name": "owner",
      "outputs": [
        {
          "internalType": "address",
          "name": "",
          "type": "address"
        }
      ],
      "stateMutability": "view",
      "type": "function"
    },
    {
      "inputs": [],
      "name": "quantumAIVerifier",
      "outputs": [
        {
          "internalType": "contract QuantumAIVerifier",
          "name": "",
          "type": "address"
        }
      ],
      "stateMutability": "view",
      "type": "function"
    },
    {
      "inputs": [
        {
          "internalType": "uint256",
          "name": "_amount",
          "type": "uint256"
        },
        {
          "internalType": "bytes",
          "name": "_quantumProof",
          "type": "bytes"
        }
      ],
      "name": "quantumBurn",
      "outputs": [],
      "stateMutability": "nonpayable",
      "type": "function"
    },
    {
      "inputs": [],
      "name": "quantumConsensus",
      "outputs": [
        {
          "internalType": "contract QuantumConsensus",
          "name": "",
          "type": "address"
        }
      ],
      "stateMutability": "view",
      "type": "function"
    },
    {
      "inputs": [
        {
          "internalType": "bytes32",
          "name": "",
          "type": "bytes32"
        }
      ],
      "name": "quantumHashes",
      "outputs": [
        {
          "internalType": "bool",
          "name": "",
          "type": "bool"
        }
      ],
      "stateMutability": "view",
      "type": "function"
    },
    {
      "inputs": [
        {
          "internalType": "address",
          "name": "_to",
          "type": "address"
        },
        {
          "internalType": "uint256",
          "name": "_amount",
          "type": "uint256"
        },
        {
          "internalType": "uint256",
          "name": "_verificationRequestId",
          "type": "uint256"
        },
        {
          "internalType": "bytes",
          "name": "_quantumProof",
          "type": "bytes"
        }
      ],
      "name": "quantumMintWithVerification",
      "outputs": [],
      "stateMutability": "nonpayable",
      "type": "function"
    },
    {
      "inputs": [],
      "name": "quantumTransactions",
      "outputs": [
        {
          "internalType": "uint256",
          "name": "",
          "type": "uint256"
        }
      ],
      "stateMutability": "view",
      "type": "function"
    },
    {
      "inputs": [
        {
          "internalType": "address",
          "name": "_to",
          "type": "address"
        },
        {
          "internalType": "uint256",
          "name": "_amount",
          "type": "uint256"
        },
        {
          "internalType": "bytes",
          "name": "_quantumProof",
          "type": "bytes"
        }
      ],
      "name": "quantumTransfer",
      "outputs": [
        {
          "internalType": "bool",
          "name": "",
          "type": "bool"
        }
      ],
      "stateMutability": "nonpayable",
      "type": "function"
    },
    {
      "inputs": [
        {
          "internalType": "uint256",
          "name": "",
          "type": "uint256"
        }
      ],
      "name": "quantumTxs",
      "outputs": [
        {
          "internalType": "uint256",
          "name": "txId",
          "type": "uint256"
        },
        {
          "internalType": "address",
          "name": "from",
          "type": "address"
        },
        {
          "internalType": "address",
          "name": "to",
          "type": "address"
        },
        {
          "internalType": "uint256",
          "name": "amount",
          "type": "uint256"
        },
        {
          "internalType": "bytes32",
          "name": "quantumHash",
          "type": "bytes32"
        },
        {
          "internalType": "bytes",
          "name": "quantumSignature",
          "type": "bytes"
        },
        {
          "internalType": "uint256",
          "name": "timestamp",
          "type": "uint256"
        },
        {
          "internalType": "bool",
          "name": "verified",
          "type": "bool"
        }
      ],
      "stateMutability": "view",
      "type": "function"
    },
    {
      "inputs": [],
      "name": "renounceOwnership",
      "outputs": [],
      "stateMutability": "nonpayable",
      "type": "function"
    },
    {
      "inputs": [],
      "name": "reserves",
      "outputs": [
        {
          "internalType": "uint256",
          "name": "goldOunces",
          "type": "uint256"
        },
        {
          "internalType": "uint256",
          "name": "silverOunces",
          "type": "uint256"
        },
        {
          "internalType": "uint256",
          "name": "totalValue",
          "type": "uint256"
        },
        {
          "internalType": "uint256",
          "name": "lastAudit",
          "type": "uint256"
        }
      ],
      "stateMutability": "view",
      "type": "function"
    },
    {
      "inputs": [
        {
          "internalType": "address",
          "name": "_newVerifier",
          "type": "address"
        }
      ],
      "name": "setAIVerifier",
      "outputs": [],
      "stateMutability": "nonpayable",
      "type": "function"
    },
    {
      "inputs": [],
      "name": "symbol",
      "outputs": [
        {
          "internalType": "string",
          "name": "",
          "type": "string"
        }
      ],
      "stateMutability": "view",
      "type": "function"
    },
    {
      "inputs": [],
      "name": "totalSupply",
      "outputs": [
        {
          "internalType": "uint256",
          "name": "",
          "type": "uint256"
        }
      ],
      "stateMutability": "view",
      "type": "function"
    },
    {
      "inputs": [
        {
          "internalType": "address",
          "name": "recipient",
          "type": "address"
        },
        {
          "internalType": "uint256",
          "name": "amount",
          "type": "uint256"
        }
      ],
      "name": "transfer",
      "outputs": [
        {
          "internalType": "bool",
          "name": "",
          "type": "bool"
        }
      ],
      "stateMutability": "nonpayable",
      "type": "function"
    },
    {
      "inputs": [
        {
          "internalType": "address",
          "name": "sender",
          "type": "address"
        },
        {
          "internalType": "address",
          "name": "recipient",
          "type": "address"
        },
        {
          "internalType": "uint256",
          "name": "amount",
          "type": "uint256"
        }
      ],
      "name": "transferFrom",
      "outputs": [
        {
          "internalType": "bool",
          "name": "",
          "type": "bool"
        }
      ],
      "stateMutability": "nonpayable",
      "type": "function"
    },
    {
      "inputs": [
        {
          "internalType": "address",
          "name": "newOwner",
          "type": "address"
        }
      ],
      "name": "transferOwnership",
      "outputs": [],
      "stateMutability": "nonpayable",
      "type": "function"
    },
    {
      "inputs": [
        {
          "internalType": "uint256",
          "name": "_goldOunces",
          "type": "uint256"
        },
        {
          "internalType": "uint256",
          "name": "_silverOunces",
          "type": "uint256"
        },
        {
          "internalType": "uint256",
          "name": "_totalValue",
          "type": "uint256"
        }
      ],
      "name": "updateReserves",
      "outputs": [],
      "stateMutability": "nonpayable",
      "type": "function"
    },
    {
      "inputs": [
        {
          "internalType": "bytes32",
          "name": "",
          "type": "bytes32"
        }
      ],
      "name": "verifiedMints",
      "outputs": [
        {
          "internalType": "bool",
          "name": "",
          "type": "bool"
        }
      ],
      "stateMutability": "view",
      "type": "function"
    }
  ],
  "bytecode": "0x60806040523480156200001157600080fd5b5060405162004f4738038062004f4783398181016040528101906200003791906200048a565b826040518060400160405280600981526020017f474f4420546f6b656e00000000000000000000000000000000000000000000008152506040518060400160405280600381526020017f474f4400000000000000000000000000000000000000000000000000000000008152508160039081620000b5919062000760565b508060049081620000c7919062000760565b505050620000ea620000de620001db60201b60201c565b620001e360201b60201c565b600160068190555080600b60006101000a81548173ffffffffffffffffffffffffffffffffffffffff021916908373ffffffffffffffffffffffffffffffffffffffff1602179055506200014f3369d3c21bcecceda1000000620002a960201b60201c565b5081600d60006101000a81548173ffffffffffffffffffffffffffffffffffffffff021916908373ffffffffffffffffffffffffffffffffffffffff16021790555080600e60006101000a81548173ffffffffffffffffffffffffffffffffffffffff021916908373ffffffffffffffffffffffffffffffffffffffff16021790555050505062000962565b600033905090565b6000600560009054906101000a900473ffffffffffffffffffffffffffffffffffffffff16905081600560006101000a81548173ffffffffffffffffffffffffffffffffffffffff021916908373ffffffffffffffffffffffffffffffffffffffff1602179055508173ffffffffffffffffffffffffffffffffffffffff168173ffffffffffffffffffffffffffffffffffffffff167f8be0079c531659141344cd1fd0a4f28419497f9722a3daafe3b4186f6b6457e060405160405180910390a35050565b600073ffffffffffffffffffffffffffffffffffffffff168273ffffffffffffffffffffffffffffffffffffffff16036200031b576040517f08c379a00000000000000000000000000000000000000000000000000000000081526004016200031290620008a8565b60405180910390fd5b6200032f600083836200041660201b60201c565b8060026000828254620003439190620008f9565b92505081905550806000808473ffffffffffffffffffffffffffffffffffffffff1673ffffffffffffffffffffffffffffffffffffffff168152602001908152602001600020600082825401925050819055508173ffffffffffffffffffffffffffffffffffffffff16600073ffffffffffffffffffffffffffffffffffffffff167fddf252ad1be2c89b69c2b068fc378daa952ba7f163c4a11628f55a4df523b3ef83604051620003f6919062000945565b60405180910390a362000412600083836200041b60201b60201c565b5050565b505050565b505050565b600080fd5b600073ffffffffffffffffffffffffffffffffffffffff82169050919050565b6000620004528262000425565b9050919050565b620004648162000445565b81146200047057600080fd5b50565b600081519050620004848162000459565b92915050565b600080600060608486031215620004a657620004a562000420565b5b6000620004b68682870162000473565b9350506020620004c98682870162000473565b9250506040620004dc8682870162000473565b9150509250925092565b600081519050919050565b7f4e487b7100000000000000000000000000000000000000000000000000000000600052604160045260246000fd5b7f4e487b7100000000000000000000000000000000000000000000000000000000600052602260045260246000fd5b600060028204905060018216806200056857607f821691505b6020821081036200057e576200057d62000520565b5b50919050565b60008190508160005260206000209050919050565b60006020601f8301049050919050565b600082821b905092915050565b600060088302620005e87fffffffffffffffffffffffffffffffffffffffffffffffffffffffffffffffff82620005a9565b620005f48683620005a9565b95508019841693508086168417925050509392505050565b6000819050919050565b6000819050919050565b6000620006416200063b62000635846200060c565b62000616565b6200060c565b9050919050565b6000819050919050565b6200065d8362000620565b620006756200066c8262000648565b848454620005b6565b825550505050565b600090565b6200068c6200067d565b6200069981848462000652565b505050565b5b81811015620006c157620006b560008262000682565b6001810190506200069f565b5050565b601f8211156200071057620006da8162000584565b620006e58462000599565b81016020851015620006f5578190505b6200070d620007048562000599565b8301826200069e565b50505b505050565b600082821c905092915050565b6000620007356000198460080262000715565b1980831691505092915050565b600062000750838362000722565b9150826002028217905092915050565b6200076b82620004e6565b67ffffffffffffffff811115620007875762000786620004f1565b5b6200079382546200054f565b620007a0828285620006c5565b600060209050601f831160018114620007d85760008415620007c3578287015190505b620007cf858262000742565b8655506200083f565b601f198416620007e88662000584565b60005b828110156200081257848901518255600182019150602085019450602081019050620007eb565b868310156200083257848901516200082e601f89168262000722565b8355505b6001600288020188555050505b505050505050565b600082825260208201905092915050565b7f45524332303a206d696e7420746f20746865207a65726f206164647265737300600082015250565b600062000890601f8362000847565b91506200089d8262000858565b602082019050919050565b60006020820190508181036000830152620008c38162000881565b9050919050565b7f4e487b7100000000000000000000000000000000000000000000000000000000600052601160045260246000fd5b600062000906826200060c565b915062000913836200060c565b92508282019050808211156200092e576200092d620008ca565b5b92915050565b6200093f816200060c565b82525050565b60006020820190506200095c600083018462000934565b92915050565b6145d580620009726000396000f3fe608060405234801561001057600080fd5b50600436106102265760003560e01c80638a79d3e511610130578063d56926a0116100b8578063f2dccc381161007c578063f2dccc381461069b578063f2fde38b146106d2578063f8bf9589146106ee578063fa3abf0f1461070a578063fe3d20e41461072857610226565b8063d56926a0146105ca578063dd62ed3e146105e8578063e913049314610618578063ea6552491461064d578063ed7b59f71461066b57610226565b8063a138bfd6116100ff578063a138bfd614610512578063a457c2d71461052e578063a9059cbb1461055e578063c125032d1461058e578063c6b89626146105ac57610226565b80638a79d3e5146104885780638da5cb5b146104a657806395d89b41146104c45780639c2cc931146104e257610226565b806339509351116101b357806370a082311161018257806370a08231146103df578063715018a61461040f578063746ac8061461041957806375172a8b14610449578063797a0f281461046a57610226565b8063395093511461035957806342966c68146103895780636148813c146103a55780636e4e15b9146103c157610226565b8063218f86f5116101fa578063218f86f5146102b557806323b872dd146102d157806330b802a314610301578063313ce5671461031d57806332cb6b0c1461033b57610226565b80620d90731461022b57806306fdde0314610249578063095ea7b31461026757806318160ddd14610297575b600080fd5b610233610758565b6040516102409190612944565b60405180910390f35b61025161075d565b60405161025e91906129ef565b60405180910390f35b610281600480360381019061027c9190612aaf565b6107ef565b60405161028e9190612b0a565b60405180910390f35b61029f610812565b6040516102ac9190612944565b60405180910390f35b6102cf60048036038101906102ca9190612c5a565b61081c565b005b6102eb60048036038101906102e69190612cdd565b610b96565b6040516102f89190612b0a565b60405180910390f35b61031b60048036038101906103169190612d30565b610bac565b005b610325610d0d565b6040516103329190612da8565b60405180910390f35b610343610d16565b6040516103509190612944565b60405180910390f35b610373600480360381019061036e9190612aaf565b610d26565b6040516103809190612b0a565b60405180910390f35b6103a3600480360381019061039e9190612dc3565b610d5d565b005b6103bf60048036038101906103ba9190612df0565b610e54565b005b6103c9610eea565b6040516103d69190612e52565b60405180910390f35b6103f960048036038101906103f49190612e6d565b610f10565b6040516104069190612944565b60405180910390f35b610417610f58565b005b610433600480360381019061042e9190612e9a565b610f6c565b6040516104409190612b0a565b60405180910390f35b610451611296565b6040516104619493929190612f09565b60405180910390f35b6104726112b4565b60405161047f9190612944565b60405180910390f35b6104906112ba565b60405161049d9190612944565b60405180910390f35b6104ae611304565b6040516104bb9190612e52565b60405180910390f35b6104cc61132e565b6040516104d991906129ef565b60405180910390f35b6104fc60048036038101906104f79190612f84565b6113c0565b6040516105099190612b0a565b60405180910390f35b61052c60048036038101906105279190612fb1565b6113e0565b005b61054860048036038101906105439190612aaf565b611685565b6040516105559190612b0a565b60405180910390f35b61057860048036038101906105739190612aaf565b6116fc565b6040516105859190612b0a565b60405180910390f35b610596611710565b6040516105a39190612944565b60405180910390f35b6105b461171a565b6040516105c19190613063565b60405180910390f35b6105d2611740565b6040516105df9190612944565b60405180910390f35b61060260048036038101906105fd919061307e565b61174c565b60405161060f9190612944565b60405180910390f35b610632600480360381019061062d9190612dc3565b6117d3565b604051610644969594939291906130cd565b60405180910390f35b6106556119b4565b604051610662919061314f565b60405180910390f35b61068560048036038101906106809190612f84565b6119da565b6040516106929190612b0a565b60405180910390f35b6106b560048036038101906106b09190612dc3565b611a04565b6040516106c99897969594939291906131bf565b60405180910390f35b6106ec60048036038101906106e79190612e6d565b611b21565b005b61070860048036038101906107039190612e6d565b611ba4565b005b610712611bf0565b60405161071f9190612944565b60405180910390f35b610742600480360381019061073d9190612f84565b611bf5565b60405161074f9190612b0a565b60405180910390f35b606481565b60606003805461076c90613273565b80601f016020809104026020016040519081016040528092919081815260200182805461079890613273565b80156107e55780601f106107ba576101008083540402835291602001916107e5565b820191906000526020600020905b8154815290600101906020018083116107c857829003601f168201915b5050505050905090565b6000806107fa611c15565b9050610807818585611c1d565b600191505092915050565b6000600254905090565b600b60009054906101000a900473ffffffffffffffffffffffffffffffffffffffff1673ffffffffffffffffffffffffffffffffffffffff163373ffffffffffffffffffffffffffffffffffffffff16146108ac576040517f08c379a00000000000000000000000000000000000000000000000000000000081526004016108a3906132f0565b60405180910390fd5b600080600080600e60009054906101000a900473ffffffffffffffffffffffffffffffffffffffff1673ffffffffffffffffffffffffffffffffffffffff1663d1fddfdf876040518263ffffffff1660e01b815260040161090d9190612944565b608060405180830381865afa15801561092a573d6000803e3d6000fd5b505050506040513d601f19601f8201168201806040525081019061094e9190613366565b935093509350935083610996576040517f08c379a000000000000000000000000000000000000000000000000000000000815260040161098d90613419565b60405180910390fd5b60558310156109da576040517f08c379a00000000000000000000000000000000000000000000000000000000081526004016109d190613485565b60405180910390fd5b6055821015610a1e576040517f08c379a0000000000000000000000000000000000000000000000000000000008152600401610a15906134f1565b60405180910390fd5b600088888342604051602001610a379493929190613511565b604051602081830303815290604052805190602001209050610a598682611de6565b610a98576040517f08c379a0000000000000000000000000000000000000000000000000000000008152600401610a8f906135a2565b60405180910390fd5b6000670de0b6b3a764000060648a610ab091906135f1565b610aba9190613662565b9050806007600201541015610b04576040517f08c379a0000000000000000000000000000000000000000000000000000000008152600401610afb906136df565b60405180910390fd5b610b0e8a8a611ebb565b6001600c600085815260200190815260200160002060006101000a81548160ff0219169083151502179055508973ffffffffffffffffffffffffffffffffffffffff167f7369d801113c713520ca653010d32c6bcd6778f0ffb3df0bc9efb8d85b687e448a85604051610b829291906136ff565b60405180910390a250505050505050505050565b6000610ba3848484612011565b90509392505050565b81610bb633610f10565b1015610bf7576040517f08c379a0000000000000000000000000000000000000000000000000000000008152600401610bee90613774565b60405180910390fd5b6000338342604051602001610c0e939291906137e0565b604051602081830303815290604052805190602001209050610c308282612040565b610c6f576040517f08c379a0000000000000000000000000000000000000000000000000000000008152600401610c6690613876565b60405180910390fd5b610c79338461211c565b6000670de0b6b3a7640000606485610c9191906135f1565b610c9b9190613662565b90508060076002016000828254610cb29190613896565b925050819055503373ffffffffffffffffffffffffffffffffffffffff167ffd38818f5291bf0bb3a2a48aadc06ba8757865d1dabd804585338aab3009dcb685604051610cff9190612944565b60405180910390a250505050565b60006012905090565b6b033b2e3c9fd0803ce800000081565b600080610d31611c15565b9050610d52818585610d43858961174c565b610d4d91906138ca565b611c1d565b600191505092915050565b610d656122e9565b80610d6f33610f10565b1015610db0576040517f08c379a0000000000000000000000000000000000000000000000000000000008152600401610da790613774565b60405180910390fd5b610dba338261211c565b6000670de0b6b3a7640000606483610dd291906135f1565b610ddc9190613662565b90508060076002016000828254610df39190613896565b925050819055503373ffffffffffffffffffffffffffffffffffffffff167ffd38818f5291bf0bb3a2a48aadc06ba8757865d1dabd804585338aab3009dcb683604051610e409190612944565b60405180910390a250610e51612338565b50565b610e5c612342565b6040518060800160405280848152602001838152602001828152602001428152506007600082015181600001556020820151816001015560408201518160020155606082015181600301559050507f4a37f90278ca7b5205e43068141e76ab67aef6562b0d2e77a5cf6abdce6c92e8838383604051610edd939291906138fe565b60405180910390a1505050565b600b60009054906101000a900473ffffffffffffffffffffffffffffffffffffffff1681565b60008060008373ffffffffffffffffffffffffffffffffffffffff1673ffffffffffffffffffffffffffffffffffffffff168152602001908152602001600020549050919050565b610f60612342565b610f6a60006123c0565b565b600082610f7833610f10565b1015610fb9576040517f08c379a0000000000000000000000000000000000000000000000000000000008152600401610fb090613774565b60405180910390fd5b600033858542600f54604051602001610fd6959493929190613935565b604051602081830303815290604052805190602001209050600061101a8285604051602001611006929190613988565b604051602081830303815290604052612486565b90506110268483612497565b611065576040517f08c379a000000000000000000000000000000000000000000000000000000000815260040161105c90613a04565b60405180910390fd5b6110703387876125fc565b6000600f600081548092919061108590613a24565b9190505590506040518061010001604052808281526020013373ffffffffffffffffffffffffffffffffffffffff1681526020018873ffffffffffffffffffffffffffffffffffffffff16815260200187815260200183815260200186815260200142815260200160011515815250601060008381526020019081526020016000206000820151816000015560208201518160010160006101000a81548173ffffffffffffffffffffffffffffffffffffffff021916908373ffffffffffffffffffffffffffffffffffffffff16021790555060408201518160020160006101000a81548173ffffffffffffffffffffffffffffffffffffffff021916908373ffffffffffffffffffffffffffffffffffffffff160217905550606082015181600301556080820151816004015560a08201518160050190816111c89190613c0e565b5060c0820151816006015560e08201518160070160006101000a81548160ff02191690831515021790555090505060016011600084815260200190815260200160002060006101000a81548160ff0219169083151502179055508673ffffffffffffffffffffffffffffffffffffffff163373ffffffffffffffffffffffffffffffffffffffff16827fa735b624e6862d227bf498a406eb585d4ef733711f3d4d7c82365c7dfd2df8e7896040516112809190612944565b60405180910390a4600193505050509392505050565b60078060000154908060010154908060020154908060030154905084565b600f5481565b6000806112c5610812565b036112d35760009050611301565b6112db610812565b670de0b6b3a76400006007600201546112f491906135f1565b6112fe9190613662565b90505b90565b6000600560009054906101000a900473ffffffffffffffffffffffffffffffffffffffff16905090565b60606004805461133d90613273565b80601f016020809104026020016040519081016040528092919081815260200182805461136990613273565b80156113b65780601f1061138b576101008083540402835291602001916113b6565b820191906000526020600020905b81548152906001019060200180831161139957829003601f168201915b5050505050905090565b600c6020528060005260406000206000915054906101000a900460ff1681565b6113e86122e9565b600b60009054906101000a900473ffffffffffffffffffffffffffffffffffffffff1673ffffffffffffffffffffffffffffffffffffffff163373ffffffffffffffffffffffffffffffffffffffff1614611478576040517f08c379a000000000000000000000000000000000000000000000000000000000815260040161146f906132f0565b60405180910390fd5b670de0b6b3a76400008210156114c3576040517f08c379a00000000000000000000000000000000000000000000000000000000081526004016114ba90613d2c565b60405180910390fd5b6b033b2e3c9fd0803ce8000000826114d9610812565b6114e391906138ca565b1115611524576040517f08c379a000000000000000000000000000000000000000000000000000000000815260040161151b90613d98565b60405180910390fd5b600c600082815260200190815260200160002060009054906101000a900460ff1615611585576040517f08c379a000000000000000000000000000000000000000000000000000000000815260040161157c90613e04565b60405180910390fd5b6000670de0b6b3a764000060648461159d91906135f1565b6115a79190613662565b90508060076002015410156115f1576040517f08c379a00000000000000000000000000000000000000000000000000000000081526004016115e8906136df565b60405180910390fd5b6001600c600084815260200190815260200160002060006101000a81548160ff0219169083151502179055506116278484611ebb565b8373ffffffffffffffffffffffffffffffffffffffff167f7369d801113c713520ca653010d32c6bcd6778f0ffb3df0bc9efb8d85b687e44848460405161166f9291906136ff565b60405180910390a250611680612338565b505050565b600080611690611c15565b9050600061169e828661174c565b9050838110156116e3576040517f08c379a00000000000000000000000000000000000000000000000000000000081526004016116da90613e96565b60405180910390fd5b6116f08286868403611c1d565b60019250505092915050565b60006117088383612872565b905092915050565b6000600f54905090565b600d60009054906101000a900473ffffffffffffffffffffffffffffffffffffffff1681565b670de0b6b3a764000081565b6000600160008473ffffffffffffffffffffffffffffffffffffffff1673ffffffffffffffffffffffffffffffffffffffff16815260200190815260200160002060008373ffffffffffffffffffffffffffffffffffffffff1673ffffffffffffffffffffffffffffffffffffffff16815260200190815260200160002054905092915050565b60008060008060008060006010600089815260200190815260200160002060405180610100016040529081600082015481526020016001820160009054906101000a900473ffffffffffffffffffffffffffffffffffffffff1673ffffffffffffffffffffffffffffffffffffffff1673ffffffffffffffffffffffffffffffffffffffff1681526020016002820160009054906101000a900473ffffffffffffffffffffffffffffffffffffffff1673ffffffffffffffffffffffffffffffffffffffff1673ffffffffffffffffffffffffffffffffffffffff16815260200160038201548152602001600482015481526020016005820180546118d790613273565b80601f016020809104026020016040519081016040528092919081815260200182805461190390613273565b80156119505780601f1061192557610100808354040283529160200191611950565b820191906000526020600020905b81548152906001019060200180831161193357829003601f168201915b50505050508152602001600682015481526020016007820160009054906101000a900460ff161515151581525050905080602001518160400151826060015183608001518460c001518560e001519650965096509650965096505091939550919395565b600e60009054906101000a900473ffffffffffffffffffffffffffffffffffffffff1681565b60006011600083815260200190815260200160002060009054906101000a900460ff169050919050565b60106020528060005260406000206000915090508060000154908060010160009054906101000a900473ffffffffffffffffffffffffffffffffffffffff16908060020160009054906101000a900473ffffffffffffffffffffffffffffffffffffffff1690806003015490806004015490806005018054611a8590613273565b80601f0160208091040260200160405190810160405280929190818152602001828054611ab190613273565b8015611afe5780601f10611ad357610100808354040283529160200191611afe565b820191906000526020600020905b815481529060010190602001808311611ae157829003601f168201915b5050505050908060060154908060070160009054906101000a900460ff16905088565b611b29612342565b600073ffffffffffffffffffffffffffffffffffffffff168173ffffffffffffffffffffffffffffffffffffffff1603611b98576040517f08c379a0000000000000000000000000000000000000000000000000000000008152600401611b8f90613f28565b60405180910390fd5b611ba1816123c0565b50565b611bac612342565b80600b60006101000a81548173ffffffffffffffffffffffffffffffffffffffff021916908373ffffffffffffffffffffffffffffffffffffffff16021790555050565b605581565b60116020528060005260406000206000915054906101000a900460ff1681565b600033905090565b600073ffffffffffffffffffffffffffffffffffffffff168373ffffffffffffffffffffffffffffffffffffffff1603611c8c576040517f08c379a0000000000000000000000000000000000000000000000000000000008152600401611c8390613fba565b60405180910390fd5b600073ffffffffffffffffffffffffffffffffffffffff168273ffffffffffffffffffffffffffffffffffffffff1603611cfb576040517f08c379a0000000000000000000000000000000000000000000000000000000008152600401611cf29061404c565b60405180910390fd5b80600160008573ffffffffffffffffffffffffffffffffffffffff1673ffffffffffffffffffffffffffffffffffffffff16815260200190815260200160002060008473ffffffffffffffffffffffffffffffffffffffff1673ffffffffffffffffffffffffffffffffffffffff168152602001908152602001600020819055508173ffffffffffffffffffffffffffffffffffffffff168373ffffffffffffffffffffffffffffffffffffffff167f8c5be1e5ebec7d5bd14f71427d1e84f3dd0314c0f7b2291e5b200ac8c7c3b92583604051611dd99190612944565b60405180910390a3505050565b600080838330604051602001611dfe9392919061406c565b60405160208183030381529060405280519060200120905060008160001c9050600d60009054906101000a900473ffffffffffffffffffffffffffffffffffffffff1673ffffffffffffffffffffffffffffffffffffffff1663201a46ad6040518163ffffffff1660e01b8152600401602060405180830381865afa158015611e8b573d6000803e3d6000fd5b505050506040513d601f19601f82011682018060405250810190611eaf91906140aa565b81109250505092915050565b600073ffffffffffffffffffffffffffffffffffffffff168273ffffffffffffffffffffffffffffffffffffffff1603611f2a576040517f08c379a0000000000000000000000000000000000000000000000000000000008152600401611f2190614123565b60405180910390fd5b611f3660008383612895565b8060026000828254611f4891906138ca565b92505081905550806000808473ffffffffffffffffffffffffffffffffffffffff1673ffffffffffffffffffffffffffffffffffffffff168152602001908152602001600020600082825401925050819055508173ffffffffffffffffffffffffffffffffffffffff16600073ffffffffffffffffffffffffffffffffffffffff167fddf252ad1be2c89b69c2b068fc378daa952ba7f163c4a11628f55a4df523b3ef83604051611ff99190612944565b60405180910390a361200d6000838361289a565b5050565b60008061201c611c15565b905061202985828561289f565b6120348585856125fc565b60019150509392505050565b600080838361204d610812565b60405160200161205f93929190614143565b60405160208183030381529060405280519060200120905060008160001c9050600d60009054906101000a900473ffffffffffffffffffffffffffffffffffffffff1673ffffffffffffffffffffffffffffffffffffffff1663201a46ad6040518163ffffffff1660e01b8152600401602060405180830381865afa1580156120ec573d6000803e3d6000fd5b505050506040513d601f19601f8201168201806040525081019061211091906140aa565b81109250505092915050565b600073ffffffffffffffffffffffffffffffffffffffff168273ffffffffffffffffffffffffffffffffffffffff160361218b576040517f08c379a0000000000000000000000000000000000000000000000000000000008152600401612182906141f3565b60405180910390fd5b61219782600083612895565b60008060008473ffffffffffffffffffffffffffffffffffffffff1673ffffffffffffffffffffffffffffffffffffffff1681526020019081526020016000205490508181101561221d576040517f08c379a000000000000000000000000000000000000000000000000000000000815260040161221490614285565b60405180910390fd5b8181036000808573ffffffffffffffffffffffffffffffffffffffff1673ffffffffffffffffffffffffffffffffffffffff1681526020019081526020016000208190555081600260008282540392505081905550600073ffffffffffffffffffffffffffffffffffffffff168373ffffffffffffffffffffffffffffffffffffffff167fddf252ad1be2c89b69c2b068fc378daa952ba7f163c4a11628f55a4df523b3ef846040516122d09190612944565b60405180910390a36122e48360008461289a565b505050565b60026006540361232e576040517f08c379a0000000000000000000000000000000000000000000000000000000008152600401612325906142f1565b60405180910390fd5b6002600681905550565b6001600681905550565b61234a611c15565b73ffffffffffffffffffffffffffffffffffffffff16612368611304565b73ffffffffffffffffffffffffffffffffffffffff16146123be576040517f08c379a00000000000000000000000000000000000000000000000000000000081526004016123b59061435d565b60405180910390fd5b565b6000600560009054906101000a900473ffffffffffffffffffffffffffffffffffffffff16905081600560006101000a81548173ffffffffffffffffffffffffffffffffffffffff021916908373ffffffffffffffffffffffffffffffffffffffff1602179055508173ffffffffffffffffffffffffffffffffffffffff168173ffffffffffffffffffffffffffffffffffffffff167f8be0079c531659141344cd1fd0a4f28419497f9722a3daafe3b4186f6b6457e060405160405180910390a35050565b600081805190602001209050919050565b6000808383600d60009054906101000a900473ffffffffffffffffffffffffffffffffffffffff1673ffffffffffffffffffffffffffffffffffffffff1663375736f16040518163ffffffff1660e01b8152600401602060405180830381865afa158015612509573d6000803e3d6000fd5b505050506040513d601f19601f8201168201806040525081019061252d91906140aa565b60405160200161253f93929190614143565b60405160208183030381529060405280519060200120905060008160001c9050600d60009054906101000a900473ffffffffffffffffffffffffffffffffffffffff1673ffffffffffffffffffffffffffffffffffffffff1663201a46ad6040518163ffffffff1660e01b8152600401602060405180830381865afa1580156125cc573d6000803e3d6000fd5b505050506040513d601f19601f820116820180604052508101906125f091906140aa565b81109250505092915050565b600073ffffffffffffffffffffffffffffffffffffffff168373ffffffffffffffffffffffffffffffffffffffff160361266b576040517f08c379a0000000000000000000000000000000000000000000000000000000008152600401612662906143ef565b60405180910390fd5b600073ffffffffffffffffffffffffffffffffffffffff168273ffffffffffffffffffffffffffffffffffffffff16036126da576040517f08c379a00000000000000000000000000000000000000000000000000000000081526004016126d190614481565b60405180910390fd5b6126e5838383612895565b60008060008573ffffffffffffffffffffffffffffffffffffffff1673ffffffffffffffffffffffffffffffffffffffff1681526020019081526020016000205490508181101561276b576040517f08c379a000000000000000000000000000000000000000000000000000000000815260040161276290614513565b60405180910390fd5b8181036000808673ffffffffffffffffffffffffffffffffffffffff1673ffffffffffffffffffffffffffffffffffffffff16815260200190815260200160002081905550816000808573ffffffffffffffffffffffffffffffffffffffff1673ffffffffffffffffffffffffffffffffffffffff168152602001908152602001600020600082825401925050819055508273ffffffffffffffffffffffffffffffffffffffff168473ffffffffffffffffffffffffffffffffffffffff167fddf252ad1be2c89b69c2b068fc378daa952ba7f163c4a11628f55a4df523b3ef846040516128599190612944565b60405180910390a361286c84848461289a565b50505050565b60008061287d611c15565b905061288a8185856125fc565b600191505092915050565b505050565b505050565b60006128ab848461174c565b90507fffffffffffffffffffffffffffffffffffffffffffffffffffffffffffffffff81146129255781811015612917576040517f08c379a000000000000000000000000000000000000000000000000000000000815260040161290e9061457f565b60405180910390fd5b6129248484848403611c1d565b5b50505050565b6000819050919050565b61293e8161292b565b82525050565b60006020820190506129596000830184612935565b92915050565b600081519050919050565b600082825260208201905092915050565b60005b8381101561299957808201518184015260208101905061297e565b60008484015250505050565b6000601f19601f8301169050919050565b60006129c18261295f565b6129cb818561296a565b93506129db81856020860161297b565b6129e4816129a5565b840191505092915050565b60006020820190508181036000830152612a0981846129b6565b905092915050565b6000604051905090565b600080fd5b600080fd5b600073ffffffffffffffffffffffffffffffffffffffff82169050919050565b6000612a5082612a25565b9050919050565b612a6081612a45565b8114612a6b57600080fd5b50565b600081359050612a7d81612a57565b92915050565b612a8c8161292b565b8114612a9757600080fd5b50565b600081359050612aa981612a83565b92915050565b60008060408385031215612ac657612ac5612a1b565b5b6000612ad485828601612a6e565b9250506020612ae585828601612a9a565b9150509250929050565b60008115159050919050565b612b0481612aef565b82525050565b6000602082019050612b1f6000830184612afb565b92915050565b600080fd5b600080fd5b7f4e487b7100000000000000000000000000000000000000000000000000000000600052604160045260246000fd5b612b67826129a5565b810181811067ffffffffffffffff82111715612b8657612b85612b2f565b5b80604052505050565b6000612b99612a11565b9050612ba58282612b5e565b919050565b600067ffffffffffffffff821115612bc557612bc4612b2f565b5b612bce826129a5565b9050602081019050919050565b82818337600083830152505050565b6000612bfd612bf884612baa565b612b8f565b905082815260208101848484011115612c1957612c18612b2a565b5b612c24848285612bdb565b509392505050565b600082601f830112612c4157612c40612b25565b5b8135612c51848260208601612bea565b91505092915050565b60008060008060808587031215612c7457612c73612a1b565b5b6000612c8287828801612a6e565b9450506020612c9387828801612a9a565b9350506040612ca487828801612a9a565b925050606085013567ffffffffffffffff811115612cc557612cc4612a20565b5b612cd187828801612c2c565b91505092959194509250565b600080600060608486031215612cf657612cf5612a1b565b5b6000612d0486828701612a6e565b9350506020612d1586828701612a6e565b9250506040612d2686828701612a9a565b9150509250925092565b60008060408385031215612d4757612d46612a1b565b5b6000612d5585828601612a9a565b925050602083013567ffffffffffffffff811115612d7657612d75612a20565b5b612d8285828601612c2c565b9150509250929050565b600060ff82169050919050565b612da281612d8c565b82525050565b6000602082019050612dbd6000830184612d99565b92915050565b600060208284031215612dd957612dd8612a1b565b5b6000612de784828501612a9a565b91505092915050565b600080600060608486031215612e0957612e08612a1b565b5b6000612e1786828701612a9a565b9350506020612e2886828701612a9a565b9250506040612e3986828701612a9a565b9150509250925092565b612e4c81612a45565b82525050565b6000602082019050612e676000830184612e43565b92915050565b600060208284031215612e8357612e82612a1b565b5b6000612e9184828501612a6e565b91505092915050565b600080600060608486031215612eb357612eb2612a1b565b5b6000612ec186828701612a6e565b9350506020612ed286828701612a9a565b925050604084013567ffffffffffffffff811115612ef357612ef2612a20565b5b612eff86828701612c2c565b9150509250925092565b6000608082019050612f1e6000830187612935565b612f2b6020830186612935565b612f386040830185612935565b612f456060830184612935565b95945050505050565b6000819050919050565b612f6181612f4e565b8114612f6c57600080fd5b50565b600081359050612f7e81612f58565b92915050565b600060208284031215612f9a57612f99612a1b565b5b6000612fa884828501612f6f565b91505092915050565b600080600060608486031215612fca57612fc9612a1b565b5b6000612fd886828701612a6e565b9350506020612fe986828701612a9a565b9250506040612ffa86828701612f6f565b9150509250925092565b6000819050919050565b600061302961302461301f84612a25565b613004565b612a25565b9050919050565b600061303b8261300e565b9050919050565b600061304d82613030565b9050919050565b61305d81613042565b82525050565b60006020820190506130786000830184613054565b92915050565b6000806040838503121561309557613094612a1b565b5b60006130a385828601612a6e565b92505060206130b485828601612a6e565b9150509250929050565b6130c781612f4e565b82525050565b600060c0820190506130e26000830189612e43565b6130ef6020830188612e43565b6130fc6040830187612935565b61310960608301866130be565b6131166080830185612935565b61312360a0830184612afb565b979650505050505050565b600061313982613030565b9050919050565b6131498161312e565b82525050565b60006020820190506131646000830184613140565b92915050565b600081519050919050565b600082825260208201905092915050565b60006131918261316a565b61319b8185613175565b93506131ab81856020860161297b565b6131b4816129a5565b840191505092915050565b6000610100820190506131d5600083018b612935565b6131e2602083018a612e43565b6131ef6040830189612e43565b6131fc6060830188612935565b61320960808301876130be565b81810360a083015261321b8186613186565b905061322a60c0830185612935565b61323760e0830184612afb565b9998505050505050505050565b7f4e487b7100000000000000000000000000000000000000000000000000000000600052602260045260246000fd5b6000600282049050600182168061328b57607f821691505b60208210810361329e5761329d613244565b5b50919050565b7f4f6e6c792041492076657269666965722063616e206d696e7400000000000000600082015250565b60006132da60198361296a565b91506132e5826132a4565b602082019050919050565b60006020820190508181036000830152613309816132cd565b9050919050565b61331981612aef565b811461332457600080fd5b50565b60008151905061333681613310565b92915050565b60008151905061334b81612a83565b92915050565b60008151905061336081612f58565b92915050565b600080600080608085870312156133805761337f612a1b565b5b600061338e87828801613327565b945050602061339f8782880161333c565b93505060406133b08782880161333c565b92505060606133c187828801613351565b91505092959194509250565b7f414920766572696669636174696f6e206661696c656400000000000000000000600082015250565b600061340360168361296a565b915061340e826133cd565b602082019050919050565b60006020820190508181036000830152613432816133f6565b9050919050565b7f414920636f6e666964656e636520746f6f206c6f770000000000000000000000600082015250565b600061346f60158361296a565b915061347a82613439565b602082019050919050565b6000602082019050818103600083015261349e81613462565b9050919050565b7f5175616e74756d20636f6e666964656e636520746f6f206c6f77000000000000600082015250565b60006134db601a8361296a565b91506134e6826134a5565b602082019050919050565b6000602082019050818103600083015261350a816134ce565b9050919050565b60006080820190506135266000830187612e43565b6135336020830186612935565b61354060408301856130be565b61354d6060830184612935565b95945050505050565b7f496e76616c6964207175616e74756d206d696e742070726f6f66000000000000600082015250565b600061358c601a8361296a565b915061359782613556565b602082019050919050565b600060208201905081810360008301526135bb8161357f565b9050919050565b7f4e487b7100000000000000000000000000000000000000000000000000000000600052601160045260246000fd5b60006135fc8261292b565b91506136078361292b565b92508282026136158161292b565b9150828204841483151761362c5761362b6135c2565b5b5092915050565b7f4e487b7100000000000000000000000000000000000000000000000000000000600052601260045260246000fd5b600061366d8261292b565b91506136788361292b565b92508261368857613687613633565b5b828204905092915050565b7f496e73756666696369656e74206d6574616c2072657365727665730000000000600082015250565b60006136c9601b8361296a565b91506136d482613693565b602082019050919050565b600060208201905081810360008301526136f8816136bc565b9050919050565b60006040820190506137146000830185612935565b61372160208301846130be565b9392505050565b7f496e73756666696369656e742062616c616e6365000000000000000000000000600082015250565b600061375e60148361296a565b915061376982613728565b602082019050919050565b6000602082019050818103600083015261378d81613751565b9050919050565b7f4255524e00000000000000000000000000000000000000000000000000000000600082015250565b60006137ca60048361296a565b91506137d582613794565b602082019050919050565b60006080820190506137f56000830186612e43565b6138026020830185612935565b61380f6040830184612935565b8181036060830152613820816137bd565b9050949350505050565b7f496e76616c6964207175616e74756d206275726e2070726f6f66000000000000600082015250565b6000613860601a8361296a565b915061386b8261382a565b602082019050919050565b6000602082019050818103600083015261388f81613853565b9050919050565b60006138a18261292b565b91506138ac8361292b565b92508282039050818111156138c4576138c36135c2565b5b92915050565b60006138d58261292b565b91506138e08361292b565b92508282019050808211156138f8576138f76135c2565b5b92915050565b60006060820190506139136000830186612935565b6139206020830185612935565b61392d6040830184612935565b949350505050565b600060a08201905061394a6000830188612e43565b6139576020830187612e43565b6139646040830186612935565b6139716060830185612935565b61397e6080830184612935565b9695505050505050565b600060408201905061399d60008301856130be565b81810360208301526139af8184613186565b90509392505050565b7f496e76616c6964207175616e74756d2070726f6f660000000000000000000000600082015250565b60006139ee60158361296a565b91506139f9826139b8565b602082019050919050565b60006020820190508181036000830152613a1d816139e1565b9050919050565b6000613a2f8261292b565b91507fffffffffffffffffffffffffffffffffffffffffffffffffffffffffffffffff8203613a6157613a606135c2565b5b600182019050919050565b60008190508160005260206000209050919050565b60006020601f8301049050919050565b600082821b905092915050565b600060088302613ace7fffffffffffffffffffffffffffffffffffffffffffffffffffffffffffffffff82613a91565b613ad88683613a91565b95508019841693508086168417925050509392505050565b6000613b0b613b06613b018461292b565b613004565b61292b565b9050919050565b6000819050919050565b613b2583613af0565b613b39613b3182613b12565b848454613a9e565b825550505050565b600090565b613b4e613b41565b613b59818484613b1c565b505050565b5b81811015613b7d57613b72600082613b46565b600181019050613b5f565b5050565b601f821115613bc257613b9381613a6c565b613b9c84613a81565b81016020851015613bab578190505b613bbf613bb785613a81565b830182613b5e565b50505b505050565b600082821c905092915050565b6000613be560001984600802613bc7565b1980831691505092915050565b6000613bfe8383613bd4565b9150826002028217905092915050565b613c178261316a565b67ffffffffffffffff811115613c3057613c2f612b2f565b5b613c3a8254613273565b613c45828285613b81565b600060209050601f831160018114613c785760008415613c66578287015190505b613c708582613bf2565b865550613cd8565b601f198416613c8686613a6c565b60005b82811015613cae57848901518255600182019150602085019450602081019050613c89565b86831015613ccb5784890151613cc7601f891682613bd4565b8355505b6001600288020188555050505b505050505050565b7f416d6f756e7420746f6f20736d616c6c00000000000000000000000000000000600082015250565b6000613d1660108361296a565b9150613d2182613ce0565b602082019050919050565b60006020820190508181036000830152613d4581613d09565b9050919050565b7f45786365656473206d617820737570706c790000000000000000000000000000600082015250565b6000613d8260128361296a565b9150613d8d82613d4c565b602082019050919050565b60006020820190508181036000830152613db181613d75565b9050919050565b7f566572696669636174696f6e20494420616c7265616479207573656400000000600082015250565b6000613dee601c8361296a565b9150613df982613db8565b602082019050919050565b60006020820190508181036000830152613e1d81613de1565b9050919050565b7f45524332303a2064656372656173656420616c6c6f77616e63652062656c6f7760008201527f207a65726f000000000000000000000000000000000000000000000000000000602082015250565b6000613e8060258361296a565b9150613e8b82613e24565b604082019050919050565b60006020820190508181036000830152613eaf81613e73565b9050919050565b7f4f776e61626c653a206e6577206f776e657220697320746865207a65726f206160008201527f6464726573730000000000000000000000000000000000000000000000000000602082015250565b6000613f1260268361296a565b9150613f1d82613eb6565b604082019050919050565b60006020820190508181036000830152613f4181613f05565b9050919050565b7f45524332303a20617070726f76652066726f6d20746865207a65726f2061646460008201527f7265737300000000000000000000000000000000000000000000000000000000602082015250565b6000613fa460248361296a565b9150613faf82613f48565b604082019050919050565b60006020820190508181036000830152613fd381613f97565b9050919050565b7f45524332303a20617070726f766520746f20746865207a65726f20616464726560008201527f7373000000000000000000000000000000000000000000000000000000000000602082015250565b600061403660228361296a565b915061404182613fda565b604082019050919050565b6000602082019050818103600083015261406581614029565b9050919050565b600060608201905081810360008301526140868186613186565b905061409560208301856130be565b6140a26040830184612e43565b949350505050565b6000602082840312156140c0576140bf612a1b565b5b60006140ce8482850161333c565b91505092915050565b7f45524332303a206d696e7420746f20746865207a65726f206164647265737300600082015250565b600061410d601f8361296a565b9150614118826140d7565b602082019050919050565b6000602082019050818103600083015261413c81614100565b9050919050565b6000606082019050818103600083015261415d8186613186565b905061416c60208301856130be565b6141796040830184612935565b949350505050565b7f45524332303a206275726e2066726f6d20746865207a65726f2061646472657360008201527f7300000000000000000000000000000000000000000000000000000000000000602082015250565b60006141dd60218361296a565b91506141e882614181565b604082019050919050565b6000602082019050818103600083015261420c816141d0565b9050919050565b7f45524332303a206275726e20616d6f756e7420657863656564732062616c616e60008201527f6365000000000000000000000000000000000000000000000000000000000000602082015250565b600061426f60228361296a565b915061427a82614213565b604082019050919050565b6000602082019050818103600083015261429e81614262565b9050919050565b7f5265656e7472616e637947756172643a207265656e7472616e742063616c6c00600082015250565b60006142db601f8361296a565b91506142e6826142a5565b602082019050919050565b6000602082019050818103600083015261430a816142ce565b9050919050565b7f4f776e61626c653a2063616c6c6572206973206e6f7420746865206f776e6572600082015250565b600061434760208361296a565b915061435282614311565b602082019050919050565b600060208201905081810360008301526143768161433a565b9050919050565b7f45524332303a207472616e736665722066726f6d20746865207a65726f20616460008201527f6472657373000000000000000000000000000000000000000000000000000000602082015250565b60006143d960258361296a565b91506143e48261437d565b604082019050919050565b60006020820190508181036000830152614408816143cc565b9050919050565b7f45524332303a207472616e7366657220746f20746865207a65726f206164647260008201527f6573730000000000000000000000000000000000000000000000000000000000602082015250565b600061446b60238361296a565b91506144768261440f565b604082019050919050565b6000602082019050818103600083015261449a8161445e565b9050919050565b7f45524332303a207472616e7366657220616d6f756e742065786365656473206260008201527f616c616e63650000000000000000000000000000000000000000000000000000602082015250565b60006144fd60268361296a565b9150614508826144a1565b604082019050919050565b6000602082019050818103600083015261452c816144f0565b9050919050565b7f45524332303a20696e73756666696369656e7420616c6c6f77616e6365000000600082015250565b6000614569601d8361296a565b915061457482614533565b602082019050919050565b600060208201905081810360008301526145988161455c565b905091905056fea2646970667358221220b468fc5cfa03fbc4566063e6203157d4f95f49da139fd5708b366757ad6429d064736f6c63430008130033",
  "linkReferences": {},
  "deployedLinkReferences": {}
}