{
  "_format": "hh-sol-artifact-1",
  "contractName": "QuantumGodToken",
  "sourceName": "contracts/QuantumGodToken.sol",
  "abi": [
    {
      "inputs": [
        {
          "internalType": "address",
          "name": "_aiVerifier",
          "type": "address"
        },
        {
          "internalType": "address",
          "name": "_quantumConsensus",
          "type": "address"
        },
        {
          "internalType": "address",
          "name": "_quantumAIVerifier",
          "type": "address"
        }
      ],
      "stateMutability": "nonpayable",
      "type": "constructor"
    },
    {
      "anonymous": false,
      "inputs": [
        {
          "indexed": true,
          "internalType": "address",
          "name": "owner",
          "type": "address"
        },
        {
          "indexed": true,
          "internalType": "address",
          "name": "spender",
          "type": "address"
        },
        {
          "indexed": false,
          "internalType": "uint256",
          "name": "value",
          "type": "uint256"
        }
      ],
      "name": "Approval",
      "type": "event"
    },
    {
      "anonymous": false,
      "inputs": [
        {
          "indexed": false,
          "internalType": "uint256",
          "name": "goldOunces",
          "type": "uint256"
        },
        {
          "indexed": false,
          "internalType": "uint256",
          "name": "silverOunces",
          "type": "uint256"
        },
        {
          "indexed": false,
          "internalType": "uint256",
          "name": "totalValue",
          "type": "uint256"
        }
      ],
      "name": "MetalReserveUpdated",
      "type": "event"
    },
    {
      "anonymous": false,
      "inputs": [
        {
          "indexed": true,
          "internalType": "address",
          "name": "previousOwner",
          "type": "address"
        },
        {
          "indexed": true,
          "internalType": "address",
          "name": "newOwner",
          "type": "address"
        }
      ],
      "name": "OwnershipTransferred",
      "type": "event"
    },
    {
      "anonymous": false,
      "inputs": [
        {
          "indexed": true,
          "internalType": "uint256",
          "name": "txId",
          "type": "uint256"
        },
        {
          "indexed": true,
          "internalType": "address",
          "name": "from",
          "type": "address"
        },
        {
          "indexed": true,
          "internalType": "address",
          "name": "to",
          "type": "address"
        },
        {
          "indexed": false,
          "internalType": "uint256",
          "name": "amount",
          "type": "uint256"
        }
      ],
      "name": "QuantumTransactionExecuted",
      "type": "event"
    },
    {
      "anonymous": false,
      "inputs": [
        {
          "indexed": true,
          "internalType": "uint256",
          "name": "txId",
          "type": "uint256"
        },
        {
          "indexed": false,
          "internalType": "string",
          "name": "reason",
          "type": "string"
        }
      ],
      "name": "QuantumVerificationFailed",
      "type": "event"
    },
    {
      "anonymous": false,
      "inputs": [
        {
          "indexed": true,
          "internalType": "address",
          "name": "from",
          "type": "address"
        },
        {
          "indexed": false,
          "internalType": "uint256",
          "name": "amount",
          "type": "uint256"
        }
      ],
      "name": "TokensBurned",
      "type": "event"
    },
    {
      "anonymous": false,
      "inputs": [
        {
          "indexed": true,
          "internalType": "address",
          "name": "to",
          "type": "address"
        },
        {
          "indexed": false,
          "internalType": "uint256",
          "name": "amount",
          "type": "uint256"
        },
        {
          "indexed": false,
          "internalType": "bytes32",
          "name": "verificationId",
          "type": "bytes32"
        }
      ],
      "name": "TokensMinted",
      "type": "event"
    },
    {
      "anonymous": false,
      "inputs": [
        {
          "indexed": true,
          "internalType": "address",
          "name": "from",
          "type": "address"
        },
        {
          "indexed": true,
          "internalType": "address",
          "name": "to",
          "type": "address"
        },
        {
          "indexed": false,
          "internalType": "uint256",
          "name": "value",
          "type": "uint256"
        }
      ],
      "name": "Transfer",
      "type": "event"
    },
    {
      "inputs": [],
      "name": "MAX_SUPPLY",
      "outputs": [
        {
          "internalType": "uint256",
          "name": "",
          "type": "uint256"
        }
      ],
      "stateMutability": "view",
      "type": "function"
    },
    {
      "inputs": [],
      "name": "METAL_BACKING_RATIO",
      "outputs": [
        {
          "internalType": "uint256",
          "name": "",
          "type": "uint256"
        }
      ],
      "stateMutability": "view",
      "type": "function"
    },
    {
      "inputs": [],
      "name": "MIN_MINT_AMOUNT",
      "outputs": [
        {
          "internalType": "uint256",
          "name": "",
          "type": "uint256"
        }
      ],
      "stateMutability": "view",
      "type": "function"
    },
    {
      "inputs": [],
      "name": "QUANTUM_VERIFICATION_THRESHOLD",
      "outputs": [
        {
          "internalType": "uint256",
          "name": "",
          "type": "uint256"
        }
      ],
      "stateMutability": "view",
      "type": "function"
    },
    {
      "inputs": [],
      "name": "aiVerifier",
      "outputs": [
        {
          "internalType": "address",
          "name": "",
          "type": "address"
        }
      ],
      "stateMutability": "view",
      "type": "function"
    },
    {
      "inputs": [
        {
          "internalType": "address",
          "name": "owner",
          "type": "address"
        },
        {
          "internalType": "address",
          "name": "spender",
          "type": "address"
        }
      ],
      "name": "allowance",
      "outputs": [
        {
          "internalType": "uint256",
          "name": "",
          "type": "uint256"
        }
      ],
      "stateMutability": "view",
      "type": "function"
    },
    {
      "inputs": [
        {
          "internalType": "address",
          "name": "spender",
          "type": "address"
        },
        {
          "internalType": "uint256",
          "name": "amount",
          "type": "uint256"
        }
      ],
      "name": "approve",
      "outputs": [
        {
          "internalType": "bool",
          "name": "",
          "type": "bool"
        }
      ],
      "stateMutability": "nonpayable",
      "type": "function"
    },
    {
      "inputs": [
        {
          "internalType": "address",
          "name": "account",
          "type": "address"
        }
      ],
      "name": "balanceOf",
      "outputs": [
        {
          "internalType": "uint256",
          "name": "",
          "type": "uint256"
        }
      ],
      "stateMutability": "view",
      "type": "function"
    },
    {
      "inputs": [
        {
          "internalType": "uint256",
          "name": "_amount",
          "type": "uint256"
        }
      ],
      "name": "burn",
      "outputs": [],
      "stateMutability": "nonpayable",
      "type": "function"
    },
    {
      "inputs": [],
      "name": "decimals",
      "outputs": [
        {
          "internalType": "uint8",
          "name": "",
          "type": "uint8"
        }
      ],
      "stateMutability": "view",
      "type": "function"
    },
    {
      "inputs": [
        {
          "internalType": "address",
          "name": "spender",
          "type": "address"
        },
        {
          "internalType": "uint256",
          "name": "subtractedValue",
          "type": "uint256"
        }
      ],
      "name": "decreaseAllowance",
      "outputs": [
        {
          "internalType": "bool",
          "name": "",
          "type": "bool"
        }
      ],
      "stateMutability": "nonpayable",
      "type": "function"
    },
    {
      "inputs": [],
      "name": "getMetalBackingRatio",
      "outputs": [
        {
          "internalType": "uint256",
          "name": "",
          "type": "uint256"
        }
      ],
      "stateMutability": "view",
      "type": "function"
    },
    {
      "inputs": [
        {
          "internalType": "uint256",
          "name": "_txId",
          "type": "uint256"
        }
      ],
      "name": "getQuantumTransaction",
      "outputs": [
        {
          "internalType": "address",
          "name": "from",
          "type": "address"
        },
        {
          "internalType": "address",
          "name": "to",
          "type": "address"
        },
        {
          "internalType": "uint256",
          "name": "amount",
          "type": "uint256"
        },
        {
          "internalType": "bytes32",
          "name": "quantumHash",
          "type": "bytes32"
        },
        {
          "internalType": "uint256",
          "name": "timestamp",
          "type": "uint256"
        },
        {
          "internalType": "bool",
          "name": "verified",
          "type": "bool"
        }
      ],
      "stateMutability": "view",
      "type": "function"
    },
    {
      "inputs": [],
      "name": "getTotalQuantumTransactions",
      "outputs": [
        {
          "internalType": "uint256",
          "name": "",
          "type": "uint256"
        }
      ],
      "stateMutability": "view",
      "type": "function"
    },
    {
      "inputs": [
        {
          "internalType": "address",
          "name": "spender",
          "type": "address"
        },
        {
          "internalType": "uint256",
          "name": "addedValue",
          "type": "uint256"
        }
      ],
      "name": "increaseAllowance",
      "outputs": [
        {
          "internalType": "bool",
          "name": "",
          "type": "bool"
        }
      ],
      "stateMutability": "nonpayable",
      "type": "function"
    },
    {
      "inputs": [
        {
          "internalType": "bytes32",
          "name": "_hash",
          "type": "bytes32"
        }
      ],
      "name": "isQuantumHashValid",
      "outputs": [
        {
          "internalType": "bool",
          "name": "",
          "type": "bool"
        }
      ],
      "stateMutability": "view",
      "type": "function"
    },
    {
      "inputs": [
        {
          "internalType": "address",
          "name": "_to",
          "type": "address"
        },
        {
          "internalType": "uint256",
          "name": "_amount",
          "type": "uint256"
        },
        {
          "internalType": "bytes32",
          "name": "_verificationId",
          "type": "bytes32"
        }
      ],
      "name": "mintWithVerification",
      "outputs": [],
      "stateMutability": "nonpayable",
      "type": "function"
    },
    {
      "inputs": [],
      "name": "name",
      "outputs": [
        {
          "internalType": "string",
          "name": "",
          "type": "string"
        }
      ],
      "stateMutability": "view",
      "type": "function"
    },
    {
      "inputs": [],
      "name": "owner",
      "outputs": [
        {
          "internalType": "address",
          "name": "",
          "type": "address"
        }
      ],
      "stateMutability": "view",
      "type": "function"
    },
    {
      "inputs": [],
      "name": "quantumAIVerifier",
      "outputs": [
        {
          "internalType": "contract QuantumAIVerifier",
          "name": "",
          "type": "address"
        }
      ],
      "stateMutability": "view",
      "type": "function"
    },
    {
      "inputs": [
        {
          "internalType": "uint256",
          "name": "_amount",
          "type": "uint256"
        },
        {
          "internalType": "bytes",
          "name": "_quantumProof",
          "type": "bytes"
        }
      ],
      "name": "quantumBurn",
      "outputs": [],
      "stateMutability": "nonpayable",
      "type": "function"
    },
    {
      "inputs": [],
      "name": "quantumConsensus",
      "outputs": [
        {
          "internalType": "contract QuantumConsensus",
          "name": "",
          "type": "address"
        }
      ],
      "stateMutability": "view",
      "type": "function"
    },
    {
      "inputs": [
        {
          "internalType": "bytes32",
          "name": "",
          "type": "bytes32"
        }
      ],
      "name": "quantumHashes",
      "outputs": [
        {
          "internalType": "bool",
          "name": "",
          "type": "bool"
        }
      ],
      "stateMutability": "view",
      "type": "function"
    },
    {
      "inputs": [
        {
          "internalType": "address",
          "name": "_to",
          "type": "address"
        },
        {
          "internalType": "uint256",
          "name": "_amount",
          "type": "uint256"
        },
        {
          "internalType": "uint256",
          "name": "_verificationRequestId",
          "type": "uint256"
        },
        {
          "internalType": "bytes",
          "name": "_quantumProof",
          "type": "bytes"
        }
      ],
      "name": "quantumMintWithVerification",
      "outputs": [],
      "stateMutability": "nonpayable",
      "type": "function"
    },
    {
      "inputs": [],
      "name": "quantumTransactions",
      "outputs": [
        {
          "internalType": "uint256",
          "name": "",
          "type": "uint256"
        }
      ],
      "stateMutability": "view",
      "type": "function"
    },
    {
      "inputs": [
        {
          "internalType": "address",
          "name": "_to",
          "type": "address"
        },
        {
          "internalType": "uint256",
          "name": "_amount",
          "type": "uint256"
        },
        {
          "internalType": "bytes",
          "name": "_quantumProof",
          "type": "bytes"
        }
      ],
      "name": "quantumTransfer",
      "outputs": [
        {
          "internalType": "bool",
          "name": "",
          "type": "bool"
        }
      ],
      "stateMutability": "nonpayable",
      "type": "function"
    },
    {
      "inputs": [
        {
          "internalType": "uint256",
          "name": "",
          "type": "uint256"
        }
      ],
      "name": "quantumTxs",
      "outputs": [
        {
          "internalType": "uint256",
          "name": "txId",
          "type": "uint256"
        },
        {
          "internalType": "address",
          "name": "from",
          "type": "address"
        },
        {
          "internalType": "address",
          "name": "to",
          "type": "address"
        },
        {
          "internalType": "uint256",
          "name": "amount",
          "type": "uint256"
        },
        {
          "internalType": "bytes32",
          "name": "quantumHash",
          "type": "bytes32"
        },
        {
          "internalType": "bytes",
          "name": "quantumSignature",
          "type": "bytes"
        },
        {
          "internalType": "uint256",
          "name": "timestamp",
          "type": "uint256"
        },
        {
          "internalType": "bool",
          "name": "verified",
          "type": "bool"
        }
      ],
      "stateMutability": "view",
      "type": "function"
    },
    {
      "inputs": [],
      "name": "renounceOwnership",
      "outputs": [],
      "stateMutability": "nonpayable",
      "type": "function"
    },
    {
      "inputs": [],
      "name": "reserves",
      "outputs": [
        {
          "internalType": "uint256",
          "name": "goldOunces",
          "type": "uint256"
        },
        {
          "internalType": "uint256",
          "name": "silverOunces",
          "type": "uint256"
        },
        {
          "internalType": "uint256",
          "name": "totalValue",
          "type": "uint256"
        },
        {
          "internalType": "uint256",
          "name": "lastAudit",
          "type": "uint256"
        }
      ],
      "stateMutability": "view",
      "type": "function"
    },
    {
      "inputs": [
        {
          "internalType": "address",
          "name": "_newVerifier",
          "type": "address"
        }
      ],
      "name": "setAIVerifier",
      "outputs": [],
      "stateMutability": "nonpayable",
      "type": "function"
    },
    {
      "inputs": [],
      "name": "symbol",
      "outputs": [
        {
          "internalType": "string",
          "name": "",
          "type": "string"
        }
      ],
      "stateMutability": "view",
      "type": "function"
    },
    {
      "inputs": [],
      "name": "totalSupply",
      "outputs": [
        {
          "internalType": "uint256",
          "name": "",
          "type": "uint256"
        }
      ],
      "stateMutability": "view",
      "type": "function"
    },
    {
      "inputs": [
        {
          "internalType": "address",
          "name": "recipient",
          "type": "address"
        },
        {
          "internalType": "uint256",
          "name": "amount",
          "type": "uint256"
        }
      ],
      "name": "transfer",
      "outputs": [
        {
          "internalType": "bool",
          "name": "",
          "type": "bool"
        }
      ],
      "stateMutability": "nonpayable",
      "type": "function"
    },
    {
      "inputs": [
        {
          "internalType": "address",
          "name": "sender",
          "type": "address"
        },
        {
          "internalType": "address",
          "name": "recipient",
          "type": "address"
        },
        {
          "internalType": "uint256",
          "name": "amount",
          "type": "uint256"
        }
      ],
      "name": "transferFrom",
      "outputs": [
        {
          "internalType": "bool",
          "name": "",
          "type": "bool"
        }
      ],
      "stateMutability": "nonpayable",
      "type": "function"
    },
    {
      "inputs": [
        {
          "internalType": "address",
          "name": "newOwner",
          "type": "address"
        }
      ],
      "name": "transferOwnership",
      "outputs": [],
      "stateMutability": "nonpayable",
      "type": "function"
    },
    {
      "inputs": [
        {
          "internalType": "uint256",
          "name": "_goldOunces",
          "type": "uint256"
        },
        {
          "internalType": "uint256",
          "name": "_silverOunces",
          "type": "uint256"
        },
        {
          "internalType": "uint256",
          "name": "_totalValue",
          "type": "uint256"
        }
      ],
      "name": "updateReserves",
      "outputs": [],
      "stateMutability": "nonpayable",
      "type": "function"
    },
    {
      "inputs": [
        {
          "internalType": "bytes32",
          "name": "",
          "type": "bytes32"
        }
      ],
      "name": "verifiedMints",
      "outputs": [
        {
          "internalType": "bool",
          "name": "",
          "type": "bool"
        }
      ],
      "stateMutability": "view",
      "type": "function"
    }
  ],
  "bytecode": "0x6080346200049757601f6200228b38819003828101601f199081168501946001600160401b0393919290918487118388101762000392578160609284926040998a5283398101031262000497576200005781620004bc565b91602062000074876200006c838601620004bc565b9401620004bc565b936200007f6200049c565b95600987526823a7a2102a37b5b2b760b91b838801526200009f6200049c565b936003908186526211d3d160ea1b8587015288518381116200039257825460019a8b82811c921680156200048c575b888310146200047657818d84931162000420575b5087908d8311600114620003b457600092620003a8575b505060001982851b1c1916908a1b1782555b8551928311620003925760049586548a81811c9116801562000387575b87821014620003725790818c869594931162000318575b5086918c8511600114620002b05750600093620002a4575b505082891b92600019911b1c19161783555b600580546001600160a01b0319808216339081179093558a5190996001600160a01b0399919490938a9391929184167f8be0079c531659141344cd1fd0a4f28419497f9722a3daafe3b4186f6b6457e0600080a36006551688600b541617600b5533156200026757505060025469d3c21bcecceda1000000928382018092116200025257507fddf252ad1be2c89b69c2b068fc378daa952ba7f163c4a11628f55a4df523b3ef8694939260009260025533835282815289832084815401905589519384523393a31683600d541617600d551690600e541617600e5551611db99081620004d28239f35b601190634e487b7160e01b6000525260246000fd5b6064928462461bcd60e51b845283015260248201527f45524332303a206d696e7420746f20746865207a65726f2061646472657373006044820152fd5b01519150388062000157565b8b9593929193169288600052876000209360005b89828210620003015750508511620002e6575b50505050811b01835562000169565b01519060f884600019921b161c1916905538808080620002d7565b8385015187558e98909601959384019301620002c4565b909192935087600052866000208c80870160051c82019289881062000368575b918d918897969594930160051c01915b828110620003585750506200013f565b600081558796508d910162000348565b9250819262000338565b602288634e487b7160e01b6000525260246000fd5b90607f169062000128565b634e487b7160e01b600052604160045260246000fd5b015190503880620000f9565b90848d94169186600052896000209260005b8b828210620004005750508411620003e7575b505050811b0182556200010b565b015160001983871b60f8161c19169055388080620003d9565b91929395968291958786015181550195019301908e9594939291620003c6565b90915084600052876000208d80850160051c8201928a86106200046c575b918e91869594930160051c01915b8281106200045c575050620000e2565b600081558594508e91016200044c565b925081926200043e565b634e487b7160e01b600052602260045260246000fd5b91607f1691620000ce565b600080fd5b60408051919082016001600160401b038111838210176200039257604052565b51906001600160a01b0382168203620004975756fe608080604052600436101561001357600080fd5b60003560e01c9081620d9073146115aa5750806306fdde0314611504578063095ea7b3146114de57806318160ddd146114c0578063218f86f51461122857806323b872dd1461116a57806330b802a314610fec578063313ce56714610fd057806332cb6b0c14610fa95780633950935114610f5857806342966c6814610eba5780636148813c14610e1d5780636e4e15b914610df457806370a0823114610dba578063715018a614610d5d578063746ac806146109c257806375172a8b1461098b578063797a0f28146105625780638a79d3e5146109685780638da5cb5b1461093f57806395d89b41146108595780639c2cc93114610828578063a138bfd614610658578063a457c2d7146105b1578063a9059cbb14610580578063c125032d14610562578063c6b8962614610539578063d56926a014610516578063dd62ed3e146104c5578063e9130493146103ea578063ea655249146103c1578063ed7b59f7146101b5578063f2dccc3814610313578063f2fde38b1461024a578063f8bf958914610207578063fa3abf0f146101eb5763fe3d20e4146101b557600080fd5b346101e65760203660031901126101e6576004356000526011602052602060ff604060002054166040519015158152f35b600080fd5b346101e65760003660031901126101e657602060405160558152f35b346101e65760203660031901126101e657610220611604565b610228611796565b600b80546001600160a01b0319166001600160a01b0392909216919091179055005b346101e65760203660031901126101e657610263611604565b61026b611796565b6001600160a01b039081169081156102bf57600554826bffffffffffffffffffffffff60a01b821617600555167f8be0079c531659141344cd1fd0a4f28419497f9722a3daafe3b4186f6b6457e0600080a3005b60405162461bcd60e51b815260206004820152602660248201527f4f776e61626c653a206e6577206f776e657220697320746865207a65726f206160448201526564647265737360d01b6064820152608490fd5b346101e65760203660031901126101e65760043560005260106020526040600020805460018060a01b039182600182015416926002820154166103b060038301546004840154604051916103758361036e8160058a01611700565b038461164d565b60ff600760068801549701541694604051988998895260208901526040880152606087015260808601526101008060a08701528501906115c4565b9160c0840152151560e08301520390f35b346101e65760003660031901126101e657600e546040516001600160a01b039091168152602090f35b346101e65760203660031901126101e657600435600052601060205260c0604060002060e06040519161041c83611630565b8054835260018060a01b039283600183015416906020810191825284600284015416946040820195865280600385015493606084019485526004860154936080810194855260405161047c816104758160058c01611700565b038261164d565b60a082015260ff6007600689015498898d8501520154161515978891015251169551169151905191604051958652602086015260408501526060840152608083015260a0820152f35b346101e65760403660031901126101e6576104de611604565b6104e661161a565b9060018060a01b038091166000526001602052604060002091166000526020526020604060002054604051908152f35b346101e65760003660031901126101e6576020604051670de0b6b3a76400008152f35b346101e65760003660031901126101e657600d546040516001600160a01b039091168152602090f35b346101e65760003660031901126101e6576020600f54604051908152f35b346101e65760403660031901126101e6576105a661059c611604565b6024359033611c15565b602060405160018152f35b346101e65760403660031901126101e6576105ca611604565b60243590336000526001602052604060002060018060a01b03821660005260205260406000205491808310610605576105a6920390336117fb565b60405162461bcd60e51b815260206004820152602560248201527f45524332303a2064656372656173656420616c6c6f77616e63652062656c6f77604482015264207a65726f60d81b6064820152608490fd5b346101e65760603660031901126101e657610671611604565b6024359060443590610681611995565b600b546001600160a01b039061069a90821633146118fd565b670de0b6b3a7640000918285106107f0576b033b2e3c9fd0803ce80000006106c4866002546117ee565b116107b65783600052600c60205260ff604060002054166107715760648502938585046064148615171561075b576107256040947f7369d801113c713520ca653010d32c6bcd6778f0ffb3df0bc9efb8d85b687e4496046009541015611949565b80600052600c60205283600020600160ff1982541617905561074786836119eb565b835195865260208601521692a26001600655005b634e487b7160e01b600052601160045260246000fd5b60405162461bcd60e51b815260206004820152601c60248201527f566572696669636174696f6e20494420616c72656164792075736564000000006044820152606490fd5b60405162461bcd60e51b815260206004820152601260248201527145786365656473206d617820737570706c7960701b6044820152606490fd5b60405162461bcd60e51b815260206004820152601060248201526f105b5bdd5b9d081d1bdbc81cdb585b1b60821b6044820152606490fd5b346101e65760203660031901126101e657600435600052600c602052602060ff604060002054166040519015158152f35b346101e65760003660031901126101e657604051600060045461087b816116c6565b8084529060019081811690811561091857506001146108bd575b6108b9846108a58186038261164d565b6040519182916020835260208301906115c4565b0390f35b6004600090815292507f8a35acfbc15ff81a39ae7d344fd709f28e8600b4aa8c65c6b64bfe7fe36bd19b5b8284106109005750505081016020016108a582610895565b805460208587018101919091529093019281016108e8565b60ff191660208087019190915292151560051b850190920192506108a59150839050610895565b346101e65760003660031901126101e6576005546040516001600160a01b039091168152602090f35b346101e65760003660031901126101e6576020610983611be5565b604051908152f35b346101e65760003660031901126101e6576080600754600854600954600a5491604051938452602084015260408301526060820152f35b346101e65760603660031901126101e6576109db611604565b60443567ffffffffffffffff81116101e6576109fb90369060040161166f565b90336000526000602052610a186024356040600020541015611a8e565b600f5460405190602082019033825260018060a01b0384166040840152602435606084015242608084015260a083015260a0825260c082019082821067ffffffffffffffff831117610d0a57610aa09082604052835190209260e081019384526040610100820152610a8e6101208201876115c4565b0360df198101835260bf19018261164d565b51902091805115610d2057610ab86024358333611c15565b600f5492600019841461075b5760018401600f5560405191610ad983611630565b8483523360208085019182526001600160a01b038681166040808801918252602435606089019081526080890188815260a08a019788524260c08b0152600160e08b0181905260008d815260109097529290952089518155955191860180549285166001600160a01b0319938416179055915160028601805491909416911617909155516003830155516004820155905180519067ffffffffffffffff8211610d0a57610b8960058401546116c6565b601f8111610cc3575b50602090601f8311600114610c4e57918060e09492600794600092610c43575b50508160011b916000199060031b1c19161760058201555b60c085015160068201550192015115159160ff199260ff8483541691161790556000526011602052600160406000209182541617905560405190602435825260018060a01b0316917fa735b624e6862d227bf498a406eb585d4ef733711f3d4d7c82365c7dfd2df8e760203393a4602060405160018152f35b015190508980610bb2565b906005840160005260206000209160005b601f1985168110610cab57509260e0949260019260079583601f19811610610c92575b505050811b016005820155610bca565b015160001960f88460031b161c19169055898080610c82565b91926020600181928685015181550194019201610c5f565b600584016000526020600020601f840160051c810160208510610d03575b601f830160051c82018110610cf7575050610b92565b60008155600101610ce1565b5080610ce1565b634e487b7160e01b600052604160045260246000fd5b60405162461bcd60e51b815260206004820152601560248201527424b73b30b634b21038bab0b73a3ab690383937b7b360591b6044820152606490fd5b346101e65760003660031901126101e657610d76611796565b600580546001600160a01b031981169091556000906001600160a01b03167f8be0079c531659141344cd1fd0a4f28419497f9722a3daafe3b4186f6b6457e08280a3005b346101e65760203660031901126101e6576001600160a01b03610ddb611604565b1660005260006020526020604060002054604051908152f35b346101e65760003660031901126101e657600b546040516001600160a01b039091168152602090f35b346101e65760603660031901126101e657604435602435600435610e3f611796565b60405192608084019284841067ffffffffffffffff851117610d0a577f4a37f90278ca7b5205e43068141e76ab67aef6562b0d2e77a5cf6abdce6c92e894606094604052838152816020820152826040820152844291015282600755806008558160095542600a5560405192835260208301526040820152a1005b346101e65760203660031901126101e657600435610ed6611995565b336000526000602052610ef0816040600020541015611a8e565b610efa8133611ade565b606481028181046064148215171561075b57670de0b6b3a7640000610f229104600954611ad1565b6009556040519081527ffd38818f5291bf0bb3a2a48aadc06ba8757865d1dabd804585338aab3009dcb660203392a26001600655005b346101e65760403660031901126101e6576105a6610f74611604565b336000526001602052604060002060018060a01b038216600052602052610fa26024356040600020546117ee565b90336117fb565b346101e65760003660031901126101e65760206040516b033b2e3c9fd0803ce80000008152f35b346101e65760003660031901126101e657602060405160128152f35b346101e65760403660031901126101e65760043567ffffffffffffffff6024358181116101e65761102190369060040161166f565b9033600052600060205261103c836040600020541015611a8e565b604051906020820191338352846040820152426060820152608080820152600460a082015263212aa92760e11b60c082015260c0815260e081019181831090831117610d0a576110bc92826040528151902061010082015260406101208201526110aa6101408201856115c4565b0360ff198101825260df19019061164d565b5115611125576110cc8133611ade565b606481028181046064148215171561075b57670de0b6b3a76400006110f49104600954611ad1565b6009556040519081527ffd38818f5291bf0bb3a2a48aadc06ba8757865d1dabd804585338aab3009dcb660203392a2005b60405162461bcd60e51b815260206004820152601a60248201527f496e76616c6964207175616e74756d206275726e2070726f6f660000000000006044820152606490fd5b346101e65760603660031901126101e657611183611604565b61118b61161a565b6044359060018060a01b03831660005260016020526040600020336000526020526040600020549260001984036111c7575b6105a69350611c15565b8284106111e3576111de836105a6950333836117fb565b6111bd565b60405162461bcd60e51b815260206004820152601d60248201527f45524332303a20696e73756666696369656e7420616c6c6f77616e63650000006044820152606490fd5b346101e65760803660031901126101e657611241611604565b6024803591606491823567ffffffffffffffff81116101e65761126890369060040161166f565b600b546001600160a01b039491839161128490871633146118fd565b608086600e54166040519586809263d1fddfdf60e01b825260443560048301525afa9384156114b457600080600092600097611464575b5015611427576055116113ec576055116113aa575115611369578186029186830414861517156113555750917f7369d801113c713520ca653010d32c6bcd6778f0ffb3df0bc9efb8d85b687e449391611324670de0b6b3a7640000604095046009541015611949565b61132e86836119eb565b80600052600c60205283600020600160ff19825416179055835195865260208601521692a2005b634e487b7160e01b60009081526011600452fd5b601a6040519162461bcd60e51b8352602060048401528201527f496e76616c6964207175616e74756d206d696e742070726f6f660000000000006044820152fd5b50601a6040519162461bcd60e51b8352602060048401528201527f5175616e74756d20636f6e666964656e636520746f6f206c6f770000000000006044820152fd5b505060156040519162461bcd60e51b83526020600484015282015274414920636f6e666964656e636520746f6f206c6f7760581b6044820152fd5b50505060166040519162461bcd60e51b835260206004840152820152751052481d995c9a599a58d85d1a5bdb8819985a5b195960521b6044820152fd5b96505050506080843d82116114ac575b816114816080938361164d565b810103126101e657835180151581036101e6576020850151604086015160609096015195918a6112bb565b3d9150611474565b6040513d6000823e3d90fd5b346101e65760003660031901126101e6576020600254604051908152f35b346101e65760403660031901126101e6576105a66114fa611604565b60243590336117fb565b346101e65760003660031901126101e6576040516000600354611526816116c6565b80845290600190818116908115610918575060011461154f576108b9846108a58186038261164d565b6003600090815292507fc2575a0e9e593c00f959f8c92f12db2869c3395a3b0502d05e2516446f71f85b5b8284106115925750505081016020016108a582610895565b8054602085870181019190915290930192810161157a565b346101e65760003660031901126101e65780606460209252f35b919082519283825260005b8481106115f0575050826000602080949584010152601f8019910116010190565b6020818301810151848301820152016115cf565b600435906001600160a01b03821682036101e657565b602435906001600160a01b03821682036101e657565b610100810190811067ffffffffffffffff821117610d0a57604052565b90601f8019910116810190811067ffffffffffffffff821117610d0a57604052565b81601f820112156101e65780359067ffffffffffffffff8211610d0a57604051926116a4601f8401601f19166020018561164d565b828452602083830101116101e657816000926020809301838601378301015290565b90600182811c921680156116f6575b60208310146116e057565b634e487b7160e01b600052602260045260246000fd5b91607f16916116d5565b9060009291805491611711836116c6565b9182825260019384811690816000146117735750600114611733575b50505050565b90919394506000526020928360002092846000945b83861061175f57505050500101903880808061172d565b805485870183015294019385908201611748565b9294505050602093945060ff191683830152151560051b0101903880808061172d565b6005546001600160a01b031633036117aa57565b606460405162461bcd60e51b815260206004820152602060248201527f4f776e61626c653a2063616c6c6572206973206e6f7420746865206f776e65726044820152fd5b9190820180921161075b57565b6001600160a01b039081169182156118ac571691821561185c5760207f8c5be1e5ebec7d5bd14f71427d1e84f3dd0314c0f7b2291e5b200ac8c7c3b925918360005260018252604060002085600052825280604060002055604051908152a3565b60405162461bcd60e51b815260206004820152602260248201527f45524332303a20617070726f766520746f20746865207a65726f206164647265604482015261737360f01b6064820152608490fd5b60405162461bcd60e51b8152602060048201526024808201527f45524332303a20617070726f76652066726f6d20746865207a65726f206164646044820152637265737360e01b6064820152608490fd5b1561190457565b60405162461bcd60e51b815260206004820152601960248201527f4f6e6c792041492076657269666965722063616e206d696e74000000000000006044820152606490fd5b1561195057565b60405162461bcd60e51b815260206004820152601b60248201527f496e73756666696369656e74206d6574616c20726573657276657300000000006044820152606490fd5b6002600654146119a6576002600655565b60405162461bcd60e51b815260206004820152601f60248201527f5265656e7472616e637947756172643a207265656e7472616e742063616c6c006044820152606490fd5b6001600160a01b0316908115611a49577fddf252ad1be2c89b69c2b068fc378daa952ba7f163c4a11628f55a4df523b3ef602082611a2d6000946002546117ee565b60025584845283825260408420818154019055604051908152a3565b60405162461bcd60e51b815260206004820152601f60248201527f45524332303a206d696e7420746f20746865207a65726f2061646472657373006044820152606490fd5b15611a9557565b60405162461bcd60e51b8152602060048201526014602482015273496e73756666696369656e742062616c616e636560601b6044820152606490fd5b9190820391821161075b57565b6001600160a01b03168015611b9657600091818352826020526040832054818110611b4657817fddf252ad1be2c89b69c2b068fc378daa952ba7f163c4a11628f55a4df523b3ef926020928587528684520360408620558060025403600255604051908152a3565b60405162461bcd60e51b815260206004820152602260248201527f45524332303a206275726e20616d6f756e7420657863656564732062616c616e604482015261636560f01b6064820152608490fd5b60405162461bcd60e51b815260206004820152602160248201527f45524332303a206275726e2066726f6d20746865207a65726f206164647265736044820152607360f81b6064820152608490fd5b6002548015611c0f57600954670de0b6b3a76400009081810291818304149015171561075b570490565b50600090565b6001600160a01b03908116918215611d305716918215611cdf57600082815280602052604081205491808310611c8b57604082827fddf252ad1be2c89b69c2b068fc378daa952ba7f163c4a11628f55a4df523b3ef958760209652828652038282205586815220818154019055604051908152a3565b60405162461bcd60e51b815260206004820152602660248201527f45524332303a207472616e7366657220616d6f756e7420657863656564732062604482015265616c616e636560d01b6064820152608490fd5b60405162461bcd60e51b815260206004820152602360248201527f45524332303a207472616e7366657220746f20746865207a65726f206164647260448201526265737360e81b6064820152608490fd5b60405162461bcd60e51b815260206004820152602560248201527f45524332303a207472616e736665722066726f6d20746865207a65726f206164604482015264647265737360d81b6064820152608490fdfea2646970667358221220f70605285c78ac66f07abde0935544fe3aa4c1ff3716d3126ee988ff2fd8f0ea64736f6c63430008130033",
  "linkReferences": {},
  "deployedLinkReferences": {}
}