{"contracts/QuantumSafeCrypto.sol":{"QuantumSafeCrypto":{"abi":[{"inputs":[],"name":"DILITHIUM_D","outputs":[{"internalType":"uint256","name":"","type":"uint256"}],"stateMutability":"view","type":"function"},{"inputs":[],"name":"DILITHIUM_K","outputs":[{"internalType":"uint256","name":"","type":"uint256"}],"stateMutability":"view","type":"function"},{"inputs":[],"name":"DILITHIUM_L","outputs":[{"internalType":"uint256","name":"","type":"uint256"}],"stateMutability":"view","type":"function"},{"inputs":[],"name":"DILITHIUM_N","outputs":[{"internalType":"uint256","name":"","type":"uint256"}],"stateMutability":"view","type":"function"},{"inputs":[],"name":"DILITHIUM_Q","outputs":[{"internalType":"uint256","name":"","type":"uint256"}],"stateMutability":"view","type":"function"},{"inputs":[],"name":"XMSS_HEIGHT","outputs":[{"internalType":"uint256","name":"","type":"uint256"}],"stateMutability":"view","type":"function"},{"inputs":[],"name":"XMSS_N","outputs":[{"internalType":"uint256","name":"","type":"uint256"}],"stateMutability":"view","type":"function"}],"evm":{"bytecode":{"linkReferences":{},"object":"6101ee610053600b82828239805160001a607314610046577f4e487b7100000000000000000000000000000000000000000000000000000000600052600060045260246000fd5b30600052607381538281f3fe73000000000000000000000000000000000000000030146080604052600436106100875760003560e01c80635579856b116100655780635579856b146100e657806362d14b6014610104578063a4551bae14610122578063c3e8faa61461014057610087565b806301c957661461008c578063403ac7c0146100aa5780634838e307146100c8575b600080fd5b61009461015e565b6040516100a1919061019d565b60405180910390f35b6100b2610163565b6040516100bf919061019d565b60405180910390f35b6100d0610168565b6040516100dd919061019d565b60405180910390f35b6100ee61016d565b6040516100fb919061019d565b60405180910390f35b61010c610172565b604051610119919061019d565b60405180910390f35b61012a610179565b604051610137919061019d565b60405180910390f35b61014861017e565b604051610155919061019d565b60405180910390f35b602081565b600481565b600481565b600a81565b627fe00181565b600d81565b61010081565b6000819050919050565b61019781610184565b82525050565b60006020820190506101b2600083018461018e565b9291505056fea2646970667358221220ed8b396cfc6edf0289a4eaef49f5e9010d88fc6d1b999798455472a9bdd5869264736f6c63430008130033","opcodes":"PUSH2 0x1EE PUSH2 0x53 PUSH1 0xB DUP3 DUP3 DUP3 CODECOPY DUP1 MLOAD PUSH1 0x0 BYTE PUSH1 0x73 EQ PUSH2 0x46 JUMPI PUSH32 0x4E487B7100000000000000000000000000000000000000000000000000000000 PUSH1 0x0 MSTORE PUSH1 0x0 PUSH1 0x4 MSTORE PUSH1 0x24 PUSH1 0x0 REVERT JUMPDEST ADDRESS PUSH1 0x0 MSTORE PUSH1 0x73 DUP2 MSTORE8 DUP3 DUP2 RETURN INVALID PUSH20 0x0 ADDRESS EQ PUSH1 0x80 PUSH1 0x40 MSTORE PUSH1 0x4 CALLDATASIZE LT PUSH2 0x87 JUMPI PUSH1 0x0 CALLDATALOAD PUSH1 0xE0 SHR DUP1 PUSH4 0x5579856B GT PUSH2 0x65 JUMPI DUP1 PUSH4 0x5579856B EQ PUSH2 0xE6 JUMPI DUP1 PUSH4 0x62D14B60 EQ PUSH2 0x104 JUMPI DUP1 PUSH4 0xA4551BAE EQ PUSH2 0x122 JUMPI DUP1 PUSH4 0xC3E8FAA6 EQ PUSH2 0x140 JUMPI PUSH2 0x87 JUMP JUMPDEST DUP1 PUSH4 0x1C95766 EQ PUSH2 0x8C JUMPI DUP1 PUSH4 0x403AC7C0 EQ PUSH2 0xAA JUMPI DUP1 PUSH4 0x4838E307 EQ PUSH2 0xC8 JUMPI JUMPDEST PUSH1 0x0 DUP1 REVERT JUMPDEST PUSH2 0x94 PUSH2 0x15E JUMP JUMPDEST PUSH1 0x40 MLOAD PUSH2 0xA1 SWAP2 SWAP1 PUSH2 0x19D JUMP JUMPDEST PUSH1 0x40 MLOAD DUP1 SWAP2 SUB SWAP1 RETURN JUMPDEST PUSH2 0xB2 PUSH2 0x163 JUMP JUMPDEST PUSH1 0x40 MLOAD PUSH2 0xBF SWAP2 SWAP1 PUSH2 0x19D JUMP JUMPDEST PUSH1 0x40 MLOAD DUP1 SWAP2 SUB SWAP1 RETURN JUMPDEST PUSH2 0xD0 PUSH2 0x168 JUMP JUMPDEST PUSH1 0x40 MLOAD PUSH2 0xDD SWAP2 SWAP1 PUSH2 0x19D JUMP JUMPDEST PUSH1 0x40 MLOAD DUP1 SWAP2 SUB SWAP1 RETURN JUMPDEST PUSH2 0xEE PUSH2 0x16D JUMP JUMPDEST PUSH1 0x40 MLOAD PUSH2 0xFB SWAP2 SWAP1 PUSH2 0x19D JUMP JUMPDEST PUSH1 0x40 MLOAD DUP1 SWAP2 SUB SWAP1 RETURN JUMPDEST PUSH2 0x10C PUSH2 0x172 JUMP JUMPDEST PUSH1 0x40 MLOAD PUSH2 0x119 SWAP2 SWAP1 PUSH2 0x19D JUMP JUMPDEST PUSH1 0x40 MLOAD DUP1 SWAP2 SUB SWAP1 RETURN JUMPDEST PUSH2 0x12A PUSH2 0x179 JUMP JUMPDEST PUSH1 0x40 MLOAD PUSH2 0x137 SWAP2 SWAP1 PUSH2 0x19D JUMP JUMPDEST PUSH1 0x40 MLOAD DUP1 SWAP2 SUB SWAP1 RETURN JUMPDEST PUSH2 0x148 PUSH2 0x17E JUMP JUMPDEST PUSH1 0x40 MLOAD PUSH2 0x155 SWAP2 SWAP1 PUSH2 0x19D JUMP JUMPDEST PUSH1 0x40 MLOAD DUP1 SWAP2 SUB SWAP1 RETURN JUMPDEST PUSH1 0x20 DUP2 JUMP JUMPDEST PUSH1 0x4 DUP2 JUMP JUMPDEST PUSH1 0x4 DUP2 JUMP JUMPDEST PUSH1 0xA DUP2 JUMP JUMPDEST PUSH3 0x7FE001 DUP2 JUMP JUMPDEST PUSH1 0xD DUP2 JUMP JUMPDEST PUSH2 0x100 DUP2 JUMP JUMPDEST PUSH1 0x0 DUP2 SWAP1 POP SWAP2 SWAP1 POP JUMP JUMPDEST PUSH2 0x197 DUP2 PUSH2 0x184 JUMP JUMPDEST DUP3 MSTORE POP POP JUMP JUMPDEST PUSH1 0x0 PUSH1 0x20 DUP3 ADD SWAP1 POP PUSH2 0x1B2 PUSH1 0x0 DUP4 ADD DUP5 PUSH2 0x18E JUMP JUMPDEST SWAP3 SWAP2 POP POP JUMP INVALID LOG2 PUSH5 0x6970667358 0x22 SLT KECCAK256 0xED DUP12 CODECOPY PUSH13 0xFC6EDF0289A4EAEF49F5E9010D DUP9 0xFC PUSH14 0x1B999798455472A9BDD586926473 PUSH16 0x6C634300081300330000000000000000 "},"methodIdentifiers":{"DILITHIUM_D()":"a4551bae","DILITHIUM_K()":"4838e307","DILITHIUM_L()":"403ac7c0","DILITHIUM_N()":"c3e8faa6","DILITHIUM_Q()":"62d14b60","XMSS_HEIGHT()":"5579856b","XMSS_N()":"01c95766"}}}}}