{"contracts/QuantumConsensus.sol":{"QuantumConsensus":{"abi":[{"inputs":[],"stateMutability":"nonpayable","type":"constructor"},{"anonymous":false,"inputs":[{"indexed":true,"internalType":"uint256","name":"blockNumber","type":"uint256"},{"indexed":true,"internalType":"address","name":"miner","type":"address"},{"indexed":false,"internalType":"bytes32","name":"blockHash","type":"bytes32"}],"name":"BlockMined","type":"event"},{"anonymous":false,"inputs":[{"indexed":true,"internalType":"bytes32","name":"hash","type":"bytes32"},{"indexed":false,"internalType":"bool","name":"valid","type":"bool"}],"name":"QuantumProofVerified","type":"event"},{"anonymous":false,"inputs":[{"indexed":true,"internalType":"address","name":"validator","type":"address"},{"indexed":false,"internalType":"uint256","name":"stake","type":"uint256"}],"name":"ValidatorAdded","type":"event"},{"inputs":[],"name":"BLOCK_TIME_TARGET","outputs":[{"internalType":"uint256","name":"","type":"uint256"}],"stateMutability":"view","type":"function"},{"inputs":[],"name":"EPOCH_LENGTH","outputs":[{"internalType":"uint256","name":"","type":"uint256"}],"stateMutability":"view","type":"function"},{"inputs":[],"name":"QUANTUM_DIFFICULTY","outputs":[{"internalType":"uint256","name":"","type":"uint256"}],"stateMutability":"view","type":"function"},{"inputs":[{"internalType":"uint256","name":"stake","type":"uint256"},{"internalType":"uint256","name":"seed","type":"uint256"}],"name":"addValidator","outputs":[],"stateMutability":"payable","type":"function"},{"inputs":[{"internalType":"uint256","name":"","type":"uint256"}],"name":"blocks","outputs":[{"internalType":"uint256","name":"blockNumber","type":"uint256"},{"internalType":"bytes32","name":"blockHash","type":"bytes32"},{"internalType":"bytes32","name":"quantumHash","type":"bytes32"},{"internalType":"uint256","name":"timestamp","type":"uint256"},{"internalType":"uint256","name":"quantumDifficulty","type":"uint256"},{"internalType":"bytes32","name":"parentHash","type":"bytes32"},{"internalType":"address","name":"miner","type":"address"},{"internalType":"bytes","name":"quantumProof","type":"bytes"}],"stateMutability":"view","type":"function"},{"inputs":[],"name":"currentBlockNumber","outputs":[{"internalType":"uint256","name":"","type":"uint256"}],"stateMutability":"view","type":"function"},{"inputs":[{"internalType":"uint256","name":"blockNumber","type":"uint256"}],"name":"getBlock","outputs":[{"internalType":"bytes32","name":"blockHash","type":"bytes32"},{"internalType":"bytes32","name":"quantumHash","type":"bytes32"},{"internalType":"uint256","name":"timestamp","type":"uint256"},{"internalType":"address","name":"miner","type":"address"}],"stateMutability":"view","type":"function"},{"inputs":[],"name":"getQuantumEntropy","outputs":[{"internalType":"uint256","name":"","type":"uint256"}],"stateMutability":"view","type":"function"},{"inputs":[{"internalType":"address","name":"validator","type":"address"}],"name":"getValidatorReputation","outputs":[{"internalType":"uint256","name":"","type":"uint256"}],"stateMutability":"view","type":"function"},{"inputs":[{"internalType":"address","name":"validator","type":"address"}],"name":"getValidatorStake","outputs":[{"internalType":"uint256","name":"","type":"uint256"}],"stateMutability":"view","type":"function"},{"inputs":[{"internalType":"bytes32","name":"hash","type":"bytes32"}],"name":"isHashProcessed","outputs":[{"internalType":"bool","name":"","type":"bool"}],"stateMutability":"view","type":"function"},{"inputs":[{"internalType":"bytes32","name":"hash","type":"bytes32"}],"name":"markHashProcessed","outputs":[],"stateMutability":"nonpayable","type":"function"},{"inputs":[{"internalType":"bytes","name":"quantumProof","type":"bytes"},{"internalType":"uint256","name":"nonce","type":"uint256"}],"name":"mineQuantumBlock","outputs":[],"stateMutability":"nonpayable","type":"function"},{"inputs":[{"internalType":"bytes32","name":"","type":"bytes32"}],"name":"processedHashes","outputs":[{"internalType":"bool","name":"","type":"bool"}],"stateMutability":"view","type":"function"},{"inputs":[],"name":"quantumEntropy","outputs":[{"internalType":"uint256","name":"","type":"uint256"}],"stateMutability":"view","type":"function"},{"inputs":[],"name":"totalValidators","outputs":[{"internalType":"uint256","name":"","type":"uint256"}],"stateMutability":"view","type":"function"},{"inputs":[{"internalType":"address","name":"","type":"address"}],"name":"validators","outputs":[{"internalType":"address","name":"addr","type":"address"},{"internalType":"uint256","name":"stake","type":"uint256"},{"internalType":"uint256","name":"reputation","type":"uint256"},{"components":[{"internalType":"uint256[4]","name":"publicKey","type":"uint256[4]"},{"internalType":"uint256[8]","name":"privateKey","type":"uint256[8]"}],"internalType":"struct QuantumSafeCrypto.DilithiumKeyPair","name":"quantumKey","type":"tuple"},{"internalType":"bool","name":"active","type":"bool"}],"stateMutability":"view","type":"function"}],"evm":{"bytecode":{"linkReferences":{},"object":"60806040523480156200001157600080fd5b50424460405160200162000027929190620001b1565b6040516020818303038152906040528051906020012060001c600581905550620000566200005c60201b60201c565b6200069c565b60008060008081526020019081526020016000209050600081600001819055506040516020016200008d906200023f565b604051602081830303815290604052805190602001208160010181905550620000db604051602001620000c090620002b1565b6040516020818303038152906040526200018560201b60201c565b81600201819055504281600301819055506103e881600401819055506000801b816005018190555060008160060160006101000a81548173ffffffffffffffffffffffffffffffffffffffff021916908373ffffffffffffffffffffffffffffffffffffffff160217905550604051602001620001589062000323565b604051602081830303815290604052816007019081620001799190620005b5565b50600160038190555050565b600081805190602001209050919050565b6000819050919050565b620001ab8162000196565b82525050565b6000604082019050620001c86000830185620001a0565b620001d76020830184620001a0565b9392505050565b600082825260208201905092915050565b7f47454e4553495300000000000000000000000000000000000000000000000000600082015250565b600062000227600783620001de565b91506200023482620001ef565b602082019050919050565b600060208201905081810360008301526200025a8162000218565b9050919050565b7f5155414e54554d5f47454e455349530000000000000000000000000000000000600082015250565b600062000299600f83620001de565b9150620002a68262000261565b602082019050919050565b60006020820190508181036000830152620002cc816200028a565b9050919050565b7f47454e455349535f50524f4f4600000000000000000000000000000000000000600082015250565b60006200030b600d83620001de565b91506200031882620002d3565b602082019050919050565b600060208201905081810360008301526200033e81620002fc565b9050919050565b600081519050919050565b7f4e487b7100000000000000000000000000000000000000000000000000000000600052604160045260246000fd5b7f4e487b7100000000000000000000000000000000000000000000000000000000600052602260045260246000fd5b60006002820490506001821680620003c757607f821691505b602082108103620003dd57620003dc6200037f565b5b50919050565b60008190508160005260206000209050919050565b60006020601f8301049050919050565b600082821b905092915050565b600060088302620004477fffffffffffffffffffffffffffffffffffffffffffffffffffffffffffffffff8262000408565b62000453868362000408565b95508019841693508086168417925050509392505050565b6000819050919050565b600062000496620004906200048a8462000196565b6200046b565b62000196565b9050919050565b6000819050919050565b620004b28362000475565b620004ca620004c1826200049d565b84845462000415565b825550505050565b600090565b620004e1620004d2565b620004ee818484620004a7565b505050565b5b8181101562000516576200050a600082620004d7565b600181019050620004f4565b5050565b601f82111562000565576200052f81620003e3565b6200053a84620003f8565b810160208510156200054a578190505b620005626200055985620003f8565b830182620004f3565b50505b505050565b600082821c905092915050565b60006200058a600019846008026200056a565b1980831691505092915050565b6000620005a5838362000577565b9150826002028217905092915050565b620005c08262000345565b67ffffffffffffffff811115620005dc57620005db62000350565b5b620005e88254620003ae565b620005f58282856200051a565b600060209050601f8311600181146200062d576000841562000618578287015190505b62000624858262000597565b86555062000694565b601f1984166200063d86620003e3565b60005b82811015620006675784890151825560018201915060208501945060208101905062000640565b8683101562000687578489015162000683601f89168262000577565b8355505b6001600288020188555050505b505050505050565b61234a80620006ac6000396000f3fe6080604052600436106100fe5760003560e01c8063a5f772a411610095578063c81b356b11610064578063c81b356b1461033f578063d71c4c091461036a578063f07318d0146103a7578063f25b3f99146103d2578063fa52c7d814610416576100fe565b8063a5f772a414610297578063ac4746ab146102c2578063ad7edcd7146102ed578063bfd611ed14610316576100fe565b806334664846116100d157806334664846146101c7578063375736f114610204578063378ec23b1461022f578063965a96de1461025a576100fe565b806304c075691461010357806307d9c53414610143578063201a46ad146101805780632968e2ce146101ab575b600080fd5b34801561010f57600080fd5b5061012a60048036038101906101259190611416565b610457565b60405161013a94939291906114ac565b60405180910390f35b34801561014f57600080fd5b5061016a6004803603810190610165919061151d565b6105c7565b6040516101779190611565565b60405180910390f35b34801561018c57600080fd5b506101956105e7565b6040516101a29190611580565b60405180910390f35b6101c560048036038101906101c0919061159b565b6105ed565b005b3480156101d357600080fd5b506101ee60048036038101906101e99190611607565b610872565b6040516101fb9190611580565b60405180910390f35b34801561021057600080fd5b506102196108be565b6040516102269190611580565b60405180910390f35b34801561023b57600080fd5b506102446108c8565b6040516102519190611580565b60405180910390f35b34801561026657600080fd5b50610281600480360381019061027c919061151d565b6108ce565b60405161028e9190611565565b60405180910390f35b3480156102a357600080fd5b506102ac6108f8565b6040516102b99190611580565b60405180910390f35b3480156102ce57600080fd5b506102d76108fd565b6040516102e49190611580565b60405180910390f35b3480156102f957600080fd5b50610314600480360381019061030f919061177a565b610902565b005b34801561032257600080fd5b5061033d6004803603810190610338919061151d565b610c85565b005b34801561034b57600080fd5b50610354610d7c565b6040516103619190611580565b60405180910390f35b34801561037657600080fd5b50610391600480360381019061038c9190611607565b610d82565b60405161039e9190611580565b60405180910390f35b3480156103b357600080fd5b506103bc610dce565b6040516103c99190611580565b60405180910390f35b3480156103de57600080fd5b506103f960048036038101906103f49190611416565b610dd4565b60405161040d989796959493929190611855565b60405180910390f35b34801561042257600080fd5b5061043d60048036038101906104389190611607565b610ec4565b60405161044e959493929190611a39565b60405180910390f35b6000806000806000806000878152602001908152602001600020604051806101000160405290816000820154815260200160018201548152602001600282015481526020016003820154815260200160048201548152602001600582015481526020016006820160009054906101000a900473ffffffffffffffffffffffffffffffffffffffff1673ffffffffffffffffffffffffffffffffffffffff1673ffffffffffffffffffffffffffffffffffffffff16815260200160078201805461051f90611abd565b80601f016020809104026020016040519081016040528092919081815260200182805461054b90611abd565b80156105985780601f1061056d57610100808354040283529160200191610598565b820191906000526020600020905b81548152906001019060200180831161057b57829003601f168201915b50505050508152505090508060200151816040015182606001518360c001519450945094509450509193509193565b60026020528060005260406000206000915054906101000a900460ff1681565b6103e881565b81341015610630576040517f08c379a000000000000000000000000000000000000000000000000000000000815260040161062790611b4b565b60405180910390fd5b600160003373ffffffffffffffffffffffffffffffffffffffff1673ffffffffffffffffffffffffffffffffffffffff168152602001908152602001600020600f0160009054906101000a900460ff16156106c0576040517f08c379a00000000000000000000000000000000000000000000000000000000081526004016106b790611bb7565b60405180910390fd5b60006106cb82610fbb565b90506040518060a001604052803373ffffffffffffffffffffffffffffffffffffffff1681526020018481526020016103e8815260200182815260200160011515815250600160003373ffffffffffffffffffffffffffffffffffffffff1673ffffffffffffffffffffffffffffffffffffffff16815260200190815260200160002060008201518160000160006101000a81548173ffffffffffffffffffffffffffffffffffffffff021916908373ffffffffffffffffffffffffffffffffffffffff16021790555060208201518160010155604082015181600201556060820151816003016000820151816000019060046107c99291906112c4565b506020820151816004019060086107e1929190611304565b505050608082015181600f0160006101000a81548160ff0219169083151502179055509050506004600081548092919061081a90611c06565b91905055503373ffffffffffffffffffffffffffffffffffffffff167f9000b209805850a65058f21361a9978cb30f1413ed555553ab52a59b440b5d99846040516108659190611580565b60405180910390a2505050565b6000600160008373ffffffffffffffffffffffffffffffffffffffff1673ffffffffffffffffffffffffffffffffffffffff168152602001908152602001600020600101549050919050565b6000600554905090565b60035481565b60006002600083815260200190815260200160002060009054906101000a900460ff169050919050565b600f81565b606481565b600160003373ffffffffffffffffffffffffffffffffffffffff1673ffffffffffffffffffffffffffffffffffffffff168152602001908152602001600020600f0160009054906101000a900460ff16610991576040517f08c379a000000000000000000000000000000000000000000000000000000000815260040161098890611c9a565b60405180910390fd5b600060035460008060016003546109a89190611cba565b8152602001908152602001600020600101544285856040516020016109d1959493929190611cee565b6040516020818303038152906040528051906020012090506000610a1782600554604051602001610a03929190611d48565b6040516020818303038152906040526110d4565b905060008160001c90506103e88110610a65576040517f08c379a0000000000000000000000000000000000000000000000000000000008152600401610a5c90611dbd565b60405180910390fd5b610a6f85846110e5565b610aae576040517f08c379a0000000000000000000000000000000000000000000000000000000008152600401610aa590611e29565b60405180910390fd5b6000806000600354815260200190815260200160002090506003548160000181905550838160010181905550828160020181905550428160030181905550610af461112e565b81600401819055506000806001600354610b0e9190611cba565b8152602001908152602001600020600101548160050181905550338160060160006101000a81548173ffffffffffffffffffffffffffffffffffffffff021916908373ffffffffffffffffffffffffffffffffffffffff16021790555085816007019081610b7c9190611ff5565b5060055483604051602001610b929291906120c7565b6040516020818303038152906040528051906020012060001c600581905550610bba3361126b565b600a600160003373ffffffffffffffffffffffffffffffffffffffff1673ffffffffffffffffffffffffffffffffffffffff1681526020019081526020016000206002016000828254610c0d91906120f0565b925050819055503373ffffffffffffffffffffffffffffffffffffffff166003547f84c1f3580ae009522c870c7efc2c3dc362bb7c75603ba15b642a5f0f9540864386604051610c5d9190612124565b60405180910390a360036000815480929190610c7890611c06565b9190505550505050505050565b600160003373ffffffffffffffffffffffffffffffffffffffff1673ffffffffffffffffffffffffffffffffffffffff168152602001908152602001600020600f0160009054906101000a900460ff16610d14576040517f08c379a0000000000000000000000000000000000000000000000000000000008152600401610d0b9061218b565b60405180910390fd5b60016002600083815260200190815260200160002060006101000a81548160ff021916908315150217905550807f55bd7cb9b959e822299d8aff0bfe605b9345d0e312dda8a25761b6877ffebd6f6001604051610d719190611565565b60405180910390a250565b60045481565b6000600160008373ffffffffffffffffffffffffffffffffffffffff1673ffffffffffffffffffffffffffffffffffffffff168152602001908152602001600020600201549050919050565b60055481565b60006020528060005260406000206000915090508060000154908060010154908060020154908060030154908060040154908060050154908060060160009054906101000a900473ffffffffffffffffffffffffffffffffffffffff1690806007018054610e4190611abd565b80601f0160208091040260200160405190810160405280929190818152602001828054610e6d90611abd565b8015610eba5780601f10610e8f57610100808354040283529160200191610eba565b820191906000526020600020905b815481529060010190602001808311610e9d57829003601f168201915b5050505050905088565b60016020528060005260406000206000915090508060000160009054906101000a900473ffffffffffffffffffffffffffffffffffffffff16908060010154908060020154908060030160405180604001604052908160008201600480602002604051908101604052809291908260048015610f55576020028201915b815481526020019060010190808311610f41575b5050505050815260200160048201600880602002604051908101604052809291908260088015610f9a576020028201915b815481526020019060010190808311610f86575b5050505050815250509080600f0160009054906101000a900460ff16905085565b610fc3611344565b610fcb611344565b60005b600481101561104457627fe0018482604051602001610fee9291906121ab565b6040516020818303038152906040528051906020012060001c6110119190612203565b8260000151826004811061102857611027612234565b5b602002018181525050808061103c90611c06565b915050610fce565b5060005b60088110156110ca57627fe0018460648361106391906120f0565b6040516020016110749291906121ab565b6040516020818303038152906040528051906020012060001c6110979190612203565b826020015182600881106110ae576110ad612234565b5b60200201818152505080806110c290611c06565b915050611048565b5080915050919050565b600081805190602001209050919050565b60008083836005546040516020016110ff93929190612263565b60405160208183030381529060405280519060200120905060008160001c90506103e881109250505092915050565b600060646003541015611145576103e89050611268565b60006002606461115591906122a1565b60035410611170576002606461116b91906122a1565b611174565b6003545b90506000806001836003546111899190611cba565b61119391906120f0565b90505b6003548111611201576000806001836111af9190611cba565b815260200190815260200160002060030154600080838152602001908152602001600020600301546111e19190611cba565b826111ec91906120f0565b915080806111f990611c06565b915050611196565b506000828261121091906122e3565b90506000600f90508082101561124657600a600b6103e861123191906122a1565b61123b91906122e3565b945050505050611268565b600a60096103e861125791906122a1565b61126191906122e3565b9450505050505b90565b600068056bc75e2d6310000090508173ffffffffffffffffffffffffffffffffffffffff166108fc829081150290604051600060405180830381858888f193505050501580156112bf573d6000803e3d6000fd5b505050565b82600481019282156112f3579160200282015b828111156112f25782518255916020019190600101906112d7565b5b509050611300919061136a565b5090565b8260088101928215611333579160200282015b82811115611332578251825591602001919060010190611317565b5b509050611340919061136a565b5090565b6040518060400160405280611357611387565b81526020016113646113a9565b81525090565b5b8082111561138357600081600090555060010161136b565b5090565b6040518060800160405280600490602082028036833780820191505090505090565b604051806101000160405280600890602082028036833780820191505090505090565b6000604051905090565b600080fd5b600080fd5b6000819050919050565b6113f3816113e0565b81146113fe57600080fd5b50565b600081359050611410816113ea565b92915050565b60006020828403121561142c5761142b6113d6565b5b600061143a84828501611401565b91505092915050565b6000819050919050565b61145681611443565b82525050565b611465816113e0565b82525050565b600073ffffffffffffffffffffffffffffffffffffffff82169050919050565b60006114968261146b565b9050919050565b6114a68161148b565b82525050565b60006080820190506114c1600083018761144d565b6114ce602083018661144d565b6114db604083018561145c565b6114e8606083018461149d565b95945050505050565b6114fa81611443565b811461150557600080fd5b50565b600081359050611517816114f1565b92915050565b600060208284031215611533576115326113d6565b5b600061154184828501611508565b91505092915050565b60008115159050919050565b61155f8161154a565b82525050565b600060208201905061157a6000830184611556565b92915050565b6000602082019050611595600083018461145c565b92915050565b600080604083850312156115b2576115b16113d6565b5b60006115c085828601611401565b92505060206115d185828601611401565b9150509250929050565b6115e48161148b565b81146115ef57600080fd5b50565b600081359050611601816115db565b92915050565b60006020828403121561161d5761161c6113d6565b5b600061162b848285016115f2565b91505092915050565b600080fd5b600080fd5b6000601f19601f8301169050919050565b7f4e487b7100000000000000000000000000000000000000000000000000000000600052604160045260246000fd5b6116878261163e565b810181811067ffffffffffffffff821117156116a6576116a561164f565b5b80604052505050565b60006116b96113cc565b90506116c5828261167e565b919050565b600067ffffffffffffffff8211156116e5576116e461164f565b5b6116ee8261163e565b9050602081019050919050565b82818337600083830152505050565b600061171d611718846116ca565b6116af565b90508281526020810184848401111561173957611738611639565b5b6117448482856116fb565b509392505050565b600082601f83011261176157611760611634565b5b813561177184826020860161170a565b91505092915050565b60008060408385031215611791576117906113d6565b5b600083013567ffffffffffffffff8111156117af576117ae6113db565b5b6117bb8582860161174c565b92505060206117cc85828601611401565b9150509250929050565b600081519050919050565b600082825260208201905092915050565b60005b838110156118105780820151818401526020810190506117f5565b60008484015250505050565b6000611827826117d6565b61183181856117e1565b93506118418185602086016117f2565b61184a8161163e565b840191505092915050565b60006101008201905061186b600083018b61145c565b611878602083018a61144d565b611885604083018961144d565b611892606083018861145c565b61189f608083018761145c565b6118ac60a083018661144d565b6118b960c083018561149d565b81810360e08301526118cb818461181c565b90509998505050505050505050565b600060049050919050565b600081905092915050565b6000819050919050565b611903816113e0565b82525050565b600061191583836118fa565b60208301905092915050565b6000602082019050919050565b611937816118da565b61194181846118e5565b925061194c826118f0565b8060005b8381101561197d5781516119648782611909565b965061196f83611921565b925050600181019050611950565b505050505050565b600060089050919050565b600081905092915050565b6000819050919050565b6000602082019050919050565b6119bb81611985565b6119c58184611990565b92506119d08261199b565b8060005b83811015611a015781516119e88782611909565b96506119f3836119a5565b9250506001810190506119d4565b505050505050565b61018082016000820151611a20600085018261192e565b506020820151611a3360808501826119b2565b50505050565b600061020082019050611a4f600083018861149d565b611a5c602083018761145c565b611a69604083018661145c565b611a766060830185611a09565b611a846101e0830184611556565b9695505050505050565b7f4e487b7100000000000000000000000000000000000000000000000000000000600052602260045260246000fd5b60006002820490506001821680611ad557607f821691505b602082108103611ae857611ae7611a8e565b5b50919050565b600082825260208201905092915050565b7f496e73756666696369656e74207374616b650000000000000000000000000000600082015250565b6000611b35601283611aee565b9150611b4082611aff565b602082019050919050565b60006020820190508181036000830152611b6481611b28565b9050919050565b7f416c726561647920612076616c696461746f7200000000000000000000000000600082015250565b6000611ba1601383611aee565b9150611bac82611b6b565b602082019050919050565b60006020820190508181036000830152611bd081611b94565b9050919050565b7f4e487b7100000000000000000000000000000000000000000000000000000000600052601160045260246000fd5b6000611c11826113e0565b91507fffffffffffffffffffffffffffffffffffffffffffffffffffffffffffffffff8203611c4357611c42611bd7565b5b600182019050919050565b7f4e6f7420616e206163746976652076616c696461746f72000000000000000000600082015250565b6000611c84601783611aee565b9150611c8f82611c4e565b602082019050919050565b60006020820190508181036000830152611cb381611c77565b9050919050565b6000611cc5826113e0565b9150611cd0836113e0565b9250828203905081811115611ce857611ce7611bd7565b5b92915050565b600060a082019050611d03600083018861145c565b611d10602083018761144d565b611d1d604083018661145c565b8181036060830152611d2f818561181c565b9050611d3e608083018461145c565b9695505050505050565b6000604082019050611d5d600083018561144d565b611d6a602083018461145c565b9392505050565b7f5175616e74756d2070726f6f6620696e73756666696369656e74000000000000600082015250565b6000611da7601a83611aee565b9150611db282611d71565b602082019050919050565b60006020820190508181036000830152611dd681611d9a565b9050919050565b7f496e76616c6964207175616e74756d2070726f6f660000000000000000000000600082015250565b6000611e13601583611aee565b9150611e1e82611ddd565b602082019050919050565b60006020820190508181036000830152611e4281611e06565b9050919050565b60008190508160005260206000209050919050565b60006020601f8301049050919050565b600082821b905092915050565b600060088302611eab7fffffffffffffffffffffffffffffffffffffffffffffffffffffffffffffffff82611e6e565b611eb58683611e6e565b95508019841693508086168417925050509392505050565b6000819050919050565b6000611ef2611eed611ee8846113e0565b611ecd565b6113e0565b9050919050565b6000819050919050565b611f0c83611ed7565b611f20611f1882611ef9565b848454611e7b565b825550505050565b600090565b611f35611f28565b611f40818484611f03565b505050565b5b81811015611f6457611f59600082611f2d565b600181019050611f46565b5050565b601f821115611fa957611f7a81611e49565b611f8384611e5e565b81016020851015611f92578190505b611fa6611f9e85611e5e565b830182611f45565b50505b505050565b600082821c905092915050565b6000611fcc60001984600802611fae565b1980831691505092915050565b6000611fe58383611fbb565b9150826002028217905092915050565b611ffe826117d6565b67ffffffffffffffff8111156120175761201661164f565b5b6120218254611abd565b61202c828285611f68565b600060209050601f83116001811461205f576000841561204d578287015190505b6120578582611fd9565b8655506120bf565b601f19841661206d86611e49565b60005b8281101561209557848901518255600182019150602085019450602081019050612070565b868310156120b257848901516120ae601f891682611fbb565b8355505b6001600288020188555050505b505050505050565b60006040820190506120dc600083018561145c565b6120e9602083018461144d565b9392505050565b60006120fb826113e0565b9150612106836113e0565b925082820190508082111561211e5761211d611bd7565b5b92915050565b6000602082019050612139600083018461144d565b92915050565b7f4e6f7420612076616c696461746f720000000000000000000000000000000000600082015250565b6000612175600f83611aee565b91506121808261213f565b602082019050919050565b600060208201905081810360008301526121a481612168565b9050919050565b60006040820190506121c0600083018561145c565b6121cd602083018461145c565b9392505050565b7f4e487b7100000000000000000000000000000000000000000000000000000000600052601260045260246000fd5b600061220e826113e0565b9150612219836113e0565b925082612229576122286121d4565b5b828206905092915050565b7f4e487b7100000000000000000000000000000000000000000000000000000000600052603260045260246000fd5b6000606082019050818103600083015261227d818661181c565b905061228c602083018561144d565b612299604083018461145c565b949350505050565b60006122ac826113e0565b91506122b7836113e0565b92508282026122c5816113e0565b915082820484148315176122dc576122db611bd7565b5b5092915050565b60006122ee826113e0565b91506122f9836113e0565b925082612309576123086121d4565b5b82820490509291505056fea26469706673582212209fc0d4068259f3da76f2cf06575532072971bb426e26d685f34bd8b0c2c0ea6564736f6c63430008130033","opcodes":"PUSH1 0x80 PUSH1 0x40 MSTORE CALLVALUE DUP1 ISZERO PUSH3 0x11 JUMPI PUSH1 0x0 DUP1 REVERT JUMPDEST POP TIMESTAMP PREVRANDAO PUSH1 0x40 MLOAD PUSH1 0x20 ADD PUSH3 0x27 SWAP3 SWAP2 SWAP1 PUSH3 0x1B1 JUMP JUMPDEST PUSH1 0x40 MLOAD PUSH1 0x20 DUP2 DUP4 SUB SUB DUP2 MSTORE SWAP1 PUSH1 0x40 MSTORE DUP1 MLOAD SWAP1 PUSH1 0x20 ADD KECCAK256 PUSH1 0x0 SHR PUSH1 0x5 DUP2 SWAP1 SSTORE POP PUSH3 0x56 PUSH3 0x5C PUSH1 0x20 SHL PUSH1 0x20 SHR JUMP JUMPDEST PUSH3 0x69C JUMP JUMPDEST PUSH1 0x0 DUP1 PUSH1 0x0 DUP1 DUP2 MSTORE PUSH1 0x20 ADD SWAP1 DUP2 MSTORE PUSH1 0x20 ADD PUSH1 0x0 KECCAK256 SWAP1 POP PUSH1 0x0 DUP2 PUSH1 0x0 ADD DUP2 SWAP1 SSTORE POP PUSH1 0x40 MLOAD PUSH1 0x20 ADD PUSH3 0x8D SWAP1 PUSH3 0x23F JUMP JUMPDEST PUSH1 0x40 MLOAD PUSH1 0x20 DUP2 DUP4 SUB SUB DUP2 MSTORE SWAP1 PUSH1 0x40 MSTORE DUP1 MLOAD SWAP1 PUSH1 0x20 ADD KECCAK256 DUP2 PUSH1 0x1 ADD DUP2 SWAP1 SSTORE POP PUSH3 0xDB PUSH1 0x40 MLOAD PUSH1 0x20 ADD PUSH3 0xC0 SWAP1 PUSH3 0x2B1 JUMP JUMPDEST PUSH1 0x40 MLOAD PUSH1 0x20 DUP2 DUP4 SUB SUB DUP2 MSTORE SWAP1 PUSH1 0x40 MSTORE PUSH3 0x185 PUSH1 0x20 SHL PUSH1 0x20 SHR JUMP JUMPDEST DUP2 PUSH1 0x2 ADD DUP2 SWAP1 SSTORE POP TIMESTAMP DUP2 PUSH1 0x3 ADD DUP2 SWAP1 SSTORE POP PUSH2 0x3E8 DUP2 PUSH1 0x4 ADD DUP2 SWAP1 SSTORE POP PUSH1 0x0 DUP1 SHL DUP2 PUSH1 0x5 ADD DUP2 SWAP1 SSTORE POP PUSH1 0x0 DUP2 PUSH1 0x6 ADD PUSH1 0x0 PUSH2 0x100 EXP DUP2 SLOAD DUP2 PUSH20 0xFFFFFFFFFFFFFFFFFFFFFFFFFFFFFFFFFFFFFFFF MUL NOT AND SWAP1 DUP4 PUSH20 0xFFFFFFFFFFFFFFFFFFFFFFFFFFFFFFFFFFFFFFFF AND MUL OR SWAP1 SSTORE POP PUSH1 0x40 MLOAD PUSH1 0x20 ADD PUSH3 0x158 SWAP1 PUSH3 0x323 JUMP JUMPDEST PUSH1 0x40 MLOAD PUSH1 0x20 DUP2 DUP4 SUB SUB DUP2 MSTORE SWAP1 PUSH1 0x40 MSTORE DUP2 PUSH1 0x7 ADD SWAP1 DUP2 PUSH3 0x179 SWAP2 SWAP1 PUSH3 0x5B5 JUMP JUMPDEST POP PUSH1 0x1 PUSH1 0x3 DUP2 SWAP1 SSTORE POP POP JUMP JUMPDEST PUSH1 0x0 DUP2 DUP1 MLOAD SWAP1 PUSH1 0x20 ADD KECCAK256 SWAP1 POP SWAP2 SWAP1 POP JUMP JUMPDEST PUSH1 0x0 DUP2 SWAP1 POP SWAP2 SWAP1 POP JUMP JUMPDEST PUSH3 0x1AB DUP2 PUSH3 0x196 JUMP JUMPDEST DUP3 MSTORE POP POP JUMP JUMPDEST PUSH1 0x0 PUSH1 0x40 DUP3 ADD SWAP1 POP PUSH3 0x1C8 PUSH1 0x0 DUP4 ADD DUP6 PUSH3 0x1A0 JUMP JUMPDEST PUSH3 0x1D7 PUSH1 0x20 DUP4 ADD DUP5 PUSH3 0x1A0 JUMP JUMPDEST SWAP4 SWAP3 POP POP POP JUMP JUMPDEST PUSH1 0x0 DUP3 DUP3 MSTORE PUSH1 0x20 DUP3 ADD SWAP1 POP SWAP3 SWAP2 POP POP JUMP JUMPDEST PUSH32 0x47454E4553495300000000000000000000000000000000000000000000000000 PUSH1 0x0 DUP3 ADD MSTORE POP JUMP JUMPDEST PUSH1 0x0 PUSH3 0x227 PUSH1 0x7 DUP4 PUSH3 0x1DE JUMP JUMPDEST SWAP2 POP PUSH3 0x234 DUP3 PUSH3 0x1EF JUMP JUMPDEST PUSH1 0x20 DUP3 ADD SWAP1 POP SWAP2 SWAP1 POP JUMP JUMPDEST PUSH1 0x0 PUSH1 0x20 DUP3 ADD SWAP1 POP DUP2 DUP2 SUB PUSH1 0x0 DUP4 ADD MSTORE PUSH3 0x25A DUP2 PUSH3 0x218 JUMP JUMPDEST SWAP1 POP SWAP2 SWAP1 POP JUMP JUMPDEST PUSH32 0x5155414E54554D5F47454E455349530000000000000000000000000000000000 PUSH1 0x0 DUP3 ADD MSTORE POP JUMP JUMPDEST PUSH1 0x0 PUSH3 0x299 PUSH1 0xF DUP4 PUSH3 0x1DE JUMP JUMPDEST SWAP2 POP PUSH3 0x2A6 DUP3 PUSH3 0x261 JUMP JUMPDEST PUSH1 0x20 DUP3 ADD SWAP1 POP SWAP2 SWAP1 POP JUMP JUMPDEST PUSH1 0x0 PUSH1 0x20 DUP3 ADD SWAP1 POP DUP2 DUP2 SUB PUSH1 0x0 DUP4 ADD MSTORE PUSH3 0x2CC DUP2 PUSH3 0x28A JUMP JUMPDEST SWAP1 POP SWAP2 SWAP1 POP JUMP JUMPDEST PUSH32 0x47454E455349535F50524F4F4600000000000000000000000000000000000000 PUSH1 0x0 DUP3 ADD MSTORE POP JUMP JUMPDEST PUSH1 0x0 PUSH3 0x30B PUSH1 0xD DUP4 PUSH3 0x1DE JUMP JUMPDEST SWAP2 POP PUSH3 0x318 DUP3 PUSH3 0x2D3 JUMP JUMPDEST PUSH1 0x20 DUP3 ADD SWAP1 POP SWAP2 SWAP1 POP JUMP JUMPDEST PUSH1 0x0 PUSH1 0x20 DUP3 ADD SWAP1 POP DUP2 DUP2 SUB PUSH1 0x0 DUP4 ADD MSTORE PUSH3 0x33E DUP2 PUSH3 0x2FC JUMP JUMPDEST SWAP1 POP SWAP2 SWAP1 POP JUMP JUMPDEST PUSH1 0x0 DUP2 MLOAD SWAP1 POP SWAP2 SWAP1 POP JUMP JUMPDEST PUSH32 0x4E487B7100000000000000000000000000000000000000000000000000000000 PUSH1 0x0 MSTORE PUSH1 0x41 PUSH1 0x4 MSTORE PUSH1 0x24 PUSH1 0x0 REVERT JUMPDEST PUSH32 0x4E487B7100000000000000000000000000000000000000000000000000000000 PUSH1 0x0 MSTORE PUSH1 0x22 PUSH1 0x4 MSTORE PUSH1 0x24 PUSH1 0x0 REVERT JUMPDEST PUSH1 0x0 PUSH1 0x2 DUP3 DIV SWAP1 POP PUSH1 0x1 DUP3 AND DUP1 PUSH3 0x3C7 JUMPI PUSH1 0x7F DUP3 AND SWAP2 POP JUMPDEST PUSH1 0x20 DUP3 LT DUP2 SUB PUSH3 0x3DD JUMPI PUSH3 0x3DC PUSH3 0x37F JUMP JUMPDEST JUMPDEST POP SWAP2 SWAP1 POP JUMP JUMPDEST PUSH1 0x0 DUP2 SWAP1 POP DUP2 PUSH1 0x0 MSTORE PUSH1 0x20 PUSH1 0x0 KECCAK256 SWAP1 POP SWAP2 SWAP1 POP JUMP JUMPDEST PUSH1 0x0 PUSH1 0x20 PUSH1 0x1F DUP4 ADD DIV SWAP1 POP SWAP2 SWAP1 POP JUMP JUMPDEST PUSH1 0x0 DUP3 DUP3 SHL SWAP1 POP SWAP3 SWAP2 POP POP JUMP JUMPDEST PUSH1 0x0 PUSH1 0x8 DUP4 MUL PUSH3 0x447 PUSH32 0xFFFFFFFFFFFFFFFFFFFFFFFFFFFFFFFFFFFFFFFFFFFFFFFFFFFFFFFFFFFFFFFF DUP3 PUSH3 0x408 JUMP JUMPDEST PUSH3 0x453 DUP7 DUP4 PUSH3 0x408 JUMP JUMPDEST SWAP6 POP DUP1 NOT DUP5 AND SWAP4 POP DUP1 DUP7 AND DUP5 OR SWAP3 POP POP POP SWAP4 SWAP3 POP POP POP JUMP JUMPDEST PUSH1 0x0 DUP2 SWAP1 POP SWAP2 SWAP1 POP JUMP JUMPDEST PUSH1 0x0 PUSH3 0x496 PUSH3 0x490 PUSH3 0x48A DUP5 PUSH3 0x196 JUMP JUMPDEST PUSH3 0x46B JUMP JUMPDEST PUSH3 0x196 JUMP JUMPDEST SWAP1 POP SWAP2 SWAP1 POP JUMP JUMPDEST PUSH1 0x0 DUP2 SWAP1 POP SWAP2 SWAP1 POP JUMP JUMPDEST PUSH3 0x4B2 DUP4 PUSH3 0x475 JUMP JUMPDEST PUSH3 0x4CA PUSH3 0x4C1 DUP3 PUSH3 0x49D JUMP JUMPDEST DUP5 DUP5 SLOAD PUSH3 0x415 JUMP JUMPDEST DUP3 SSTORE POP POP POP POP JUMP JUMPDEST PUSH1 0x0 SWAP1 JUMP JUMPDEST PUSH3 0x4E1 PUSH3 0x4D2 JUMP JUMPDEST PUSH3 0x4EE DUP2 DUP5 DUP5 PUSH3 0x4A7 JUMP JUMPDEST POP POP POP JUMP JUMPDEST JUMPDEST DUP2 DUP2 LT ISZERO PUSH3 0x516 JUMPI PUSH3 0x50A PUSH1 0x0 DUP3 PUSH3 0x4D7 JUMP JUMPDEST PUSH1 0x1 DUP2 ADD SWAP1 POP PUSH3 0x4F4 JUMP JUMPDEST POP POP JUMP JUMPDEST PUSH1 0x1F DUP3 GT ISZERO PUSH3 0x565 JUMPI PUSH3 0x52F DUP2 PUSH3 0x3E3 JUMP JUMPDEST PUSH3 0x53A DUP5 PUSH3 0x3F8 JUMP JUMPDEST DUP2 ADD PUSH1 0x20 DUP6 LT ISZERO PUSH3 0x54A JUMPI DUP2 SWAP1 POP JUMPDEST PUSH3 0x562 PUSH3 0x559 DUP6 PUSH3 0x3F8 JUMP JUMPDEST DUP4 ADD DUP3 PUSH3 0x4F3 JUMP JUMPDEST POP POP JUMPDEST POP POP POP JUMP JUMPDEST PUSH1 0x0 DUP3 DUP3 SHR SWAP1 POP SWAP3 SWAP2 POP POP JUMP JUMPDEST PUSH1 0x0 PUSH3 0x58A PUSH1 0x0 NOT DUP5 PUSH1 0x8 MUL PUSH3 0x56A JUMP JUMPDEST NOT DUP1 DUP4 AND SWAP2 POP POP SWAP3 SWAP2 POP POP JUMP JUMPDEST PUSH1 0x0 PUSH3 0x5A5 DUP4 DUP4 PUSH3 0x577 JUMP JUMPDEST SWAP2 POP DUP3 PUSH1 0x2 MUL DUP3 OR SWAP1 POP SWAP3 SWAP2 POP POP JUMP JUMPDEST PUSH3 0x5C0 DUP3 PUSH3 0x345 JUMP JUMPDEST PUSH8 0xFFFFFFFFFFFFFFFF DUP2 GT ISZERO PUSH3 0x5DC JUMPI PUSH3 0x5DB PUSH3 0x350 JUMP JUMPDEST JUMPDEST PUSH3 0x5E8 DUP3 SLOAD PUSH3 0x3AE JUMP JUMPDEST PUSH3 0x5F5 DUP3 DUP3 DUP6 PUSH3 0x51A JUMP JUMPDEST PUSH1 0x0 PUSH1 0x20 SWAP1 POP PUSH1 0x1F DUP4 GT PUSH1 0x1 DUP2 EQ PUSH3 0x62D JUMPI PUSH1 0x0 DUP5 ISZERO PUSH3 0x618 JUMPI DUP3 DUP8 ADD MLOAD SWAP1 POP JUMPDEST PUSH3 0x624 DUP6 DUP3 PUSH3 0x597 JUMP JUMPDEST DUP7 SSTORE POP PUSH3 0x694 JUMP JUMPDEST PUSH1 0x1F NOT DUP5 AND PUSH3 0x63D DUP7 PUSH3 0x3E3 JUMP JUMPDEST PUSH1 0x0 JUMPDEST DUP3 DUP2 LT ISZERO PUSH3 0x667 JUMPI DUP5 DUP10 ADD MLOAD DUP3 SSTORE PUSH1 0x1 DUP3 ADD SWAP2 POP PUSH1 0x20 DUP6 ADD SWAP5 POP PUSH1 0x20 DUP2 ADD SWAP1 POP PUSH3 0x640 JUMP JUMPDEST DUP7 DUP4 LT ISZERO PUSH3 0x687 JUMPI DUP5 DUP10 ADD MLOAD PUSH3 0x683 PUSH1 0x1F DUP10 AND DUP3 PUSH3 0x577 JUMP JUMPDEST DUP4 SSTORE POP JUMPDEST PUSH1 0x1 PUSH1 0x2 DUP9 MUL ADD DUP9 SSTORE POP POP POP JUMPDEST POP POP POP POP POP POP JUMP JUMPDEST PUSH2 0x234A DUP1 PUSH3 0x6AC PUSH1 0x0 CODECOPY PUSH1 0x0 RETURN INVALID PUSH1 0x80 PUSH1 0x40 MSTORE PUSH1 0x4 CALLDATASIZE LT PUSH2 0xFE JUMPI PUSH1 0x0 CALLDATALOAD PUSH1 0xE0 SHR DUP1 PUSH4 0xA5F772A4 GT PUSH2 0x95 JUMPI DUP1 PUSH4 0xC81B356B GT PUSH2 0x64 JUMPI DUP1 PUSH4 0xC81B356B EQ PUSH2 0x33F JUMPI DUP1 PUSH4 0xD71C4C09 EQ PUSH2 0x36A JUMPI DUP1 PUSH4 0xF07318D0 EQ PUSH2 0x3A7 JUMPI DUP1 PUSH4 0xF25B3F99 EQ PUSH2 0x3D2 JUMPI DUP1 PUSH4 0xFA52C7D8 EQ PUSH2 0x416 JUMPI PUSH2 0xFE JUMP JUMPDEST DUP1 PUSH4 0xA5F772A4 EQ PUSH2 0x297 JUMPI DUP1 PUSH4 0xAC4746AB EQ PUSH2 0x2C2 JUMPI DUP1 PUSH4 0xAD7EDCD7 EQ PUSH2 0x2ED JUMPI DUP1 PUSH4 0xBFD611ED EQ PUSH2 0x316 JUMPI PUSH2 0xFE JUMP JUMPDEST DUP1 PUSH4 0x34664846 GT PUSH2 0xD1 JUMPI DUP1 PUSH4 0x34664846 EQ PUSH2 0x1C7 JUMPI DUP1 PUSH4 0x375736F1 EQ PUSH2 0x204 JUMPI DUP1 PUSH4 0x378EC23B EQ PUSH2 0x22F JUMPI DUP1 PUSH4 0x965A96DE EQ PUSH2 0x25A JUMPI PUSH2 0xFE JUMP JUMPDEST DUP1 PUSH4 0x4C07569 EQ PUSH2 0x103 JUMPI DUP1 PUSH4 0x7D9C534 EQ PUSH2 0x143 JUMPI DUP1 PUSH4 0x201A46AD EQ PUSH2 0x180 JUMPI DUP1 PUSH4 0x2968E2CE EQ PUSH2 0x1AB JUMPI JUMPDEST PUSH1 0x0 DUP1 REVERT JUMPDEST CALLVALUE DUP1 ISZERO PUSH2 0x10F JUMPI PUSH1 0x0 DUP1 REVERT JUMPDEST POP PUSH2 0x12A PUSH1 0x4 DUP1 CALLDATASIZE SUB DUP2 ADD SWAP1 PUSH2 0x125 SWAP2 SWAP1 PUSH2 0x1416 JUMP JUMPDEST PUSH2 0x457 JUMP JUMPDEST PUSH1 0x40 MLOAD PUSH2 0x13A SWAP5 SWAP4 SWAP3 SWAP2 SWAP1 PUSH2 0x14AC JUMP JUMPDEST PUSH1 0x40 MLOAD DUP1 SWAP2 SUB SWAP1 RETURN JUMPDEST CALLVALUE DUP1 ISZERO PUSH2 0x14F JUMPI PUSH1 0x0 DUP1 REVERT JUMPDEST POP PUSH2 0x16A PUSH1 0x4 DUP1 CALLDATASIZE SUB DUP2 ADD SWAP1 PUSH2 0x165 SWAP2 SWAP1 PUSH2 0x151D JUMP JUMPDEST PUSH2 0x5C7 JUMP JUMPDEST PUSH1 0x40 MLOAD PUSH2 0x177 SWAP2 SWAP1 PUSH2 0x1565 JUMP JUMPDEST PUSH1 0x40 MLOAD DUP1 SWAP2 SUB SWAP1 RETURN JUMPDEST CALLVALUE DUP1 ISZERO PUSH2 0x18C JUMPI PUSH1 0x0 DUP1 REVERT JUMPDEST POP PUSH2 0x195 PUSH2 0x5E7 JUMP JUMPDEST PUSH1 0x40 MLOAD PUSH2 0x1A2 SWAP2 SWAP1 PUSH2 0x1580 JUMP JUMPDEST PUSH1 0x40 MLOAD DUP1 SWAP2 SUB SWAP1 RETURN JUMPDEST PUSH2 0x1C5 PUSH1 0x4 DUP1 CALLDATASIZE SUB DUP2 ADD SWAP1 PUSH2 0x1C0 SWAP2 SWAP1 PUSH2 0x159B JUMP JUMPDEST PUSH2 0x5ED JUMP JUMPDEST STOP JUMPDEST CALLVALUE DUP1 ISZERO PUSH2 0x1D3 JUMPI PUSH1 0x0 DUP1 REVERT JUMPDEST POP PUSH2 0x1EE PUSH1 0x4 DUP1 CALLDATASIZE SUB DUP2 ADD SWAP1 PUSH2 0x1E9 SWAP2 SWAP1 PUSH2 0x1607 JUMP JUMPDEST PUSH2 0x872 JUMP JUMPDEST PUSH1 0x40 MLOAD PUSH2 0x1FB SWAP2 SWAP1 PUSH2 0x1580 JUMP JUMPDEST PUSH1 0x40 MLOAD DUP1 SWAP2 SUB SWAP1 RETURN JUMPDEST CALLVALUE DUP1 ISZERO PUSH2 0x210 JUMPI PUSH1 0x0 DUP1 REVERT JUMPDEST POP PUSH2 0x219 PUSH2 0x8BE JUMP JUMPDEST PUSH1 0x40 MLOAD PUSH2 0x226 SWAP2 SWAP1 PUSH2 0x1580 JUMP JUMPDEST PUSH1 0x40 MLOAD DUP1 SWAP2 SUB SWAP1 RETURN JUMPDEST CALLVALUE DUP1 ISZERO PUSH2 0x23B JUMPI PUSH1 0x0 DUP1 REVERT JUMPDEST POP PUSH2 0x244 PUSH2 0x8C8 JUMP JUMPDEST PUSH1 0x40 MLOAD PUSH2 0x251 SWAP2 SWAP1 PUSH2 0x1580 JUMP JUMPDEST PUSH1 0x40 MLOAD DUP1 SWAP2 SUB SWAP1 RETURN JUMPDEST CALLVALUE DUP1 ISZERO PUSH2 0x266 JUMPI PUSH1 0x0 DUP1 REVERT JUMPDEST POP PUSH2 0x281 PUSH1 0x4 DUP1 CALLDATASIZE SUB DUP2 ADD SWAP1 PUSH2 0x27C SWAP2 SWAP1 PUSH2 0x151D JUMP JUMPDEST PUSH2 0x8CE JUMP JUMPDEST PUSH1 0x40 MLOAD PUSH2 0x28E SWAP2 SWAP1 PUSH2 0x1565 JUMP JUMPDEST PUSH1 0x40 MLOAD DUP1 SWAP2 SUB SWAP1 RETURN JUMPDEST CALLVALUE DUP1 ISZERO PUSH2 0x2A3 JUMPI PUSH1 0x0 DUP1 REVERT JUMPDEST POP PUSH2 0x2AC PUSH2 0x8F8 JUMP JUMPDEST PUSH1 0x40 MLOAD PUSH2 0x2B9 SWAP2 SWAP1 PUSH2 0x1580 JUMP JUMPDEST PUSH1 0x40 MLOAD DUP1 SWAP2 SUB SWAP1 RETURN JUMPDEST CALLVALUE DUP1 ISZERO PUSH2 0x2CE JUMPI PUSH1 0x0 DUP1 REVERT JUMPDEST POP PUSH2 0x2D7 PUSH2 0x8FD JUMP JUMPDEST PUSH1 0x40 MLOAD PUSH2 0x2E4 SWAP2 SWAP1 PUSH2 0x1580 JUMP JUMPDEST PUSH1 0x40 MLOAD DUP1 SWAP2 SUB SWAP1 RETURN JUMPDEST CALLVALUE DUP1 ISZERO PUSH2 0x2F9 JUMPI PUSH1 0x0 DUP1 REVERT JUMPDEST POP PUSH2 0x314 PUSH1 0x4 DUP1 CALLDATASIZE SUB DUP2 ADD SWAP1 PUSH2 0x30F SWAP2 SWAP1 PUSH2 0x177A JUMP JUMPDEST PUSH2 0x902 JUMP JUMPDEST STOP JUMPDEST CALLVALUE DUP1 ISZERO PUSH2 0x322 JUMPI PUSH1 0x0 DUP1 REVERT JUMPDEST POP PUSH2 0x33D PUSH1 0x4 DUP1 CALLDATASIZE SUB DUP2 ADD SWAP1 PUSH2 0x338 SWAP2 SWAP1 PUSH2 0x151D JUMP JUMPDEST PUSH2 0xC85 JUMP JUMPDEST STOP JUMPDEST CALLVALUE DUP1 ISZERO PUSH2 0x34B JUMPI PUSH1 0x0 DUP1 REVERT JUMPDEST POP PUSH2 0x354 PUSH2 0xD7C JUMP JUMPDEST PUSH1 0x40 MLOAD PUSH2 0x361 SWAP2 SWAP1 PUSH2 0x1580 JUMP JUMPDEST PUSH1 0x40 MLOAD DUP1 SWAP2 SUB SWAP1 RETURN JUMPDEST CALLVALUE DUP1 ISZERO PUSH2 0x376 JUMPI PUSH1 0x0 DUP1 REVERT JUMPDEST POP PUSH2 0x391 PUSH1 0x4 DUP1 CALLDATASIZE SUB DUP2 ADD SWAP1 PUSH2 0x38C SWAP2 SWAP1 PUSH2 0x1607 JUMP JUMPDEST PUSH2 0xD82 JUMP JUMPDEST PUSH1 0x40 MLOAD PUSH2 0x39E SWAP2 SWAP1 PUSH2 0x1580 JUMP JUMPDEST PUSH1 0x40 MLOAD DUP1 SWAP2 SUB SWAP1 RETURN JUMPDEST CALLVALUE DUP1 ISZERO PUSH2 0x3B3 JUMPI PUSH1 0x0 DUP1 REVERT JUMPDEST POP PUSH2 0x3BC PUSH2 0xDCE JUMP JUMPDEST PUSH1 0x40 MLOAD PUSH2 0x3C9 SWAP2 SWAP1 PUSH2 0x1580 JUMP JUMPDEST PUSH1 0x40 MLOAD DUP1 SWAP2 SUB SWAP1 RETURN JUMPDEST CALLVALUE DUP1 ISZERO PUSH2 0x3DE JUMPI PUSH1 0x0 DUP1 REVERT JUMPDEST POP PUSH2 0x3F9 PUSH1 0x4 DUP1 CALLDATASIZE SUB DUP2 ADD SWAP1 PUSH2 0x3F4 SWAP2 SWAP1 PUSH2 0x1416 JUMP JUMPDEST PUSH2 0xDD4 JUMP JUMPDEST PUSH1 0x40 MLOAD PUSH2 0x40D SWAP9 SWAP8 SWAP7 SWAP6 SWAP5 SWAP4 SWAP3 SWAP2 SWAP1 PUSH2 0x1855 JUMP JUMPDEST PUSH1 0x40 MLOAD DUP1 SWAP2 SUB SWAP1 RETURN JUMPDEST CALLVALUE DUP1 ISZERO PUSH2 0x422 JUMPI PUSH1 0x0 DUP1 REVERT JUMPDEST POP PUSH2 0x43D PUSH1 0x4 DUP1 CALLDATASIZE SUB DUP2 ADD SWAP1 PUSH2 0x438 SWAP2 SWAP1 PUSH2 0x1607 JUMP JUMPDEST PUSH2 0xEC4 JUMP JUMPDEST PUSH1 0x40 MLOAD PUSH2 0x44E SWAP6 SWAP5 SWAP4 SWAP3 SWAP2 SWAP1 PUSH2 0x1A39 JUMP JUMPDEST PUSH1 0x40 MLOAD DUP1 SWAP2 SUB SWAP1 RETURN JUMPDEST PUSH1 0x0 DUP1 PUSH1 0x0 DUP1 PUSH1 0x0 DUP1 PUSH1 0x0 DUP8 DUP2 MSTORE PUSH1 0x20 ADD SWAP1 DUP2 MSTORE PUSH1 0x20 ADD PUSH1 0x0 KECCAK256 PUSH1 0x40 MLOAD DUP1 PUSH2 0x100 ADD PUSH1 0x40 MSTORE SWAP1 DUP2 PUSH1 0x0 DUP3 ADD SLOAD DUP2 MSTORE PUSH1 0x20 ADD PUSH1 0x1 DUP3 ADD SLOAD DUP2 MSTORE PUSH1 0x20 ADD PUSH1 0x2 DUP3 ADD SLOAD DUP2 MSTORE PUSH1 0x20 ADD PUSH1 0x3 DUP3 ADD SLOAD DUP2 MSTORE PUSH1 0x20 ADD PUSH1 0x4 DUP3 ADD SLOAD DUP2 MSTORE PUSH1 0x20 ADD PUSH1 0x5 DUP3 ADD SLOAD DUP2 MSTORE PUSH1 0x20 ADD PUSH1 0x6 DUP3 ADD PUSH1 0x0 SWAP1 SLOAD SWAP1 PUSH2 0x100 EXP SWAP1 DIV PUSH20 0xFFFFFFFFFFFFFFFFFFFFFFFFFFFFFFFFFFFFFFFF AND PUSH20 0xFFFFFFFFFFFFFFFFFFFFFFFFFFFFFFFFFFFFFFFF AND PUSH20 0xFFFFFFFFFFFFFFFFFFFFFFFFFFFFFFFFFFFFFFFF AND DUP2 MSTORE PUSH1 0x20 ADD PUSH1 0x7 DUP3 ADD DUP1 SLOAD PUSH2 0x51F SWAP1 PUSH2 0x1ABD JUMP JUMPDEST DUP1 PUSH1 0x1F ADD PUSH1 0x20 DUP1 SWAP2 DIV MUL PUSH1 0x20 ADD PUSH1 0x40 MLOAD SWAP1 DUP2 ADD PUSH1 0x40 MSTORE DUP1 SWAP3 SWAP2 SWAP1 DUP2 DUP2 MSTORE PUSH1 0x20 ADD DUP3 DUP1 SLOAD PUSH2 0x54B SWAP1 PUSH2 0x1ABD JUMP JUMPDEST DUP1 ISZERO PUSH2 0x598 JUMPI DUP1 PUSH1 0x1F LT PUSH2 0x56D JUMPI PUSH2 0x100 DUP1 DUP4 SLOAD DIV MUL DUP4 MSTORE SWAP2 PUSH1 0x20 ADD SWAP2 PUSH2 0x598 JUMP JUMPDEST DUP3 ADD SWAP2 SWAP1 PUSH1 0x0 MSTORE PUSH1 0x20 PUSH1 0x0 KECCAK256 SWAP1 JUMPDEST DUP2 SLOAD DUP2 MSTORE SWAP1 PUSH1 0x1 ADD SWAP1 PUSH1 0x20 ADD DUP1 DUP4 GT PUSH2 0x57B JUMPI DUP3 SWAP1 SUB PUSH1 0x1F AND DUP3 ADD SWAP2 JUMPDEST POP POP POP POP POP DUP2 MSTORE POP POP SWAP1 POP DUP1 PUSH1 0x20 ADD MLOAD DUP2 PUSH1 0x40 ADD MLOAD DUP3 PUSH1 0x60 ADD MLOAD DUP4 PUSH1 0xC0 ADD MLOAD SWAP5 POP SWAP5 POP SWAP5 POP SWAP5 POP POP SWAP2 SWAP4 POP SWAP2 SWAP4 JUMP JUMPDEST PUSH1 0x2 PUSH1 0x20 MSTORE DUP1 PUSH1 0x0 MSTORE PUSH1 0x40 PUSH1 0x0 KECCAK256 PUSH1 0x0 SWAP2 POP SLOAD SWAP1 PUSH2 0x100 EXP SWAP1 DIV PUSH1 0xFF AND DUP2 JUMP JUMPDEST PUSH2 0x3E8 DUP2 JUMP JUMPDEST DUP2 CALLVALUE LT ISZERO PUSH2 0x630 JUMPI PUSH1 0x40 MLOAD PUSH32 0x8C379A000000000000000000000000000000000000000000000000000000000 DUP2 MSTORE PUSH1 0x4 ADD PUSH2 0x627 SWAP1 PUSH2 0x1B4B JUMP JUMPDEST PUSH1 0x40 MLOAD DUP1 SWAP2 SUB SWAP1 REVERT JUMPDEST PUSH1 0x1 PUSH1 0x0 CALLER PUSH20 0xFFFFFFFFFFFFFFFFFFFFFFFFFFFFFFFFFFFFFFFF AND PUSH20 0xFFFFFFFFFFFFFFFFFFFFFFFFFFFFFFFFFFFFFFFF AND DUP2 MSTORE PUSH1 0x20 ADD SWAP1 DUP2 MSTORE PUSH1 0x20 ADD PUSH1 0x0 KECCAK256 PUSH1 0xF ADD PUSH1 0x0 SWAP1 SLOAD SWAP1 PUSH2 0x100 EXP SWAP1 DIV PUSH1 0xFF AND ISZERO PUSH2 0x6C0 JUMPI PUSH1 0x40 MLOAD PUSH32 0x8C379A000000000000000000000000000000000000000000000000000000000 DUP2 MSTORE PUSH1 0x4 ADD PUSH2 0x6B7 SWAP1 PUSH2 0x1BB7 JUMP JUMPDEST PUSH1 0x40 MLOAD DUP1 SWAP2 SUB SWAP1 REVERT JUMPDEST PUSH1 0x0 PUSH2 0x6CB DUP3 PUSH2 0xFBB JUMP JUMPDEST SWAP1 POP PUSH1 0x40 MLOAD DUP1 PUSH1 0xA0 ADD PUSH1 0x40 MSTORE DUP1 CALLER PUSH20 0xFFFFFFFFFFFFFFFFFFFFFFFFFFFFFFFFFFFFFFFF AND DUP2 MSTORE PUSH1 0x20 ADD DUP5 DUP2 MSTORE PUSH1 0x20 ADD PUSH2 0x3E8 DUP2 MSTORE PUSH1 0x20 ADD DUP3 DUP2 MSTORE PUSH1 0x20 ADD PUSH1 0x1 ISZERO ISZERO DUP2 MSTORE POP PUSH1 0x1 PUSH1 0x0 CALLER PUSH20 0xFFFFFFFFFFFFFFFFFFFFFFFFFFFFFFFFFFFFFFFF AND PUSH20 0xFFFFFFFFFFFFFFFFFFFFFFFFFFFFFFFFFFFFFFFF AND DUP2 MSTORE PUSH1 0x20 ADD SWAP1 DUP2 MSTORE PUSH1 0x20 ADD PUSH1 0x0 KECCAK256 PUSH1 0x0 DUP3 ADD MLOAD DUP2 PUSH1 0x0 ADD PUSH1 0x0 PUSH2 0x100 EXP DUP2 SLOAD DUP2 PUSH20 0xFFFFFFFFFFFFFFFFFFFFFFFFFFFFFFFFFFFFFFFF MUL NOT AND SWAP1 DUP4 PUSH20 0xFFFFFFFFFFFFFFFFFFFFFFFFFFFFFFFFFFFFFFFF AND MUL OR SWAP1 SSTORE POP PUSH1 0x20 DUP3 ADD MLOAD DUP2 PUSH1 0x1 ADD SSTORE PUSH1 0x40 DUP3 ADD MLOAD DUP2 PUSH1 0x2 ADD SSTORE PUSH1 0x60 DUP3 ADD MLOAD DUP2 PUSH1 0x3 ADD PUSH1 0x0 DUP3 ADD MLOAD DUP2 PUSH1 0x0 ADD SWAP1 PUSH1 0x4 PUSH2 0x7C9 SWAP3 SWAP2 SWAP1 PUSH2 0x12C4 JUMP JUMPDEST POP PUSH1 0x20 DUP3 ADD MLOAD DUP2 PUSH1 0x4 ADD SWAP1 PUSH1 0x8 PUSH2 0x7E1 SWAP3 SWAP2 SWAP1 PUSH2 0x1304 JUMP JUMPDEST POP POP POP PUSH1 0x80 DUP3 ADD MLOAD DUP2 PUSH1 0xF ADD PUSH1 0x0 PUSH2 0x100 EXP DUP2 SLOAD DUP2 PUSH1 0xFF MUL NOT AND SWAP1 DUP4 ISZERO ISZERO MUL OR SWAP1 SSTORE POP SWAP1 POP POP PUSH1 0x4 PUSH1 0x0 DUP2 SLOAD DUP1 SWAP3 SWAP2 SWAP1 PUSH2 0x81A SWAP1 PUSH2 0x1C06 JUMP JUMPDEST SWAP2 SWAP1 POP SSTORE POP CALLER PUSH20 0xFFFFFFFFFFFFFFFFFFFFFFFFFFFFFFFFFFFFFFFF AND PUSH32 0x9000B209805850A65058F21361A9978CB30F1413ED555553AB52A59B440B5D99 DUP5 PUSH1 0x40 MLOAD PUSH2 0x865 SWAP2 SWAP1 PUSH2 0x1580 JUMP JUMPDEST PUSH1 0x40 MLOAD DUP1 SWAP2 SUB SWAP1 LOG2 POP POP POP JUMP JUMPDEST PUSH1 0x0 PUSH1 0x1 PUSH1 0x0 DUP4 PUSH20 0xFFFFFFFFFFFFFFFFFFFFFFFFFFFFFFFFFFFFFFFF AND PUSH20 0xFFFFFFFFFFFFFFFFFFFFFFFFFFFFFFFFFFFFFFFF AND DUP2 MSTORE PUSH1 0x20 ADD SWAP1 DUP2 MSTORE PUSH1 0x20 ADD PUSH1 0x0 KECCAK256 PUSH1 0x1 ADD SLOAD SWAP1 POP SWAP2 SWAP1 POP JUMP JUMPDEST PUSH1 0x0 PUSH1 0x5 SLOAD SWAP1 POP SWAP1 JUMP JUMPDEST PUSH1 0x3 SLOAD DUP2 JUMP JUMPDEST PUSH1 0x0 PUSH1 0x2 PUSH1 0x0 DUP4 DUP2 MSTORE PUSH1 0x20 ADD SWAP1 DUP2 MSTORE PUSH1 0x20 ADD PUSH1 0x0 KECCAK256 PUSH1 0x0 SWAP1 SLOAD SWAP1 PUSH2 0x100 EXP SWAP1 DIV PUSH1 0xFF AND SWAP1 POP SWAP2 SWAP1 POP JUMP JUMPDEST PUSH1 0xF DUP2 JUMP JUMPDEST PUSH1 0x64 DUP2 JUMP JUMPDEST PUSH1 0x1 PUSH1 0x0 CALLER PUSH20 0xFFFFFFFFFFFFFFFFFFFFFFFFFFFFFFFFFFFFFFFF AND PUSH20 0xFFFFFFFFFFFFFFFFFFFFFFFFFFFFFFFFFFFFFFFF AND DUP2 MSTORE PUSH1 0x20 ADD SWAP1 DUP2 MSTORE PUSH1 0x20 ADD PUSH1 0x0 KECCAK256 PUSH1 0xF ADD PUSH1 0x0 SWAP1 SLOAD SWAP1 PUSH2 0x100 EXP SWAP1 DIV PUSH1 0xFF AND PUSH2 0x991 JUMPI PUSH1 0x40 MLOAD PUSH32 0x8C379A000000000000000000000000000000000000000000000000000000000 DUP2 MSTORE PUSH1 0x4 ADD PUSH2 0x988 SWAP1 PUSH2 0x1C9A JUMP JUMPDEST PUSH1 0x40 MLOAD DUP1 SWAP2 SUB SWAP1 REVERT JUMPDEST PUSH1 0x0 PUSH1 0x3 SLOAD PUSH1 0x0 DUP1 PUSH1 0x1 PUSH1 0x3 SLOAD PUSH2 0x9A8 SWAP2 SWAP1 PUSH2 0x1CBA JUMP JUMPDEST DUP2 MSTORE PUSH1 0x20 ADD SWAP1 DUP2 MSTORE PUSH1 0x20 ADD PUSH1 0x0 KECCAK256 PUSH1 0x1 ADD SLOAD TIMESTAMP DUP6 DUP6 PUSH1 0x40 MLOAD PUSH1 0x20 ADD PUSH2 0x9D1 SWAP6 SWAP5 SWAP4 SWAP3 SWAP2 SWAP1 PUSH2 0x1CEE JUMP JUMPDEST PUSH1 0x40 MLOAD PUSH1 0x20 DUP2 DUP4 SUB SUB DUP2 MSTORE SWAP1 PUSH1 0x40 MSTORE DUP1 MLOAD SWAP1 PUSH1 0x20 ADD KECCAK256 SWAP1 POP PUSH1 0x0 PUSH2 0xA17 DUP3 PUSH1 0x5 SLOAD PUSH1 0x40 MLOAD PUSH1 0x20 ADD PUSH2 0xA03 SWAP3 SWAP2 SWAP1 PUSH2 0x1D48 JUMP JUMPDEST PUSH1 0x40 MLOAD PUSH1 0x20 DUP2 DUP4 SUB SUB DUP2 MSTORE SWAP1 PUSH1 0x40 MSTORE PUSH2 0x10D4 JUMP JUMPDEST SWAP1 POP PUSH1 0x0 DUP2 PUSH1 0x0 SHR SWAP1 POP PUSH2 0x3E8 DUP2 LT PUSH2 0xA65 JUMPI PUSH1 0x40 MLOAD PUSH32 0x8C379A000000000000000000000000000000000000000000000000000000000 DUP2 MSTORE PUSH1 0x4 ADD PUSH2 0xA5C SWAP1 PUSH2 0x1DBD JUMP JUMPDEST PUSH1 0x40 MLOAD DUP1 SWAP2 SUB SWAP1 REVERT JUMPDEST PUSH2 0xA6F DUP6 DUP5 PUSH2 0x10E5 JUMP JUMPDEST PUSH2 0xAAE JUMPI PUSH1 0x40 MLOAD PUSH32 0x8C379A000000000000000000000000000000000000000000000000000000000 DUP2 MSTORE PUSH1 0x4 ADD PUSH2 0xAA5 SWAP1 PUSH2 0x1E29 JUMP JUMPDEST PUSH1 0x40 MLOAD DUP1 SWAP2 SUB SWAP1 REVERT JUMPDEST PUSH1 0x0 DUP1 PUSH1 0x0 PUSH1 0x3 SLOAD DUP2 MSTORE PUSH1 0x20 ADD SWAP1 DUP2 MSTORE PUSH1 0x20 ADD PUSH1 0x0 KECCAK256 SWAP1 POP PUSH1 0x3 SLOAD DUP2 PUSH1 0x0 ADD DUP2 SWAP1 SSTORE POP DUP4 DUP2 PUSH1 0x1 ADD DUP2 SWAP1 SSTORE POP DUP3 DUP2 PUSH1 0x2 ADD DUP2 SWAP1 SSTORE POP TIMESTAMP DUP2 PUSH1 0x3 ADD DUP2 SWAP1 SSTORE POP PUSH2 0xAF4 PUSH2 0x112E JUMP JUMPDEST DUP2 PUSH1 0x4 ADD DUP2 SWAP1 SSTORE POP PUSH1 0x0 DUP1 PUSH1 0x1 PUSH1 0x3 SLOAD PUSH2 0xB0E SWAP2 SWAP1 PUSH2 0x1CBA JUMP JUMPDEST DUP2 MSTORE PUSH1 0x20 ADD SWAP1 DUP2 MSTORE PUSH1 0x20 ADD PUSH1 0x0 KECCAK256 PUSH1 0x1 ADD SLOAD DUP2 PUSH1 0x5 ADD DUP2 SWAP1 SSTORE POP CALLER DUP2 PUSH1 0x6 ADD PUSH1 0x0 PUSH2 0x100 EXP DUP2 SLOAD DUP2 PUSH20 0xFFFFFFFFFFFFFFFFFFFFFFFFFFFFFFFFFFFFFFFF MUL NOT AND SWAP1 DUP4 PUSH20 0xFFFFFFFFFFFFFFFFFFFFFFFFFFFFFFFFFFFFFFFF AND MUL OR SWAP1 SSTORE POP DUP6 DUP2 PUSH1 0x7 ADD SWAP1 DUP2 PUSH2 0xB7C SWAP2 SWAP1 PUSH2 0x1FF5 JUMP JUMPDEST POP PUSH1 0x5 SLOAD DUP4 PUSH1 0x40 MLOAD PUSH1 0x20 ADD PUSH2 0xB92 SWAP3 SWAP2 SWAP1 PUSH2 0x20C7 JUMP JUMPDEST PUSH1 0x40 MLOAD PUSH1 0x20 DUP2 DUP4 SUB SUB DUP2 MSTORE SWAP1 PUSH1 0x40 MSTORE DUP1 MLOAD SWAP1 PUSH1 0x20 ADD KECCAK256 PUSH1 0x0 SHR PUSH1 0x5 DUP2 SWAP1 SSTORE POP PUSH2 0xBBA CALLER PUSH2 0x126B JUMP JUMPDEST PUSH1 0xA PUSH1 0x1 PUSH1 0x0 CALLER PUSH20 0xFFFFFFFFFFFFFFFFFFFFFFFFFFFFFFFFFFFFFFFF AND PUSH20 0xFFFFFFFFFFFFFFFFFFFFFFFFFFFFFFFFFFFFFFFF AND DUP2 MSTORE PUSH1 0x20 ADD SWAP1 DUP2 MSTORE PUSH1 0x20 ADD PUSH1 0x0 KECCAK256 PUSH1 0x2 ADD PUSH1 0x0 DUP3 DUP3 SLOAD PUSH2 0xC0D SWAP2 SWAP1 PUSH2 0x20F0 JUMP JUMPDEST SWAP3 POP POP DUP2 SWAP1 SSTORE POP CALLER PUSH20 0xFFFFFFFFFFFFFFFFFFFFFFFFFFFFFFFFFFFFFFFF AND PUSH1 0x3 SLOAD PUSH32 0x84C1F3580AE009522C870C7EFC2C3DC362BB7C75603BA15B642A5F0F95408643 DUP7 PUSH1 0x40 MLOAD PUSH2 0xC5D SWAP2 SWAP1 PUSH2 0x2124 JUMP JUMPDEST PUSH1 0x40 MLOAD DUP1 SWAP2 SUB SWAP1 LOG3 PUSH1 0x3 PUSH1 0x0 DUP2 SLOAD DUP1 SWAP3 SWAP2 SWAP1 PUSH2 0xC78 SWAP1 PUSH2 0x1C06 JUMP JUMPDEST SWAP2 SWAP1 POP SSTORE POP POP POP POP POP POP POP JUMP JUMPDEST PUSH1 0x1 PUSH1 0x0 CALLER PUSH20 0xFFFFFFFFFFFFFFFFFFFFFFFFFFFFFFFFFFFFFFFF AND PUSH20 0xFFFFFFFFFFFFFFFFFFFFFFFFFFFFFFFFFFFFFFFF AND DUP2 MSTORE PUSH1 0x20 ADD SWAP1 DUP2 MSTORE PUSH1 0x20 ADD PUSH1 0x0 KECCAK256 PUSH1 0xF ADD PUSH1 0x0 SWAP1 SLOAD SWAP1 PUSH2 0x100 EXP SWAP1 DIV PUSH1 0xFF AND PUSH2 0xD14 JUMPI PUSH1 0x40 MLOAD PUSH32 0x8C379A000000000000000000000000000000000000000000000000000000000 DUP2 MSTORE PUSH1 0x4 ADD PUSH2 0xD0B SWAP1 PUSH2 0x218B JUMP JUMPDEST PUSH1 0x40 MLOAD DUP1 SWAP2 SUB SWAP1 REVERT JUMPDEST PUSH1 0x1 PUSH1 0x2 PUSH1 0x0 DUP4 DUP2 MSTORE PUSH1 0x20 ADD SWAP1 DUP2 MSTORE PUSH1 0x20 ADD PUSH1 0x0 KECCAK256 PUSH1 0x0 PUSH2 0x100 EXP DUP2 SLOAD DUP2 PUSH1 0xFF MUL NOT AND SWAP1 DUP4 ISZERO ISZERO MUL OR SWAP1 SSTORE POP DUP1 PUSH32 0x55BD7CB9B959E822299D8AFF0BFE605B9345D0E312DDA8A25761B6877FFEBD6F PUSH1 0x1 PUSH1 0x40 MLOAD PUSH2 0xD71 SWAP2 SWAP1 PUSH2 0x1565 JUMP JUMPDEST PUSH1 0x40 MLOAD DUP1 SWAP2 SUB SWAP1 LOG2 POP JUMP JUMPDEST PUSH1 0x4 SLOAD DUP2 JUMP JUMPDEST PUSH1 0x0 PUSH1 0x1 PUSH1 0x0 DUP4 PUSH20 0xFFFFFFFFFFFFFFFFFFFFFFFFFFFFFFFFFFFFFFFF AND PUSH20 0xFFFFFFFFFFFFFFFFFFFFFFFFFFFFFFFFFFFFFFFF AND DUP2 MSTORE PUSH1 0x20 ADD SWAP1 DUP2 MSTORE PUSH1 0x20 ADD PUSH1 0x0 KECCAK256 PUSH1 0x2 ADD SLOAD SWAP1 POP SWAP2 SWAP1 POP JUMP JUMPDEST PUSH1 0x5 SLOAD DUP2 JUMP JUMPDEST PUSH1 0x0 PUSH1 0x20 MSTORE DUP1 PUSH1 0x0 MSTORE PUSH1 0x40 PUSH1 0x0 KECCAK256 PUSH1 0x0 SWAP2 POP SWAP1 POP DUP1 PUSH1 0x0 ADD SLOAD SWAP1 DUP1 PUSH1 0x1 ADD SLOAD SWAP1 DUP1 PUSH1 0x2 ADD SLOAD SWAP1 DUP1 PUSH1 0x3 ADD SLOAD SWAP1 DUP1 PUSH1 0x4 ADD SLOAD SWAP1 DUP1 PUSH1 0x5 ADD SLOAD SWAP1 DUP1 PUSH1 0x6 ADD PUSH1 0x0 SWAP1 SLOAD SWAP1 PUSH2 0x100 EXP SWAP1 DIV PUSH20 0xFFFFFFFFFFFFFFFFFFFFFFFFFFFFFFFFFFFFFFFF AND SWAP1 DUP1 PUSH1 0x7 ADD DUP1 SLOAD PUSH2 0xE41 SWAP1 PUSH2 0x1ABD JUMP JUMPDEST DUP1 PUSH1 0x1F ADD PUSH1 0x20 DUP1 SWAP2 DIV MUL PUSH1 0x20 ADD PUSH1 0x40 MLOAD SWAP1 DUP2 ADD PUSH1 0x40 MSTORE DUP1 SWAP3 SWAP2 SWAP1 DUP2 DUP2 MSTORE PUSH1 0x20 ADD DUP3 DUP1 SLOAD PUSH2 0xE6D SWAP1 PUSH2 0x1ABD JUMP JUMPDEST DUP1 ISZERO PUSH2 0xEBA JUMPI DUP1 PUSH1 0x1F LT PUSH2 0xE8F JUMPI PUSH2 0x100 DUP1 DUP4 SLOAD DIV MUL DUP4 MSTORE SWAP2 PUSH1 0x20 ADD SWAP2 PUSH2 0xEBA JUMP JUMPDEST DUP3 ADD SWAP2 SWAP1 PUSH1 0x0 MSTORE PUSH1 0x20 PUSH1 0x0 KECCAK256 SWAP1 JUMPDEST DUP2 SLOAD DUP2 MSTORE SWAP1 PUSH1 0x1 ADD SWAP1 PUSH1 0x20 ADD DUP1 DUP4 GT PUSH2 0xE9D JUMPI DUP3 SWAP1 SUB PUSH1 0x1F AND DUP3 ADD SWAP2 JUMPDEST POP POP POP POP POP SWAP1 POP DUP9 JUMP JUMPDEST PUSH1 0x1 PUSH1 0x20 MSTORE DUP1 PUSH1 0x0 MSTORE PUSH1 0x40 PUSH1 0x0 KECCAK256 PUSH1 0x0 SWAP2 POP SWAP1 POP DUP1 PUSH1 0x0 ADD PUSH1 0x0 SWAP1 SLOAD SWAP1 PUSH2 0x100 EXP SWAP1 DIV PUSH20 0xFFFFFFFFFFFFFFFFFFFFFFFFFFFFFFFFFFFFFFFF AND SWAP1 DUP1 PUSH1 0x1 ADD SLOAD SWAP1 DUP1 PUSH1 0x2 ADD SLOAD SWAP1 DUP1 PUSH1 0x3 ADD PUSH1 0x40 MLOAD DUP1 PUSH1 0x40 ADD PUSH1 0x40 MSTORE SWAP1 DUP2 PUSH1 0x0 DUP3 ADD PUSH1 0x4 DUP1 PUSH1 0x20 MUL PUSH1 0x40 MLOAD SWAP1 DUP2 ADD PUSH1 0x40 MSTORE DUP1 SWAP3 SWAP2 SWAP1 DUP3 PUSH1 0x4 DUP1 ISZERO PUSH2 0xF55 JUMPI PUSH1 0x20 MUL DUP3 ADD SWAP2 JUMPDEST DUP2 SLOAD DUP2 MSTORE PUSH1 0x20 ADD SWAP1 PUSH1 0x1 ADD SWAP1 DUP1 DUP4 GT PUSH2 0xF41 JUMPI JUMPDEST POP POP POP POP POP DUP2 MSTORE PUSH1 0x20 ADD PUSH1 0x4 DUP3 ADD PUSH1 0x8 DUP1 PUSH1 0x20 MUL PUSH1 0x40 MLOAD SWAP1 DUP2 ADD PUSH1 0x40 MSTORE DUP1 SWAP3 SWAP2 SWAP1 DUP3 PUSH1 0x8 DUP1 ISZERO PUSH2 0xF9A JUMPI PUSH1 0x20 MUL DUP3 ADD SWAP2 JUMPDEST DUP2 SLOAD DUP2 MSTORE PUSH1 0x20 ADD SWAP1 PUSH1 0x1 ADD SWAP1 DUP1 DUP4 GT PUSH2 0xF86 JUMPI JUMPDEST POP POP POP POP POP DUP2 MSTORE POP POP SWAP1 DUP1 PUSH1 0xF ADD PUSH1 0x0 SWAP1 SLOAD SWAP1 PUSH2 0x100 EXP SWAP1 DIV PUSH1 0xFF AND SWAP1 POP DUP6 JUMP JUMPDEST PUSH2 0xFC3 PUSH2 0x1344 JUMP JUMPDEST PUSH2 0xFCB PUSH2 0x1344 JUMP JUMPDEST PUSH1 0x0 JUMPDEST PUSH1 0x4 DUP2 LT ISZERO PUSH2 0x1044 JUMPI PUSH3 0x7FE001 DUP5 DUP3 PUSH1 0x40 MLOAD PUSH1 0x20 ADD PUSH2 0xFEE SWAP3 SWAP2 SWAP1 PUSH2 0x21AB JUMP JUMPDEST PUSH1 0x40 MLOAD PUSH1 0x20 DUP2 DUP4 SUB SUB DUP2 MSTORE SWAP1 PUSH1 0x40 MSTORE DUP1 MLOAD SWAP1 PUSH1 0x20 ADD KECCAK256 PUSH1 0x0 SHR PUSH2 0x1011 SWAP2 SWAP1 PUSH2 0x2203 JUMP JUMPDEST DUP3 PUSH1 0x0 ADD MLOAD DUP3 PUSH1 0x4 DUP2 LT PUSH2 0x1028 JUMPI PUSH2 0x1027 PUSH2 0x2234 JUMP JUMPDEST JUMPDEST PUSH1 0x20 MUL ADD DUP2 DUP2 MSTORE POP POP DUP1 DUP1 PUSH2 0x103C SWAP1 PUSH2 0x1C06 JUMP JUMPDEST SWAP2 POP POP PUSH2 0xFCE JUMP JUMPDEST POP PUSH1 0x0 JUMPDEST PUSH1 0x8 DUP2 LT ISZERO PUSH2 0x10CA JUMPI PUSH3 0x7FE001 DUP5 PUSH1 0x64 DUP4 PUSH2 0x1063 SWAP2 SWAP1 PUSH2 0x20F0 JUMP JUMPDEST PUSH1 0x40 MLOAD PUSH1 0x20 ADD PUSH2 0x1074 SWAP3 SWAP2 SWAP1 PUSH2 0x21AB JUMP JUMPDEST PUSH1 0x40 MLOAD PUSH1 0x20 DUP2 DUP4 SUB SUB DUP2 MSTORE SWAP1 PUSH1 0x40 MSTORE DUP1 MLOAD SWAP1 PUSH1 0x20 ADD KECCAK256 PUSH1 0x0 SHR PUSH2 0x1097 SWAP2 SWAP1 PUSH2 0x2203 JUMP JUMPDEST DUP3 PUSH1 0x20 ADD MLOAD DUP3 PUSH1 0x8 DUP2 LT PUSH2 0x10AE JUMPI PUSH2 0x10AD PUSH2 0x2234 JUMP JUMPDEST JUMPDEST PUSH1 0x20 MUL ADD DUP2 DUP2 MSTORE POP POP DUP1 DUP1 PUSH2 0x10C2 SWAP1 PUSH2 0x1C06 JUMP JUMPDEST SWAP2 POP POP PUSH2 0x1048 JUMP JUMPDEST POP DUP1 SWAP2 POP POP SWAP2 SWAP1 POP JUMP JUMPDEST PUSH1 0x0 DUP2 DUP1 MLOAD SWAP1 PUSH1 0x20 ADD KECCAK256 SWAP1 POP SWAP2 SWAP1 POP JUMP JUMPDEST PUSH1 0x0 DUP1 DUP4 DUP4 PUSH1 0x5 SLOAD PUSH1 0x40 MLOAD PUSH1 0x20 ADD PUSH2 0x10FF SWAP4 SWAP3 SWAP2 SWAP1 PUSH2 0x2263 JUMP JUMPDEST PUSH1 0x40 MLOAD PUSH1 0x20 DUP2 DUP4 SUB SUB DUP2 MSTORE SWAP1 PUSH1 0x40 MSTORE DUP1 MLOAD SWAP1 PUSH1 0x20 ADD KECCAK256 SWAP1 POP PUSH1 0x0 DUP2 PUSH1 0x0 SHR SWAP1 POP PUSH2 0x3E8 DUP2 LT SWAP3 POP POP POP SWAP3 SWAP2 POP POP JUMP JUMPDEST PUSH1 0x0 PUSH1 0x64 PUSH1 0x3 SLOAD LT ISZERO PUSH2 0x1145 JUMPI PUSH2 0x3E8 SWAP1 POP PUSH2 0x1268 JUMP JUMPDEST PUSH1 0x0 PUSH1 0x2 PUSH1 0x64 PUSH2 0x1155 SWAP2 SWAP1 PUSH2 0x22A1 JUMP JUMPDEST PUSH1 0x3 SLOAD LT PUSH2 0x1170 JUMPI PUSH1 0x2 PUSH1 0x64 PUSH2 0x116B SWAP2 SWAP1 PUSH2 0x22A1 JUMP JUMPDEST PUSH2 0x1174 JUMP JUMPDEST PUSH1 0x3 SLOAD JUMPDEST SWAP1 POP PUSH1 0x0 DUP1 PUSH1 0x1 DUP4 PUSH1 0x3 SLOAD PUSH2 0x1189 SWAP2 SWAP1 PUSH2 0x1CBA JUMP JUMPDEST PUSH2 0x1193 SWAP2 SWAP1 PUSH2 0x20F0 JUMP JUMPDEST SWAP1 POP JUMPDEST PUSH1 0x3 SLOAD DUP2 GT PUSH2 0x1201 JUMPI PUSH1 0x0 DUP1 PUSH1 0x1 DUP4 PUSH2 0x11AF SWAP2 SWAP1 PUSH2 0x1CBA JUMP JUMPDEST DUP2 MSTORE PUSH1 0x20 ADD SWAP1 DUP2 MSTORE PUSH1 0x20 ADD PUSH1 0x0 KECCAK256 PUSH1 0x3 ADD SLOAD PUSH1 0x0 DUP1 DUP4 DUP2 MSTORE PUSH1 0x20 ADD SWAP1 DUP2 MSTORE PUSH1 0x20 ADD PUSH1 0x0 KECCAK256 PUSH1 0x3 ADD SLOAD PUSH2 0x11E1 SWAP2 SWAP1 PUSH2 0x1CBA JUMP JUMPDEST DUP3 PUSH2 0x11EC SWAP2 SWAP1 PUSH2 0x20F0 JUMP JUMPDEST SWAP2 POP DUP1 DUP1 PUSH2 0x11F9 SWAP1 PUSH2 0x1C06 JUMP JUMPDEST SWAP2 POP POP PUSH2 0x1196 JUMP JUMPDEST POP PUSH1 0x0 DUP3 DUP3 PUSH2 0x1210 SWAP2 SWAP1 PUSH2 0x22E3 JUMP JUMPDEST SWAP1 POP PUSH1 0x0 PUSH1 0xF SWAP1 POP DUP1 DUP3 LT ISZERO PUSH2 0x1246 JUMPI PUSH1 0xA PUSH1 0xB PUSH2 0x3E8 PUSH2 0x1231 SWAP2 SWAP1 PUSH2 0x22A1 JUMP JUMPDEST PUSH2 0x123B SWAP2 SWAP1 PUSH2 0x22E3 JUMP JUMPDEST SWAP5 POP POP POP POP POP PUSH2 0x1268 JUMP JUMPDEST PUSH1 0xA PUSH1 0x9 PUSH2 0x3E8 PUSH2 0x1257 SWAP2 SWAP1 PUSH2 0x22A1 JUMP JUMPDEST PUSH2 0x1261 SWAP2 SWAP1 PUSH2 0x22E3 JUMP JUMPDEST SWAP5 POP POP POP POP POP JUMPDEST SWAP1 JUMP JUMPDEST PUSH1 0x0 PUSH9 0x56BC75E2D63100000 SWAP1 POP DUP2 PUSH20 0xFFFFFFFFFFFFFFFFFFFFFFFFFFFFFFFFFFFFFFFF AND PUSH2 0x8FC DUP3 SWAP1 DUP2 ISZERO MUL SWAP1 PUSH1 0x40 MLOAD PUSH1 0x0 PUSH1 0x40 MLOAD DUP1 DUP4 SUB DUP2 DUP6 DUP9 DUP9 CALL SWAP4 POP POP POP POP ISZERO DUP1 ISZERO PUSH2 0x12BF JUMPI RETURNDATASIZE PUSH1 0x0 DUP1 RETURNDATACOPY RETURNDATASIZE PUSH1 0x0 REVERT JUMPDEST POP POP POP JUMP JUMPDEST DUP3 PUSH1 0x4 DUP2 ADD SWAP3 DUP3 ISZERO PUSH2 0x12F3 JUMPI SWAP2 PUSH1 0x20 MUL DUP3 ADD JUMPDEST DUP3 DUP2 GT ISZERO PUSH2 0x12F2 JUMPI DUP3 MLOAD DUP3 SSTORE SWAP2 PUSH1 0x20 ADD SWAP2 SWAP1 PUSH1 0x1 ADD SWAP1 PUSH2 0x12D7 JUMP JUMPDEST JUMPDEST POP SWAP1 POP PUSH2 0x1300 SWAP2 SWAP1 PUSH2 0x136A JUMP JUMPDEST POP SWAP1 JUMP JUMPDEST DUP3 PUSH1 0x8 DUP2 ADD SWAP3 DUP3 ISZERO PUSH2 0x1333 JUMPI SWAP2 PUSH1 0x20 MUL DUP3 ADD JUMPDEST DUP3 DUP2 GT ISZERO PUSH2 0x1332 JUMPI DUP3 MLOAD DUP3 SSTORE SWAP2 PUSH1 0x20 ADD SWAP2 SWAP1 PUSH1 0x1 ADD SWAP1 PUSH2 0x1317 JUMP JUMPDEST JUMPDEST POP SWAP1 POP PUSH2 0x1340 SWAP2 SWAP1 PUSH2 0x136A JUMP JUMPDEST POP SWAP1 JUMP JUMPDEST PUSH1 0x40 MLOAD DUP1 PUSH1 0x40 ADD PUSH1 0x40 MSTORE DUP1 PUSH2 0x1357 PUSH2 0x1387 JUMP JUMPDEST DUP2 MSTORE PUSH1 0x20 ADD PUSH2 0x1364 PUSH2 0x13A9 JUMP JUMPDEST DUP2 MSTORE POP SWAP1 JUMP JUMPDEST JUMPDEST DUP1 DUP3 GT ISZERO PUSH2 0x1383 JUMPI PUSH1 0x0 DUP2 PUSH1 0x0 SWAP1 SSTORE POP PUSH1 0x1 ADD PUSH2 0x136B JUMP JUMPDEST POP SWAP1 JUMP JUMPDEST PUSH1 0x40 MLOAD DUP1 PUSH1 0x80 ADD PUSH1 0x40 MSTORE DUP1 PUSH1 0x4 SWAP1 PUSH1 0x20 DUP3 MUL DUP1 CALLDATASIZE DUP4 CALLDATACOPY DUP1 DUP3 ADD SWAP2 POP POP SWAP1 POP POP SWAP1 JUMP JUMPDEST PUSH1 0x40 MLOAD DUP1 PUSH2 0x100 ADD PUSH1 0x40 MSTORE DUP1 PUSH1 0x8 SWAP1 PUSH1 0x20 DUP3 MUL DUP1 CALLDATASIZE DUP4 CALLDATACOPY DUP1 DUP3 ADD SWAP2 POP POP SWAP1 POP POP SWAP1 JUMP JUMPDEST PUSH1 0x0 PUSH1 0x40 MLOAD SWAP1 POP SWAP1 JUMP JUMPDEST PUSH1 0x0 DUP1 REVERT JUMPDEST PUSH1 0x0 DUP1 REVERT JUMPDEST PUSH1 0x0 DUP2 SWAP1 POP SWAP2 SWAP1 POP JUMP JUMPDEST PUSH2 0x13F3 DUP2 PUSH2 0x13E0 JUMP JUMPDEST DUP2 EQ PUSH2 0x13FE JUMPI PUSH1 0x0 DUP1 REVERT JUMPDEST POP JUMP JUMPDEST PUSH1 0x0 DUP2 CALLDATALOAD SWAP1 POP PUSH2 0x1410 DUP2 PUSH2 0x13EA JUMP JUMPDEST SWAP3 SWAP2 POP POP JUMP JUMPDEST PUSH1 0x0 PUSH1 0x20 DUP3 DUP5 SUB SLT ISZERO PUSH2 0x142C JUMPI PUSH2 0x142B PUSH2 0x13D6 JUMP JUMPDEST JUMPDEST PUSH1 0x0 PUSH2 0x143A DUP5 DUP3 DUP6 ADD PUSH2 0x1401 JUMP JUMPDEST SWAP2 POP POP SWAP3 SWAP2 POP POP JUMP JUMPDEST PUSH1 0x0 DUP2 SWAP1 POP SWAP2 SWAP1 POP JUMP JUMPDEST PUSH2 0x1456 DUP2 PUSH2 0x1443 JUMP JUMPDEST DUP3 MSTORE POP POP JUMP JUMPDEST PUSH2 0x1465 DUP2 PUSH2 0x13E0 JUMP JUMPDEST DUP3 MSTORE POP POP JUMP JUMPDEST PUSH1 0x0 PUSH20 0xFFFFFFFFFFFFFFFFFFFFFFFFFFFFFFFFFFFFFFFF DUP3 AND SWAP1 POP SWAP2 SWAP1 POP JUMP JUMPDEST PUSH1 0x0 PUSH2 0x1496 DUP3 PUSH2 0x146B JUMP JUMPDEST SWAP1 POP SWAP2 SWAP1 POP JUMP JUMPDEST PUSH2 0x14A6 DUP2 PUSH2 0x148B JUMP JUMPDEST DUP3 MSTORE POP POP JUMP JUMPDEST PUSH1 0x0 PUSH1 0x80 DUP3 ADD SWAP1 POP PUSH2 0x14C1 PUSH1 0x0 DUP4 ADD DUP8 PUSH2 0x144D JUMP JUMPDEST PUSH2 0x14CE PUSH1 0x20 DUP4 ADD DUP7 PUSH2 0x144D JUMP JUMPDEST PUSH2 0x14DB PUSH1 0x40 DUP4 ADD DUP6 PUSH2 0x145C JUMP JUMPDEST PUSH2 0x14E8 PUSH1 0x60 DUP4 ADD DUP5 PUSH2 0x149D JUMP JUMPDEST SWAP6 SWAP5 POP POP POP POP POP JUMP JUMPDEST PUSH2 0x14FA DUP2 PUSH2 0x1443 JUMP JUMPDEST DUP2 EQ PUSH2 0x1505 JUMPI PUSH1 0x0 DUP1 REVERT JUMPDEST POP JUMP JUMPDEST PUSH1 0x0 DUP2 CALLDATALOAD SWAP1 POP PUSH2 0x1517 DUP2 PUSH2 0x14F1 JUMP JUMPDEST SWAP3 SWAP2 POP POP JUMP JUMPDEST PUSH1 0x0 PUSH1 0x20 DUP3 DUP5 SUB SLT ISZERO PUSH2 0x1533 JUMPI PUSH2 0x1532 PUSH2 0x13D6 JUMP JUMPDEST JUMPDEST PUSH1 0x0 PUSH2 0x1541 DUP5 DUP3 DUP6 ADD PUSH2 0x1508 JUMP JUMPDEST SWAP2 POP POP SWAP3 SWAP2 POP POP JUMP JUMPDEST PUSH1 0x0 DUP2 ISZERO ISZERO SWAP1 POP SWAP2 SWAP1 POP JUMP JUMPDEST PUSH2 0x155F DUP2 PUSH2 0x154A JUMP JUMPDEST DUP3 MSTORE POP POP JUMP JUMPDEST PUSH1 0x0 PUSH1 0x20 DUP3 ADD SWAP1 POP PUSH2 0x157A PUSH1 0x0 DUP4 ADD DUP5 PUSH2 0x1556 JUMP JUMPDEST SWAP3 SWAP2 POP POP JUMP JUMPDEST PUSH1 0x0 PUSH1 0x20 DUP3 ADD SWAP1 POP PUSH2 0x1595 PUSH1 0x0 DUP4 ADD DUP5 PUSH2 0x145C JUMP JUMPDEST SWAP3 SWAP2 POP POP JUMP JUMPDEST PUSH1 0x0 DUP1 PUSH1 0x40 DUP4 DUP6 SUB SLT ISZERO PUSH2 0x15B2 JUMPI PUSH2 0x15B1 PUSH2 0x13D6 JUMP JUMPDEST JUMPDEST PUSH1 0x0 PUSH2 0x15C0 DUP6 DUP3 DUP7 ADD PUSH2 0x1401 JUMP JUMPDEST SWAP3 POP POP PUSH1 0x20 PUSH2 0x15D1 DUP6 DUP3 DUP7 ADD PUSH2 0x1401 JUMP JUMPDEST SWAP2 POP POP SWAP3 POP SWAP3 SWAP1 POP JUMP JUMPDEST PUSH2 0x15E4 DUP2 PUSH2 0x148B JUMP JUMPDEST DUP2 EQ PUSH2 0x15EF JUMPI PUSH1 0x0 DUP1 REVERT JUMPDEST POP JUMP JUMPDEST PUSH1 0x0 DUP2 CALLDATALOAD SWAP1 POP PUSH2 0x1601 DUP2 PUSH2 0x15DB JUMP JUMPDEST SWAP3 SWAP2 POP POP JUMP JUMPDEST PUSH1 0x0 PUSH1 0x20 DUP3 DUP5 SUB SLT ISZERO PUSH2 0x161D JUMPI PUSH2 0x161C PUSH2 0x13D6 JUMP JUMPDEST JUMPDEST PUSH1 0x0 PUSH2 0x162B DUP5 DUP3 DUP6 ADD PUSH2 0x15F2 JUMP JUMPDEST SWAP2 POP POP SWAP3 SWAP2 POP POP JUMP JUMPDEST PUSH1 0x0 DUP1 REVERT JUMPDEST PUSH1 0x0 DUP1 REVERT JUMPDEST PUSH1 0x0 PUSH1 0x1F NOT PUSH1 0x1F DUP4 ADD AND SWAP1 POP SWAP2 SWAP1 POP JUMP JUMPDEST PUSH32 0x4E487B7100000000000000000000000000000000000000000000000000000000 PUSH1 0x0 MSTORE PUSH1 0x41 PUSH1 0x4 MSTORE PUSH1 0x24 PUSH1 0x0 REVERT JUMPDEST PUSH2 0x1687 DUP3 PUSH2 0x163E JUMP JUMPDEST DUP2 ADD DUP2 DUP2 LT PUSH8 0xFFFFFFFFFFFFFFFF DUP3 GT OR ISZERO PUSH2 0x16A6 JUMPI PUSH2 0x16A5 PUSH2 0x164F JUMP JUMPDEST JUMPDEST DUP1 PUSH1 0x40 MSTORE POP POP POP JUMP JUMPDEST PUSH1 0x0 PUSH2 0x16B9 PUSH2 0x13CC JUMP JUMPDEST SWAP1 POP PUSH2 0x16C5 DUP3 DUP3 PUSH2 0x167E JUMP JUMPDEST SWAP2 SWAP1 POP JUMP JUMPDEST PUSH1 0x0 PUSH8 0xFFFFFFFFFFFFFFFF DUP3 GT ISZERO PUSH2 0x16E5 JUMPI PUSH2 0x16E4 PUSH2 0x164F JUMP JUMPDEST JUMPDEST PUSH2 0x16EE DUP3 PUSH2 0x163E JUMP JUMPDEST SWAP1 POP PUSH1 0x20 DUP2 ADD SWAP1 POP SWAP2 SWAP1 POP JUMP JUMPDEST DUP3 DUP2 DUP4 CALLDATACOPY PUSH1 0x0 DUP4 DUP4 ADD MSTORE POP POP POP JUMP JUMPDEST PUSH1 0x0 PUSH2 0x171D PUSH2 0x1718 DUP5 PUSH2 0x16CA JUMP JUMPDEST PUSH2 0x16AF JUMP JUMPDEST SWAP1 POP DUP3 DUP2 MSTORE PUSH1 0x20 DUP2 ADD DUP5 DUP5 DUP5 ADD GT ISZERO PUSH2 0x1739 JUMPI PUSH2 0x1738 PUSH2 0x1639 JUMP JUMPDEST JUMPDEST PUSH2 0x1744 DUP5 DUP3 DUP6 PUSH2 0x16FB JUMP JUMPDEST POP SWAP4 SWAP3 POP POP POP JUMP JUMPDEST PUSH1 0x0 DUP3 PUSH1 0x1F DUP4 ADD SLT PUSH2 0x1761 JUMPI PUSH2 0x1760 PUSH2 0x1634 JUMP JUMPDEST JUMPDEST DUP2 CALLDATALOAD PUSH2 0x1771 DUP5 DUP3 PUSH1 0x20 DUP7 ADD PUSH2 0x170A JUMP JUMPDEST SWAP2 POP POP SWAP3 SWAP2 POP POP JUMP JUMPDEST PUSH1 0x0 DUP1 PUSH1 0x40 DUP4 DUP6 SUB SLT ISZERO PUSH2 0x1791 JUMPI PUSH2 0x1790 PUSH2 0x13D6 JUMP JUMPDEST JUMPDEST PUSH1 0x0 DUP4 ADD CALLDATALOAD PUSH8 0xFFFFFFFFFFFFFFFF DUP2 GT ISZERO PUSH2 0x17AF JUMPI PUSH2 0x17AE PUSH2 0x13DB JUMP JUMPDEST JUMPDEST PUSH2 0x17BB DUP6 DUP3 DUP7 ADD PUSH2 0x174C JUMP JUMPDEST SWAP3 POP POP PUSH1 0x20 PUSH2 0x17CC DUP6 DUP3 DUP7 ADD PUSH2 0x1401 JUMP JUMPDEST SWAP2 POP POP SWAP3 POP SWAP3 SWAP1 POP JUMP JUMPDEST PUSH1 0x0 DUP2 MLOAD SWAP1 POP SWAP2 SWAP1 POP JUMP JUMPDEST PUSH1 0x0 DUP3 DUP3 MSTORE PUSH1 0x20 DUP3 ADD SWAP1 POP SWAP3 SWAP2 POP POP JUMP JUMPDEST PUSH1 0x0 JUMPDEST DUP4 DUP2 LT ISZERO PUSH2 0x1810 JUMPI DUP1 DUP3 ADD MLOAD DUP2 DUP5 ADD MSTORE PUSH1 0x20 DUP2 ADD SWAP1 POP PUSH2 0x17F5 JUMP JUMPDEST PUSH1 0x0 DUP5 DUP5 ADD MSTORE POP POP POP POP JUMP JUMPDEST PUSH1 0x0 PUSH2 0x1827 DUP3 PUSH2 0x17D6 JUMP JUMPDEST PUSH2 0x1831 DUP2 DUP6 PUSH2 0x17E1 JUMP JUMPDEST SWAP4 POP PUSH2 0x1841 DUP2 DUP6 PUSH1 0x20 DUP7 ADD PUSH2 0x17F2 JUMP JUMPDEST PUSH2 0x184A DUP2 PUSH2 0x163E JUMP JUMPDEST DUP5 ADD SWAP2 POP POP SWAP3 SWAP2 POP POP JUMP JUMPDEST PUSH1 0x0 PUSH2 0x100 DUP3 ADD SWAP1 POP PUSH2 0x186B PUSH1 0x0 DUP4 ADD DUP12 PUSH2 0x145C JUMP JUMPDEST PUSH2 0x1878 PUSH1 0x20 DUP4 ADD DUP11 PUSH2 0x144D JUMP JUMPDEST PUSH2 0x1885 PUSH1 0x40 DUP4 ADD DUP10 PUSH2 0x144D JUMP JUMPDEST PUSH2 0x1892 PUSH1 0x60 DUP4 ADD DUP9 PUSH2 0x145C JUMP JUMPDEST PUSH2 0x189F PUSH1 0x80 DUP4 ADD DUP8 PUSH2 0x145C JUMP JUMPDEST PUSH2 0x18AC PUSH1 0xA0 DUP4 ADD DUP7 PUSH2 0x144D JUMP JUMPDEST PUSH2 0x18B9 PUSH1 0xC0 DUP4 ADD DUP6 PUSH2 0x149D JUMP JUMPDEST DUP2 DUP2 SUB PUSH1 0xE0 DUP4 ADD MSTORE PUSH2 0x18CB DUP2 DUP5 PUSH2 0x181C JUMP JUMPDEST SWAP1 POP SWAP10 SWAP9 POP POP POP POP POP POP POP POP POP JUMP JUMPDEST PUSH1 0x0 PUSH1 0x4 SWAP1 POP SWAP2 SWAP1 POP JUMP JUMPDEST PUSH1 0x0 DUP2 SWAP1 POP SWAP3 SWAP2 POP POP JUMP JUMPDEST PUSH1 0x0 DUP2 SWAP1 POP SWAP2 SWAP1 POP JUMP JUMPDEST PUSH2 0x1903 DUP2 PUSH2 0x13E0 JUMP JUMPDEST DUP3 MSTORE POP POP JUMP JUMPDEST PUSH1 0x0 PUSH2 0x1915 DUP4 DUP4 PUSH2 0x18FA JUMP JUMPDEST PUSH1 0x20 DUP4 ADD SWAP1 POP SWAP3 SWAP2 POP POP JUMP JUMPDEST PUSH1 0x0 PUSH1 0x20 DUP3 ADD SWAP1 POP SWAP2 SWAP1 POP JUMP JUMPDEST PUSH2 0x1937 DUP2 PUSH2 0x18DA JUMP JUMPDEST PUSH2 0x1941 DUP2 DUP5 PUSH2 0x18E5 JUMP JUMPDEST SWAP3 POP PUSH2 0x194C DUP3 PUSH2 0x18F0 JUMP JUMPDEST DUP1 PUSH1 0x0 JUMPDEST DUP4 DUP2 LT ISZERO PUSH2 0x197D JUMPI DUP2 MLOAD PUSH2 0x1964 DUP8 DUP3 PUSH2 0x1909 JUMP JUMPDEST SWAP7 POP PUSH2 0x196F DUP4 PUSH2 0x1921 JUMP JUMPDEST SWAP3 POP POP PUSH1 0x1 DUP2 ADD SWAP1 POP PUSH2 0x1950 JUMP JUMPDEST POP POP POP POP POP POP JUMP JUMPDEST PUSH1 0x0 PUSH1 0x8 SWAP1 POP SWAP2 SWAP1 POP JUMP JUMPDEST PUSH1 0x0 DUP2 SWAP1 POP SWAP3 SWAP2 POP POP JUMP JUMPDEST PUSH1 0x0 DUP2 SWAP1 POP SWAP2 SWAP1 POP JUMP JUMPDEST PUSH1 0x0 PUSH1 0x20 DUP3 ADD SWAP1 POP SWAP2 SWAP1 POP JUMP JUMPDEST PUSH2 0x19BB DUP2 PUSH2 0x1985 JUMP JUMPDEST PUSH2 0x19C5 DUP2 DUP5 PUSH2 0x1990 JUMP JUMPDEST SWAP3 POP PUSH2 0x19D0 DUP3 PUSH2 0x199B JUMP JUMPDEST DUP1 PUSH1 0x0 JUMPDEST DUP4 DUP2 LT ISZERO PUSH2 0x1A01 JUMPI DUP2 MLOAD PUSH2 0x19E8 DUP8 DUP3 PUSH2 0x1909 JUMP JUMPDEST SWAP7 POP PUSH2 0x19F3 DUP4 PUSH2 0x19A5 JUMP JUMPDEST SWAP3 POP POP PUSH1 0x1 DUP2 ADD SWAP1 POP PUSH2 0x19D4 JUMP JUMPDEST POP POP POP POP POP POP JUMP JUMPDEST PUSH2 0x180 DUP3 ADD PUSH1 0x0 DUP3 ADD MLOAD PUSH2 0x1A20 PUSH1 0x0 DUP6 ADD DUP3 PUSH2 0x192E JUMP JUMPDEST POP PUSH1 0x20 DUP3 ADD MLOAD PUSH2 0x1A33 PUSH1 0x80 DUP6 ADD DUP3 PUSH2 0x19B2 JUMP JUMPDEST POP POP POP POP JUMP JUMPDEST PUSH1 0x0 PUSH2 0x200 DUP3 ADD SWAP1 POP PUSH2 0x1A4F PUSH1 0x0 DUP4 ADD DUP9 PUSH2 0x149D JUMP JUMPDEST PUSH2 0x1A5C PUSH1 0x20 DUP4 ADD DUP8 PUSH2 0x145C JUMP JUMPDEST PUSH2 0x1A69 PUSH1 0x40 DUP4 ADD DUP7 PUSH2 0x145C JUMP JUMPDEST PUSH2 0x1A76 PUSH1 0x60 DUP4 ADD DUP6 PUSH2 0x1A09 JUMP JUMPDEST PUSH2 0x1A84 PUSH2 0x1E0 DUP4 ADD DUP5 PUSH2 0x1556 JUMP JUMPDEST SWAP7 SWAP6 POP POP POP POP POP POP JUMP JUMPDEST PUSH32 0x4E487B7100000000000000000000000000000000000000000000000000000000 PUSH1 0x0 MSTORE PUSH1 0x22 PUSH1 0x4 MSTORE PUSH1 0x24 PUSH1 0x0 REVERT JUMPDEST PUSH1 0x0 PUSH1 0x2 DUP3 DIV SWAP1 POP PUSH1 0x1 DUP3 AND DUP1 PUSH2 0x1AD5 JUMPI PUSH1 0x7F DUP3 AND SWAP2 POP JUMPDEST PUSH1 0x20 DUP3 LT DUP2 SUB PUSH2 0x1AE8 JUMPI PUSH2 0x1AE7 PUSH2 0x1A8E JUMP JUMPDEST JUMPDEST POP SWAP2 SWAP1 POP JUMP JUMPDEST PUSH1 0x0 DUP3 DUP3 MSTORE PUSH1 0x20 DUP3 ADD SWAP1 POP SWAP3 SWAP2 POP POP JUMP JUMPDEST PUSH32 0x496E73756666696369656E74207374616B650000000000000000000000000000 PUSH1 0x0 DUP3 ADD MSTORE POP JUMP JUMPDEST PUSH1 0x0 PUSH2 0x1B35 PUSH1 0x12 DUP4 PUSH2 0x1AEE JUMP JUMPDEST SWAP2 POP PUSH2 0x1B40 DUP3 PUSH2 0x1AFF JUMP JUMPDEST PUSH1 0x20 DUP3 ADD SWAP1 POP SWAP2 SWAP1 POP JUMP JUMPDEST PUSH1 0x0 PUSH1 0x20 DUP3 ADD SWAP1 POP DUP2 DUP2 SUB PUSH1 0x0 DUP4 ADD MSTORE PUSH2 0x1B64 DUP2 PUSH2 0x1B28 JUMP JUMPDEST SWAP1 POP SWAP2 SWAP1 POP JUMP JUMPDEST PUSH32 0x416C726561647920612076616C696461746F7200000000000000000000000000 PUSH1 0x0 DUP3 ADD MSTORE POP JUMP JUMPDEST PUSH1 0x0 PUSH2 0x1BA1 PUSH1 0x13 DUP4 PUSH2 0x1AEE JUMP JUMPDEST SWAP2 POP PUSH2 0x1BAC DUP3 PUSH2 0x1B6B JUMP JUMPDEST PUSH1 0x20 DUP3 ADD SWAP1 POP SWAP2 SWAP1 POP JUMP JUMPDEST PUSH1 0x0 PUSH1 0x20 DUP3 ADD SWAP1 POP DUP2 DUP2 SUB PUSH1 0x0 DUP4 ADD MSTORE PUSH2 0x1BD0 DUP2 PUSH2 0x1B94 JUMP JUMPDEST SWAP1 POP SWAP2 SWAP1 POP JUMP JUMPDEST PUSH32 0x4E487B7100000000000000000000000000000000000000000000000000000000 PUSH1 0x0 MSTORE PUSH1 0x11 PUSH1 0x4 MSTORE PUSH1 0x24 PUSH1 0x0 REVERT JUMPDEST PUSH1 0x0 PUSH2 0x1C11 DUP3 PUSH2 0x13E0 JUMP JUMPDEST SWAP2 POP PUSH32 0xFFFFFFFFFFFFFFFFFFFFFFFFFFFFFFFFFFFFFFFFFFFFFFFFFFFFFFFFFFFFFFFF DUP3 SUB PUSH2 0x1C43 JUMPI PUSH2 0x1C42 PUSH2 0x1BD7 JUMP JUMPDEST JUMPDEST PUSH1 0x1 DUP3 ADD SWAP1 POP SWAP2 SWAP1 POP JUMP JUMPDEST PUSH32 0x4E6F7420616E206163746976652076616C696461746F72000000000000000000 PUSH1 0x0 DUP3 ADD MSTORE POP JUMP JUMPDEST PUSH1 0x0 PUSH2 0x1C84 PUSH1 0x17 DUP4 PUSH2 0x1AEE JUMP JUMPDEST SWAP2 POP PUSH2 0x1C8F DUP3 PUSH2 0x1C4E JUMP JUMPDEST PUSH1 0x20 DUP3 ADD SWAP1 POP SWAP2 SWAP1 POP JUMP JUMPDEST PUSH1 0x0 PUSH1 0x20 DUP3 ADD SWAP1 POP DUP2 DUP2 SUB PUSH1 0x0 DUP4 ADD MSTORE PUSH2 0x1CB3 DUP2 PUSH2 0x1C77 JUMP JUMPDEST SWAP1 POP SWAP2 SWAP1 POP JUMP JUMPDEST PUSH1 0x0 PUSH2 0x1CC5 DUP3 PUSH2 0x13E0 JUMP JUMPDEST SWAP2 POP PUSH2 0x1CD0 DUP4 PUSH2 0x13E0 JUMP JUMPDEST SWAP3 POP DUP3 DUP3 SUB SWAP1 POP DUP2 DUP2 GT ISZERO PUSH2 0x1CE8 JUMPI PUSH2 0x1CE7 PUSH2 0x1BD7 JUMP JUMPDEST JUMPDEST SWAP3 SWAP2 POP POP JUMP JUMPDEST PUSH1 0x0 PUSH1 0xA0 DUP3 ADD SWAP1 POP PUSH2 0x1D03 PUSH1 0x0 DUP4 ADD DUP9 PUSH2 0x145C JUMP JUMPDEST PUSH2 0x1D10 PUSH1 0x20 DUP4 ADD DUP8 PUSH2 0x144D JUMP JUMPDEST PUSH2 0x1D1D PUSH1 0x40 DUP4 ADD DUP7 PUSH2 0x145C JUMP JUMPDEST DUP2 DUP2 SUB PUSH1 0x60 DUP4 ADD MSTORE PUSH2 0x1D2F DUP2 DUP6 PUSH2 0x181C JUMP JUMPDEST SWAP1 POP PUSH2 0x1D3E PUSH1 0x80 DUP4 ADD DUP5 PUSH2 0x145C JUMP JUMPDEST SWAP7 SWAP6 POP POP POP POP POP POP JUMP JUMPDEST PUSH1 0x0 PUSH1 0x40 DUP3 ADD SWAP1 POP PUSH2 0x1D5D PUSH1 0x0 DUP4 ADD DUP6 PUSH2 0x144D JUMP JUMPDEST PUSH2 0x1D6A PUSH1 0x20 DUP4 ADD DUP5 PUSH2 0x145C JUMP JUMPDEST SWAP4 SWAP3 POP POP POP JUMP JUMPDEST PUSH32 0x5175616E74756D2070726F6F6620696E73756666696369656E74000000000000 PUSH1 0x0 DUP3 ADD MSTORE POP JUMP JUMPDEST PUSH1 0x0 PUSH2 0x1DA7 PUSH1 0x1A DUP4 PUSH2 0x1AEE JUMP JUMPDEST SWAP2 POP PUSH2 0x1DB2 DUP3 PUSH2 0x1D71 JUMP JUMPDEST PUSH1 0x20 DUP3 ADD SWAP1 POP SWAP2 SWAP1 POP JUMP JUMPDEST PUSH1 0x0 PUSH1 0x20 DUP3 ADD SWAP1 POP DUP2 DUP2 SUB PUSH1 0x0 DUP4 ADD MSTORE PUSH2 0x1DD6 DUP2 PUSH2 0x1D9A JUMP JUMPDEST SWAP1 POP SWAP2 SWAP1 POP JUMP JUMPDEST PUSH32 0x496E76616C6964207175616E74756D2070726F6F660000000000000000000000 PUSH1 0x0 DUP3 ADD MSTORE POP JUMP JUMPDEST PUSH1 0x0 PUSH2 0x1E13 PUSH1 0x15 DUP4 PUSH2 0x1AEE JUMP JUMPDEST SWAP2 POP PUSH2 0x1E1E DUP3 PUSH2 0x1DDD JUMP JUMPDEST PUSH1 0x20 DUP3 ADD SWAP1 POP SWAP2 SWAP1 POP JUMP JUMPDEST PUSH1 0x0 PUSH1 0x20 DUP3 ADD SWAP1 POP DUP2 DUP2 SUB PUSH1 0x0 DUP4 ADD MSTORE PUSH2 0x1E42 DUP2 PUSH2 0x1E06 JUMP JUMPDEST SWAP1 POP SWAP2 SWAP1 POP JUMP JUMPDEST PUSH1 0x0 DUP2 SWAP1 POP DUP2 PUSH1 0x0 MSTORE PUSH1 0x20 PUSH1 0x0 KECCAK256 SWAP1 POP SWAP2 SWAP1 POP JUMP JUMPDEST PUSH1 0x0 PUSH1 0x20 PUSH1 0x1F DUP4 ADD DIV SWAP1 POP SWAP2 SWAP1 POP JUMP JUMPDEST PUSH1 0x0 DUP3 DUP3 SHL SWAP1 POP SWAP3 SWAP2 POP POP JUMP JUMPDEST PUSH1 0x0 PUSH1 0x8 DUP4 MUL PUSH2 0x1EAB PUSH32 0xFFFFFFFFFFFFFFFFFFFFFFFFFFFFFFFFFFFFFFFFFFFFFFFFFFFFFFFFFFFFFFFF DUP3 PUSH2 0x1E6E JUMP JUMPDEST PUSH2 0x1EB5 DUP7 DUP4 PUSH2 0x1E6E JUMP JUMPDEST SWAP6 POP DUP1 NOT DUP5 AND SWAP4 POP DUP1 DUP7 AND DUP5 OR SWAP3 POP POP POP SWAP4 SWAP3 POP POP POP JUMP JUMPDEST PUSH1 0x0 DUP2 SWAP1 POP SWAP2 SWAP1 POP JUMP JUMPDEST PUSH1 0x0 PUSH2 0x1EF2 PUSH2 0x1EED PUSH2 0x1EE8 DUP5 PUSH2 0x13E0 JUMP JUMPDEST PUSH2 0x1ECD JUMP JUMPDEST PUSH2 0x13E0 JUMP JUMPDEST SWAP1 POP SWAP2 SWAP1 POP JUMP JUMPDEST PUSH1 0x0 DUP2 SWAP1 POP SWAP2 SWAP1 POP JUMP JUMPDEST PUSH2 0x1F0C DUP4 PUSH2 0x1ED7 JUMP JUMPDEST PUSH2 0x1F20 PUSH2 0x1F18 DUP3 PUSH2 0x1EF9 JUMP JUMPDEST DUP5 DUP5 SLOAD PUSH2 0x1E7B JUMP JUMPDEST DUP3 SSTORE POP POP POP POP JUMP JUMPDEST PUSH1 0x0 SWAP1 JUMP JUMPDEST PUSH2 0x1F35 PUSH2 0x1F28 JUMP JUMPDEST PUSH2 0x1F40 DUP2 DUP5 DUP5 PUSH2 0x1F03 JUMP JUMPDEST POP POP POP JUMP JUMPDEST JUMPDEST DUP2 DUP2 LT ISZERO PUSH2 0x1F64 JUMPI PUSH2 0x1F59 PUSH1 0x0 DUP3 PUSH2 0x1F2D JUMP JUMPDEST PUSH1 0x1 DUP2 ADD SWAP1 POP PUSH2 0x1F46 JUMP JUMPDEST POP POP JUMP JUMPDEST PUSH1 0x1F DUP3 GT ISZERO PUSH2 0x1FA9 JUMPI PUSH2 0x1F7A DUP2 PUSH2 0x1E49 JUMP JUMPDEST PUSH2 0x1F83 DUP5 PUSH2 0x1E5E JUMP JUMPDEST DUP2 ADD PUSH1 0x20 DUP6 LT ISZERO PUSH2 0x1F92 JUMPI DUP2 SWAP1 POP JUMPDEST PUSH2 0x1FA6 PUSH2 0x1F9E DUP6 PUSH2 0x1E5E JUMP JUMPDEST DUP4 ADD DUP3 PUSH2 0x1F45 JUMP JUMPDEST POP POP JUMPDEST POP POP POP JUMP JUMPDEST PUSH1 0x0 DUP3 DUP3 SHR SWAP1 POP SWAP3 SWAP2 POP POP JUMP JUMPDEST PUSH1 0x0 PUSH2 0x1FCC PUSH1 0x0 NOT DUP5 PUSH1 0x8 MUL PUSH2 0x1FAE JUMP JUMPDEST NOT DUP1 DUP4 AND SWAP2 POP POP SWAP3 SWAP2 POP POP JUMP JUMPDEST PUSH1 0x0 PUSH2 0x1FE5 DUP4 DUP4 PUSH2 0x1FBB JUMP JUMPDEST SWAP2 POP DUP3 PUSH1 0x2 MUL DUP3 OR SWAP1 POP SWAP3 SWAP2 POP POP JUMP JUMPDEST PUSH2 0x1FFE DUP3 PUSH2 0x17D6 JUMP JUMPDEST PUSH8 0xFFFFFFFFFFFFFFFF DUP2 GT ISZERO PUSH2 0x2017 JUMPI PUSH2 0x2016 PUSH2 0x164F JUMP JUMPDEST JUMPDEST PUSH2 0x2021 DUP3 SLOAD PUSH2 0x1ABD JUMP JUMPDEST PUSH2 0x202C DUP3 DUP3 DUP6 PUSH2 0x1F68 JUMP JUMPDEST PUSH1 0x0 PUSH1 0x20 SWAP1 POP PUSH1 0x1F DUP4 GT PUSH1 0x1 DUP2 EQ PUSH2 0x205F JUMPI PUSH1 0x0 DUP5 ISZERO PUSH2 0x204D JUMPI DUP3 DUP8 ADD MLOAD SWAP1 POP JUMPDEST PUSH2 0x2057 DUP6 DUP3 PUSH2 0x1FD9 JUMP JUMPDEST DUP7 SSTORE POP PUSH2 0x20BF JUMP JUMPDEST PUSH1 0x1F NOT DUP5 AND PUSH2 0x206D DUP7 PUSH2 0x1E49 JUMP JUMPDEST PUSH1 0x0 JUMPDEST DUP3 DUP2 LT ISZERO PUSH2 0x2095 JUMPI DUP5 DUP10 ADD MLOAD DUP3 SSTORE PUSH1 0x1 DUP3 ADD SWAP2 POP PUSH1 0x20 DUP6 ADD SWAP5 POP PUSH1 0x20 DUP2 ADD SWAP1 POP PUSH2 0x2070 JUMP JUMPDEST DUP7 DUP4 LT ISZERO PUSH2 0x20B2 JUMPI DUP5 DUP10 ADD MLOAD PUSH2 0x20AE PUSH1 0x1F DUP10 AND DUP3 PUSH2 0x1FBB JUMP JUMPDEST DUP4 SSTORE POP JUMPDEST PUSH1 0x1 PUSH1 0x2 DUP9 MUL ADD DUP9 SSTORE POP POP POP JUMPDEST POP POP POP POP POP POP JUMP JUMPDEST PUSH1 0x0 PUSH1 0x40 DUP3 ADD SWAP1 POP PUSH2 0x20DC PUSH1 0x0 DUP4 ADD DUP6 PUSH2 0x145C JUMP JUMPDEST PUSH2 0x20E9 PUSH1 0x20 DUP4 ADD DUP5 PUSH2 0x144D JUMP JUMPDEST SWAP4 SWAP3 POP POP POP JUMP JUMPDEST PUSH1 0x0 PUSH2 0x20FB DUP3 PUSH2 0x13E0 JUMP JUMPDEST SWAP2 POP PUSH2 0x2106 DUP4 PUSH2 0x13E0 JUMP JUMPDEST SWAP3 POP DUP3 DUP3 ADD SWAP1 POP DUP1 DUP3 GT ISZERO PUSH2 0x211E JUMPI PUSH2 0x211D PUSH2 0x1BD7 JUMP JUMPDEST JUMPDEST SWAP3 SWAP2 POP POP JUMP JUMPDEST PUSH1 0x0 PUSH1 0x20 DUP3 ADD SWAP1 POP PUSH2 0x2139 PUSH1 0x0 DUP4 ADD DUP5 PUSH2 0x144D JUMP JUMPDEST SWAP3 SWAP2 POP POP JUMP JUMPDEST PUSH32 0x4E6F7420612076616C696461746F720000000000000000000000000000000000 PUSH1 0x0 DUP3 ADD MSTORE POP JUMP JUMPDEST PUSH1 0x0 PUSH2 0x2175 PUSH1 0xF DUP4 PUSH2 0x1AEE JUMP JUMPDEST SWAP2 POP PUSH2 0x2180 DUP3 PUSH2 0x213F JUMP JUMPDEST PUSH1 0x20 DUP3 ADD SWAP1 POP SWAP2 SWAP1 POP JUMP JUMPDEST PUSH1 0x0 PUSH1 0x20 DUP3 ADD SWAP1 POP DUP2 DUP2 SUB PUSH1 0x0 DUP4 ADD MSTORE PUSH2 0x21A4 DUP2 PUSH2 0x2168 JUMP JUMPDEST SWAP1 POP SWAP2 SWAP1 POP JUMP JUMPDEST PUSH1 0x0 PUSH1 0x40 DUP3 ADD SWAP1 POP PUSH2 0x21C0 PUSH1 0x0 DUP4 ADD DUP6 PUSH2 0x145C JUMP JUMPDEST PUSH2 0x21CD PUSH1 0x20 DUP4 ADD DUP5 PUSH2 0x145C JUMP JUMPDEST SWAP4 SWAP3 POP POP POP JUMP JUMPDEST PUSH32 0x4E487B7100000000000000000000000000000000000000000000000000000000 PUSH1 0x0 MSTORE PUSH1 0x12 PUSH1 0x4 MSTORE PUSH1 0x24 PUSH1 0x0 REVERT JUMPDEST PUSH1 0x0 PUSH2 0x220E DUP3 PUSH2 0x13E0 JUMP JUMPDEST SWAP2 POP PUSH2 0x2219 DUP4 PUSH2 0x13E0 JUMP JUMPDEST SWAP3 POP DUP3 PUSH2 0x2229 JUMPI PUSH2 0x2228 PUSH2 0x21D4 JUMP JUMPDEST JUMPDEST DUP3 DUP3 MOD SWAP1 POP SWAP3 SWAP2 POP POP JUMP JUMPDEST PUSH32 0x4E487B7100000000000000000000000000000000000000000000000000000000 PUSH1 0x0 MSTORE PUSH1 0x32 PUSH1 0x4 MSTORE PUSH1 0x24 PUSH1 0x0 REVERT JUMPDEST PUSH1 0x0 PUSH1 0x60 DUP3 ADD SWAP1 POP DUP2 DUP2 SUB PUSH1 0x0 DUP4 ADD MSTORE PUSH2 0x227D DUP2 DUP7 PUSH2 0x181C JUMP JUMPDEST SWAP1 POP PUSH2 0x228C PUSH1 0x20 DUP4 ADD DUP6 PUSH2 0x144D JUMP JUMPDEST PUSH2 0x2299 PUSH1 0x40 DUP4 ADD DUP5 PUSH2 0x145C JUMP JUMPDEST SWAP5 SWAP4 POP POP POP POP JUMP JUMPDEST PUSH1 0x0 PUSH2 0x22AC DUP3 PUSH2 0x13E0 JUMP JUMPDEST SWAP2 POP PUSH2 0x22B7 DUP4 PUSH2 0x13E0 JUMP JUMPDEST SWAP3 POP DUP3 DUP3 MUL PUSH2 0x22C5 DUP2 PUSH2 0x13E0 JUMP JUMPDEST SWAP2 POP DUP3 DUP3 DIV DUP5 EQ DUP4 ISZERO OR PUSH2 0x22DC JUMPI PUSH2 0x22DB PUSH2 0x1BD7 JUMP JUMPDEST JUMPDEST POP SWAP3 SWAP2 POP POP JUMP JUMPDEST PUSH1 0x0 PUSH2 0x22EE DUP3 PUSH2 0x13E0 JUMP JUMPDEST SWAP2 POP PUSH2 0x22F9 DUP4 PUSH2 0x13E0 JUMP JUMPDEST SWAP3 POP DUP3 PUSH2 0x2309 JUMPI PUSH2 0x2308 PUSH2 0x21D4 JUMP JUMPDEST JUMPDEST DUP3 DUP3 DIV SWAP1 POP SWAP3 SWAP2 POP POP JUMP INVALID LOG2 PUSH5 0x6970667358 0x22 SLT KECCAK256 SWAP16 0xC0 0xD4 MOD DUP3 MSIZE RETURN 0xDA PUSH23 0xF2CF06575532072971BB426E26D685F34BD8B0C2C0EA65 PUSH5 0x736F6C6343 STOP ADDMOD SGT STOP CALLER "},"methodIdentifiers":{"BLOCK_TIME_TARGET()":"a5f772a4","EPOCH_LENGTH()":"ac4746ab","QUANTUM_DIFFICULTY()":"201a46ad","addValidator(uint256,uint256)":"2968e2ce","blocks(uint256)":"f25b3f99","currentBlockNumber()":"378ec23b","getBlock(uint256)":"04c07569","getQuantumEntropy()":"375736f1","getValidatorReputation(address)":"d71c4c09","getValidatorStake(address)":"34664846","isHashProcessed(bytes32)":"965a96de","markHashProcessed(bytes32)":"bfd611ed","mineQuantumBlock(bytes,uint256)":"ad7edcd7","processedHashes(bytes32)":"07d9c534","quantumEntropy()":"f07318d0","totalValidators()":"c81b356b","validators(address)":"fa52c7d8"}}}}}