{
  "_format": "hh-sol-artifact-1",
  "contractName": "QuantumConsensus",
  "sourceName": "contracts/QuantumConsensus.sol",
  "abi": [
    {
      "inputs": [],
      "stateMutability": "nonpayable",
      "type": "constructor"
    },
    {
      "anonymous": false,
      "inputs": [
        {
          "indexed": true,
          "internalType": "uint256",
          "name": "blockNumber",
          "type": "uint256"
        },
        {
          "indexed": true,
          "internalType": "address",
          "name": "miner",
          "type": "address"
        },
        {
          "indexed": false,
          "internalType": "bytes32",
          "name": "blockHash",
          "type": "bytes32"
        }
      ],
      "name": "BlockMined",
      "type": "event"
    },
    {
      "anonymous": false,
      "inputs": [
        {
          "indexed": true,
          "internalType": "bytes32",
          "name": "hash",
          "type": "bytes32"
        },
        {
          "indexed": false,
          "internalType": "bool",
          "name": "valid",
          "type": "bool"
        }
      ],
      "name": "QuantumProofVerified",
      "type": "event"
    },
    {
      "anonymous": false,
      "inputs": [
        {
          "indexed": true,
          "internalType": "address",
          "name": "validator",
          "type": "address"
        },
        {
          "indexed": false,
          "internalType": "uint256",
          "name": "stake",
          "type": "uint256"
        }
      ],
      "name": "ValidatorAdded",
      "type": "event"
    },
    {
      "inputs": [],
      "name": "BLOCK_TIME_TARGET",
      "outputs": [
        {
          "internalType": "uint256",
          "name": "",
          "type": "uint256"
        }
      ],
      "stateMutability": "view",
      "type": "function"
    },
    {
      "inputs": [],
      "name": "EPOCH_LENGTH",
      "outputs": [
        {
          "internalType": "uint256",
          "name": "",
          "type": "uint256"
        }
      ],
      "stateMutability": "view",
      "type": "function"
    },
    {
      "inputs": [],
      "name": "QUANTUM_DIFFICULTY",
      "outputs": [
        {
          "internalType": "uint256",
          "name": "",
          "type": "uint256"
        }
      ],
      "stateMutability": "view",
      "type": "function"
    },
    {
      "inputs": [
        {
          "internalType": "uint256",
          "name": "stake",
          "type": "uint256"
        },
        {
          "internalType": "uint256",
          "name": "seed",
          "type": "uint256"
        }
      ],
      "name": "addValidator",
      "outputs": [],
      "stateMutability": "payable",
      "type": "function"
    },
    {
      "inputs": [
        {
          "internalType": "uint256",
          "name": "",
          "type": "uint256"
        }
      ],
      "name": "blocks",
      "outputs": [
        {
          "internalType": "uint256",
          "name": "blockNumber",
          "type": "uint256"
        },
        {
          "internalType": "bytes32",
          "name": "blockHash",
          "type": "bytes32"
        },
        {
          "internalType": "bytes32",
          "name": "quantumHash",
          "type": "bytes32"
        },
        {
          "internalType": "uint256",
          "name": "timestamp",
          "type": "uint256"
        },
        {
          "internalType": "uint256",
          "name": "quantumDifficulty",
          "type": "uint256"
        },
        {
          "internalType": "bytes32",
          "name": "parentHash",
          "type": "bytes32"
        },
        {
          "internalType": "address",
          "name": "miner",
          "type": "address"
        },
        {
          "internalType": "bytes",
          "name": "quantumProof",
          "type": "bytes"
        }
      ],
      "stateMutability": "view",
      "type": "function"
    },
    {
      "inputs": [],
      "name": "currentBlockNumber",
      "outputs": [
        {
          "internalType": "uint256",
          "name": "",
          "type": "uint256"
        }
      ],
      "stateMutability": "view",
      "type": "function"
    },
    {
      "inputs": [
        {
          "internalType": "uint256",
          "name": "blockNumber",
          "type": "uint256"
        }
      ],
      "name": "getBlock",
      "outputs": [
        {
          "internalType": "bytes32",
          "name": "blockHash",
          "type": "bytes32"
        },
        {
          "internalType": "bytes32",
          "name": "quantumHash",
          "type": "bytes32"
        },
        {
          "internalType": "uint256",
          "name": "timestamp",
          "type": "uint256"
        },
        {
          "internalType": "address",
          "name": "miner",
          "type": "address"
        }
      ],
      "stateMutability": "view",
      "type": "function"
    },
    {
      "inputs": [],
      "name": "getQuantumEntropy",
      "outputs": [
        {
          "internalType": "uint256",
          "name": "",
          "type": "uint256"
        }
      ],
      "stateMutability": "view",
      "type": "function"
    },
    {
      "inputs": [
        {
          "internalType": "address",
          "name": "validator",
          "type": "address"
        }
      ],
      "name": "getValidatorReputation",
      "outputs": [
        {
          "internalType": "uint256",
          "name": "",
          "type": "uint256"
        }
      ],
      "stateMutability": "view",
      "type": "function"
    },
    {
      "inputs": [
        {
          "internalType": "address",
          "name": "validator",
          "type": "address"
        }
      ],
      "name": "getValidatorStake",
      "outputs": [
        {
          "internalType": "uint256",
          "name": "",
          "type": "uint256"
        }
      ],
      "stateMutability": "view",
      "type": "function"
    },
    {
      "inputs": [
        {
          "internalType": "bytes32",
          "name": "hash",
          "type": "bytes32"
        }
      ],
      "name": "isHashProcessed",
      "outputs": [
        {
          "internalType": "bool",
          "name": "",
          "type": "bool"
        }
      ],
      "stateMutability": "view",
      "type": "function"
    },
    {
      "inputs": [
        {
          "internalType": "bytes32",
          "name": "hash",
          "type": "bytes32"
        }
      ],
      "name": "markHashProcessed",
      "outputs": [],
      "stateMutability": "nonpayable",
      "type": "function"
    },
    {
      "inputs": [
        {
          "internalType": "bytes",
          "name": "quantumProof",
          "type": "bytes"
        },
        {
          "internalType": "uint256",
          "name": "nonce",
          "type": "uint256"
        }
      ],
      "name": "mineQuantumBlock",
      "outputs": [],
      "stateMutability": "nonpayable",
      "type": "function"
    },
    {
      "inputs": [
        {
          "internalType": "bytes32",
          "name": "",
          "type": "bytes32"
        }
      ],
      "name": "processedHashes",
      "outputs": [
        {
          "internalType": "bool",
          "name": "",
          "type": "bool"
        }
      ],
      "stateMutability": "view",
      "type": "function"
    },
    {
      "inputs": [],
      "name": "quantumEntropy",
      "outputs": [
        {
          "internalType": "uint256",
          "name": "",
          "type": "uint256"
        }
      ],
      "stateMutability": "view",
      "type": "function"
    },
    {
      "inputs": [],
      "name": "totalValidators",
      "outputs": [
        {
          "internalType": "uint256",
          "name": "",
          "type": "uint256"
        }
      ],
      "stateMutability": "view",
      "type": "function"
    },
    {
      "inputs": [
        {
          "internalType": "address",
          "name": "",
          "type": "address"
        }
      ],
      "name": "validators",
      "outputs": [
        {
          "internalType": "address",
          "name": "addr",
          "type": "address"
        },
        {
          "internalType": "uint256",
          "name": "stake",
          "type": "uint256"
        },
        {
          "internalType": "uint256",
          "name": "reputation",
          "type": "uint256"
        },
        {
          "components": [
            {
              "internalType": "uint256[4]",
              "name": "publicKey",
              "type": "uint256[4]"
            },
            {
              "internalType": "uint256[8]",
              "name": "privateKey",
              "type": "uint256[8]"
            }
          ],
          "internalType": "struct QuantumSafeCrypto.DilithiumKeyPair",
          "name": "quantumKey",
          "type": "tuple"
        },
        {
          "internalType": "bool",
          "name": "active",
          "type": "bool"
        }
      ],
      "stateMutability": "view",
      "type": "function"
    }
  ],
  "bytecode": "0x60803462000296576020908181019042825260409144838301528282526060908183019260018060401b0391818510838611176200028057848652815190206005556007600091828052828852868320958387556647454e4553495360c81b60c060808401938b85528560a082015201528581526200007e816200029b565b5190209460019586820155865188810190898252600f898201526e5155414e54554d5f47454e4553495360881b87820152868152620000bd816200029b565b51902060028201554260038201556103e86004820155600581018390556006810180546001600160a01b03191690558651888101899052600d818901526c23a2a722a9a4a9afa82927a7a360991b868201529485526200011d856200029b565b019280519283116200026c5783548581811c9116801562000261575b888210146200024d57601f811162000202575b508691601f84116001146200019957839495969750926200018d575b5050600019600383901b1c191690831b1790555b600355516110149081620002b88239f35b01519050388062000168565b9190601f1984169785845280842093905b898210620001ea5750508386979896959610620001d0575b505050811b0190556200017c565b015160001960f88460031b161c19169055388080620001c2565b808885968294968601518155019501930190620001aa565b848352878320601f850160051c81019189861062000242575b601f0160051c019086905b828110620002365750506200014c565b84815501869062000226565b90915081906200021b565b634e487b7160e01b83526022600452602483fd5b90607f169062000139565b634e487b7160e01b82526041600452602482fd5b634e487b7160e01b600052604160045260246000fd5b600080fd5b608081019081106001600160401b03821117620002805760405256fe608060408181526004908136101561001657600080fd5b600092833560e01c90816304c0756914610bef5750806307d9c534146108c6578063201a46ad14610bd25780632968e2ce1461094e5780633466484614610912578063375736f1146102af578063378ec23b146108f3578063965a96de146108c6578063a5f772a4146108aa578063ac4746ab1461088e578063ad7edcd7146103d0578063bfd611ed1461032d578063c81b356b1461030f578063d71c4c09146102d2578063f07318d0146102af578063f25b3f991461021c5763fa52c7d8146100df57600080fd5b346102155760209283600319360112610219576001600160a01b039383358581169081900361021557825260019485825283832090815416948682015494600283015481519161012e83610cc1565b8051600386018b8989845b89831061020157505050505061014e81610d0f565b8352805194600781018b8989895b600883106101ed575050505050600f60ff9161017788610d2b565b888601978852015416978151998a52868a0152880152606087019051888587935b8585106101d8575050505050505160e085019092905b600882106101c557610200868615156101e0820152f35b83518152928201929086019082016101ae565b81908451815201920192019190858a91610198565b8454815293830193918301918b910161015c565b8454815293830193918301918b9101610139565b8280fd5b80fd5b50823461021957602036600319011261021957816102ab918435815280602052209182549260018101549460028201549060038301549083015490600584015492610276600760018060a01b036006880154169601610da4565b958051998a998a5260208a01528801526060870152608086015260a085015260c08401526101008060e0850152830190610e4a565b0390f35b8382346102ce57816003193601126102ce576020906005549051908152f35b5080fd5b50903461021557602036600319011261021557356001600160a01b0381169081900361021557818360029260209552600185522001549051908152f35b50903461021557826003193601126102155760209250549051908152f35b503461021557602036600319011261021557813591338452600160205260ff600f8386200154161561039c575060207f55bd7cb9b959e822299d8aff0bfe605b9345d0e312dda8a25761b6877ffebd6f9183855260028252808520600160ff198254161790555160018152a280f35b6020606492519162461bcd60e51b8352820152600f60248201526e2737ba1030903b30b634b230ba37b960891b6044820152fd5b509190346102ce57826003193601126102ce5780359267ffffffffffffffff9081851161088a573660238601121561088a57848301359082821161087757805193602093601f1993610429601f82018616870188610d48565b808752602498368a8383010111610873578189928b899301838b01378801015233875260019081865260ff600f858a20015416156108315760039687549160001980840184811161081f578b528a895284878c2001548c6104bf895180928d8201948986528c83015242606083015260a060808301526104ac60c0830189610e4a565b903560a0830152038b8101835282610d48565b519020976005549488518b8101908b8252878b8201528a81526104e181610cf3565b519020956101f4906103e89082828a0610156107db5761051a61052f8f8f8f90948c958251958694850197606089526080860190610e4a565b92840152606083015203878101835282610d48565b5190200610156107a057808d528c8b52888d209081558987820155856002820155428c82015561055d610ebc565b888201558c8c5484810190811161078e578a82808f8c94600797965252200154600582015560068101336bffffffffffffffffffffffff60a01b8254161790550193805193841161077c57908392918d8c6105b88854610d6a565b91601f8311610718575b915050508d8c92601f86116001146106a3575093610698575b505082861b928b1b1c19161790555b600554908451908782019283528582015284815261060781610cf3565b5190206005558680808068056bc75e2d631000003382f11561068e573387528452600282872001805491600a830180931161067c575061067795969750557f84c1f3580ae009522c870c7efc2c3dc362bb7c75603ba15b642a5f0f954086438554938492519384523393a3610e8a565b905580f35b634e487b7160e01b8852601190528787fd5b82513d88823e3d90fd5b0151915038806105db565b928d8f948b9896949396169089875280872096905b8282106106f357505090868092106106db575b505050505050811b0190556105ea565b60f8920151931b161c19169055388a818084816106cb565b92979890949684965088849395015181550196019201918e93918a979695938f6106b8565b9091929394955087815220601f860160051c8101918d8710610772575b8f879695949392601f8c930160051c0192905b8382106107595790508e91506105c2565b908092939495969750550190888f928796959493610748565b9091508190610735565b634e487b7160e01b8d52604188528d8dfd5b634e487b7160e01b825260118a528f82fd5b50875162461bcd60e51b81528088018b90526015818f01527424b73b30b634b21038bab0b73a3ab690383937b7b360591b6044820152606490fd5b505060648f601a8b918f8e519362461bcd60e51b85528401528201527f5175616e74756d2070726f6f6620696e73756666696369656e740000000000006044820152fd5b634e487b7160e01b8c52601187528c8cfd5b835162461bcd60e51b81528084018790526017818b01527f4e6f7420616e206163746976652076616c696461746f720000000000000000006044820152606490fd5b8880fd5b634e487b7160e01b855260418452602485fd5b8380fd5b8382346102ce57816003193601126102ce576020905160648152f35b8382346102ce57816003193601126102ce5760209051600f8152f35b509034610215576020366003190112610215578160209360ff923581526002855220541690519015158152f35b8382346102ce57816003193601126102ce576020906003549051908152f35b50903461021557602036600319011261021557356001600160a01b03811690819003610215578183600192602095528285522001549051908152f35b509190826003193601126102ce57803590602493843591833410610b9c5733855260019260209380855260ff600f858920015416610b645761098e610fa4565b50610997610fa4565b91875b848110610b2c5750828601885b60088110610ad75750505083519760a089019089821067ffffffffffffffff831117610ac6575084523388528480890192878452858a016103e8815260608b0191825260808b0194848652338b52848452878b209b60018060a01b039051166bffffffffffffffffffffffff60a01b8d5416178c5551848c01555160028b015551898382518b905b888210610aaa57505050500151875b60088110610a9657505050600f7f9000b209805850a65058f21361a9978cb30f1413ed555553ab52a59b440b5d99959697019051151560ff80198354169116179055610a8a8154610e8a565b9055519283523392a280f35b81518a820160070155908601908201610a3e565b80519382016003019390935589948d9387939092019101610a2f565b634e487b7160e01b89526041855288fd5b60648101808211610b1a5790627fe001610b159289518b8101918783528b8201528a8152610b0481610cf3565b5190200683518260051b0152610e8a565b6109a7565b634e487b7160e01b8b52601187528b8bfd5b610b5f90627fe001875189810190858252838a820152898152610b4e81610cf3565b5190200685518260051b0152610e8a565b61099a565b835162461bcd60e51b81528084018690526013818a01527220b63932b0b23c9030903b30b634b230ba37b960691b6044820152606490fd5b6012866020606494519362461bcd60e51b855284015282015271496e73756666696369656e74207374616b6560701b6044820152fd5b8382346102ce57816003193601126102ce57602090516103e88152f35b929190503461088a57602036600319011261088a5781358452836020528084209061010084019484861067ffffffffffffffff871117610cae5750608094815281548452600182015493602081019485526002830154948282019586526003840154946060830195865284015487830152600584015460a083015260018060a01b039160e0610c8e6007856006890154169760c0850198895201610da4565b910152519451935192511692815194855260208501528301526060820152f35b634e487b7160e01b815260418452602490fd5b6040810190811067ffffffffffffffff821117610cdd57604052565b634e487b7160e01b600052604160045260246000fd5b6060810190811067ffffffffffffffff821117610cdd57604052565b6080810190811067ffffffffffffffff821117610cdd57604052565b610100810190811067ffffffffffffffff821117610cdd57604052565b90601f8019910116810190811067ffffffffffffffff821117610cdd57604052565b90600182811c92168015610d9a575b6020831014610d8457565b634e487b7160e01b600052602260045260246000fd5b91607f1691610d79565b9060405191826000825492610db884610d6a565b908184526001948581169081600014610e275750600114610de4575b5050610de292500383610d48565b565b9093915060005260209081600020936000915b818310610e0f575050610de293508201013880610dd4565b85548884018501529485019487945091830191610df7565b915050610de294506020925060ff191682840152151560051b8201013880610dd4565b919082519283825260005b848110610e76575050826000602080949584010152601f8019910116010190565b602081830181015184830182015201610e55565b6000198114610e995760010190565b634e487b7160e01b600052601160045260246000fd5b91908203918211610e9957565b6003805460648110610f9c5760c8811015610f9457805b600092610ee08383610eaf565b60018101809111610f805791905b81831115610f2b575050508015610f1557600f91041015610f0f5761044c90565b61038490565b634e487b7160e01b600052601260045260246000fd5b909193846000526020600081526040908382600020015490600019880192888411610e995760008692610f6695825252600020015490610eaf565b8101809111610e9957610f799094610e8a565b9190610eee565b634e487b7160e01b85526011600452602485fd5b60c890610ed3565b50506103e890565b60405190610fb182610cc1565b81604051610fbe81610d0f565b60803682378152602060405191610fd483610d2b565b610100368437015256fea264697066735822122085dac9cbbbd1338d8aa71f722feb2a730b2ab8af6acff19e945e5c603d69747e64736f6c63430008130033",
  "linkReferences": {},
  "deployedLinkReferences": {}
}