{
  "_format": "hh-sol-artifact-1",
  "contractName": "QuantumConsensus",
  "sourceName": "contracts/QuantumConsensus.sol",
  "abi": [
    {
      "inputs": [],
      "stateMutability": "nonpayable",
      "type": "constructor"
    },
    {
      "anonymous": false,
      "inputs": [
        {
          "indexed": true,
          "internalType": "uint256",
          "name": "blockNumber",
          "type": "uint256"
        },
        {
          "indexed": true,
          "internalType": "address",
          "name": "miner",
          "type": "address"
        },
        {
          "indexed": false,
          "internalType": "bytes32",
          "name": "blockHash",
          "type": "bytes32"
        }
      ],
      "name": "BlockMined",
      "type": "event"
    },
    {
      "anonymous": false,
      "inputs": [
        {
          "indexed": true,
          "internalType": "bytes32",
          "name": "hash",
          "type": "bytes32"
        },
        {
          "indexed": false,
          "internalType": "bool",
          "name": "valid",
          "type": "bool"
        }
      ],
      "name": "QuantumProofVerified",
      "type": "event"
    },
    {
      "anonymous": false,
      "inputs": [
        {
          "indexed": true,
          "internalType": "address",
          "name": "validator",
          "type": "address"
        },
        {
          "indexed": false,
          "internalType": "uint256",
          "name": "stake",
          "type": "uint256"
        }
      ],
      "name": "ValidatorAdded",
      "type": "event"
    },
    {
      "inputs": [],
      "name": "BLOCK_TIME_TARGET",
      "outputs": [
        {
          "internalType": "uint256",
          "name": "",
          "type": "uint256"
        }
      ],
      "stateMutability": "view",
      "type": "function"
    },
    {
      "inputs": [],
      "name": "EPOCH_LENGTH",
      "outputs": [
        {
          "internalType": "uint256",
          "name": "",
          "type": "uint256"
        }
      ],
      "stateMutability": "view",
      "type": "function"
    },
    {
      "inputs": [],
      "name": "QUANTUM_DIFFICULTY",
      "outputs": [
        {
          "internalType": "uint256",
          "name": "",
          "type": "uint256"
        }
      ],
      "stateMutability": "view",
      "type": "function"
    },
    {
      "inputs": [
        {
          "internalType": "uint256",
          "name": "stake",
          "type": "uint256"
        },
        {
          "internalType": "uint256",
          "name": "seed",
          "type": "uint256"
        }
      ],
      "name": "addValidator",
      "outputs": [],
      "stateMutability": "payable",
      "type": "function"
    },
    {
      "inputs": [
        {
          "internalType": "uint256",
          "name": "",
          "type": "uint256"
        }
      ],
      "name": "blocks",
      "outputs": [
        {
          "internalType": "uint256",
          "name": "blockNumber",
          "type": "uint256"
        },
        {
          "internalType": "bytes32",
          "name": "blockHash",
          "type": "bytes32"
        },
        {
          "internalType": "bytes32",
          "name": "quantumHash",
          "type": "bytes32"
        },
        {
          "internalType": "uint256",
          "name": "timestamp",
          "type": "uint256"
        },
        {
          "internalType": "uint256",
          "name": "quantumDifficulty",
          "type": "uint256"
        },
        {
          "internalType": "bytes32",
          "name": "parentHash",
          "type": "bytes32"
        },
        {
          "internalType": "address",
          "name": "miner",
          "type": "address"
        },
        {
          "internalType": "bytes",
          "name": "quantumProof",
          "type": "bytes"
        }
      ],
      "stateMutability": "view",
      "type": "function"
    },
    {
      "inputs": [],
      "name": "currentBlockNumber",
      "outputs": [
        {
          "internalType": "uint256",
          "name": "",
          "type": "uint256"
        }
      ],
      "stateMutability": "view",
      "type": "function"
    },
    {
      "inputs": [
        {
          "internalType": "uint256",
          "name": "blockNumber",
          "type": "uint256"
        }
      ],
      "name": "getBlock",
      "outputs": [
        {
          "internalType": "bytes32",
          "name": "blockHash",
          "type": "bytes32"
        },
        {
          "internalType": "bytes32",
          "name": "quantumHash",
          "type": "bytes32"
        },
        {
          "internalType": "uint256",
          "name": "timestamp",
          "type": "uint256"
        },
        {
          "internalType": "address",
          "name": "miner",
          "type": "address"
        }
      ],
      "stateMutability": "view",
      "type": "function"
    },
    {
      "inputs": [],
      "name": "getQuantumEntropy",
      "outputs": [
        {
          "internalType": "uint256",
          "name": "",
          "type": "uint256"
        }
      ],
      "stateMutability": "view",
      "type": "function"
    },
    {
      "inputs": [
        {
          "internalType": "address",
          "name": "validator",
          "type": "address"
        }
      ],
      "name": "getValidatorReputation",
      "outputs": [
        {
          "internalType": "uint256",
          "name": "",
          "type": "uint256"
        }
      ],
      "stateMutability": "view",
      "type": "function"
    },
    {
      "inputs": [
        {
          "internalType": "address",
          "name": "validator",
          "type": "address"
        }
      ],
      "name": "getValidatorStake",
      "outputs": [
        {
          "internalType": "uint256",
          "name": "",
          "type": "uint256"
        }
      ],
      "stateMutability": "view",
      "type": "function"
    },
    {
      "inputs": [
        {
          "internalType": "bytes32",
          "name": "hash",
          "type": "bytes32"
        }
      ],
      "name": "isHashProcessed",
      "outputs": [
        {
          "internalType": "bool",
          "name": "",
          "type": "bool"
        }
      ],
      "stateMutability": "view",
      "type": "function"
    },
    {
      "inputs": [
        {
          "internalType": "bytes32",
          "name": "hash",
          "type": "bytes32"
        }
      ],
      "name": "markHashProcessed",
      "outputs": [],
      "stateMutability": "nonpayable",
      "type": "function"
    },
    {
      "inputs": [
        {
          "internalType": "bytes",
          "name": "quantumProof",
          "type": "bytes"
        },
        {
          "internalType": "uint256",
          "name": "nonce",
          "type": "uint256"
        }
      ],
      "name": "mineQuantumBlock",
      "outputs": [],
      "stateMutability": "nonpayable",
      "type": "function"
    },
    {
      "inputs": [
        {
          "internalType": "bytes32",
          "name": "",
          "type": "bytes32"
        }
      ],
      "name": "processedHashes",
      "outputs": [
        {
          "internalType": "bool",
          "name": "",
          "type": "bool"
        }
      ],
      "stateMutability": "view",
      "type": "function"
    },
    {
      "inputs": [],
      "name": "quantumEntropy",
      "outputs": [
        {
          "internalType": "uint256",
          "name": "",
          "type": "uint256"
        }
      ],
      "stateMutability": "view",
      "type": "function"
    },
    {
      "inputs": [],
      "name": "totalValidators",
      "outputs": [
        {
          "internalType": "uint256",
          "name": "",
          "type": "uint256"
        }
      ],
      "stateMutability": "view",
      "type": "function"
    },
    {
      "inputs": [
        {
          "internalType": "address",
          "name": "",
          "type": "address"
        }
      ],
      "name": "validators",
      "outputs": [
        {
          "internalType": "address",
          "name": "addr",
          "type": "address"
        },
        {
          "internalType": "uint256",
          "name": "stake",
          "type": "uint256"
        },
        {
          "internalType": "uint256",
          "name": "reputation",
          "type": "uint256"
        },
        {
          "components": [
            {
              "internalType": "uint256[4]",
              "name": "publicKey",
              "type": "uint256[4]"
            },
            {
              "internalType": "uint256[8]",
              "name": "privateKey",
              "type": "uint256[8]"
            }
          ],
          "internalType": "struct QuantumSafeCrypto.DilithiumKeyPair",
          "name": "quantumKey",
          "type": "tuple"
        },
        {
          "internalType": "bool",
          "name": "active",
          "type": "bool"
        }
      ],
      "stateMutability": "view",
      "type": "function"
    }
  ],
  "bytecode": "0x60806040523480156200001157600080fd5b50424460405160200162000027929190620001b1565b6040516020818303038152906040528051906020012060001c600581905550620000566200005c60201b60201c565b6200069c565b60008060008081526020019081526020016000209050600081600001819055506040516020016200008d906200023f565b604051602081830303815290604052805190602001208160010181905550620000db604051602001620000c090620002b1565b6040516020818303038152906040526200018560201b60201c565b81600201819055504281600301819055506103e881600401819055506000801b816005018190555060008160060160006101000a81548173ffffffffffffffffffffffffffffffffffffffff021916908373ffffffffffffffffffffffffffffffffffffffff160217905550604051602001620001589062000323565b604051602081830303815290604052816007019081620001799190620005b5565b50600160038190555050565b600081805190602001209050919050565b6000819050919050565b620001ab8162000196565b82525050565b6000604082019050620001c86000830185620001a0565b620001d76020830184620001a0565b9392505050565b600082825260208201905092915050565b7f47454e4553495300000000000000000000000000000000000000000000000000600082015250565b600062000227600783620001de565b91506200023482620001ef565b602082019050919050565b600060208201905081810360008301526200025a8162000218565b9050919050565b7f5155414e54554d5f47454e455349530000000000000000000000000000000000600082015250565b600062000299600f83620001de565b9150620002a68262000261565b602082019050919050565b60006020820190508181036000830152620002cc816200028a565b9050919050565b7f47454e455349535f50524f4f4600000000000000000000000000000000000000600082015250565b60006200030b600d83620001de565b91506200031882620002d3565b602082019050919050565b600060208201905081810360008301526200033e81620002fc565b9050919050565b600081519050919050565b7f4e487b7100000000000000000000000000000000000000000000000000000000600052604160045260246000fd5b7f4e487b7100000000000000000000000000000000000000000000000000000000600052602260045260246000fd5b60006002820490506001821680620003c757607f821691505b602082108103620003dd57620003dc6200037f565b5b50919050565b60008190508160005260206000209050919050565b60006020601f8301049050919050565b600082821b905092915050565b600060088302620004477fffffffffffffffffffffffffffffffffffffffffffffffffffffffffffffffff8262000408565b62000453868362000408565b95508019841693508086168417925050509392505050565b6000819050919050565b600062000496620004906200048a8462000196565b6200046b565b62000196565b9050919050565b6000819050919050565b620004b28362000475565b620004ca620004c1826200049d565b84845462000415565b825550505050565b600090565b620004e1620004d2565b620004ee818484620004a7565b505050565b5b8181101562000516576200050a600082620004d7565b600181019050620004f4565b5050565b601f82111562000565576200052f81620003e3565b6200053a84620003f8565b810160208510156200054a578190505b620005626200055985620003f8565b830182620004f3565b50505b505050565b600082821c905092915050565b60006200058a600019846008026200056a565b1980831691505092915050565b6000620005a5838362000577565b9150826002028217905092915050565b620005c08262000345565b67ffffffffffffffff811115620005dc57620005db62000350565b5b620005e88254620003ae565b620005f58282856200051a565b600060209050601f8311600181146200062d576000841562000618578287015190505b62000624858262000597565b86555062000694565b601f1984166200063d86620003e3565b60005b82811015620006675784890151825560018201915060208501945060208101905062000640565b8683101562000687578489015162000683601f89168262000577565b8355505b6001600288020188555050505b505050505050565b61234a80620006ac6000396000f3fe6080604052600436106100fe5760003560e01c8063a5f772a411610095578063c81b356b11610064578063c81b356b1461033f578063d71c4c091461036a578063f07318d0146103a7578063f25b3f99146103d2578063fa52c7d814610416576100fe565b8063a5f772a414610297578063ac4746ab146102c2578063ad7edcd7146102ed578063bfd611ed14610316576100fe565b806334664846116100d157806334664846146101c7578063375736f114610204578063378ec23b1461022f578063965a96de1461025a576100fe565b806304c075691461010357806307d9c53414610143578063201a46ad146101805780632968e2ce146101ab575b600080fd5b34801561010f57600080fd5b5061012a60048036038101906101259190611416565b610457565b60405161013a94939291906114ac565b60405180910390f35b34801561014f57600080fd5b5061016a6004803603810190610165919061151d565b6105c7565b6040516101779190611565565b60405180910390f35b34801561018c57600080fd5b506101956105e7565b6040516101a29190611580565b60405180910390f35b6101c560048036038101906101c0919061159b565b6105ed565b005b3480156101d357600080fd5b506101ee60048036038101906101e99190611607565b610872565b6040516101fb9190611580565b60405180910390f35b34801561021057600080fd5b506102196108be565b6040516102269190611580565b60405180910390f35b34801561023b57600080fd5b506102446108c8565b6040516102519190611580565b60405180910390f35b34801561026657600080fd5b50610281600480360381019061027c919061151d565b6108ce565b60405161028e9190611565565b60405180910390f35b3480156102a357600080fd5b506102ac6108f8565b6040516102b99190611580565b60405180910390f35b3480156102ce57600080fd5b506102d76108fd565b6040516102e49190611580565b60405180910390f35b3480156102f957600080fd5b50610314600480360381019061030f919061177a565b610902565b005b34801561032257600080fd5b5061033d6004803603810190610338919061151d565b610c85565b005b34801561034b57600080fd5b50610354610d7c565b6040516103619190611580565b60405180910390f35b34801561037657600080fd5b50610391600480360381019061038c9190611607565b610d82565b60405161039e9190611580565b60405180910390f35b3480156103b357600080fd5b506103bc610dce565b6040516103c99190611580565b60405180910390f35b3480156103de57600080fd5b506103f960048036038101906103f49190611416565b610dd4565b60405161040d989796959493929190611855565b60405180910390f35b34801561042257600080fd5b5061043d60048036038101906104389190611607565b610ec4565b60405161044e959493929190611a39565b60405180910390f35b6000806000806000806000878152602001908152602001600020604051806101000160405290816000820154815260200160018201548152602001600282015481526020016003820154815260200160048201548152602001600582015481526020016006820160009054906101000a900473ffffffffffffffffffffffffffffffffffffffff1673ffffffffffffffffffffffffffffffffffffffff1673ffffffffffffffffffffffffffffffffffffffff16815260200160078201805461051f90611abd565b80601f016020809104026020016040519081016040528092919081815260200182805461054b90611abd565b80156105985780601f1061056d57610100808354040283529160200191610598565b820191906000526020600020905b81548152906001019060200180831161057b57829003601f168201915b50505050508152505090508060200151816040015182606001518360c001519450945094509450509193509193565b60026020528060005260406000206000915054906101000a900460ff1681565b6103e881565b81341015610630576040517f08c379a000000000000000000000000000000000000000000000000000000000815260040161062790611b4b565b60405180910390fd5b600160003373ffffffffffffffffffffffffffffffffffffffff1673ffffffffffffffffffffffffffffffffffffffff168152602001908152602001600020600f0160009054906101000a900460ff16156106c0576040517f08c379a00000000000000000000000000000000000000000000000000000000081526004016106b790611bb7565b60405180910390fd5b60006106cb82610fbb565b90506040518060a001604052803373ffffffffffffffffffffffffffffffffffffffff1681526020018481526020016103e8815260200182815260200160011515815250600160003373ffffffffffffffffffffffffffffffffffffffff1673ffffffffffffffffffffffffffffffffffffffff16815260200190815260200160002060008201518160000160006101000a81548173ffffffffffffffffffffffffffffffffffffffff021916908373ffffffffffffffffffffffffffffffffffffffff16021790555060208201518160010155604082015181600201556060820151816003016000820151816000019060046107c99291906112c4565b506020820151816004019060086107e1929190611304565b505050608082015181600f0160006101000a81548160ff0219169083151502179055509050506004600081548092919061081a90611c06565b91905055503373ffffffffffffffffffffffffffffffffffffffff167f9000b209805850a65058f21361a9978cb30f1413ed555553ab52a59b440b5d99846040516108659190611580565b60405180910390a2505050565b6000600160008373ffffffffffffffffffffffffffffffffffffffff1673ffffffffffffffffffffffffffffffffffffffff168152602001908152602001600020600101549050919050565b6000600554905090565b60035481565b60006002600083815260200190815260200160002060009054906101000a900460ff169050919050565b600f81565b606481565b600160003373ffffffffffffffffffffffffffffffffffffffff1673ffffffffffffffffffffffffffffffffffffffff168152602001908152602001600020600f0160009054906101000a900460ff16610991576040517f08c379a000000000000000000000000000000000000000000000000000000000815260040161098890611c9a565b60405180910390fd5b600060035460008060016003546109a89190611cba565b8152602001908152602001600020600101544285856040516020016109d1959493929190611cee565b6040516020818303038152906040528051906020012090506000610a1782600554604051602001610a03929190611d48565b6040516020818303038152906040526110d4565b905060008160001c90506103e88110610a65576040517f08c379a0000000000000000000000000000000000000000000000000000000008152600401610a5c90611dbd565b60405180910390fd5b610a6f85846110e5565b610aae576040517f08c379a0000000000000000000000000000000000000000000000000000000008152600401610aa590611e29565b60405180910390fd5b6000806000600354815260200190815260200160002090506003548160000181905550838160010181905550828160020181905550428160030181905550610af461112e565b81600401819055506000806001600354610b0e9190611cba565b8152602001908152602001600020600101548160050181905550338160060160006101000a81548173ffffffffffffffffffffffffffffffffffffffff021916908373ffffffffffffffffffffffffffffffffffffffff16021790555085816007019081610b7c9190611ff5565b5060055483604051602001610b929291906120c7565b6040516020818303038152906040528051906020012060001c600581905550610bba3361126b565b600a600160003373ffffffffffffffffffffffffffffffffffffffff1673ffffffffffffffffffffffffffffffffffffffff1681526020019081526020016000206002016000828254610c0d91906120f0565b925050819055503373ffffffffffffffffffffffffffffffffffffffff166003547f84c1f3580ae009522c870c7efc2c3dc362bb7c75603ba15b642a5f0f9540864386604051610c5d9190612124565b60405180910390a360036000815480929190610c7890611c06565b9190505550505050505050565b600160003373ffffffffffffffffffffffffffffffffffffffff1673ffffffffffffffffffffffffffffffffffffffff168152602001908152602001600020600f0160009054906101000a900460ff16610d14576040517f08c379a0000000000000000000000000000000000000000000000000000000008152600401610d0b9061218b565b60405180910390fd5b60016002600083815260200190815260200160002060006101000a81548160ff021916908315150217905550807f55bd7cb9b959e822299d8aff0bfe605b9345d0e312dda8a25761b6877ffebd6f6001604051610d719190611565565b60405180910390a250565b60045481565b6000600160008373ffffffffffffffffffffffffffffffffffffffff1673ffffffffffffffffffffffffffffffffffffffff168152602001908152602001600020600201549050919050565b60055481565b60006020528060005260406000206000915090508060000154908060010154908060020154908060030154908060040154908060050154908060060160009054906101000a900473ffffffffffffffffffffffffffffffffffffffff1690806007018054610e4190611abd565b80601f0160208091040260200160405190810160405280929190818152602001828054610e6d90611abd565b8015610eba5780601f10610e8f57610100808354040283529160200191610eba565b820191906000526020600020905b815481529060010190602001808311610e9d57829003601f168201915b5050505050905088565b60016020528060005260406000206000915090508060000160009054906101000a900473ffffffffffffffffffffffffffffffffffffffff16908060010154908060020154908060030160405180604001604052908160008201600480602002604051908101604052809291908260048015610f55576020028201915b815481526020019060010190808311610f41575b5050505050815260200160048201600880602002604051908101604052809291908260088015610f9a576020028201915b815481526020019060010190808311610f86575b5050505050815250509080600f0160009054906101000a900460ff16905085565b610fc3611344565b610fcb611344565b60005b600481101561104457627fe0018482604051602001610fee9291906121ab565b6040516020818303038152906040528051906020012060001c6110119190612203565b8260000151826004811061102857611027612234565b5b602002018181525050808061103c90611c06565b915050610fce565b5060005b60088110156110ca57627fe0018460648361106391906120f0565b6040516020016110749291906121ab565b6040516020818303038152906040528051906020012060001c6110979190612203565b826020015182600881106110ae576110ad612234565b5b60200201818152505080806110c290611c06565b915050611048565b5080915050919050565b600081805190602001209050919050565b60008083836005546040516020016110ff93929190612263565b60405160208183030381529060405280519060200120905060008160001c90506103e881109250505092915050565b600060646003541015611145576103e89050611268565b60006002606461115591906122a1565b60035410611170576002606461116b91906122a1565b611174565b6003545b90506000806001836003546111899190611cba565b61119391906120f0565b90505b6003548111611201576000806001836111af9190611cba565b815260200190815260200160002060030154600080838152602001908152602001600020600301546111e19190611cba565b826111ec91906120f0565b915080806111f990611c06565b915050611196565b506000828261121091906122e3565b90506000600f90508082101561124657600a600b6103e861123191906122a1565b61123b91906122e3565b945050505050611268565b600a60096103e861125791906122a1565b61126191906122e3565b9450505050505b90565b600068056bc75e2d6310000090508173ffffffffffffffffffffffffffffffffffffffff166108fc829081150290604051600060405180830381858888f193505050501580156112bf573d6000803e3d6000fd5b505050565b82600481019282156112f3579160200282015b828111156112f25782518255916020019190600101906112d7565b5b509050611300919061136a565b5090565b8260088101928215611333579160200282015b82811115611332578251825591602001919060010190611317565b5b509050611340919061136a565b5090565b6040518060400160405280611357611387565b81526020016113646113a9565b81525090565b5b8082111561138357600081600090555060010161136b565b5090565b6040518060800160405280600490602082028036833780820191505090505090565b604051806101000160405280600890602082028036833780820191505090505090565b6000604051905090565b600080fd5b600080fd5b6000819050919050565b6113f3816113e0565b81146113fe57600080fd5b50565b600081359050611410816113ea565b92915050565b60006020828403121561142c5761142b6113d6565b5b600061143a84828501611401565b91505092915050565b6000819050919050565b61145681611443565b82525050565b611465816113e0565b82525050565b600073ffffffffffffffffffffffffffffffffffffffff82169050919050565b60006114968261146b565b9050919050565b6114a68161148b565b82525050565b60006080820190506114c1600083018761144d565b6114ce602083018661144d565b6114db604083018561145c565b6114e8606083018461149d565b95945050505050565b6114fa81611443565b811461150557600080fd5b50565b600081359050611517816114f1565b92915050565b600060208284031215611533576115326113d6565b5b600061154184828501611508565b91505092915050565b60008115159050919050565b61155f8161154a565b82525050565b600060208201905061157a6000830184611556565b92915050565b6000602082019050611595600083018461145c565b92915050565b600080604083850312156115b2576115b16113d6565b5b60006115c085828601611401565b92505060206115d185828601611401565b9150509250929050565b6115e48161148b565b81146115ef57600080fd5b50565b600081359050611601816115db565b92915050565b60006020828403121561161d5761161c6113d6565b5b600061162b848285016115f2565b91505092915050565b600080fd5b600080fd5b6000601f19601f8301169050919050565b7f4e487b7100000000000000000000000000000000000000000000000000000000600052604160045260246000fd5b6116878261163e565b810181811067ffffffffffffffff821117156116a6576116a561164f565b5b80604052505050565b60006116b96113cc565b90506116c5828261167e565b919050565b600067ffffffffffffffff8211156116e5576116e461164f565b5b6116ee8261163e565b9050602081019050919050565b82818337600083830152505050565b600061171d611718846116ca565b6116af565b90508281526020810184848401111561173957611738611639565b5b6117448482856116fb565b509392505050565b600082601f83011261176157611760611634565b5b813561177184826020860161170a565b91505092915050565b60008060408385031215611791576117906113d6565b5b600083013567ffffffffffffffff8111156117af576117ae6113db565b5b6117bb8582860161174c565b92505060206117cc85828601611401565b9150509250929050565b600081519050919050565b600082825260208201905092915050565b60005b838110156118105780820151818401526020810190506117f5565b60008484015250505050565b6000611827826117d6565b61183181856117e1565b93506118418185602086016117f2565b61184a8161163e565b840191505092915050565b60006101008201905061186b600083018b61145c565b611878602083018a61144d565b611885604083018961144d565b611892606083018861145c565b61189f608083018761145c565b6118ac60a083018661144d565b6118b960c083018561149d565b81810360e08301526118cb818461181c565b90509998505050505050505050565b600060049050919050565b600081905092915050565b6000819050919050565b611903816113e0565b82525050565b600061191583836118fa565b60208301905092915050565b6000602082019050919050565b611937816118da565b61194181846118e5565b925061194c826118f0565b8060005b8381101561197d5781516119648782611909565b965061196f83611921565b925050600181019050611950565b505050505050565b600060089050919050565b600081905092915050565b6000819050919050565b6000602082019050919050565b6119bb81611985565b6119c58184611990565b92506119d08261199b565b8060005b83811015611a015781516119e88782611909565b96506119f3836119a5565b9250506001810190506119d4565b505050505050565b61018082016000820151611a20600085018261192e565b506020820151611a3360808501826119b2565b50505050565b600061020082019050611a4f600083018861149d565b611a5c602083018761145c565b611a69604083018661145c565b611a766060830185611a09565b611a846101e0830184611556565b9695505050505050565b7f4e487b7100000000000000000000000000000000000000000000000000000000600052602260045260246000fd5b60006002820490506001821680611ad557607f821691505b602082108103611ae857611ae7611a8e565b5b50919050565b600082825260208201905092915050565b7f496e73756666696369656e74207374616b650000000000000000000000000000600082015250565b6000611b35601283611aee565b9150611b4082611aff565b602082019050919050565b60006020820190508181036000830152611b6481611b28565b9050919050565b7f416c726561647920612076616c696461746f7200000000000000000000000000600082015250565b6000611ba1601383611aee565b9150611bac82611b6b565b602082019050919050565b60006020820190508181036000830152611bd081611b94565b9050919050565b7f4e487b7100000000000000000000000000000000000000000000000000000000600052601160045260246000fd5b6000611c11826113e0565b91507fffffffffffffffffffffffffffffffffffffffffffffffffffffffffffffffff8203611c4357611c42611bd7565b5b600182019050919050565b7f4e6f7420616e206163746976652076616c696461746f72000000000000000000600082015250565b6000611c84601783611aee565b9150611c8f82611c4e565b602082019050919050565b60006020820190508181036000830152611cb381611c77565b9050919050565b6000611cc5826113e0565b9150611cd0836113e0565b9250828203905081811115611ce857611ce7611bd7565b5b92915050565b600060a082019050611d03600083018861145c565b611d10602083018761144d565b611d1d604083018661145c565b8181036060830152611d2f818561181c565b9050611d3e608083018461145c565b9695505050505050565b6000604082019050611d5d600083018561144d565b611d6a602083018461145c565b9392505050565b7f5175616e74756d2070726f6f6620696e73756666696369656e74000000000000600082015250565b6000611da7601a83611aee565b9150611db282611d71565b602082019050919050565b60006020820190508181036000830152611dd681611d9a565b9050919050565b7f496e76616c6964207175616e74756d2070726f6f660000000000000000000000600082015250565b6000611e13601583611aee565b9150611e1e82611ddd565b602082019050919050565b60006020820190508181036000830152611e4281611e06565b9050919050565b60008190508160005260206000209050919050565b60006020601f8301049050919050565b600082821b905092915050565b600060088302611eab7fffffffffffffffffffffffffffffffffffffffffffffffffffffffffffffffff82611e6e565b611eb58683611e6e565b95508019841693508086168417925050509392505050565b6000819050919050565b6000611ef2611eed611ee8846113e0565b611ecd565b6113e0565b9050919050565b6000819050919050565b611f0c83611ed7565b611f20611f1882611ef9565b848454611e7b565b825550505050565b600090565b611f35611f28565b611f40818484611f03565b505050565b5b81811015611f6457611f59600082611f2d565b600181019050611f46565b5050565b601f821115611fa957611f7a81611e49565b611f8384611e5e565b81016020851015611f92578190505b611fa6611f9e85611e5e565b830182611f45565b50505b505050565b600082821c905092915050565b6000611fcc60001984600802611fae565b1980831691505092915050565b6000611fe58383611fbb565b9150826002028217905092915050565b611ffe826117d6565b67ffffffffffffffff8111156120175761201661164f565b5b6120218254611abd565b61202c828285611f68565b600060209050601f83116001811461205f576000841561204d578287015190505b6120578582611fd9565b8655506120bf565b601f19841661206d86611e49565b60005b8281101561209557848901518255600182019150602085019450602081019050612070565b868310156120b257848901516120ae601f891682611fbb565b8355505b6001600288020188555050505b505050505050565b60006040820190506120dc600083018561145c565b6120e9602083018461144d565b9392505050565b60006120fb826113e0565b9150612106836113e0565b925082820190508082111561211e5761211d611bd7565b5b92915050565b6000602082019050612139600083018461144d565b92915050565b7f4e6f7420612076616c696461746f720000000000000000000000000000000000600082015250565b6000612175600f83611aee565b91506121808261213f565b602082019050919050565b600060208201905081810360008301526121a481612168565b9050919050565b60006040820190506121c0600083018561145c565b6121cd602083018461145c565b9392505050565b7f4e487b7100000000000000000000000000000000000000000000000000000000600052601260045260246000fd5b600061220e826113e0565b9150612219836113e0565b925082612229576122286121d4565b5b828206905092915050565b7f4e487b7100000000000000000000000000000000000000000000000000000000600052603260045260246000fd5b6000606082019050818103600083015261227d818661181c565b905061228c602083018561144d565b612299604083018461145c565b949350505050565b60006122ac826113e0565b91506122b7836113e0565b92508282026122c5816113e0565b915082820484148315176122dc576122db611bd7565b5b5092915050565b60006122ee826113e0565b91506122f9836113e0565b925082612309576123086121d4565b5b82820490509291505056fea26469706673582212209fc0d4068259f3da76f2cf06575532072971bb426e26d685f34bd8b0c2c0ea6564736f6c63430008130033",
  "linkReferences": {},
  "deployedLinkReferences": {}
}