{
  "_format": "hh-sol-artifact-1",
  "contractName": "GodStaking",
  "sourceName": "contracts/GodStaking.sol",
  "abi": [
    {
      "inputs": [
        {
          "internalType": "address",
          "name": "_godToken",
          "type": "address"
        }
      ],
      "stateMutability": "nonpayable",
      "type": "constructor"
    },
    {
      "anonymous": false,
      "inputs": [
        {
          "indexed": true,
          "internalType": "address",
          "name": "previousOwner",
          "type": "address"
        },
        {
          "indexed": true,
          "internalType": "address",
          "name": "newOwner",
          "type": "address"
        }
      ],
      "name": "OwnershipTransferred",
      "type": "event"
    },
    {
      "anonymous": false,
      "inputs": [
        {
          "indexed": true,
          "internalType": "address",
          "name": "user",
          "type": "address"
        },
        {
          "indexed": false,
          "internalType": "uint256",
          "name": "amount",
          "type": "uint256"
        }
      ],
      "name": "RewardClaimed",
      "type": "event"
    },
    {
      "anonymous": false,
      "inputs": [
        {
          "indexed": true,
          "internalType": "address",
          "name": "user",
          "type": "address"
        },
        {
          "indexed": false,
          "internalType": "uint256",
          "name": "amount",
          "type": "uint256"
        }
      ],
      "name": "Staked",
      "type": "event"
    },
    {
      "anonymous": false,
      "inputs": [
        {
          "indexed": true,
          "internalType": "address",
          "name": "user",
          "type": "address"
        },
        {
          "indexed": false,
          "internalType": "uint256",
          "name": "amount",
          "type": "uint256"
        }
      ],
      "name": "Unstaked",
      "type": "event"
    },
    {
      "inputs": [],
      "name": "LOCK_PERIOD",
      "outputs": [
        {
          "internalType": "uint256",
          "name": "",
          "type": "uint256"
        }
      ],
      "stateMutability": "view",
      "type": "function"
    },
    {
      "inputs": [],
      "name": "REWARD_RATE",
      "outputs": [
        {
          "internalType": "uint256",
          "name": "",
          "type": "uint256"
        }
      ],
      "stateMutability": "view",
      "type": "function"
    },
    {
      "inputs": [
        {
          "internalType": "address",
          "name": "_user",
          "type": "address"
        }
      ],
      "name": "calculateRewards",
      "outputs": [
        {
          "internalType": "uint256",
          "name": "",
          "type": "uint256"
        }
      ],
      "stateMutability": "view",
      "type": "function"
    },
    {
      "inputs": [],
      "name": "claimRewards",
      "outputs": [],
      "stateMutability": "nonpayable",
      "type": "function"
    },
    {
      "inputs": [
        {
          "internalType": "address",
          "name": "_user",
          "type": "address"
        }
      ],
      "name": "getStakeInfo",
      "outputs": [
        {
          "internalType": "uint256",
          "name": "amount",
          "type": "uint256"
        },
        {
          "internalType": "uint256",
          "name": "startTime",
          "type": "uint256"
        },
        {
          "internalType": "uint256",
          "name": "lastClaimTime",
          "type": "uint256"
        },
        {
          "internalType": "uint256",
          "name": "pendingRewards",
          "type": "uint256"
        },
        {
          "internalType": "bool",
          "name": "active",
          "type": "bool"
        }
      ],
      "stateMutability": "view",
      "type": "function"
    },
    {
      "inputs": [],
      "name": "godToken",
      "outputs": [
        {
          "internalType": "contract IERC20",
          "name": "",
          "type": "address"
        }
      ],
      "stateMutability": "view",
      "type": "function"
    },
    {
      "inputs": [],
      "name": "owner",
      "outputs": [
        {
          "internalType": "address",
          "name": "",
          "type": "address"
        }
      ],
      "stateMutability": "view",
      "type": "function"
    },
    {
      "inputs": [],
      "name": "renounceOwnership",
      "outputs": [],
      "stateMutability": "nonpayable",
      "type": "function"
    },
    {
      "inputs": [
        {
          "internalType": "address",
          "name": "",
          "type": "address"
        }
      ],
      "name": "rewards",
      "outputs": [
        {
          "internalType": "uint256",
          "name": "",
          "type": "uint256"
        }
      ],
      "stateMutability": "view",
      "type": "function"
    },
    {
      "inputs": [
        {
          "internalType": "uint256",
          "name": "_amount",
          "type": "uint256"
        }
      ],
      "name": "stake",
      "outputs": [],
      "stateMutability": "nonpayable",
      "type": "function"
    },
    {
      "inputs": [
        {
          "internalType": "address",
          "name": "",
          "type": "address"
        }
      ],
      "name": "stakes",
      "outputs": [
        {
          "internalType": "uint256",
          "name": "amount",
          "type": "uint256"
        },
        {
          "internalType": "uint256",
          "name": "startTime",
          "type": "uint256"
        },
        {
          "internalType": "uint256",
          "name": "lastClaimTime",
          "type": "uint256"
        },
        {
          "internalType": "bool",
          "name": "active",
          "type": "bool"
        }
      ],
      "stateMutability": "view",
      "type": "function"
    },
    {
      "inputs": [],
      "name": "totalStaked",
      "outputs": [
        {
          "internalType": "uint256",
          "name": "",
          "type": "uint256"
        }
      ],
      "stateMutability": "view",
      "type": "function"
    },
    {
      "inputs": [
        {
          "internalType": "address",
          "name": "newOwner",
          "type": "address"
        }
      ],
      "name": "transferOwnership",
      "outputs": [],
      "stateMutability": "nonpayable",
      "type": "function"
    },
    {
      "inputs": [],
      "name": "unstake",
      "outputs": [],
      "stateMutability": "nonpayable",
      "type": "function"
    }
  ],
  "bytecode": "0x6080346100ac57601f610bc838819003918201601f19168301916001600160401b038311848410176100b1578084926020946040528339810103126100ac57516001600160a01b0390818116908190036100ac57600160005560015460018060a01b0319903382821617600155604051933391167f8be0079c531659141344cd1fd0a4f28419497f9722a3daafe3b4186f6b6457e0600080a36002541617600255610b0090816100c88239f35b600080fd5b634e487b7160e01b600052604160045260246000fdfe608060408181526004908136101561001657600080fd5b600092833560e01c9081630700037d146106ff5750806316934fc41461069e5780631820cabb146106805780632def6620146104fb578063372500ab146104d25780635997bb37146104b657806364ab86751461047e578063715018a61461041e578063817b1cd2146103ff5780638da5cb5b146103d65780639c6e5ced146103a9578063a694fc3a1461022f578063c3453153146101935763f2fde38b146100be57600080fd5b3461018f57602036600319011261018f576001600160a01b0382358181169391929084900361018b576100ef610736565b8315610139575050600154826bffffffffffffffffffffffff60a01b821617600155167f8be0079c531659141344cd1fd0a4f28419497f9722a3daafe3b4186f6b6457e08380a380f35b906020608492519162461bcd60e51b8352820152602660248201527f4f776e61626c653a206e6577206f776e657220697320746865207a65726f206160448201526564647265737360d01b6064820152fd5b8480fd5b8280fd5b50903461018f57602036600319011261018f57356001600160a01b03811680820361022b578352600360205291819020815160a0936101d18261078e565b825482526001830154936020830194855261020760ff600360028701549684870197885201541692606085019315158452610a0e565b92519451935191511515938151958652602086015284015260608301526080820152f35b8380fd5b50903461018f5760208060031936011261022b5781359161024e610860565b82156103705760025484516323b872dd60e01b815233928101929092523060248301526044820184905282908290606490829089906001600160a01b03165af1908115610366577f9e71bc8eea02a63969f509818f2dafb9254532904319f9dbda79b67bd34a5f3d9394916102ca918791610339575b506107ff565b3385526003825280852060038101805460ff811660001461031b5750506102f0336108c3565b6102fb85825461083d565b90555b61030a8460055461083d565b600555519283523392a26001815580f35b82876001939455428382015560024291015560ff19161790556102fe565b6103599150843d861161035f575b61035181836107c0565b8101906107e2565b386102c4565b503d610347565b84513d87823e3d90fd5b60649184519162461bcd60e51b8352820152601560248201527443616e6e6f74207374616b65203020746f6b656e7360581b6044820152fd5b8382346103d257816003193601126103d25760025490516001600160a01b039091168152602090f35b5080fd5b8382346103d257816003193601126103d25760015490516001600160a01b039091168152602090f35b8382346103d257816003193601126103d2576020906005549051908152f35b833461047b578060031936011261047b57610437610736565b600180546001600160a01b0319811690915581906001600160a01b03167f8be0079c531659141344cd1fd0a4f28419497f9722a3daafe3b4186f6b6457e08280a380f35b80fd5b50903461018f57602036600319011261018f5735916001600160a01b038316830361047b57506104af602092610a0e565b9051908152f35b8382346103d257816003193601126103d25760209051600a8152f35b833461047b578060031936011261047b576104eb610860565b6104f4336108c3565b6001815580f35b50903461018f578260031936011261018f57610515610860565b33835260206003815282842091600383019060ff8254161561064b57600184015462278d0081018091116106385742106105fd576105b091839187865496879361055e336108c3565b60ff19815416905555610573826005546108b6565b600555600254875163a9059cbb60e01b8152339281019283526020830193909352919384926001600160a01b03169183918a918391604090910190565b03925af1908115610366577f0f5bb82176feb1b5e747e28471aa92156a04d9f3ab9f45f28e2d704232b93f759394916105ef91879161033957506107ff565b519283523392a26001815580f35b845162461bcd60e51b81529081018390526015602482015274131bd8dac81c195c9a5bd9081b9bdd08195b991959605a1b6044820152606490fd5b634e487b7160e01b875260118252602487fd5b845162461bcd60e51b8152908101839052600f60248201526e4e6f20616374697665207374616b6560881b6044820152606490fd5b8382346103d257816003193601126103d2576020905162278d008152f35b50903461018f57602036600319011261018f57356001600160a01b0381169081900361018f57828291608094526003602052209081549160018101549160ff6003600284015493015416928151948552602085015283015215156060820152f35b929390503461047b57602036600319011261047b5783356001600160a01b03811694908590036103d2576020948252845220548152f35b6001546001600160a01b0316330361074a57565b606460405162461bcd60e51b815260206004820152602060248201527f4f776e61626c653a2063616c6c6572206973206e6f7420746865206f776e65726044820152fd5b6080810190811067ffffffffffffffff8211176107aa57604052565b634e487b7160e01b600052604160045260246000fd5b90601f8019910116810190811067ffffffffffffffff8211176107aa57604052565b908160209103126107fa575180151581036107fa5790565b600080fd5b1561080657565b60405162461bcd60e51b815260206004820152600f60248201526e151c985b9cd9995c8819985a5b1959608a1b6044820152606490fd5b9190820180921161084a57565b634e487b7160e01b600052601160045260246000fd5b600260005414610871576002600055565b60405162461bcd60e51b815260206004820152601f60248201527f5265656e7472616e637947756172643a207265656e7472616e742063616c6c006044820152606490fd5b9190820391821161084a57565b9060018060a01b0380831690600090828252602091600383526040958682209260ff60038501541615610a04576108f982610a0e565b938461090b575b505050505050509050565b4260029182015586845260048087528985208590559054895163a9059cbb60e01b81526001600160a01b039490941691840191909152602483018590528591839160449183918791165af19182156109f957916109dc575b501561099f577f106f923f993c2149d49b4255ff723acafa1f2d94393f561d3eda32ae348f724192939451908152a28038808080808080610900565b845162461bcd60e51b815260048101839052601660248201527514995dd85c99081d1c985b9cd9995c8819985a5b195960521b6044820152606490fd5b6109f39150833d851161035f5761035181836107c0565b38610963565b8751903d90823e3d90fd5b5050505050509050565b6001600160a01b031660009081526003602052604080822090519190610a338361078e565b805483526001810154602084015260ff60036002830154928360408701520154161580156060850152610ac457610a6a90426108b6565b9151600a810290808204600a1481151715610ab0578302600a02928115918404141715610a9c575063bbf81e00900490565b634e487b7160e01b81526011600452602490fd5b634e487b7160e01b83526011600452602483fd5b5090509056fea264697066735822122095a9807565b25008d1e06e332b418db42a198c64717b80b2f087e8a366dbf51064736f6c63430008130033",
  "linkReferences": {},
  "deployedLinkReferences": {}
}