{
  "_format": "hh-sol-artifact-1",
  "contractName": "GodStaking",
  "sourceName": "contracts/GodStaking.sol",
  "abi": [
    {
      "inputs": [
        {
          "internalType": "address",
          "name": "_godToken",
          "type": "address"
        }
      ],
      "stateMutability": "nonpayable",
      "type": "constructor"
    },
    {
      "anonymous": false,
      "inputs": [
        {
          "indexed": true,
          "internalType": "address",
          "name": "previousOwner",
          "type": "address"
        },
        {
          "indexed": true,
          "internalType": "address",
          "name": "newOwner",
          "type": "address"
        }
      ],
      "name": "OwnershipTransferred",
      "type": "event"
    },
    {
      "anonymous": false,
      "inputs": [
        {
          "indexed": true,
          "internalType": "address",
          "name": "user",
          "type": "address"
        },
        {
          "indexed": false,
          "internalType": "uint256",
          "name": "amount",
          "type": "uint256"
        }
      ],
      "name": "RewardClaimed",
      "type": "event"
    },
    {
      "anonymous": false,
      "inputs": [
        {
          "indexed": true,
          "internalType": "address",
          "name": "user",
          "type": "address"
        },
        {
          "indexed": false,
          "internalType": "uint256",
          "name": "amount",
          "type": "uint256"
        }
      ],
      "name": "Staked",
      "type": "event"
    },
    {
      "anonymous": false,
      "inputs": [
        {
          "indexed": true,
          "internalType": "address",
          "name": "user",
          "type": "address"
        },
        {
          "indexed": false,
          "internalType": "uint256",
          "name": "amount",
          "type": "uint256"
        }
      ],
      "name": "Unstaked",
      "type": "event"
    },
    {
      "inputs": [],
      "name": "LOCK_PERIOD",
      "outputs": [
        {
          "internalType": "uint256",
          "name": "",
          "type": "uint256"
        }
      ],
      "stateMutability": "view",
      "type": "function"
    },
    {
      "inputs": [],
      "name": "REWARD_RATE",
      "outputs": [
        {
          "internalType": "uint256",
          "name": "",
          "type": "uint256"
        }
      ],
      "stateMutability": "view",
      "type": "function"
    },
    {
      "inputs": [
        {
          "internalType": "address",
          "name": "_user",
          "type": "address"
        }
      ],
      "name": "calculateRewards",
      "outputs": [
        {
          "internalType": "uint256",
          "name": "",
          "type": "uint256"
        }
      ],
      "stateMutability": "view",
      "type": "function"
    },
    {
      "inputs": [],
      "name": "claimRewards",
      "outputs": [],
      "stateMutability": "nonpayable",
      "type": "function"
    },
    {
      "inputs": [
        {
          "internalType": "address",
          "name": "_user",
          "type": "address"
        }
      ],
      "name": "getStakeInfo",
      "outputs": [
        {
          "internalType": "uint256",
          "name": "amount",
          "type": "uint256"
        },
        {
          "internalType": "uint256",
          "name": "startTime",
          "type": "uint256"
        },
        {
          "internalType": "uint256",
          "name": "lastClaimTime",
          "type": "uint256"
        },
        {
          "internalType": "uint256",
          "name": "pendingRewards",
          "type": "uint256"
        },
        {
          "internalType": "bool",
          "name": "active",
          "type": "bool"
        }
      ],
      "stateMutability": "view",
      "type": "function"
    },
    {
      "inputs": [],
      "name": "godToken",
      "outputs": [
        {
          "internalType": "contract IERC20",
          "name": "",
          "type": "address"
        }
      ],
      "stateMutability": "view",
      "type": "function"
    },
    {
      "inputs": [],
      "name": "owner",
      "outputs": [
        {
          "internalType": "address",
          "name": "",
          "type": "address"
        }
      ],
      "stateMutability": "view",
      "type": "function"
    },
    {
      "inputs": [],
      "name": "renounceOwnership",
      "outputs": [],
      "stateMutability": "nonpayable",
      "type": "function"
    },
    {
      "inputs": [
        {
          "internalType": "address",
          "name": "",
          "type": "address"
        }
      ],
      "name": "rewards",
      "outputs": [
        {
          "internalType": "uint256",
          "name": "",
          "type": "uint256"
        }
      ],
      "stateMutability": "view",
      "type": "function"
    },
    {
      "inputs": [
        {
          "internalType": "uint256",
          "name": "_amount",
          "type": "uint256"
        }
      ],
      "name": "stake",
      "outputs": [],
      "stateMutability": "nonpayable",
      "type": "function"
    },
    {
      "inputs": [
        {
          "internalType": "address",
          "name": "",
          "type": "address"
        }
      ],
      "name": "stakes",
      "outputs": [
        {
          "internalType": "uint256",
          "name": "amount",
          "type": "uint256"
        },
        {
          "internalType": "uint256",
          "name": "startTime",
          "type": "uint256"
        },
        {
          "internalType": "uint256",
          "name": "lastClaimTime",
          "type": "uint256"
        },
        {
          "internalType": "bool",
          "name": "active",
          "type": "bool"
        }
      ],
      "stateMutability": "view",
      "type": "function"
    },
    {
      "inputs": [],
      "name": "totalStaked",
      "outputs": [
        {
          "internalType": "uint256",
          "name": "",
          "type": "uint256"
        }
      ],
      "stateMutability": "view",
      "type": "function"
    },
    {
      "inputs": [
        {
          "internalType": "address",
          "name": "newOwner",
          "type": "address"
        }
      ],
      "name": "transferOwnership",
      "outputs": [],
      "stateMutability": "nonpayable",
      "type": "function"
    },
    {
      "inputs": [],
      "name": "unstake",
      "outputs": [],
      "stateMutability": "nonpayable",
      "type": "function"
    }
  ],
  "bytecode": "0x60806040523480156200001157600080fd5b5060405162001881380380620018818339818101604052810190620000379190620001df565b60016000819055506200005f62000053620000a760201b60201c565b620000af60201b60201c565b80600260006101000a81548173ffffffffffffffffffffffffffffffffffffffff021916908373ffffffffffffffffffffffffffffffffffffffff1602179055505062000211565b600033905090565b6000600160009054906101000a900473ffffffffffffffffffffffffffffffffffffffff16905081600160006101000a81548173ffffffffffffffffffffffffffffffffffffffff021916908373ffffffffffffffffffffffffffffffffffffffff1602179055508173ffffffffffffffffffffffffffffffffffffffff168173ffffffffffffffffffffffffffffffffffffffff167f8be0079c531659141344cd1fd0a4f28419497f9722a3daafe3b4186f6b6457e060405160405180910390a35050565b600080fd5b600073ffffffffffffffffffffffffffffffffffffffff82169050919050565b6000620001a7826200017a565b9050919050565b620001b9816200019a565b8114620001c557600080fd5b50565b600081519050620001d981620001ae565b92915050565b600060208284031215620001f857620001f762000175565b5b60006200020884828501620001c8565b91505092915050565b61166080620002216000396000f3fe608060405234801561001057600080fd5b50600436106100ea5760003560e01c8063715018a61161008c5780639c6e5ced116100665780639c6e5ced14610218578063a694fc3a14610236578063c345315314610252578063f2fde38b14610286576100ea565b8063715018a6146101d2578063817b1cd2146101dc5780638da5cb5b146101fa576100ea565b80632def6620116100c85780632def662014610170578063372500ab1461017a5780635997bb371461018457806364ab8675146101a2576100ea565b80630700037d146100ef57806316934fc41461011f5780631820cabb14610152575b600080fd5b61010960048036038101906101049190610e90565b6102a2565b6040516101169190610ed6565b60405180910390f35b61013960048036038101906101349190610e90565b6102ba565b6040516101499493929190610f0c565b60405180910390f35b61015a6102f7565b6040516101679190610ed6565b60405180910390f35b6101786102fe565b005b61018261057a565b005b61018c610595565b6040516101999190610ed6565b60405180910390f35b6101bc60048036038101906101b79190610e90565b61059a565b6040516101c99190610ed6565b60405180910390f35b6101da610684565b005b6101e4610698565b6040516101f19190610ed6565b60405180910390f35b61020261069e565b60405161020f9190610f60565b60405180910390f35b6102206106c8565b60405161022d9190610fda565b60405180910390f35b610250600480360381019061024b9190611021565b6106ee565b005b61026c60048036038101906102679190610e90565b610949565b60405161027d95949392919061104e565b60405180910390f35b6102a0600480360381019061029b9190610e90565b610a0e565b005b60046020528060005260406000206000915090505481565b60036020528060005260406000206000915090508060000154908060010154908060020154908060030160009054906101000a900460ff16905084565b62278d0081565b610306610a91565b6000600360003373ffffffffffffffffffffffffffffffffffffffff1673ffffffffffffffffffffffffffffffffffffffff16815260200190815260200160002090508060030160009054906101000a900460ff1661039a576040517f08c379a0000000000000000000000000000000000000000000000000000000008152600401610391906110fe565b60405180910390fd5b62278d0081600101546103ad919061114d565b4210156103ef576040517f08c379a00000000000000000000000000000000000000000000000000000000081526004016103e6906111cd565b60405180910390fd5b60008160000154905061040133610ae0565b60008260030160006101000a81548160ff02191690831515021790555060008260000181905550806005600082825461043a91906111ed565b92505081905550600260009054906101000a900473ffffffffffffffffffffffffffffffffffffffff1673ffffffffffffffffffffffffffffffffffffffff1663a9059cbb33836040518363ffffffff1660e01b815260040161049e929190611221565b6020604051808303816000875af11580156104bd573d6000803e3d6000fd5b505050506040513d601f19601f820116820180604052508101906104e19190611276565b610520576040517f08c379a0000000000000000000000000000000000000000000000000000000008152600401610517906112ef565b60405180910390fd5b3373ffffffffffffffffffffffffffffffffffffffff167f0f5bb82176feb1b5e747e28471aa92156a04d9f3ab9f45f28e2d704232b93f75826040516105669190610ed6565b60405180910390a25050610578610cd7565b565b610582610a91565b61058b33610ae0565b610593610cd7565b565b600a81565b600080600360008473ffffffffffffffffffffffffffffffffffffffff1673ffffffffffffffffffffffffffffffffffffffff1681526020019081526020016000206040518060800160405290816000820154815260200160018201548152602001600282015481526020016003820160009054906101000a900460ff1615151515815250509050806060015161063557600091505061067f565b600081604001514261064791906111ed565b9050600063bbf81e0082600a8560000151610662919061130f565b61066c919061130f565b6106769190611380565b90508093505050505b919050565b61068c610ce1565b6106966000610d5f565b565b60055481565b6000600160009054906101000a900473ffffffffffffffffffffffffffffffffffffffff16905090565b600260009054906101000a900473ffffffffffffffffffffffffffffffffffffffff1681565b6106f6610a91565b60008111610739576040517f08c379a0000000000000000000000000000000000000000000000000000000008152600401610730906113fd565b60405180910390fd5b600260009054906101000a900473ffffffffffffffffffffffffffffffffffffffff1673ffffffffffffffffffffffffffffffffffffffff166323b872dd3330846040518463ffffffff1660e01b81526004016107989392919061141d565b6020604051808303816000875af11580156107b7573d6000803e3d6000fd5b505050506040513d601f19601f820116820180604052508101906107db9190611276565b61081a576040517f08c379a0000000000000000000000000000000000000000000000000000000008152600401610811906112ef565b60405180910390fd5b6000600360003373ffffffffffffffffffffffffffffffffffffffff1673ffffffffffffffffffffffffffffffffffffffff16815260200190815260200160002090508060030160009054906101000a900460ff161561089d5761087d33610ae0565b81816000016000828254610891919061114d565b925050819055506108d6565b81816000018190555042816001018190555042816002018190555060018160030160006101000a81548160ff0219169083151502179055505b81600560008282546108e8919061114d565b925050819055503373ffffffffffffffffffffffffffffffffffffffff167f9e71bc8eea02a63969f509818f2dafb9254532904319f9dbda79b67bd34a5f3d836040516109359190610ed6565b60405180910390a250610946610cd7565b50565b600080600080600080600360008873ffffffffffffffffffffffffffffffffffffffff1673ffffffffffffffffffffffffffffffffffffffff1681526020019081526020016000206040518060800160405290816000820154815260200160018201548152602001600282015481526020016003820160009054906101000a900460ff161515151581525050905060006109e28861059a565b905081600001518260200151836040015183856060015196509650965096509650505091939590929450565b610a16610ce1565b600073ffffffffffffffffffffffffffffffffffffffff168173ffffffffffffffffffffffffffffffffffffffff1603610a85576040517f08c379a0000000000000000000000000000000000000000000000000000000008152600401610a7c906114c6565b60405180910390fd5b610a8e81610d5f565b50565b600260005403610ad6576040517f08c379a0000000000000000000000000000000000000000000000000000000008152600401610acd90611532565b60405180910390fd5b6002600081905550565b6000600360008373ffffffffffffffffffffffffffffffffffffffff1673ffffffffffffffffffffffffffffffffffffffff16815260200190815260200160002090508060030160009054906101000a900460ff16610b3f5750610cd4565b6000610b4a8361059a565b90506000811115610cd1574282600201819055506000600460008573ffffffffffffffffffffffffffffffffffffffff1673ffffffffffffffffffffffffffffffffffffffff16815260200190815260200160002081905550600260009054906101000a900473ffffffffffffffffffffffffffffffffffffffff1673ffffffffffffffffffffffffffffffffffffffff1663a9059cbb84836040518363ffffffff1660e01b8152600401610c00929190611221565b6020604051808303816000875af1158015610c1f573d6000803e3d6000fd5b505050506040513d601f19601f82011682018060405250810190610c439190611276565b610c82576040517f08c379a0000000000000000000000000000000000000000000000000000000008152600401610c799061159e565b60405180910390fd5b8273ffffffffffffffffffffffffffffffffffffffff167f106f923f993c2149d49b4255ff723acafa1f2d94393f561d3eda32ae348f724182604051610cc89190610ed6565b60405180910390a25b50505b50565b6001600081905550565b610ce9610e25565b73ffffffffffffffffffffffffffffffffffffffff16610d0761069e565b73ffffffffffffffffffffffffffffffffffffffff1614610d5d576040517f08c379a0000000000000000000000000000000000000000000000000000000008152600401610d549061160a565b60405180910390fd5b565b6000600160009054906101000a900473ffffffffffffffffffffffffffffffffffffffff16905081600160006101000a81548173ffffffffffffffffffffffffffffffffffffffff021916908373ffffffffffffffffffffffffffffffffffffffff1602179055508173ffffffffffffffffffffffffffffffffffffffff168173ffffffffffffffffffffffffffffffffffffffff167f8be0079c531659141344cd1fd0a4f28419497f9722a3daafe3b4186f6b6457e060405160405180910390a35050565b600033905090565b600080fd5b600073ffffffffffffffffffffffffffffffffffffffff82169050919050565b6000610e5d82610e32565b9050919050565b610e6d81610e52565b8114610e7857600080fd5b50565b600081359050610e8a81610e64565b92915050565b600060208284031215610ea657610ea5610e2d565b5b6000610eb484828501610e7b565b91505092915050565b6000819050919050565b610ed081610ebd565b82525050565b6000602082019050610eeb6000830184610ec7565b92915050565b60008115159050919050565b610f0681610ef1565b82525050565b6000608082019050610f216000830187610ec7565b610f2e6020830186610ec7565b610f3b6040830185610ec7565b610f486060830184610efd565b95945050505050565b610f5a81610e52565b82525050565b6000602082019050610f756000830184610f51565b92915050565b6000819050919050565b6000610fa0610f9b610f9684610e32565b610f7b565b610e32565b9050919050565b6000610fb282610f85565b9050919050565b6000610fc482610fa7565b9050919050565b610fd481610fb9565b82525050565b6000602082019050610fef6000830184610fcb565b92915050565b610ffe81610ebd565b811461100957600080fd5b50565b60008135905061101b81610ff5565b92915050565b60006020828403121561103757611036610e2d565b5b60006110458482850161100c565b91505092915050565b600060a0820190506110636000830188610ec7565b6110706020830187610ec7565b61107d6040830186610ec7565b61108a6060830185610ec7565b6110976080830184610efd565b9695505050505050565b600082825260208201905092915050565b7f4e6f20616374697665207374616b650000000000000000000000000000000000600082015250565b60006110e8600f836110a1565b91506110f3826110b2565b602082019050919050565b60006020820190508181036000830152611117816110db565b9050919050565b7f4e487b7100000000000000000000000000000000000000000000000000000000600052601160045260246000fd5b600061115882610ebd565b915061116383610ebd565b925082820190508082111561117b5761117a61111e565b5b92915050565b7f4c6f636b20706572696f64206e6f7420656e6465640000000000000000000000600082015250565b60006111b76015836110a1565b91506111c282611181565b602082019050919050565b600060208201905081810360008301526111e6816111aa565b9050919050565b60006111f882610ebd565b915061120383610ebd565b925082820390508181111561121b5761121a61111e565b5b92915050565b60006040820190506112366000830185610f51565b6112436020830184610ec7565b9392505050565b61125381610ef1565b811461125e57600080fd5b50565b6000815190506112708161124a565b92915050565b60006020828403121561128c5761128b610e2d565b5b600061129a84828501611261565b91505092915050565b7f5472616e73666572206661696c65640000000000000000000000000000000000600082015250565b60006112d9600f836110a1565b91506112e4826112a3565b602082019050919050565b60006020820190508181036000830152611308816112cc565b9050919050565b600061131a82610ebd565b915061132583610ebd565b925082820261133381610ebd565b9150828204841483151761134a5761134961111e565b5b5092915050565b7f4e487b7100000000000000000000000000000000000000000000000000000000600052601260045260246000fd5b600061138b82610ebd565b915061139683610ebd565b9250826113a6576113a5611351565b5b828204905092915050565b7f43616e6e6f74207374616b65203020746f6b656e730000000000000000000000600082015250565b60006113e76015836110a1565b91506113f2826113b1565b602082019050919050565b60006020820190508181036000830152611416816113da565b9050919050565b60006060820190506114326000830186610f51565b61143f6020830185610f51565b61144c6040830184610ec7565b949350505050565b7f4f776e61626c653a206e6577206f776e657220697320746865207a65726f206160008201527f6464726573730000000000000000000000000000000000000000000000000000602082015250565b60006114b06026836110a1565b91506114bb82611454565b604082019050919050565b600060208201905081810360008301526114df816114a3565b9050919050565b7f5265656e7472616e637947756172643a207265656e7472616e742063616c6c00600082015250565b600061151c601f836110a1565b9150611527826114e6565b602082019050919050565b6000602082019050818103600083015261154b8161150f565b9050919050565b7f526577617264207472616e73666572206661696c656400000000000000000000600082015250565b60006115886016836110a1565b915061159382611552565b602082019050919050565b600060208201905081810360008301526115b78161157b565b9050919050565b7f4f776e61626c653a2063616c6c6572206973206e6f7420746865206f776e6572600082015250565b60006115f46020836110a1565b91506115ff826115be565b602082019050919050565b60006020820190508181036000830152611623816115e7565b905091905056fea26469706673582212208b5f88fc431c60f09d5c1c0f32d523f95baae1ab5c5687bbb16bd2c10ef54e2564736f6c63430008130033",
  "linkReferences": {},
  "deployedLinkReferences": {}
}