{
  "_format": "hh-sol-artifact-1",
  "contractName": "GodNFT",
  "sourceName": "contracts/GodNFT.sol",
  "abi": [
    {
      "inputs": [],
      "stateMutability": "nonpayable",
      "type": "constructor"
    },
    {
      "anonymous": false,
      "inputs": [
        {
          "indexed": true,
          "internalType": "address",
          "name": "owner",
          "type": "address"
        },
        {
          "indexed": true,
          "internalType": "address",
          "name": "approved",
          "type": "address"
        },
        {
          "indexed": true,
          "internalType": "uint256",
          "name": "tokenId",
          "type": "uint256"
        }
      ],
      "name": "Approval",
      "type": "event"
    },
    {
      "anonymous": false,
      "inputs": [
        {
          "indexed": true,
          "internalType": "address",
          "name": "owner",
          "type": "address"
        },
        {
          "indexed": true,
          "internalType": "address",
          "name": "operator",
          "type": "address"
        },
        {
          "indexed": false,
          "internalType": "bool",
          "name": "approved",
          "type": "bool"
        }
      ],
      "name": "ApprovalForAll",
      "type": "event"
    },
    {
      "anonymous": false,
      "inputs": [
        {
          "indexed": true,
          "internalType": "uint256",
          "name": "tokenId",
          "type": "uint256"
        },
        {
          "indexed": true,
          "internalType": "address",
          "name": "owner",
          "type": "address"
        },
        {
          "indexed": false,
          "internalType": "uint256",
          "name": "metalType",
          "type": "uint256"
        },
        {
          "indexed": false,
          "internalType": "uint256",
          "name": "weight",
          "type": "uint256"
        }
      ],
      "name": "CertificateMinted",
      "type": "event"
    },
    {
      "anonymous": false,
      "inputs": [
        {
          "indexed": true,
          "internalType": "uint256",
          "name": "tokenId",
          "type": "uint256"
        },
        {
          "indexed": true,
          "internalType": "address",
          "name": "redeemer",
          "type": "address"
        }
      ],
      "name": "CertificateRedeemed",
      "type": "event"
    },
    {
      "anonymous": false,
      "inputs": [
        {
          "indexed": true,
          "internalType": "address",
          "name": "previousOwner",
          "type": "address"
        },
        {
          "indexed": true,
          "internalType": "address",
          "name": "newOwner",
          "type": "address"
        }
      ],
      "name": "OwnershipTransferred",
      "type": "event"
    },
    {
      "anonymous": false,
      "inputs": [
        {
          "indexed": true,
          "internalType": "address",
          "name": "from",
          "type": "address"
        },
        {
          "indexed": true,
          "internalType": "address",
          "name": "to",
          "type": "address"
        },
        {
          "indexed": true,
          "internalType": "uint256",
          "name": "tokenId",
          "type": "uint256"
        }
      ],
      "name": "Transfer",
      "type": "event"
    },
    {
      "inputs": [
        {
          "internalType": "address",
          "name": "to",
          "type": "address"
        },
        {
          "internalType": "uint256",
          "name": "tokenId",
          "type": "uint256"
        }
      ],
      "name": "approve",
      "outputs": [],
      "stateMutability": "nonpayable",
      "type": "function"
    },
    {
      "inputs": [
        {
          "internalType": "address",
          "name": "owner",
          "type": "address"
        }
      ],
      "name": "balanceOf",
      "outputs": [
        {
          "internalType": "uint256",
          "name": "",
          "type": "uint256"
        }
      ],
      "stateMutability": "view",
      "type": "function"
    },
    {
      "inputs": [
        {
          "internalType": "uint256",
          "name": "",
          "type": "uint256"
        }
      ],
      "name": "certificates",
      "outputs": [
        {
          "internalType": "uint256",
          "name": "metalType",
          "type": "uint256"
        },
        {
          "internalType": "uint256",
          "name": "weight",
          "type": "uint256"
        },
        {
          "internalType": "uint256",
          "name": "purity",
          "type": "uint256"
        },
        {
          "internalType": "string",
          "name": "serialNumber",
          "type": "string"
        },
        {
          "internalType": "uint256",
          "name": "mintDate",
          "type": "uint256"
        },
        {
          "internalType": "bytes32",
          "name": "aiVerification",
          "type": "bytes32"
        },
        {
          "internalType": "bool",
          "name": "redeemed",
          "type": "bool"
        }
      ],
      "stateMutability": "view",
      "type": "function"
    },
    {
      "inputs": [
        {
          "internalType": "uint256",
          "name": "tokenId",
          "type": "uint256"
        }
      ],
      "name": "getApproved",
      "outputs": [
        {
          "internalType": "address",
          "name": "",
          "type": "address"
        }
      ],
      "stateMutability": "view",
      "type": "function"
    },
    {
      "inputs": [
        {
          "internalType": "uint256",
          "name": "_tokenId",
          "type": "uint256"
        }
      ],
      "name": "getCertificate",
      "outputs": [
        {
          "internalType": "uint256",
          "name": "metalType",
          "type": "uint256"
        },
        {
          "internalType": "uint256",
          "name": "weight",
          "type": "uint256"
        },
        {
          "internalType": "uint256",
          "name": "purity",
          "type": "uint256"
        },
        {
          "internalType": "string",
          "name": "serialNumber",
          "type": "string"
        },
        {
          "internalType": "uint256",
          "name": "mintDate",
          "type": "uint256"
        },
        {
          "internalType": "bytes32",
          "name": "aiVerification",
          "type": "bytes32"
        },
        {
          "internalType": "bool",
          "name": "redeemed",
          "type": "bool"
        }
      ],
      "stateMutability": "view",
      "type": "function"
    },
    {
      "inputs": [
        {
          "internalType": "address",
          "name": "owner",
          "type": "address"
        },
        {
          "internalType": "address",
          "name": "operator",
          "type": "address"
        }
      ],
      "name": "isApprovedForAll",
      "outputs": [
        {
          "internalType": "bool",
          "name": "",
          "type": "bool"
        }
      ],
      "stateMutability": "view",
      "type": "function"
    },
    {
      "inputs": [
        {
          "internalType": "address",
          "name": "_to",
          "type": "address"
        },
        {
          "internalType": "uint256",
          "name": "_metalType",
          "type": "uint256"
        },
        {
          "internalType": "uint256",
          "name": "_weight",
          "type": "uint256"
        },
        {
          "internalType": "uint256",
          "name": "_purity",
          "type": "uint256"
        },
        {
          "internalType": "string",
          "name": "_serialNumber",
          "type": "string"
        },
        {
          "internalType": "bytes32",
          "name": "_aiVerification",
          "type": "bytes32"
        }
      ],
      "name": "mintCertificate",
      "outputs": [
        {
          "internalType": "uint256",
          "name": "",
          "type": "uint256"
        }
      ],
      "stateMutability": "nonpayable",
      "type": "function"
    },
    {
      "inputs": [],
      "name": "name",
      "outputs": [
        {
          "internalType": "string",
          "name": "",
          "type": "string"
        }
      ],
      "stateMutability": "view",
      "type": "function"
    },
    {
      "inputs": [],
      "name": "owner",
      "outputs": [
        {
          "internalType": "address",
          "name": "",
          "type": "address"
        }
      ],
      "stateMutability": "view",
      "type": "function"
    },
    {
      "inputs": [
        {
          "internalType": "uint256",
          "name": "tokenId",
          "type": "uint256"
        }
      ],
      "name": "ownerOf",
      "outputs": [
        {
          "internalType": "address",
          "name": "",
          "type": "address"
        }
      ],
      "stateMutability": "view",
      "type": "function"
    },
    {
      "inputs": [
        {
          "internalType": "uint256",
          "name": "_tokenId",
          "type": "uint256"
        }
      ],
      "name": "redeemCertificate",
      "outputs": [],
      "stateMutability": "nonpayable",
      "type": "function"
    },
    {
      "inputs": [],
      "name": "renounceOwnership",
      "outputs": [],
      "stateMutability": "nonpayable",
      "type": "function"
    },
    {
      "inputs": [
        {
          "internalType": "address",
          "name": "from",
          "type": "address"
        },
        {
          "internalType": "address",
          "name": "to",
          "type": "address"
        },
        {
          "internalType": "uint256",
          "name": "tokenId",
          "type": "uint256"
        }
      ],
      "name": "safeTransferFrom",
      "outputs": [],
      "stateMutability": "nonpayable",
      "type": "function"
    },
    {
      "inputs": [
        {
          "internalType": "address",
          "name": "from",
          "type": "address"
        },
        {
          "internalType": "address",
          "name": "to",
          "type": "address"
        },
        {
          "internalType": "uint256",
          "name": "tokenId",
          "type": "uint256"
        },
        {
          "internalType": "bytes",
          "name": "data",
          "type": "bytes"
        }
      ],
      "name": "safeTransferFrom",
      "outputs": [],
      "stateMutability": "nonpayable",
      "type": "function"
    },
    {
      "inputs": [
        {
          "internalType": "address",
          "name": "operator",
          "type": "address"
        },
        {
          "internalType": "bool",
          "name": "approved",
          "type": "bool"
        }
      ],
      "name": "setApprovalForAll",
      "outputs": [],
      "stateMutability": "nonpayable",
      "type": "function"
    },
    {
      "inputs": [
        {
          "internalType": "bytes4",
          "name": "interfaceId",
          "type": "bytes4"
        }
      ],
      "name": "supportsInterface",
      "outputs": [
        {
          "internalType": "bool",
          "name": "",
          "type": "bool"
        }
      ],
      "stateMutability": "view",
      "type": "function"
    },
    {
      "inputs": [],
      "name": "symbol",
      "outputs": [
        {
          "internalType": "string",
          "name": "",
          "type": "string"
        }
      ],
      "stateMutability": "view",
      "type": "function"
    },
    {
      "inputs": [
        {
          "internalType": "uint256",
          "name": "tokenId",
          "type": "uint256"
        }
      ],
      "name": "tokenURI",
      "outputs": [
        {
          "internalType": "string",
          "name": "",
          "type": "string"
        }
      ],
      "stateMutability": "view",
      "type": "function"
    },
    {
      "inputs": [
        {
          "internalType": "address",
          "name": "from",
          "type": "address"
        },
        {
          "internalType": "address",
          "name": "to",
          "type": "address"
        },
        {
          "internalType": "uint256",
          "name": "tokenId",
          "type": "uint256"
        }
      ],
      "name": "transferFrom",
      "outputs": [],
      "stateMutability": "nonpayable",
      "type": "function"
    },
    {
      "inputs": [
        {
          "internalType": "address",
          "name": "newOwner",
          "type": "address"
        }
      ],
      "name": "transferOwnership",
      "outputs": [],
      "stateMutability": "nonpayable",
      "type": "function"
    }
  ],
  "bytecode": "0x6080346200036d576001600160401b039060408181018381118382101762000357578152601e82526020917f474f442050726563696f7573204d6574616c2043657274696669636174650000838201528151938285018581108282111762000357578352600685526511d3d113919560d21b84860152815181811162000357576000948554916001948584811c941680156200034c575b8385101462000338578190601f94858111620002e5575b5083908583116001146200028157899262000275575b5050600019600383901b1c191690851b1786555b8651928311620002615783548481811c9116801562000256575b828210146200024257828111620001fa575b50809183116001146200019357508495829394959262000187575b5050600019600383901b1c191690821b1790555b60068054336001600160a01b03198216811790925591519290916001600160a01b0316907f8be0079c531659141344cd1fd0a4f28419497f9722a3daafe3b4186f6b6457e09080a3611ae09081620003738239f35b0151905038806200011e565b90601f198316968487528287209287905b898210620001e2575050838596979810620001c8575b505050811b01905562000132565b015160001960f88460031b161c19169055388080620001ba565b808785968294968601518155019501930190620001a4565b8487528187208380860160051c82019284871062000238575b0160051c019085905b8281106200022c57505062000103565b8881550185906200021c565b9250819262000213565b634e487b7160e01b87526022600452602487fd5b90607f1690620000f1565b634e487b7160e01b86526041600452602486fd5b015190503880620000c3565b898052848a208894509190601f1984168b5b87828210620002ce5750508411620002b4575b505050811b018655620000d7565b015160001960f88460031b161c19169055388080620002a6565b8385015186558b9790950194938401930162000293565b9091508880528389208580850160051c8201928686106200032e575b918991869594930160051c01915b8281106200031f575050620000ad565b8b81558594508991016200030f565b9250819262000301565b634e487b7160e01b88526022600452602488fd5b93607f169362000096565b634e487b7160e01b600052604160045260246000fd5b600080fdfe608080604052600436101561001357600080fd5b60003560e01c90816301ffc9a7146111165750806306fdde0314611073578063081812fc14611055578063095ea7b314610edb57806323b872dd14610eb257806342842e0e14610e7857806351640fee14610ddf5780636352211e14610daf578063663b3e2214610d5157806370a0823114610cba578063715018a614610c5d5780638da5cb5b14610c3457806395d89b4114610b55578063a22cb46514610a7a578063b88d4fde14610a18578063c87b56dd146107e7578063c9241a5a14610670578063e787b5c71461021a578063e985e9c5146101c45763f2fde38b146100fb57600080fd5b346101bf5760203660031901126101bf576101146111c9565b61011c6113f3565b6001600160a01b0390811690811561016b57600654826001600160601b0360a01b821617600655167f8be0079c531659141344cd1fd0a4f28419497f9722a3daafe3b4186f6b6457e0600080a3005b60405162461bcd60e51b815260206004820152602660248201527f4f776e61626c653a206e6577206f776e657220697320746865207a65726f206160448201526564647265737360d01b6064820152608490fd5b600080fd5b346101bf5760403660031901126101bf576101dd6111c9565b6101e56111df565b9060018060a01b03809116600052600560205260406000209116600052602052602060ff604060002054166040519015158152f35b346101bf5760c03660031901126101bf576102336111c9565b67ffffffffffffffff906064356084358381116101bf57366023820112156101bf576102699036906024816004013591016113bc565b6102716113f3565b6001602435148015610664575b1561062a57604435156105e557610384821015806105d9575b156105a3576001600754019384600755604051916102b4836112a0565b602435835260208301936044358552604084019081526060840191825242608085015260a43560a0850152600060c08501528660005260086020526040600020948451865551600186015551600285015551805191821161058d5761031c6003850154611266565b601f8111610546575b50602090601f83116001146104cf57928260069360c09361038c97966000926104c4575b50508160011b916000199060031b1c19161760038501555b6080810151600485015560a081015160058501550151151591019060ff801983541691151516179055565b6001600160a01b0316908115610480576020916103c76103c183600052600260205260018060a01b0360406000205416151590565b156118f6565b6000828152600260205260409020546103ea906001600160a01b031615156103c1565b806000526003835260406000206001815401905581600052600283526040600020816001600160601b0360a01b825416179055817ff11aa7292c73fead4c451b6c63413821173ffa6003d0b4b2fae9470c93c8d1bf60408051838560007fddf252ad1be2c89b69c2b068fc378daa952ba7f163c4a11628f55a4df523b3ef8180a4602435815260443587820152a3604051908152f35b606460405162461bcd60e51b815260206004820152602060248201527f4552433732313a206d696e7420746f20746865207a65726f20616464726573736044820152fd5b015190508980610349565b90601f198316916003860160005260206000209260005b81811061052e57509360c09361038c9796936001938360069810610515575b505050811b016003850155610361565b015160001960f88460031b161c19169055898080610505565b929360206001819287860151815501950193016104e6565b600385016000526020600020601f840160051c810160208510610586575b601f830160051c8201811061057a575050610325565b60008155600101610564565b5080610564565b634e487b7160e01b600052604160045260246000fd5b60405162461bcd60e51b815260206004820152600e60248201526d496e76616c69642070757269747960901b6044820152606490fd5b506103e8821115610297565b60405162461bcd60e51b815260206004820152601760248201527f576569676874206d75737420626520706f7369746976650000000000000000006044820152606490fd5b60405162461bcd60e51b8152602060048201526012602482015271496e76616c6964206d6574616c207479706560701b6044820152606490fd5b5060026024351461027e565b346101bf576020806003193601126101bf576004359061068f82611497565b6001600160a01b039033908216036107b257826000526008825260ff6006604060002001541661077a5782916000918383526008825260066040842001600160ff198254161790556106e084611497565b5060026106ec85611497565b918585526004845260408520926001600160601b0360a01b93848154169055169283855260038152604085208519815401905585855252604083209081541690557fddf252ad1be2c89b69c2b068fc378daa952ba7f163c4a11628f55a4df523b3ef8280a433907fac3733e7017eefc2974417ad9ec0f66196427b088313358091a1c48822d4d0fb600080a3005b60405162461bcd60e51b815260048101839052601060248201526f105b1c9958591e481c995919595b595960821b6044820152606490fd5b60405162461bcd60e51b815260048101839052600d60248201526c2737ba103a34329037bbb732b960991b6044820152606490fd5b346101bf576020806003193601126101bf576004356000818152600260205260409020549091906001600160a01b0316156109dd578160005260088152610998605f60406000206040519061083b826112a0565b805482526001808201549286810193845260ff600660028501549460408401958652610869600382016112fa565b606085015260048101546080850152600581015460a0850152015416151560c082015251036109b0576108cb6108c46108bd6040516108a7816112bc565b600481526311dbdb1960e21b8982015298611942565b9351611942565b9151611942565b906040519687937f68747470733a2f2f6170692e676f642d746f6b656e2d636f696e2e636f6d2f6d8886015267657461646174612f60c01b604086015261091b815180928a604889019101611181565b8401663f6d6574616c3d60c81b6048820152610940825180938a604f85019101611181565b0167267765696768743d60c01b604f8201526109658251809389605785019101611181565b0167267075726974793d60c01b605782015261098982518093888785019101611181565b0103603f8101855201836112d8565b6109ac6040519282849384528301906111a4565b0390f35b6108cb6108c46108bd6040516109c5816112bc565b600681526529b4b63b32b960d11b8982015298611942565b6064906040519062461bcd60e51b825260048201526014602482015273151bdad95b88191bd95cc81b9bdd08195e1a5cdd60621b6044820152fd5b346101bf5760803660031901126101bf57610a316111c9565b610a396111df565b6064359167ffffffffffffffff83116101bf57366023840112156101bf57610a6e610a789336906024816004013591016113bc565b916044359161155d565b005b346101bf5760403660031901126101bf57610a936111c9565b60243590811515908183036101bf576001600160a01b031691338314610b1057610ae29033600052600560205260406000208460005260205260406000209060ff801983541691151516179055565b6040519081527f17307eab39ab6107e8899845ad3d59bd9653f200f220920489ca2b5937696c3160203392a3005b60405162461bcd60e51b815260206004820152601960248201527f4552433732313a20617070726f766520746f2063616c6c6572000000000000006044820152606490fd5b346101bf5760003660031901126101bf5760405160006001805490610b7982611266565b80855291818116908115610c0d5750600114610bb4575b6109ac84610ba0818603826112d8565b6040519182916020835260208301906111a4565b600081815292507fb10e2d527612073b26eecdfd717e6a320cf44b4afac2b0732d9fcbe2b7fa0cf65b828410610bf5575050508101602001610ba082610b90565b80546020858701810191909152909301928101610bdd565b60ff191660208087019190915292151560051b85019092019250610ba09150839050610b90565b346101bf5760003660031901126101bf576006546040516001600160a01b039091168152602090f35b346101bf5760003660031901126101bf57610c766113f3565b600680546001600160a01b031981169091556000906001600160a01b03167f8be0079c531659141344cd1fd0a4f28419497f9722a3daafe3b4186f6b6457e08280a3005b346101bf5760203660031901126101bf576001600160a01b03610cdb6111c9565b168015610cfa5760005260036020526020604060002054604051908152f35b60405162461bcd60e51b815260206004820152602960248201527f4552433732313a2061646472657373207a65726f206973206e6f7420612076616044820152683634b21037bbb732b960b91b6064820152608490fd5b346101bf5760203660031901126101bf576004356000526008602052604060002080546109ac600183015492600281015490610d8f600382016112fa565b60048201549060ff6006600585015494015416936040519788978861122a565b346101bf5760203660031901126101bf576020610dcd600435611497565b6040516001600160a01b039091168152f35b346101bf5760203660031901126101bf5760043560005260086020526040600020604051610e0c816112a0565b815481526109ac6001830154916020810192835260028401549360408201948552610e39600382016112fa565b80606084015260048201549081608085015260ff60066005850154948560a08801520154161515938460c082015251955196516040519788978861122a565b346101bf57610e86366111f5565b60405191602083019383851067ffffffffffffffff86111761058d57610a78946040526000845261155d565b346101bf57610a78610ec3366111f5565b91610ed6610ed184336115f8565b6114fb565b6116c0565b346101bf5760403660031901126101bf57610ef46111c9565b602435906001600160a01b038080610f0b85611497565b1692169180831461100657803314908115610fe1575b5015610f7657600083815260046020526040902080546001600160a01b03191683179055610f4e83611497565b167f8c5be1e5ebec7d5bd14f71427d1e84f3dd0314c0f7b2291e5b200ac8c7c3b925600080a4005b60405162461bcd60e51b815260206004820152603d60248201527f4552433732313a20617070726f76652063616c6c6572206973206e6f7420746f60448201527f6b656e206f776e6572206f7220617070726f76656420666f7220616c6c0000006064820152608490fd5b9050600052600560205260406000203360005260205260ff6040600020541684610f21565b60405162461bcd60e51b815260206004820152602160248201527f4552433732313a20617070726f76616c20746f2063757272656e74206f776e656044820152603960f91b6064820152608490fd5b346101bf5760203660031901126101bf576020610dcd6004356114bd565b346101bf5760003660031901126101bf576040516000805461109481611266565b80845290600190818116908115610c0d57506001146110bd576109ac84610ba0818603826112d8565b600080805292507f290decd9548b62a8d60345a988386fc84ba6bc95484008f6362f93160ef3e5635b8284106110fe575050508101602001610ba082610b90565b805460208587018101919091529093019281016110e6565b346101bf5760203660031901126101bf576004359063ffffffff60e01b82168092036101bf576020916380ac58cd60e01b8114908115611170575b811561115f575b5015158152f35b6301ffc9a760e01b14905083611158565b635b5e139f60e01b81149150611151565b60005b8381106111945750506000910152565b8181015183820152602001611184565b906020916111bd81518092818552858086019101611181565b601f01601f1916010190565b600435906001600160a01b03821682036101bf57565b602435906001600160a01b03821682036101bf57565b60609060031901126101bf576001600160a01b039060043582811681036101bf579160243590811681036101bf579060443590565b95926112549260c0969998959288526020880152604087015260e0606087015260e08601906111a4565b95608085015260a08401521515910152565b90600182811c92168015611296575b602083101461128057565b634e487b7160e01b600052602260045260246000fd5b91607f1691611275565b60e0810190811067ffffffffffffffff82111761058d57604052565b6040810190811067ffffffffffffffff82111761058d57604052565b90601f8019910116810190811067ffffffffffffffff82111761058d57604052565b906040519182600082549261130e84611266565b90818452600194858116908160001461137d575060011461133a575b5050611338925003836112d8565b565b9093915060005260209081600020936000915b8183106113655750506113389350820101388061132a565b8554888401850152948501948794509183019161134d565b91505061133894506020925060ff191682840152151560051b820101388061132a565b67ffffffffffffffff811161058d57601f01601f191660200190565b9291926113c8826113a0565b916113d660405193846112d8565b8294818452818301116101bf578281602093846000960137010152565b6006546001600160a01b0316330361140757565b606460405162461bcd60e51b815260206004820152602060248201527f4f776e61626c653a2063616c6c6572206973206e6f7420746865206f776e65726044820152fd5b1561145257565b60405162461bcd60e51b815260206004820152601860248201527f4552433732313a20696e76616c696420746f6b656e20494400000000000000006044820152606490fd5b6000908152600260205260409020546001600160a01b03166114ba81151561144b565b90565b6000818152600260205260409020546114e0906001600160a01b0316151561144b565b6000908152600460205260409020546001600160a01b031690565b1561150257565b60405162461bcd60e51b815260206004820152602d60248201527f4552433732313a2063616c6c6572206973206e6f7420746f6b656e206f776e6560448201526c1c881bdc88185c1c1c9bdd9959609a1b6064820152608490fd5b90611581939291611571610ed184336115f8565b61157c8383836116c0565b6117d1565b1561158857565b60405162461bcd60e51b8152806115a1600482016115a5565b0390fd5b60809060208152603260208201527f4552433732313a207472616e7366657220746f206e6f6e20455243373231526560408201527131b2b4bb32b91034b6b83632b6b2b73a32b960711b60608201520190565b906001600160a01b03808061160c84611497565b1693169183831493841561163f575b508315611629575b50505090565b611635919293506114bd565b1614388080611623565b909350600052600560205260406000208260005260205260ff60406000205416923861161b565b1561166d57565b60405162461bcd60e51b815260206004820152602560248201527f4552433732313a207472616e736665722066726f6d20696e636f72726563742060448201526437bbb732b960d91b6064820152608490fd5b906116e8916116ce84611497565b6001600160a01b0393918416928492909183168414611666565b169182156117805781611705916116fe86611497565b1614611666565b7fddf252ad1be2c89b69c2b068fc378daa952ba7f163c4a11628f55a4df523b3ef60008481526004602052604081206001600160601b0360a01b9081815416905583825260036020526040822060001981540190558482526040822060018154019055858252600260205284604083209182541617905580a4565b60405162461bcd60e51b8152602060048201526024808201527f4552433732313a207472616e7366657220746f20746865207a65726f206164646044820152637265737360e01b6064820152608490fd5b9293600093909291803b156118eb5794849161182b9660405180948193630a85bd0160e11b9788845233600485015260018060a01b0380921660248501526044840152608060648401528260209b8c9760848301906111a4565b0393165af18491816118a7575b50611896575050503d60001461188e573d611852816113a0565b9061186060405192836112d8565b81528091833d92013e5b8051918261188b5760405162461bcd60e51b8152806115a1600482016115a5565b01fd5b50606061186a565b6001600160e01b0319161492509050565b9091508581813d83116118e4575b6118bf81836112d8565b810103126118e057516001600160e01b0319811681036118e0579038611838565b8480fd5b503d6118b5565b505050915050600190565b156118fd57565b60405162461bcd60e51b815260206004820152601c60248201527f4552433732313a20746f6b656e20616c7265616479206d696e746564000000006044820152606490fd5b806000917a184f03e93ff9f4daa797ed6e38ed64bf6a1f01000000000000000080821015611a9c575b506d04ee2d6d415b85acef810000000080831015611a8d575b50662386f26fc1000080831015611a7e575b506305f5e10080831015611a6f575b5061271080831015611a60575b506064821015611a50575b600a80921015611a46575b600190816021818601956119db876113a0565b966119e960405198896112d8565b8088526119f8601f19916113a0565b01366020890137860101905b611a10575b5050505090565b600019019083906f181899199a1a9b1b9c1cb0b131b232b360811b8282061a835304918215611a4157919082611a04565b611a09565b91600101916119c8565b91906064600291049101916119bd565b600491939204910191386119b2565b600891939204910191386119a5565b60109193920491019138611996565b60209193920491019138611984565b60409350810491503861196b56fea264697066735822122039cf30ee549cbd8490f0138520ae47d90242415a60d1367357780775438e401c64736f6c63430008130033",
  "linkReferences": {},
  "deployedLinkReferences": {}
}