{
  "_format": "hh-sol-artifact-1",
  "contractName": "GodNFT",
  "sourceName": "contracts/GodNFT.sol",
  "abi": [
    {
      "inputs": [],
      "stateMutability": "nonpayable",
      "type": "constructor"
    },
    {
      "anonymous": false,
      "inputs": [
        {
          "indexed": true,
          "internalType": "address",
          "name": "owner",
          "type": "address"
        },
        {
          "indexed": true,
          "internalType": "address",
          "name": "approved",
          "type": "address"
        },
        {
          "indexed": true,
          "internalType": "uint256",
          "name": "tokenId",
          "type": "uint256"
        }
      ],
      "name": "Approval",
      "type": "event"
    },
    {
      "anonymous": false,
      "inputs": [
        {
          "indexed": true,
          "internalType": "address",
          "name": "owner",
          "type": "address"
        },
        {
          "indexed": true,
          "internalType": "address",
          "name": "operator",
          "type": "address"
        },
        {
          "indexed": false,
          "internalType": "bool",
          "name": "approved",
          "type": "bool"
        }
      ],
      "name": "ApprovalForAll",
      "type": "event"
    },
    {
      "anonymous": false,
      "inputs": [
        {
          "indexed": true,
          "internalType": "uint256",
          "name": "tokenId",
          "type": "uint256"
        },
        {
          "indexed": true,
          "internalType": "address",
          "name": "owner",
          "type": "address"
        },
        {
          "indexed": false,
          "internalType": "uint256",
          "name": "metalType",
          "type": "uint256"
        },
        {
          "indexed": false,
          "internalType": "uint256",
          "name": "weight",
          "type": "uint256"
        }
      ],
      "name": "CertificateMinted",
      "type": "event"
    },
    {
      "anonymous": false,
      "inputs": [
        {
          "indexed": true,
          "internalType": "uint256",
          "name": "tokenId",
          "type": "uint256"
        },
        {
          "indexed": true,
          "internalType": "address",
          "name": "redeemer",
          "type": "address"
        }
      ],
      "name": "CertificateRedeemed",
      "type": "event"
    },
    {
      "anonymous": false,
      "inputs": [
        {
          "indexed": true,
          "internalType": "address",
          "name": "previousOwner",
          "type": "address"
        },
        {
          "indexed": true,
          "internalType": "address",
          "name": "newOwner",
          "type": "address"
        }
      ],
      "name": "OwnershipTransferred",
      "type": "event"
    },
    {
      "anonymous": false,
      "inputs": [
        {
          "indexed": true,
          "internalType": "address",
          "name": "from",
          "type": "address"
        },
        {
          "indexed": true,
          "internalType": "address",
          "name": "to",
          "type": "address"
        },
        {
          "indexed": true,
          "internalType": "uint256",
          "name": "tokenId",
          "type": "uint256"
        }
      ],
      "name": "Transfer",
      "type": "event"
    },
    {
      "inputs": [
        {
          "internalType": "address",
          "name": "to",
          "type": "address"
        },
        {
          "internalType": "uint256",
          "name": "tokenId",
          "type": "uint256"
        }
      ],
      "name": "approve",
      "outputs": [],
      "stateMutability": "nonpayable",
      "type": "function"
    },
    {
      "inputs": [
        {
          "internalType": "address",
          "name": "owner",
          "type": "address"
        }
      ],
      "name": "balanceOf",
      "outputs": [
        {
          "internalType": "uint256",
          "name": "",
          "type": "uint256"
        }
      ],
      "stateMutability": "view",
      "type": "function"
    },
    {
      "inputs": [
        {
          "internalType": "uint256",
          "name": "",
          "type": "uint256"
        }
      ],
      "name": "certificates",
      "outputs": [
        {
          "internalType": "uint256",
          "name": "metalType",
          "type": "uint256"
        },
        {
          "internalType": "uint256",
          "name": "weight",
          "type": "uint256"
        },
        {
          "internalType": "uint256",
          "name": "purity",
          "type": "uint256"
        },
        {
          "internalType": "string",
          "name": "serialNumber",
          "type": "string"
        },
        {
          "internalType": "uint256",
          "name": "mintDate",
          "type": "uint256"
        },
        {
          "internalType": "bytes32",
          "name": "aiVerification",
          "type": "bytes32"
        },
        {
          "internalType": "bool",
          "name": "redeemed",
          "type": "bool"
        }
      ],
      "stateMutability": "view",
      "type": "function"
    },
    {
      "inputs": [
        {
          "internalType": "uint256",
          "name": "tokenId",
          "type": "uint256"
        }
      ],
      "name": "getApproved",
      "outputs": [
        {
          "internalType": "address",
          "name": "",
          "type": "address"
        }
      ],
      "stateMutability": "view",
      "type": "function"
    },
    {
      "inputs": [
        {
          "internalType": "uint256",
          "name": "_tokenId",
          "type": "uint256"
        }
      ],
      "name": "getCertificate",
      "outputs": [
        {
          "internalType": "uint256",
          "name": "metalType",
          "type": "uint256"
        },
        {
          "internalType": "uint256",
          "name": "weight",
          "type": "uint256"
        },
        {
          "internalType": "uint256",
          "name": "purity",
          "type": "uint256"
        },
        {
          "internalType": "string",
          "name": "serialNumber",
          "type": "string"
        },
        {
          "internalType": "uint256",
          "name": "mintDate",
          "type": "uint256"
        },
        {
          "internalType": "bytes32",
          "name": "aiVerification",
          "type": "bytes32"
        },
        {
          "internalType": "bool",
          "name": "redeemed",
          "type": "bool"
        }
      ],
      "stateMutability": "view",
      "type": "function"
    },
    {
      "inputs": [
        {
          "internalType": "address",
          "name": "owner",
          "type": "address"
        },
        {
          "internalType": "address",
          "name": "operator",
          "type": "address"
        }
      ],
      "name": "isApprovedForAll",
      "outputs": [
        {
          "internalType": "bool",
          "name": "",
          "type": "bool"
        }
      ],
      "stateMutability": "view",
      "type": "function"
    },
    {
      "inputs": [
        {
          "internalType": "address",
          "name": "_to",
          "type": "address"
        },
        {
          "internalType": "uint256",
          "name": "_metalType",
          "type": "uint256"
        },
        {
          "internalType": "uint256",
          "name": "_weight",
          "type": "uint256"
        },
        {
          "internalType": "uint256",
          "name": "_purity",
          "type": "uint256"
        },
        {
          "internalType": "string",
          "name": "_serialNumber",
          "type": "string"
        },
        {
          "internalType": "bytes32",
          "name": "_aiVerification",
          "type": "bytes32"
        }
      ],
      "name": "mintCertificate",
      "outputs": [
        {
          "internalType": "uint256",
          "name": "",
          "type": "uint256"
        }
      ],
      "stateMutability": "nonpayable",
      "type": "function"
    },
    {
      "inputs": [],
      "name": "name",
      "outputs": [
        {
          "internalType": "string",
          "name": "",
          "type": "string"
        }
      ],
      "stateMutability": "view",
      "type": "function"
    },
    {
      "inputs": [],
      "name": "owner",
      "outputs": [
        {
          "internalType": "address",
          "name": "",
          "type": "address"
        }
      ],
      "stateMutability": "view",
      "type": "function"
    },
    {
      "inputs": [
        {
          "internalType": "uint256",
          "name": "tokenId",
          "type": "uint256"
        }
      ],
      "name": "ownerOf",
      "outputs": [
        {
          "internalType": "address",
          "name": "",
          "type": "address"
        }
      ],
      "stateMutability": "view",
      "type": "function"
    },
    {
      "inputs": [
        {
          "internalType": "uint256",
          "name": "_tokenId",
          "type": "uint256"
        }
      ],
      "name": "redeemCertificate",
      "outputs": [],
      "stateMutability": "nonpayable",
      "type": "function"
    },
    {
      "inputs": [],
      "name": "renounceOwnership",
      "outputs": [],
      "stateMutability": "nonpayable",
      "type": "function"
    },
    {
      "inputs": [
        {
          "internalType": "address",
          "name": "from",
          "type": "address"
        },
        {
          "internalType": "address",
          "name": "to",
          "type": "address"
        },
        {
          "internalType": "uint256",
          "name": "tokenId",
          "type": "uint256"
        }
      ],
      "name": "safeTransferFrom",
      "outputs": [],
      "stateMutability": "nonpayable",
      "type": "function"
    },
    {
      "inputs": [
        {
          "internalType": "address",
          "name": "from",
          "type": "address"
        },
        {
          "internalType": "address",
          "name": "to",
          "type": "address"
        },
        {
          "internalType": "uint256",
          "name": "tokenId",
          "type": "uint256"
        },
        {
          "internalType": "bytes",
          "name": "data",
          "type": "bytes"
        }
      ],
      "name": "safeTransferFrom",
      "outputs": [],
      "stateMutability": "nonpayable",
      "type": "function"
    },
    {
      "inputs": [
        {
          "internalType": "address",
          "name": "operator",
          "type": "address"
        },
        {
          "internalType": "bool",
          "name": "approved",
          "type": "bool"
        }
      ],
      "name": "setApprovalForAll",
      "outputs": [],
      "stateMutability": "nonpayable",
      "type": "function"
    },
    {
      "inputs": [
        {
          "internalType": "bytes4",
          "name": "interfaceId",
          "type": "bytes4"
        }
      ],
      "name": "supportsInterface",
      "outputs": [
        {
          "internalType": "bool",
          "name": "",
          "type": "bool"
        }
      ],
      "stateMutability": "view",
      "type": "function"
    },
    {
      "inputs": [],
      "name": "symbol",
      "outputs": [
        {
          "internalType": "string",
          "name": "",
          "type": "string"
        }
      ],
      "stateMutability": "view",
      "type": "function"
    },
    {
      "inputs": [
        {
          "internalType": "uint256",
          "name": "tokenId",
          "type": "uint256"
        }
      ],
      "name": "tokenURI",
      "outputs": [
        {
          "internalType": "string",
          "name": "",
          "type": "string"
        }
      ],
      "stateMutability": "view",
      "type": "function"
    },
    {
      "inputs": [
        {
          "internalType": "address",
          "name": "from",
          "type": "address"
        },
        {
          "internalType": "address",
          "name": "to",
          "type": "address"
        },
        {
          "internalType": "uint256",
          "name": "tokenId",
          "type": "uint256"
        }
      ],
      "name": "transferFrom",
      "outputs": [],
      "stateMutability": "nonpayable",
      "type": "function"
    },
    {
      "inputs": [
        {
          "internalType": "address",
          "name": "newOwner",
          "type": "address"
        }
      ],
      "name": "transferOwnership",
      "outputs": [],
      "stateMutability": "nonpayable",
      "type": "function"
    }
  ],
  "bytecode": "0x60806040523480156200001157600080fd5b506040518060400160405280601e81526020017f474f442050726563696f7573204d6574616c20436572746966696361746500008152506040518060400160405280600681526020017f474f444e4654000000000000000000000000000000000000000000000000000081525081600090816200008f919062000412565b508060019081620000a1919062000412565b505050620000c4620000b8620000ca60201b60201c565b620000d260201b60201c565b620004f9565b600033905090565b6000600660009054906101000a900473ffffffffffffffffffffffffffffffffffffffff16905081600660006101000a81548173ffffffffffffffffffffffffffffffffffffffff021916908373ffffffffffffffffffffffffffffffffffffffff1602179055508173ffffffffffffffffffffffffffffffffffffffff168173ffffffffffffffffffffffffffffffffffffffff167f8be0079c531659141344cd1fd0a4f28419497f9722a3daafe3b4186f6b6457e060405160405180910390a35050565b600081519050919050565b7f4e487b7100000000000000000000000000000000000000000000000000000000600052604160045260246000fd5b7f4e487b7100000000000000000000000000000000000000000000000000000000600052602260045260246000fd5b600060028204905060018216806200021a57607f821691505b60208210810362000230576200022f620001d2565b5b50919050565b60008190508160005260206000209050919050565b60006020601f8301049050919050565b600082821b905092915050565b6000600883026200029a7fffffffffffffffffffffffffffffffffffffffffffffffffffffffffffffffff826200025b565b620002a686836200025b565b95508019841693508086168417925050509392505050565b6000819050919050565b6000819050919050565b6000620002f3620002ed620002e784620002be565b620002c8565b620002be565b9050919050565b6000819050919050565b6200030f83620002d2565b620003276200031e82620002fa565b84845462000268565b825550505050565b600090565b6200033e6200032f565b6200034b81848462000304565b505050565b5b8181101562000373576200036760008262000334565b60018101905062000351565b5050565b601f821115620003c2576200038c8162000236565b62000397846200024b565b81016020851015620003a7578190505b620003bf620003b6856200024b565b83018262000350565b50505b505050565b600082821c905092915050565b6000620003e760001984600802620003c7565b1980831691505092915050565b6000620004028383620003d4565b9150826002028217905092915050565b6200041d8262000198565b67ffffffffffffffff811115620004395762000438620001a3565b5b62000445825462000201565b6200045282828562000377565b600060209050601f8311600181146200048a576000841562000475578287015190505b620004818582620003f4565b865550620004f1565b601f1984166200049a8662000236565b60005b82811015620004c4578489015182556001820191506020850194506020810190506200049d565b86831015620004e45784890151620004e0601f891682620003d4565b8355505b6001600288020188555050505b505050505050565b6139ec80620005096000396000f3fe608060405234801561001057600080fd5b506004361061012c5760003560e01c8063715018a6116100ad578063c87b56dd11610071578063c87b56dd1461034d578063c9241a5a1461037d578063e787b5c714610399578063e985e9c5146103c9578063f2fde38b146103f95761012c565b8063715018a6146102cf5780638da5cb5b146102d957806395d89b41146102f7578063a22cb46514610315578063b88d4fde146103315761012c565b806342842e0e116100f457806342842e0e146101e757806351640fee146102035780636352211e14610239578063663b3e221461026957806370a082311461029f5761012c565b806301ffc9a71461013157806306fdde0314610161578063081812fc1461017f578063095ea7b3146101af57806323b872dd146101cb575b600080fd5b61014b6004803603810190610146919061231a565b610415565b6040516101589190612362565b60405180910390f35b6101696104f7565b604051610176919061240d565b60405180910390f35b61019960048036038101906101949190612465565b610589565b6040516101a691906124d3565b60405180910390f35b6101c960048036038101906101c4919061251a565b6105cf565b005b6101e560048036038101906101e0919061255a565b6106e6565b005b61020160048036038101906101fc919061255a565b610746565b005b61021d60048036038101906102189190612465565b610766565b60405161023097969594939291906125d5565b60405180910390f35b610253600480360381019061024e9190612465565b6108af565b60405161026091906124d3565b60405180910390f35b610283600480360381019061027e9190612465565b610935565b60405161029697969594939291906125d5565b60405180910390f35b6102b960048036038101906102b4919061264b565b610a0c565b6040516102c69190612678565b60405180910390f35b6102d7610ac3565b005b6102e1610ad7565b6040516102ee91906124d3565b60405180910390f35b6102ff610b01565b60405161030c919061240d565b60405180910390f35b61032f600480360381019061032a91906126bf565b610b93565b005b61034b60048036038101906103469190612834565b610ba9565b005b61036760048036038101906103629190612465565b610c0b565b604051610374919061240d565b60405180910390f35b61039760048036038101906103929190612465565b610e27565b005b6103b360048036038101906103ae9190612984565b610f80565b6040516103c09190612678565b60405180910390f35b6103e360048036038101906103de9190612a2d565b6111a3565b6040516103f09190612362565b60405180910390f35b610413600480360381019061040e919061264b565b611237565b005b60007f80ac58cd000000000000000000000000000000000000000000000000000000007bffffffffffffffffffffffffffffffffffffffffffffffffffffffff1916827bffffffffffffffffffffffffffffffffffffffffffffffffffffffff191614806104e057507f5b5e139f000000000000000000000000000000000000000000000000000000007bffffffffffffffffffffffffffffffffffffffffffffffffffffffff1916827bffffffffffffffffffffffffffffffffffffffffffffffffffffffff1916145b806104f057506104ef826112ba565b5b9050919050565b60606000805461050690612a9c565b80601f016020809104026020016040519081016040528092919081815260200182805461053290612a9c565b801561057f5780601f106105545761010080835404028352916020019161057f565b820191906000526020600020905b81548152906001019060200180831161056257829003601f168201915b5050505050905090565b600061059482611324565b6004600083815260200190815260200160002060009054906101000a900473ffffffffffffffffffffffffffffffffffffffff169050919050565b60006105da826108af565b90508073ffffffffffffffffffffffffffffffffffffffff168373ffffffffffffffffffffffffffffffffffffffff160361064a576040517f08c379a000000000000000000000000000000000000000000000000000000000815260040161064190612b3f565b60405180910390fd5b8073ffffffffffffffffffffffffffffffffffffffff1661066961136f565b73ffffffffffffffffffffffffffffffffffffffff16148061069857506106978161069261136f565b6111a3565b5b6106d7576040517f08c379a00000000000000000000000000000000000000000000000000000000081526004016106ce90612bd1565b60405180910390fd5b6106e18383611377565b505050565b6106f76106f161136f565b82611430565b610736576040517f08c379a000000000000000000000000000000000000000000000000000000000815260040161072d90612c63565b60405180910390fd5b6107418383836114c5565b505050565b61076183838360405180602001604052806000815250610ba9565b505050565b60008060006060600080600080600860008a81526020019081526020016000206040518060e00160405290816000820154815260200160018201548152602001600282015481526020016003820180546107bf90612a9c565b80601f01602080910402602001604051908101604052809291908181526020018280546107eb90612a9c565b80156108385780601f1061080d57610100808354040283529160200191610838565b820191906000526020600020905b81548152906001019060200180831161081b57829003601f168201915b5050505050815260200160048201548152602001600582015481526020016006820160009054906101000a900460ff1615151515815250509050806000015181602001518260400151836060015184608001518560a001518660c00151975097509750975097509750975050919395979092949650565b6000806108bb836117be565b9050600073ffffffffffffffffffffffffffffffffffffffff168173ffffffffffffffffffffffffffffffffffffffff160361092c576040517f08c379a000000000000000000000000000000000000000000000000000000000815260040161092390612ccf565b60405180910390fd5b80915050919050565b600860205280600052604060002060009150905080600001549080600101549080600201549080600301805461096a90612a9c565b80601f016020809104026020016040519081016040528092919081815260200182805461099690612a9c565b80156109e35780601f106109b8576101008083540402835291602001916109e3565b820191906000526020600020905b8154815290600101906020018083116109c657829003601f168201915b5050505050908060040154908060050154908060060160009054906101000a900460ff16905087565b60008073ffffffffffffffffffffffffffffffffffffffff168273ffffffffffffffffffffffffffffffffffffffff1603610a7c576040517f08c379a0000000000000000000000000000000000000000000000000000000008152600401610a7390612d61565b60405180910390fd5b600360008373ffffffffffffffffffffffffffffffffffffffff1673ffffffffffffffffffffffffffffffffffffffff168152602001908152602001600020549050919050565b610acb6117fb565b610ad56000611879565b565b6000600660009054906101000a900473ffffffffffffffffffffffffffffffffffffffff16905090565b606060018054610b1090612a9c565b80601f0160208091040260200160405190810160405280929190818152602001828054610b3c90612a9c565b8015610b895780601f10610b5e57610100808354040283529160200191610b89565b820191906000526020600020905b815481529060010190602001808311610b6c57829003601f168201915b5050505050905090565b610ba5610b9e61136f565b838361193f565b5050565b610bba610bb461136f565b83611430565b610bf9576040517f08c379a0000000000000000000000000000000000000000000000000000000008152600401610bf090612c63565b60405180910390fd5b610c0584848484611aab565b50505050565b6060610c1682611b07565b610c55576040517f08c379a0000000000000000000000000000000000000000000000000000000008152600401610c4c90612dcd565b60405180910390fd5b6000600860008481526020019081526020016000206040518060e0016040529081600082015481526020016001820154815260200160028201548152602001600382018054610ca390612a9c565b80601f0160208091040260200160405190810160405280929190818152602001828054610ccf90612a9c565b8015610d1c5780601f10610cf157610100808354040283529160200191610d1c565b820191906000526020600020905b815481529060010190602001808311610cff57829003601f168201915b5050505050815260200160048201548152602001600582015481526020016006820160009054906101000a900460ff161515151581525050905060006001826000015114610d9f576040518060400160405280600681526020017f53696c7665720000000000000000000000000000000000000000000000000000815250610dd6565b6040518060400160405280600481526020017f476f6c64000000000000000000000000000000000000000000000000000000008152505b9050610de184611b48565b81610def8460200151611b48565b610dfc8560400151611b48565b604051602001610e0f9493929190612f7f565b60405160208183030381529060405292505050919050565b3373ffffffffffffffffffffffffffffffffffffffff16610e47826108af565b73ffffffffffffffffffffffffffffffffffffffff1614610e9d576040517f08c379a0000000000000000000000000000000000000000000000000000000008152600401610e9490613035565b60405180910390fd5b6008600082815260200190815260200160002060060160009054906101000a900460ff1615610f01576040517f08c379a0000000000000000000000000000000000000000000000000000000008152600401610ef8906130a1565b60405180910390fd5b60016008600083815260200190815260200160002060060160006101000a81548160ff021916908315150217905550610f3981611c16565b3373ffffffffffffffffffffffffffffffffffffffff16817fac3733e7017eefc2974417ad9ec0f66196427b088313358091a1c48822d4d0fb60405160405180910390a350565b6000610f8a6117fb565b6001861480610f995750600286145b610fd8576040517f08c379a0000000000000000000000000000000000000000000000000000000008152600401610fcf9061310d565b60405180910390fd5b6000851161101b576040517f08c379a000000000000000000000000000000000000000000000000000000000815260040161101290613179565b60405180910390fd5b610384841015801561102f57506103e88411155b61106e576040517f08c379a0000000000000000000000000000000000000000000000000000000008152600401611065906131e5565b60405180910390fd5b6110786007611d64565b60006110846007611d7a565b90506040518060e001604052808881526020018781526020018681526020018581526020014281526020018481526020016000151581525060086000838152602001908152602001600020600082015181600001556020820151816001015560408201518160020155606082015181600301908161110291906133b1565b506080820151816004015560a0820151816005015560c08201518160060160006101000a81548160ff0219169083151502179055509050506111448882611d88565b8773ffffffffffffffffffffffffffffffffffffffff16817ff11aa7292c73fead4c451b6c63413821173ffa6003d0b4b2fae9470c93c8d1bf898960405161118d929190613483565b60405180910390a3809150509695505050505050565b6000600560008473ffffffffffffffffffffffffffffffffffffffff1673ffffffffffffffffffffffffffffffffffffffff16815260200190815260200160002060008373ffffffffffffffffffffffffffffffffffffffff1673ffffffffffffffffffffffffffffffffffffffff16815260200190815260200160002060009054906101000a900460ff16905092915050565b61123f6117fb565b600073ffffffffffffffffffffffffffffffffffffffff168173ffffffffffffffffffffffffffffffffffffffff16036112ae576040517f08c379a00000000000000000000000000000000000000000000000000000000081526004016112a59061351e565b60405180910390fd5b6112b781611879565b50565b60007f01ffc9a7000000000000000000000000000000000000000000000000000000007bffffffffffffffffffffffffffffffffffffffffffffffffffffffff1916827bffffffffffffffffffffffffffffffffffffffffffffffffffffffff1916149050919050565b61132d81611b07565b61136c576040517f08c379a000000000000000000000000000000000000000000000000000000000815260040161136390612ccf565b60405180910390fd5b50565b600033905090565b816004600083815260200190815260200160002060006101000a81548173ffffffffffffffffffffffffffffffffffffffff021916908373ffffffffffffffffffffffffffffffffffffffff160217905550808273ffffffffffffffffffffffffffffffffffffffff166113ea836108af565b73ffffffffffffffffffffffffffffffffffffffff167f8c5be1e5ebec7d5bd14f71427d1e84f3dd0314c0f7b2291e5b200ac8c7c3b92560405160405180910390a45050565b60008061143c836108af565b90508073ffffffffffffffffffffffffffffffffffffffff168473ffffffffffffffffffffffffffffffffffffffff16148061147e575061147d81856111a3565b5b806114bc57508373ffffffffffffffffffffffffffffffffffffffff166114a484610589565b73ffffffffffffffffffffffffffffffffffffffff16145b91505092915050565b8273ffffffffffffffffffffffffffffffffffffffff166114e5826108af565b73ffffffffffffffffffffffffffffffffffffffff161461153b576040517f08c379a0000000000000000000000000000000000000000000000000000000008152600401611532906135b0565b60405180910390fd5b600073ffffffffffffffffffffffffffffffffffffffff168273ffffffffffffffffffffffffffffffffffffffff16036115aa576040517f08c379a00000000000000000000000000000000000000000000000000000000081526004016115a190613642565b60405180910390fd5b6115b78383836001611fa5565b8273ffffffffffffffffffffffffffffffffffffffff166115d7826108af565b73ffffffffffffffffffffffffffffffffffffffff161461162d576040517f08c379a0000000000000000000000000000000000000000000000000000000008152600401611624906135b0565b60405180910390fd5b6004600082815260200190815260200160002060006101000a81549073ffffffffffffffffffffffffffffffffffffffff02191690556001600360008573ffffffffffffffffffffffffffffffffffffffff1673ffffffffffffffffffffffffffffffffffffffff168152602001908152602001600020600082825403925050819055506001600360008473ffffffffffffffffffffffffffffffffffffffff1673ffffffffffffffffffffffffffffffffffffffff16815260200190815260200160002060008282540192505081905550816002600083815260200190815260200160002060006101000a81548173ffffffffffffffffffffffffffffffffffffffff021916908373ffffffffffffffffffffffffffffffffffffffff160217905550808273ffffffffffffffffffffffffffffffffffffffff168473ffffffffffffffffffffffffffffffffffffffff167fddf252ad1be2c89b69c2b068fc378daa952ba7f163c4a11628f55a4df523b3ef60405160405180910390a46117b98383836001611fab565b505050565b60006002600083815260200190815260200160002060009054906101000a900473ffffffffffffffffffffffffffffffffffffffff169050919050565b61180361136f565b73ffffffffffffffffffffffffffffffffffffffff16611821610ad7565b73ffffffffffffffffffffffffffffffffffffffff1614611877576040517f08c379a000000000000000000000000000000000000000000000000000000000815260040161186e906136ae565b60405180910390fd5b565b6000600660009054906101000a900473ffffffffffffffffffffffffffffffffffffffff16905081600660006101000a81548173ffffffffffffffffffffffffffffffffffffffff021916908373ffffffffffffffffffffffffffffffffffffffff1602179055508173ffffffffffffffffffffffffffffffffffffffff168173ffffffffffffffffffffffffffffffffffffffff167f8be0079c531659141344cd1fd0a4f28419497f9722a3daafe3b4186f6b6457e060405160405180910390a35050565b8173ffffffffffffffffffffffffffffffffffffffff168373ffffffffffffffffffffffffffffffffffffffff16036119ad576040517f08c379a00000000000000000000000000000000000000000000000000000000081526004016119a49061371a565b60405180910390fd5b80600560008573ffffffffffffffffffffffffffffffffffffffff1673ffffffffffffffffffffffffffffffffffffffff16815260200190815260200160002060008473ffffffffffffffffffffffffffffffffffffffff1673ffffffffffffffffffffffffffffffffffffffff16815260200190815260200160002060006101000a81548160ff0219169083151502179055508173ffffffffffffffffffffffffffffffffffffffff168373ffffffffffffffffffffffffffffffffffffffff167f17307eab39ab6107e8899845ad3d59bd9653f200f220920489ca2b5937696c3183604051611a9e9190612362565b60405180910390a3505050565b611ab68484846114c5565b611ac284848484611fb1565b611b01576040517f08c379a0000000000000000000000000000000000000000000000000000000008152600401611af8906137ac565b60405180910390fd5b50505050565b60008073ffffffffffffffffffffffffffffffffffffffff16611b29836117be565b73ffffffffffffffffffffffffffffffffffffffff1614159050919050565b606060006001611b5784612138565b01905060008167ffffffffffffffff811115611b7657611b75612709565b5b6040519080825280601f01601f191660200182016040528015611ba85781602001600182028036833780820191505090505b509050600082602001820190505b600115611c0b578080600190039150507f3031323334353637383961626364656600000000000000000000000000000000600a86061a8153600a8581611bff57611bfe6137cc565b5b04945060008503611bb6575b819350505050919050565b6000611c21826108af565b9050611c31816000846001611fa5565b611c3a826108af565b90506004600083815260200190815260200160002060006101000a81549073ffffffffffffffffffffffffffffffffffffffff02191690556001600360008373ffffffffffffffffffffffffffffffffffffffff1673ffffffffffffffffffffffffffffffffffffffff168152602001908152602001600020600082825403925050819055506002600083815260200190815260200160002060006101000a81549073ffffffffffffffffffffffffffffffffffffffff021916905581600073ffffffffffffffffffffffffffffffffffffffff168273ffffffffffffffffffffffffffffffffffffffff167fddf252ad1be2c89b69c2b068fc378daa952ba7f163c4a11628f55a4df523b3ef60405160405180910390a4611d60816000846001611fab565b5050565b6001816000016000828254019250508190555050565b600081600001549050919050565b600073ffffffffffffffffffffffffffffffffffffffff168273ffffffffffffffffffffffffffffffffffffffff1603611df7576040517f08c379a0000000000000000000000000000000000000000000000000000000008152600401611dee90613847565b60405180910390fd5b611e0081611b07565b15611e40576040517f08c379a0000000000000000000000000000000000000000000000000000000008152600401611e37906138b3565b60405180910390fd5b611e4e600083836001611fa5565b611e5781611b07565b15611e97576040517f08c379a0000000000000000000000000000000000000000000000000000000008152600401611e8e906138b3565b60405180910390fd5b6001600360008473ffffffffffffffffffffffffffffffffffffffff1673ffffffffffffffffffffffffffffffffffffffff16815260200190815260200160002060008282540192505081905550816002600083815260200190815260200160002060006101000a81548173ffffffffffffffffffffffffffffffffffffffff021916908373ffffffffffffffffffffffffffffffffffffffff160217905550808273ffffffffffffffffffffffffffffffffffffffff16600073ffffffffffffffffffffffffffffffffffffffff167fddf252ad1be2c89b69c2b068fc378daa952ba7f163c4a11628f55a4df523b3ef60405160405180910390a4611fa1600083836001611fab565b5050565b50505050565b50505050565b6000611fd28473ffffffffffffffffffffffffffffffffffffffff1661228b565b1561212b578373ffffffffffffffffffffffffffffffffffffffff1663150b7a02611ffb61136f565b8786866040518563ffffffff1660e01b815260040161201d9493929190613928565b6020604051808303816000875af192505050801561205957506040513d601f19601f820116820180604052508101906120569190613989565b60015b6120db573d8060008114612089576040519150601f19603f3d011682016040523d82523d6000602084013e61208e565b606091505b5060008151036120d3576040517f08c379a00000000000000000000000000000000000000000000000000000000081526004016120ca906137ac565b60405180910390fd5b805181602001fd5b63150b7a0260e01b7bffffffffffffffffffffffffffffffffffffffffffffffffffffffff1916817bffffffffffffffffffffffffffffffffffffffffffffffffffffffff191614915050612130565b600190505b949350505050565b600080600090507a184f03e93ff9f4daa797ed6e38ed64bf6a1f0100000000000000008310612196577a184f03e93ff9f4daa797ed6e38ed64bf6a1f010000000000000000838161218c5761218b6137cc565b5b0492506040810190505b6d04ee2d6d415b85acef810000000083106121d3576d04ee2d6d415b85acef810000000083816121c9576121c86137cc565b5b0492506020810190505b662386f26fc10000831061220257662386f26fc1000083816121f8576121f76137cc565b5b0492506010810190505b6305f5e100831061222b576305f5e1008381612221576122206137cc565b5b0492506008810190505b6127108310612250576127108381612246576122456137cc565b5b0492506004810190505b606483106122735760648381612269576122686137cc565b5b0492506002810190505b600a8310612282576001810190505b80915050919050565b6000808273ffffffffffffffffffffffffffffffffffffffff163b119050919050565b6000604051905090565b600080fd5b600080fd5b60007fffffffff0000000000000000000000000000000000000000000000000000000082169050919050565b6122f7816122c2565b811461230257600080fd5b50565b600081359050612314816122ee565b92915050565b6000602082840312156123305761232f6122b8565b5b600061233e84828501612305565b91505092915050565b60008115159050919050565b61235c81612347565b82525050565b60006020820190506123776000830184612353565b92915050565b600081519050919050565b600082825260208201905092915050565b60005b838110156123b757808201518184015260208101905061239c565b60008484015250505050565b6000601f19601f8301169050919050565b60006123df8261237d565b6123e98185612388565b93506123f9818560208601612399565b612402816123c3565b840191505092915050565b6000602082019050818103600083015261242781846123d4565b905092915050565b6000819050919050565b6124428161242f565b811461244d57600080fd5b50565b60008135905061245f81612439565b92915050565b60006020828403121561247b5761247a6122b8565b5b600061248984828501612450565b91505092915050565b600073ffffffffffffffffffffffffffffffffffffffff82169050919050565b60006124bd82612492565b9050919050565b6124cd816124b2565b82525050565b60006020820190506124e860008301846124c4565b92915050565b6124f7816124b2565b811461250257600080fd5b50565b600081359050612514816124ee565b92915050565b60008060408385031215612531576125306122b8565b5b600061253f85828601612505565b925050602061255085828601612450565b9150509250929050565b600080600060608486031215612573576125726122b8565b5b600061258186828701612505565b935050602061259286828701612505565b92505060406125a386828701612450565b9150509250925092565b6125b68161242f565b82525050565b6000819050919050565b6125cf816125bc565b82525050565b600060e0820190506125ea600083018a6125ad565b6125f760208301896125ad565b61260460408301886125ad565b818103606083015261261681876123d4565b905061262560808301866125ad565b61263260a08301856125c6565b61263f60c0830184612353565b98975050505050505050565b600060208284031215612661576126606122b8565b5b600061266f84828501612505565b91505092915050565b600060208201905061268d60008301846125ad565b92915050565b61269c81612347565b81146126a757600080fd5b50565b6000813590506126b981612693565b92915050565b600080604083850312156126d6576126d56122b8565b5b60006126e485828601612505565b92505060206126f5858286016126aa565b9150509250929050565b600080fd5b600080fd5b7f4e487b7100000000000000000000000000000000000000000000000000000000600052604160045260246000fd5b612741826123c3565b810181811067ffffffffffffffff821117156127605761275f612709565b5b80604052505050565b60006127736122ae565b905061277f8282612738565b919050565b600067ffffffffffffffff82111561279f5761279e612709565b5b6127a8826123c3565b9050602081019050919050565b82818337600083830152505050565b60006127d76127d284612784565b612769565b9050828152602081018484840111156127f3576127f2612704565b5b6127fe8482856127b5565b509392505050565b600082601f83011261281b5761281a6126ff565b5b813561282b8482602086016127c4565b91505092915050565b6000806000806080858703121561284e5761284d6122b8565b5b600061285c87828801612505565b945050602061286d87828801612505565b935050604061287e87828801612450565b925050606085013567ffffffffffffffff81111561289f5761289e6122bd565b5b6128ab87828801612806565b91505092959194509250565b600067ffffffffffffffff8211156128d2576128d1612709565b5b6128db826123c3565b9050602081019050919050565b60006128fb6128f6846128b7565b612769565b90508281526020810184848401111561291757612916612704565b5b6129228482856127b5565b509392505050565b600082601f83011261293f5761293e6126ff565b5b813561294f8482602086016128e8565b91505092915050565b612961816125bc565b811461296c57600080fd5b50565b60008135905061297e81612958565b92915050565b60008060008060008060c087890312156129a1576129a06122b8565b5b60006129af89828a01612505565b96505060206129c089828a01612450565b95505060406129d189828a01612450565b94505060606129e289828a01612450565b935050608087013567ffffffffffffffff811115612a0357612a026122bd565b5b612a0f89828a0161292a565b92505060a0612a2089828a0161296f565b9150509295509295509295565b60008060408385031215612a4457612a436122b8565b5b6000612a5285828601612505565b9250506020612a6385828601612505565b9150509250929050565b7f4e487b7100000000000000000000000000000000000000000000000000000000600052602260045260246000fd5b60006002820490506001821680612ab457607f821691505b602082108103612ac757612ac6612a6d565b5b50919050565b7f4552433732313a20617070726f76616c20746f2063757272656e74206f776e6560008201527f7200000000000000000000000000000000000000000000000000000000000000602082015250565b6000612b29602183612388565b9150612b3482612acd565b604082019050919050565b60006020820190508181036000830152612b5881612b1c565b9050919050565b7f4552433732313a20617070726f76652063616c6c6572206973206e6f7420746f60008201527f6b656e206f776e6572206f7220617070726f76656420666f7220616c6c000000602082015250565b6000612bbb603d83612388565b9150612bc682612b5f565b604082019050919050565b60006020820190508181036000830152612bea81612bae565b9050919050565b7f4552433732313a2063616c6c6572206973206e6f7420746f6b656e206f776e6560008201527f72206f7220617070726f76656400000000000000000000000000000000000000602082015250565b6000612c4d602d83612388565b9150612c5882612bf1565b604082019050919050565b60006020820190508181036000830152612c7c81612c40565b9050919050565b7f4552433732313a20696e76616c696420746f6b656e2049440000000000000000600082015250565b6000612cb9601883612388565b9150612cc482612c83565b602082019050919050565b60006020820190508181036000830152612ce881612cac565b9050919050565b7f4552433732313a2061646472657373207a65726f206973206e6f74206120766160008201527f6c6964206f776e65720000000000000000000000000000000000000000000000602082015250565b6000612d4b602983612388565b9150612d5682612cef565b604082019050919050565b60006020820190508181036000830152612d7a81612d3e565b9050919050565b7f546f6b656e20646f6573206e6f74206578697374000000000000000000000000600082015250565b6000612db7601483612388565b9150612dc282612d81565b602082019050919050565b60006020820190508181036000830152612de681612daa565b9050919050565b600081905092915050565b7f68747470733a2f2f6170692e676f642d746f6b656e2d636f696e2e636f6d2f6d60008201527f657461646174612f000000000000000000000000000000000000000000000000602082015250565b6000612e54602883612ded565b9150612e5f82612df8565b602882019050919050565b6000612e758261237d565b612e7f8185612ded565b9350612e8f818560208601612399565b80840191505092915050565b7f3f6d6574616c3d00000000000000000000000000000000000000000000000000600082015250565b6000612ed1600783612ded565b9150612edc82612e9b565b600782019050919050565b7f267765696768743d000000000000000000000000000000000000000000000000600082015250565b6000612f1d600883612ded565b9150612f2882612ee7565b600882019050919050565b7f267075726974793d000000000000000000000000000000000000000000000000600082015250565b6000612f69600883612ded565b9150612f7482612f33565b600882019050919050565b6000612f8a82612e47565b9150612f968287612e6a565b9150612fa182612ec4565b9150612fad8286612e6a565b9150612fb882612f10565b9150612fc48285612e6a565b9150612fcf82612f5c565b9150612fdb8284612e6a565b915081905095945050505050565b7f4e6f7420746865206f776e657200000000000000000000000000000000000000600082015250565b600061301f600d83612388565b915061302a82612fe9565b602082019050919050565b6000602082019050818103600083015261304e81613012565b9050919050565b7f416c72656164792072656465656d656400000000000000000000000000000000600082015250565b600061308b601083612388565b915061309682613055565b602082019050919050565b600060208201905081810360008301526130ba8161307e565b9050919050565b7f496e76616c6964206d6574616c20747970650000000000000000000000000000600082015250565b60006130f7601283612388565b9150613102826130c1565b602082019050919050565b60006020820190508181036000830152613126816130ea565b9050919050565b7f576569676874206d75737420626520706f736974697665000000000000000000600082015250565b6000613163601783612388565b915061316e8261312d565b602082019050919050565b6000602082019050818103600083015261319281613156565b9050919050565b7f496e76616c696420707572697479000000000000000000000000000000000000600082015250565b60006131cf600e83612388565b91506131da82613199565b602082019050919050565b600060208201905081810360008301526131fe816131c2565b9050919050565b60008190508160005260206000209050919050565b60006020601f8301049050919050565b600082821b905092915050565b6000600883026132677fffffffffffffffffffffffffffffffffffffffffffffffffffffffffffffffff8261322a565b613271868361322a565b95508019841693508086168417925050509392505050565b6000819050919050565b60006132ae6132a96132a48461242f565b613289565b61242f565b9050919050565b6000819050919050565b6132c883613293565b6132dc6132d4826132b5565b848454613237565b825550505050565b600090565b6132f16132e4565b6132fc8184846132bf565b505050565b5b81811015613320576133156000826132e9565b600181019050613302565b5050565b601f8211156133655761333681613205565b61333f8461321a565b8101602085101561334e578190505b61336261335a8561321a565b830182613301565b50505b505050565b600082821c905092915050565b60006133886000198460080261336a565b1980831691505092915050565b60006133a18383613377565b9150826002028217905092915050565b6133ba8261237d565b67ffffffffffffffff8111156133d3576133d2612709565b5b6133dd8254612a9c565b6133e8828285613324565b600060209050601f83116001811461341b5760008415613409578287015190505b6134138582613395565b86555061347b565b601f19841661342986613205565b60005b828110156134515784890151825560018201915060208501945060208101905061342c565b8683101561346e578489015161346a601f891682613377565b8355505b6001600288020188555050505b505050505050565b600060408201905061349860008301856125ad565b6134a560208301846125ad565b9392505050565b7f4f776e61626c653a206e6577206f776e657220697320746865207a65726f206160008201527f6464726573730000000000000000000000000000000000000000000000000000602082015250565b6000613508602683612388565b9150613513826134ac565b604082019050919050565b60006020820190508181036000830152613537816134fb565b9050919050565b7f4552433732313a207472616e736665722066726f6d20696e636f72726563742060008201527f6f776e6572000000000000000000000000000000000000000000000000000000602082015250565b600061359a602583612388565b91506135a58261353e565b604082019050919050565b600060208201905081810360008301526135c98161358d565b9050919050565b7f4552433732313a207472616e7366657220746f20746865207a65726f2061646460008201527f7265737300000000000000000000000000000000000000000000000000000000602082015250565b600061362c602483612388565b9150613637826135d0565b604082019050919050565b6000602082019050818103600083015261365b8161361f565b9050919050565b7f4f776e61626c653a2063616c6c6572206973206e6f7420746865206f776e6572600082015250565b6000613698602083612388565b91506136a382613662565b602082019050919050565b600060208201905081810360008301526136c78161368b565b9050919050565b7f4552433732313a20617070726f766520746f2063616c6c657200000000000000600082015250565b6000613704601983612388565b915061370f826136ce565b602082019050919050565b60006020820190508181036000830152613733816136f7565b9050919050565b7f4552433732313a207472616e7366657220746f206e6f6e20455243373231526560008201527f63656976657220696d706c656d656e7465720000000000000000000000000000602082015250565b6000613796603283612388565b91506137a18261373a565b604082019050919050565b600060208201905081810360008301526137c581613789565b9050919050565b7f4e487b7100000000000000000000000000000000000000000000000000000000600052601260045260246000fd5b7f4552433732313a206d696e7420746f20746865207a65726f2061646472657373600082015250565b6000613831602083612388565b915061383c826137fb565b602082019050919050565b6000602082019050818103600083015261386081613824565b9050919050565b7f4552433732313a20746f6b656e20616c7265616479206d696e74656400000000600082015250565b600061389d601c83612388565b91506138a882613867565b602082019050919050565b600060208201905081810360008301526138cc81613890565b9050919050565b600081519050919050565b600082825260208201905092915050565b60006138fa826138d3565b61390481856138de565b9350613914818560208601612399565b61391d816123c3565b840191505092915050565b600060808201905061393d60008301876124c4565b61394a60208301866124c4565b61395760408301856125ad565b818103606083015261396981846138ef565b905095945050505050565b600081519050613983816122ee565b92915050565b60006020828403121561399f5761399e6122b8565b5b60006139ad84828501613974565b9150509291505056fea26469706673582212200cff1011ed824aebe55d11d934013b767c1ad8828dd0c7ab43c9d57c5233614764736f6c63430008130033",
  "linkReferences": {},
  "deployedLinkReferences": {}
}