{
  "_format": "hh-sol-artifact-1",
  "contractName": "AIVerifier",
  "sourceName": "contracts/AIVerifier.sol",
  "abi": [
    {
      "inputs": [],
      "stateMutability": "nonpayable",
      "type": "constructor"
    },
    {
      "anonymous": false,
      "inputs": [
        {
          "indexed": true,
          "internalType": "address",
          "name": "previousOwner",
          "type": "address"
        },
        {
          "indexed": true,
          "internalType": "address",
          "name": "newOwner",
          "type": "address"
        }
      ],
      "name": "OwnershipTransferred",
      "type": "event"
    },
    {
      "anonymous": false,
      "inputs": [
        {
          "indexed": true,
          "internalType": "bytes32",
          "name": "requestId",
          "type": "bytes32"
        },
        {
          "indexed": false,
          "internalType": "bool",
          "name": "approved",
          "type": "bool"
        }
      ],
      "name": "VerificationCompleted",
      "type": "event"
    },
    {
      "anonymous": false,
      "inputs": [
        {
          "indexed": true,
          "internalType": "bytes32",
          "name": "requestId",
          "type": "bytes32"
        },
        {
          "indexed": true,
          "internalType": "address",
          "name": "requester",
          "type": "address"
        }
      ],
      "name": "VerificationRequested",
      "type": "event"
    },
    {
      "anonymous": false,
      "inputs": [
        {
          "indexed": true,
          "internalType": "address",
          "name": "verifier",
          "type": "address"
        }
      ],
      "name": "VerifierAuthorized",
      "type": "event"
    },
    {
      "anonymous": false,
      "inputs": [
        {
          "indexed": true,
          "internalType": "address",
          "name": "verifier",
          "type": "address"
        }
      ],
      "name": "VerifierRevoked",
      "type": "event"
    },
    {
      "inputs": [
        {
          "internalType": "address",
          "name": "_verifier",
          "type": "address"
        }
      ],
      "name": "authorizeVerifier",
      "outputs": [],
      "stateMutability": "nonpayable",
      "type": "function"
    },
    {
      "inputs": [
        {
          "internalType": "address",
          "name": "",
          "type": "address"
        }
      ],
      "name": "authorizedVerifiers",
      "outputs": [
        {
          "internalType": "bool",
          "name": "",
          "type": "bool"
        }
      ],
      "stateMutability": "view",
      "type": "function"
    },
    {
      "inputs": [
        {
          "internalType": "bytes32",
          "name": "_requestId",
          "type": "bytes32"
        }
      ],
      "name": "getVerificationRequest",
      "outputs": [
        {
          "internalType": "address",
          "name": "requester",
          "type": "address"
        },
        {
          "internalType": "uint256",
          "name": "metalType",
          "type": "uint256"
        },
        {
          "internalType": "uint256",
          "name": "weight",
          "type": "uint256"
        },
        {
          "internalType": "uint256",
          "name": "purity",
          "type": "uint256"
        },
        {
          "internalType": "bytes32",
          "name": "sensorDataHash",
          "type": "bytes32"
        },
        {
          "internalType": "uint256",
          "name": "timestamp",
          "type": "uint256"
        },
        {
          "internalType": "bool",
          "name": "processed",
          "type": "bool"
        },
        {
          "internalType": "bool",
          "name": "approved",
          "type": "bool"
        },
        {
          "internalType": "bytes32",
          "name": "verificationId",
          "type": "bytes32"
        }
      ],
      "stateMutability": "view",
      "type": "function"
    },
    {
      "inputs": [],
      "name": "owner",
      "outputs": [
        {
          "internalType": "address",
          "name": "",
          "type": "address"
        }
      ],
      "stateMutability": "view",
      "type": "function"
    },
    {
      "inputs": [],
      "name": "renounceOwnership",
      "outputs": [],
      "stateMutability": "nonpayable",
      "type": "function"
    },
    {
      "inputs": [],
      "name": "requestCount",
      "outputs": [
        {
          "internalType": "uint256",
          "name": "",
          "type": "uint256"
        }
      ],
      "stateMutability": "view",
      "type": "function"
    },
    {
      "inputs": [
        {
          "internalType": "uint256",
          "name": "_metalType",
          "type": "uint256"
        },
        {
          "internalType": "uint256",
          "name": "_weight",
          "type": "uint256"
        },
        {
          "internalType": "uint256",
          "name": "_purity",
          "type": "uint256"
        },
        {
          "internalType": "bytes32",
          "name": "_sensorDataHash",
          "type": "bytes32"
        }
      ],
      "name": "requestVerification",
      "outputs": [
        {
          "internalType": "bytes32",
          "name": "",
          "type": "bytes32"
        }
      ],
      "stateMutability": "payable",
      "type": "function"
    },
    {
      "inputs": [
        {
          "internalType": "bytes32",
          "name": "",
          "type": "bytes32"
        }
      ],
      "name": "requests",
      "outputs": [
        {
          "internalType": "address",
          "name": "requester",
          "type": "address"
        },
        {
          "internalType": "uint256",
          "name": "metalType",
          "type": "uint256"
        },
        {
          "internalType": "uint256",
          "name": "weight",
          "type": "uint256"
        },
        {
          "internalType": "uint256",
          "name": "purity",
          "type": "uint256"
        },
        {
          "internalType": "bytes32",
          "name": "sensorDataHash",
          "type": "bytes32"
        },
        {
          "internalType": "uint256",
          "name": "timestamp",
          "type": "uint256"
        },
        {
          "internalType": "bool",
          "name": "processed",
          "type": "bool"
        },
        {
          "internalType": "bool",
          "name": "approved",
          "type": "bool"
        },
        {
          "internalType": "bytes32",
          "name": "verificationId",
          "type": "bytes32"
        }
      ],
      "stateMutability": "view",
      "type": "function"
    },
    {
      "inputs": [
        {
          "internalType": "address",
          "name": "_verifier",
          "type": "address"
        }
      ],
      "name": "revokeVerifier",
      "outputs": [],
      "stateMutability": "nonpayable",
      "type": "function"
    },
    {
      "inputs": [
        {
          "internalType": "uint256",
          "name": "_fee",
          "type": "uint256"
        }
      ],
      "name": "setVerificationFee",
      "outputs": [],
      "stateMutability": "nonpayable",
      "type": "function"
    },
    {
      "inputs": [
        {
          "internalType": "bytes32",
          "name": "_requestId",
          "type": "bytes32"
        },
        {
          "internalType": "bool",
          "name": "_approved",
          "type": "bool"
        },
        {
          "internalType": "bytes32",
          "name": "_verificationId",
          "type": "bytes32"
        }
      ],
      "name": "submitVerification",
      "outputs": [],
      "stateMutability": "nonpayable",
      "type": "function"
    },
    {
      "inputs": [
        {
          "internalType": "address",
          "name": "newOwner",
          "type": "address"
        }
      ],
      "name": "transferOwnership",
      "outputs": [],
      "stateMutability": "nonpayable",
      "type": "function"
    },
    {
      "inputs": [],
      "name": "verificationFee",
      "outputs": [
        {
          "internalType": "uint256",
          "name": "",
          "type": "uint256"
        }
      ],
      "stateMutability": "view",
      "type": "function"
    },
    {
      "inputs": [],
      "name": "withdrawFees",
      "outputs": [],
      "stateMutability": "nonpayable",
      "type": "function"
    }
  ],
  "bytecode": "0x6080604052662386f26fc1000060045534801561001b57600080fd5b5061003861002d61009c60201b60201c565b6100a460201b60201c565b600180819055506001600360003373ffffffffffffffffffffffffffffffffffffffff1673ffffffffffffffffffffffffffffffffffffffff16815260200190815260200160002060006101000a81548160ff021916908315150217905550610168565b600033905090565b60008060009054906101000a900473ffffffffffffffffffffffffffffffffffffffff169050816000806101000a81548173ffffffffffffffffffffffffffffffffffffffff021916908373ffffffffffffffffffffffffffffffffffffffff1602179055508173ffffffffffffffffffffffffffffffffffffffff168173ffffffffffffffffffffffffffffffffffffffff167f8be0079c531659141344cd1fd0a4f28419497f9722a3daafe3b4186f6b6457e060405160405180910390a35050565b6118dd806101776000396000f3fe6080604052600436106100dd5760003560e01c80639d8669851161007f578063aae9d5f211610059578063aae9d5f2146102b1578063bd02a235146102da578063f2fde38b14610303578063faabf1c61461032c576100dd565b80639d86698514610211578063a4d1186e14610256578063a8c278a214610286576100dd565b80635badbe4c116100bb5780635badbe4c14610167578063715018a6146101925780638da5cb5b146101a95780639a891716146101d4576100dd565b806320ad8cab146100e2578063476343ee1461010b5780634beb7d3914610122575b600080fd5b3480156100ee57600080fd5b5061010960048036038101906101049190610f30565b610355565b005b34801561011757600080fd5b506101206103fb565b005b34801561012e57600080fd5b5061014960048036038101906101449190610f93565b61049c565b60405161015e99989796959493929190611012565b60405180910390f35b34801561017357600080fd5b5061017c6105e2565b604051610189919061109f565b60405180910390f35b34801561019e57600080fd5b506101a76105e8565b005b3480156101b557600080fd5b506101be6105fc565b6040516101cb91906110ba565b60405180910390f35b3480156101e057600080fd5b506101fb60048036038101906101f69190610f30565b610625565b60405161020891906110d5565b60405180910390f35b34801561021d57600080fd5b5061023860048036038101906102339190610f93565b610645565b60405161024d99989796959493929190611012565b60405180910390f35b610270600480360381019061026b919061111c565b6106cd565b60405161027d9190611183565b60405180910390f35b34801561029257600080fd5b5061029b6109e2565b6040516102a8919061109f565b60405180910390f35b3480156102bd57600080fd5b506102d860048036038101906102d3919061119e565b6109e8565b005b3480156102e657600080fd5b5061030160048036038101906102fc9190610f30565b6109fa565b005b34801561030f57600080fd5b5061032a60048036038101906103259190610f30565b610aa0565b005b34801561033857600080fd5b50610353600480360381019061034e91906111f7565b610b23565b005b61035d610d2b565b6001600360008373ffffffffffffffffffffffffffffffffffffffff1673ffffffffffffffffffffffffffffffffffffffff16815260200190815260200160002060006101000a81548160ff0219169083151502179055508073ffffffffffffffffffffffffffffffffffffffff167f40f8611cb3470e9d255c7ea6d08e5625d635123c46e7c303e5321b1fb69bb8c960405160405180910390a250565b610403610d2b565b60004790506000811161044b576040517f08c379a0000000000000000000000000000000000000000000000000000000008152600401610442906112a7565b60405180910390fd5b6104536105fc565b73ffffffffffffffffffffffffffffffffffffffff166108fc829081150290604051600060405180830381858888f19350505050158015610498573d6000803e3d6000fd5b5050565b600080600080600080600080600080600260008c8152602001908152602001600020604051806101200160405290816000820160009054906101000a900473ffffffffffffffffffffffffffffffffffffffff1673ffffffffffffffffffffffffffffffffffffffff1673ffffffffffffffffffffffffffffffffffffffff16815260200160018201548152602001600282015481526020016003820154815260200160048201548152602001600582015481526020016006820160009054906101000a900460ff161515151581526020016006820160019054906101000a900460ff161515151581526020016007820154815250509050806000015181602001518260400151836060015184608001518560a001518660c001518760e00151886101000151995099509950995099509950995099509950509193959799909294969850565b60055481565b6105f0610d2b565b6105fa6000610da9565b565b60008060009054906101000a900473ffffffffffffffffffffffffffffffffffffffff16905090565b60036020528060005260406000206000915054906101000a900460ff1681565b60026020528060005260406000206000915090508060000160009054906101000a900473ffffffffffffffffffffffffffffffffffffffff16908060010154908060020154908060030154908060040154908060050154908060060160009054906101000a900460ff16908060060160019054906101000a900460ff16908060070154905089565b60006106d7610e6d565b60045434101561071c576040517f08c379a000000000000000000000000000000000000000000000000000000000815260040161071390611313565b60405180910390fd5b600185148061072b5750600285145b61076a576040517f08c379a00000000000000000000000000000000000000000000000000000000081526004016107619061137f565b60405180910390fd5b600084116107ad576040517f08c379a00000000000000000000000000000000000000000000000000000000081526004016107a4906113eb565b60405180910390fd5b61038483101580156107c157506103e88311155b610800576040517f08c379a00000000000000000000000000000000000000000000000000000000081526004016107f790611457565b60405180910390fd5b60003386868686426005546040516020016108219796959493929190611501565b6040516020818303038152906040528051906020012090506040518061012001604052803373ffffffffffffffffffffffffffffffffffffffff1681526020018781526020018681526020018581526020018481526020014281526020016000151581526020016000151581526020016000801b8152506002600083815260200190815260200160002060008201518160000160006101000a81548173ffffffffffffffffffffffffffffffffffffffff021916908373ffffffffffffffffffffffffffffffffffffffff1602179055506020820151816001015560408201518160020155606082015181600301556080820151816004015560a0820151816005015560c08201518160060160006101000a81548160ff02191690831515021790555060e08201518160060160016101000a81548160ff021916908315150217905550610100820151816007015590505060056000815480929190610985906115b1565b91905055503373ffffffffffffffffffffffffffffffffffffffff16817fba76016ada5c81e9d1ad739d030fa60c51065dcd1759fe0ab3f43d599dfcd0f860405160405180910390a3809150506109da610ebc565b949350505050565b60045481565b6109f0610d2b565b8060048190555050565b610a02610d2b565b6000600360008373ffffffffffffffffffffffffffffffffffffffff1673ffffffffffffffffffffffffffffffffffffffff16815260200190815260200160002060006101000a81548160ff0219169083151502179055508073ffffffffffffffffffffffffffffffffffffffff167fb48d1366d07d4afdd2b73cbb6f7c9c23d71c2c9478252d6b97492dfd3819e7c760405160405180910390a250565b610aa8610d2b565b600073ffffffffffffffffffffffffffffffffffffffff168173ffffffffffffffffffffffffffffffffffffffff1603610b17576040517f08c379a0000000000000000000000000000000000000000000000000000000008152600401610b0e9061166b565b60405180910390fd5b610b2081610da9565b50565b600360003373ffffffffffffffffffffffffffffffffffffffff1673ffffffffffffffffffffffffffffffffffffffff16815260200190815260200160002060009054906101000a900460ff16610baf576040517f08c379a0000000000000000000000000000000000000000000000000000000008152600401610ba6906116d7565b60405180910390fd5b60006002600085815260200190815260200160002090508060060160009054906101000a900460ff1615610c18576040517f08c379a0000000000000000000000000000000000000000000000000000000008152600401610c0f90611743565b60405180910390fd5b600073ffffffffffffffffffffffffffffffffffffffff168160000160009054906101000a900473ffffffffffffffffffffffffffffffffffffffff1673ffffffffffffffffffffffffffffffffffffffff1603610cab576040517f08c379a0000000000000000000000000000000000000000000000000000000008152600401610ca2906117af565b60405180910390fd5b60018160060160006101000a81548160ff021916908315150217905550828160060160016101000a81548160ff021916908315150217905550818160070181905550837fa289beb80c68c0f30d87dd708a039781dd73018ea8370cd36dbd9cc5ebe9fb7484604051610d1d91906110d5565b60405180910390a250505050565b610d33610ec5565b73ffffffffffffffffffffffffffffffffffffffff16610d516105fc565b73ffffffffffffffffffffffffffffffffffffffff1614610da7576040517f08c379a0000000000000000000000000000000000000000000000000000000008152600401610d9e9061181b565b60405180910390fd5b565b60008060009054906101000a900473ffffffffffffffffffffffffffffffffffffffff169050816000806101000a81548173ffffffffffffffffffffffffffffffffffffffff021916908373ffffffffffffffffffffffffffffffffffffffff1602179055508173ffffffffffffffffffffffffffffffffffffffff168173ffffffffffffffffffffffffffffffffffffffff167f8be0079c531659141344cd1fd0a4f28419497f9722a3daafe3b4186f6b6457e060405160405180910390a35050565b600260015403610eb2576040517f08c379a0000000000000000000000000000000000000000000000000000000008152600401610ea990611887565b60405180910390fd5b6002600181905550565b60018081905550565b600033905090565b600080fd5b600073ffffffffffffffffffffffffffffffffffffffff82169050919050565b6000610efd82610ed2565b9050919050565b610f0d81610ef2565b8114610f1857600080fd5b50565b600081359050610f2a81610f04565b92915050565b600060208284031215610f4657610f45610ecd565b5b6000610f5484828501610f1b565b91505092915050565b6000819050919050565b610f7081610f5d565b8114610f7b57600080fd5b50565b600081359050610f8d81610f67565b92915050565b600060208284031215610fa957610fa8610ecd565b5b6000610fb784828501610f7e565b91505092915050565b610fc981610ef2565b82525050565b6000819050919050565b610fe281610fcf565b82525050565b610ff181610f5d565b82525050565b60008115159050919050565b61100c81610ff7565b82525050565b600061012082019050611028600083018c610fc0565b611035602083018b610fd9565b611042604083018a610fd9565b61104f6060830189610fd9565b61105c6080830188610fe8565b61106960a0830187610fd9565b61107660c0830186611003565b61108360e0830185611003565b611091610100830184610fe8565b9a9950505050505050505050565b60006020820190506110b46000830184610fd9565b92915050565b60006020820190506110cf6000830184610fc0565b92915050565b60006020820190506110ea6000830184611003565b92915050565b6110f981610fcf565b811461110457600080fd5b50565b600081359050611116816110f0565b92915050565b6000806000806080858703121561113657611135610ecd565b5b600061114487828801611107565b945050602061115587828801611107565b935050604061116687828801611107565b925050606061117787828801610f7e565b91505092959194509250565b60006020820190506111986000830184610fe8565b92915050565b6000602082840312156111b4576111b3610ecd565b5b60006111c284828501611107565b91505092915050565b6111d481610ff7565b81146111df57600080fd5b50565b6000813590506111f1816111cb565b92915050565b6000806000606084860312156112105761120f610ecd565b5b600061121e86828701610f7e565b935050602061122f868287016111e2565b925050604061124086828701610f7e565b9150509250925092565b600082825260208201905092915050565b7f4e6f206665657320746f20776974686472617700000000000000000000000000600082015250565b600061129160138361124a565b915061129c8261125b565b602082019050919050565b600060208201905081810360008301526112c081611284565b9050919050565b7f496e73756666696369656e7420766572696669636174696f6e20666565000000600082015250565b60006112fd601d8361124a565b9150611308826112c7565b602082019050919050565b6000602082019050818103600083015261132c816112f0565b9050919050565b7f496e76616c6964206d6574616c20747970650000000000000000000000000000600082015250565b600061136960128361124a565b915061137482611333565b602082019050919050565b600060208201905081810360008301526113988161135c565b9050919050565b7f576569676874206d75737420626520706f736974697665000000000000000000600082015250565b60006113d560178361124a565b91506113e08261139f565b602082019050919050565b60006020820190508181036000830152611404816113c8565b9050919050565b7f496e76616c6964207075726974792072616e6765000000000000000000000000600082015250565b600061144160148361124a565b915061144c8261140b565b602082019050919050565b6000602082019050818103600083015261147081611434565b9050919050565b60008160601b9050919050565b600061148f82611477565b9050919050565b60006114a182611484565b9050919050565b6114b96114b482610ef2565b611496565b82525050565b6000819050919050565b6114da6114d582610fcf565b6114bf565b82525050565b6000819050919050565b6114fb6114f682610f5d565b6114e0565b82525050565b600061150d828a6114a8565b60148201915061151d82896114c9565b60208201915061152d82886114c9565b60208201915061153d82876114c9565b60208201915061154d82866114ea565b60208201915061155d82856114c9565b60208201915061156d82846114c9565b60208201915081905098975050505050505050565b7f4e487b7100000000000000000000000000000000000000000000000000000000600052601160045260246000fd5b60006115bc82610fcf565b91507fffffffffffffffffffffffffffffffffffffffffffffffffffffffffffffffff82036115ee576115ed611582565b5b600182019050919050565b7f4f776e61626c653a206e6577206f776e657220697320746865207a65726f206160008201527f6464726573730000000000000000000000000000000000000000000000000000602082015250565b600061165560268361124a565b9150611660826115f9565b604082019050919050565b6000602082019050818103600083015261168481611648565b9050919050565b7f4e6f7420617574686f72697a6564207665726966696572000000000000000000600082015250565b60006116c160178361124a565b91506116cc8261168b565b602082019050919050565b600060208201905081810360008301526116f0816116b4565b9050919050565b7f5265717565737420616c72656164792070726f63657373656400000000000000600082015250565b600061172d60198361124a565b9150611738826116f7565b602082019050919050565b6000602082019050818103600083015261175c81611720565b9050919050565b7f5265717565737420646f6573206e6f7420657869737400000000000000000000600082015250565b600061179960168361124a565b91506117a482611763565b602082019050919050565b600060208201905081810360008301526117c88161178c565b9050919050565b7f4f776e61626c653a2063616c6c6572206973206e6f7420746865206f776e6572600082015250565b600061180560208361124a565b9150611810826117cf565b602082019050919050565b60006020820190508181036000830152611834816117f8565b9050919050565b7f5265656e7472616e637947756172643a207265656e7472616e742063616c6c00600082015250565b6000611871601f8361124a565b915061187c8261183b565b602082019050919050565b600060208201905081810360008301526118a081611864565b905091905056fea2646970667358221220bc020aba1cf7f37c1de684dcddf330cb14d588e4d451cef8ecde023e7bfe68d164736f6c63430008130033",
  "linkReferences": {},
  "deployedLinkReferences": {}
}