{
  "_format": "hh-sol-artifact-1",
  "contractName": "AIVerifier",
  "sourceName": "contracts/AIVerifier.sol",
  "abi": [
    {
      "inputs": [],
      "stateMutability": "nonpayable",
      "type": "constructor"
    },
    {
      "anonymous": false,
      "inputs": [
        {
          "indexed": true,
          "internalType": "address",
          "name": "previousOwner",
          "type": "address"
        },
        {
          "indexed": true,
          "internalType": "address",
          "name": "newOwner",
          "type": "address"
        }
      ],
      "name": "OwnershipTransferred",
      "type": "event"
    },
    {
      "anonymous": false,
      "inputs": [
        {
          "indexed": true,
          "internalType": "bytes32",
          "name": "requestId",
          "type": "bytes32"
        },
        {
          "indexed": false,
          "internalType": "bool",
          "name": "approved",
          "type": "bool"
        }
      ],
      "name": "VerificationCompleted",
      "type": "event"
    },
    {
      "anonymous": false,
      "inputs": [
        {
          "indexed": true,
          "internalType": "bytes32",
          "name": "requestId",
          "type": "bytes32"
        },
        {
          "indexed": true,
          "internalType": "address",
          "name": "requester",
          "type": "address"
        }
      ],
      "name": "VerificationRequested",
      "type": "event"
    },
    {
      "anonymous": false,
      "inputs": [
        {
          "indexed": true,
          "internalType": "address",
          "name": "verifier",
          "type": "address"
        }
      ],
      "name": "VerifierAuthorized",
      "type": "event"
    },
    {
      "anonymous": false,
      "inputs": [
        {
          "indexed": true,
          "internalType": "address",
          "name": "verifier",
          "type": "address"
        }
      ],
      "name": "VerifierRevoked",
      "type": "event"
    },
    {
      "inputs": [
        {
          "internalType": "address",
          "name": "_verifier",
          "type": "address"
        }
      ],
      "name": "authorizeVerifier",
      "outputs": [],
      "stateMutability": "nonpayable",
      "type": "function"
    },
    {
      "inputs": [
        {
          "internalType": "address",
          "name": "",
          "type": "address"
        }
      ],
      "name": "authorizedVerifiers",
      "outputs": [
        {
          "internalType": "bool",
          "name": "",
          "type": "bool"
        }
      ],
      "stateMutability": "view",
      "type": "function"
    },
    {
      "inputs": [
        {
          "internalType": "bytes32",
          "name": "_requestId",
          "type": "bytes32"
        }
      ],
      "name": "getVerificationRequest",
      "outputs": [
        {
          "internalType": "address",
          "name": "requester",
          "type": "address"
        },
        {
          "internalType": "uint256",
          "name": "metalType",
          "type": "uint256"
        },
        {
          "internalType": "uint256",
          "name": "weight",
          "type": "uint256"
        },
        {
          "internalType": "uint256",
          "name": "purity",
          "type": "uint256"
        },
        {
          "internalType": "bytes32",
          "name": "sensorDataHash",
          "type": "bytes32"
        },
        {
          "internalType": "uint256",
          "name": "timestamp",
          "type": "uint256"
        },
        {
          "internalType": "bool",
          "name": "processed",
          "type": "bool"
        },
        {
          "internalType": "bool",
          "name": "approved",
          "type": "bool"
        },
        {
          "internalType": "bytes32",
          "name": "verificationId",
          "type": "bytes32"
        }
      ],
      "stateMutability": "view",
      "type": "function"
    },
    {
      "inputs": [],
      "name": "owner",
      "outputs": [
        {
          "internalType": "address",
          "name": "",
          "type": "address"
        }
      ],
      "stateMutability": "view",
      "type": "function"
    },
    {
      "inputs": [],
      "name": "renounceOwnership",
      "outputs": [],
      "stateMutability": "nonpayable",
      "type": "function"
    },
    {
      "inputs": [],
      "name": "requestCount",
      "outputs": [
        {
          "internalType": "uint256",
          "name": "",
          "type": "uint256"
        }
      ],
      "stateMutability": "view",
      "type": "function"
    },
    {
      "inputs": [
        {
          "internalType": "uint256",
          "name": "_metalType",
          "type": "uint256"
        },
        {
          "internalType": "uint256",
          "name": "_weight",
          "type": "uint256"
        },
        {
          "internalType": "uint256",
          "name": "_purity",
          "type": "uint256"
        },
        {
          "internalType": "bytes32",
          "name": "_sensorDataHash",
          "type": "bytes32"
        }
      ],
      "name": "requestVerification",
      "outputs": [
        {
          "internalType": "bytes32",
          "name": "",
          "type": "bytes32"
        }
      ],
      "stateMutability": "payable",
      "type": "function"
    },
    {
      "inputs": [
        {
          "internalType": "bytes32",
          "name": "",
          "type": "bytes32"
        }
      ],
      "name": "requests",
      "outputs": [
        {
          "internalType": "address",
          "name": "requester",
          "type": "address"
        },
        {
          "internalType": "uint256",
          "name": "metalType",
          "type": "uint256"
        },
        {
          "internalType": "uint256",
          "name": "weight",
          "type": "uint256"
        },
        {
          "internalType": "uint256",
          "name": "purity",
          "type": "uint256"
        },
        {
          "internalType": "bytes32",
          "name": "sensorDataHash",
          "type": "bytes32"
        },
        {
          "internalType": "uint256",
          "name": "timestamp",
          "type": "uint256"
        },
        {
          "internalType": "bool",
          "name": "processed",
          "type": "bool"
        },
        {
          "internalType": "bool",
          "name": "approved",
          "type": "bool"
        },
        {
          "internalType": "bytes32",
          "name": "verificationId",
          "type": "bytes32"
        }
      ],
      "stateMutability": "view",
      "type": "function"
    },
    {
      "inputs": [
        {
          "internalType": "address",
          "name": "_verifier",
          "type": "address"
        }
      ],
      "name": "revokeVerifier",
      "outputs": [],
      "stateMutability": "nonpayable",
      "type": "function"
    },
    {
      "inputs": [
        {
          "internalType": "uint256",
          "name": "_fee",
          "type": "uint256"
        }
      ],
      "name": "setVerificationFee",
      "outputs": [],
      "stateMutability": "nonpayable",
      "type": "function"
    },
    {
      "inputs": [
        {
          "internalType": "bytes32",
          "name": "_requestId",
          "type": "bytes32"
        },
        {
          "internalType": "bool",
          "name": "_approved",
          "type": "bool"
        },
        {
          "internalType": "bytes32",
          "name": "_verificationId",
          "type": "bytes32"
        }
      ],
      "name": "submitVerification",
      "outputs": [],
      "stateMutability": "nonpayable",
      "type": "function"
    },
    {
      "inputs": [
        {
          "internalType": "address",
          "name": "newOwner",
          "type": "address"
        }
      ],
      "name": "transferOwnership",
      "outputs": [],
      "stateMutability": "nonpayable",
      "type": "function"
    },
    {
      "inputs": [],
      "name": "verificationFee",
      "outputs": [
        {
          "internalType": "uint256",
          "name": "",
          "type": "uint256"
        }
      ],
      "stateMutability": "view",
      "type": "function"
    },
    {
      "inputs": [],
      "name": "withdrawFees",
      "outputs": [],
      "stateMutability": "nonpayable",
      "type": "function"
    }
  ],
  "bytecode": "0x6080806040523461007e5760008054336001600160a01b0319821681178355604092916001600160a01b03167f8be0079c531659141344cd1fd0a4f28419497f9722a3daafe3b4186f6b6457e08380a360018055662386f26fc10000600455338152600360205220600160ff19825416179055610ad590816100848239f35b600080fdfe60406080815260048036101561001457600080fd5b600090813560e01c806320ad8cab14610960578063476343ee146108db5780634beb7d391461082f5780635badbe4c14610810578063715018a6146107b65780638da5cb5b1461078e5780639a8917161461074e5780639d866985146106dd578063a4d1186e146103a9578063a8c278a21461038a578063aae9d5f214610369578063bd02a23514610300578063f2fde38b146102365763faabf1c6146100ba57600080fd5b3461023257606036600319011261023257803590602435938415159081860361022e573385526020926003845260ff8287205416156101ed578486526002845281862090600682019081549060ff82166101aa5783546001600160a01b03161561016e575061ffff191697151560081b61ff001697909717600117909655939492937fa289beb80c68c0f30d87dd708a039781dd73018ea8370cd36dbd9cc5ebe9fb7493600760443591015551908152a280f35b845162461bcd60e51b8152908101879052601660248201527514995c5d595cdd08191bd95cc81b9bdd08195e1a5cdd60521b6044820152606490fd5b845162461bcd60e51b8152908101879052601960248201527f5265717565737420616c72656164792070726f636573736564000000000000006044820152606490fd5b83606492519162461bcd60e51b8352820152601760248201527f4e6f7420617574686f72697a65642076657269666965720000000000000000006044820152fd5b8480fd5b5080fd5b5082346102fc5760203660031901126102fc576001600160a01b0382358181169391929084900361022e57610269610a14565b83156102aa57505082546001600160a01b0319811683178455167f8be0079c531659141344cd1fd0a4f28419497f9722a3daafe3b4186f6b6457e08380a380f35b906020608492519162461bcd60e51b8352820152602660248201527f4f776e61626c653a206e6577206f776e657220697320746865207a65726f206160448201526564647265737360d01b6064820152fd5b8280fd5b508290346102fc5760203660031901126102fc57356001600160a01b03811691908290036102fc57610330610a14565b81835260036020528220805460ff191690557fb48d1366d07d4afdd2b73cbb6f7c9c23d71c2c9478252d6b97492dfd3819e7c78280a280f35b503461023257602036600319011261023257610383610a14565b8035905580f35b508290346102fc57826003193601126102fc5760209250549051908152f35b509160803660031901126102325782356024918235926044928335946064803590600196600288541461069e57600288558a54341061065f578785148015610655575b156106215783156105e257610384891015806105d6575b156105a05750506005549285519160208301943360601b86528260348501528460548501528960748501528160948501524260b485015260d484015260d4835261010083019483861067ffffffffffffffff87111761058e5792610534928b9260079695888b52835190209b8c9661047a8a610a6c565b338a5261012085019384526101408501908152610160850191825261018085019283526101a08501934285528c6101c08701978089526102006101e0890198828a52019a818c5281526002602052209a60018060a01b039051166bffffffffffffffffffffffff60a01b8c5416178b55518d8b01555160028a0155516003890155518d880155516005870155600686019151151560ff8019845416911617825551151561ff00825491151560081b169061ff001916179055565b5191015560055495600019871461057d57505081602095016005555192827fba76016ada5c81e9d1ad739d030fa60c51065dcd1759fe0ab3f43d599dfcd0f8339280a380558152f35b634e487b7160e01b86526011905284fd5b634e487b7160e01b8b5260418c52868bfd5b73496e76616c6964207075726974792072616e676560601b8b9160148860208b519562461bcd60e51b8752860152840152820152fd5b506103e8891115610403565b7f576569676874206d75737420626520706f7369746976650000000000000000008b9160178860208b519562461bcd60e51b8752860152840152820152fd5b71496e76616c6964206d6574616c207479706560701b8b9160128860208b519562461bcd60e51b8752860152840152820152fd5b50600285146103ec565b7f496e73756666696369656e7420766572696669636174696f6e206665650000008b91601d8860208b519562461bcd60e51b8752860152840152820152fd5b7f5265656e7472616e637947756172643a207265656e7472616e742063616c6c008b91601f8860208b519562461bcd60e51b8752860152840152820152fd5b5091903461074b57602036600319011261074b578161074791843581526002602052209160018060a01b038354169260018101549360028201549560038301549083015460058401549160076006860154950154955198899860ff808860081c169716958a6109cc565b0390f35b80fd5b508290346102fc5760203660031901126102fc57356001600160a01b038116908190036102fc57818360ff92602095526003855220541690519015158152f35b828434610232578160031936011261023257905490516001600160a01b039091168152602090f35b823461074b578060031936011261074b576107cf610a14565b80546001600160a01b03198116825581906001600160a01b03167f8be0079c531659141344cd1fd0a4f28419497f9722a3daafe3b4186f6b6457e08280a380f35b8284346102325781600319360112610232576020906005549051908152f35b5091903461074b57602036600319011261074b57610100826107479285358152600260205220835161086081610a6c565b60018060a01b03825416948582526001830154968760208401526002840154908183850152600385015490816060860152850154918260808601526005860154938460a0870152600687015495600760ff8089161515988960c085015260081c161515988960e08401520154988991015251998a998a6109cc565b508290346102fc57826003193601126102fc576108f6610a14565b479081156109275750825483918291829182916001600160a01b031682f11561091d575080f35b51903d90823e3d90fd5b606490602084519162461bcd60e51b835282015260136024820152724e6f206665657320746f20776974686472617760681b6044820152fd5b508290346102fc5760203660031901126102fc57356001600160a01b03811691908290036102fc57610990610a14565b81835260036020528220805460ff191660011790557f40f8611cb3470e9d255c7ea6d08e5625d635123c46e7c303e5321b1fb69bb8c98280a280f35b95926101009794919a9998959261012088019b60018060a01b03168852602088015260408701526060860152608085015260a0840152151560c0830152151560e08201520152565b6000546001600160a01b03163303610a2857565b606460405162461bcd60e51b815260206004820152602060248201527f4f776e61626c653a2063616c6c6572206973206e6f7420746865206f776e65726044820152fd5b610120810190811067ffffffffffffffff821117610a8957604052565b634e487b7160e01b600052604160045260246000fdfea264697066735822122065286d4f63d2ac647a9dda46916290a3e139273c5773edf04dffb7a139493ec164736f6c63430008130033",
  "linkReferences": {},
  "deployedLinkReferences": {}
}