{
  "_format": "hh-sol-artifact-1",
  "contractName": "QuantumSafeCrypto",
  "sourceName": "contracts/QuantumSafeCrypto.sol",
  "abi": [
    {
      "inputs": [],
      "name": "DILITHIUM_D",
      "outputs": [
        {
          "internalType": "uint256",
          "name": "",
          "type": "uint256"
        }
      ],
      "stateMutability": "view",
      "type": "function"
    },
    {
      "inputs": [],
      "name": "DILITHIUM_K",
      "outputs": [
        {
          "internalType": "uint256",
          "name": "",
          "type": "uint256"
        }
      ],
      "stateMutability": "view",
      "type": "function"
    },
    {
      "inputs": [],
      "name": "DILITHIUM_L",
      "outputs": [
        {
          "internalType": "uint256",
          "name": "",
          "type": "uint256"
        }
      ],
      "stateMutability": "view",
      "type": "function"
    },
    {
      "inputs": [],
      "name": "DILITHIUM_N",
      "outputs": [
        {
          "internalType": "uint256",
          "name": "",
          "type": "uint256"
        }
      ],
      "stateMutability": "view",
      "type": "function"
    },
    {
      "inputs": [],
      "name": "DILITHIUM_Q",
      "outputs": [
        {
          "internalType": "uint256",
          "name": "",
          "type": "uint256"
        }
      ],
      "stateMutability": "view",
      "type": "function"
    },
    {
      "inputs": [],
      "name": "XMSS_HEIGHT",
      "outputs": [
        {
          "internalType": "uint256",
          "name": "",
          "type": "uint256"
        }
      ],
      "stateMutability": "view",
      "type": "function"
    },
    {
      "inputs": [],
      "name": "XMSS_N",
      "outputs": [
        {
          "internalType": "uint256",
          "name": "",
          "type": "uint256"
        }
      ],
      "stateMutability": "view",
      "type": "function"
    }
  ],
  "bytecode": "0x6080806040523461001a576101309081610020823930815050f35b600080fdfe6080806040526004361015601257600080fd5b600090813560e01c90816301c957661460c757508063403ac7c01460c35780634838e3071460c35780635579856b1460ad57806362d14b60146095578063a4551bae14607f5763c3e8faa614606657600080fd5b80600319360112607c5760206040516101008152f35b80fd5b5080600319360112607c576020604051600d8152f35b5080600319360112607c576020604051627fe0018152f35b5080600319360112607c576020604051600a8152f35b60df565b90508160031936011260db57806020809252f35b5080fd5b600036600319011260f557602060405160048152f35b600080fdfea2646970667358221220292d25ee1e49342c580895292b6f21ed3116310f94c3cf8e267e5e4499e8cce764736f6c63430008130033",
  "linkReferences": {},
  "deployedLinkReferences": {}
}