{
  "_format": "hh-sol-artifact-1",
  "contractName": "QuantumSafeCrypto",
  "sourceName": "contracts/QuantumSafeCrypto.sol",
  "abi": [
    {
      "inputs": [],
      "name": "DILITHIUM_D",
      "outputs": [
        {
          "internalType": "uint256",
          "name": "",
          "type": "uint256"
        }
      ],
      "stateMutability": "view",
      "type": "function"
    },
    {
      "inputs": [],
      "name": "DILITHIUM_K",
      "outputs": [
        {
          "internalType": "uint256",
          "name": "",
          "type": "uint256"
        }
      ],
      "stateMutability": "view",
      "type": "function"
    },
    {
      "inputs": [],
      "name": "DILITHIUM_L",
      "outputs": [
        {
          "internalType": "uint256",
          "name": "",
          "type": "uint256"
        }
      ],
      "stateMutability": "view",
      "type": "function"
    },
    {
      "inputs": [],
      "name": "DILITHIUM_N",
      "outputs": [
        {
          "internalType": "uint256",
          "name": "",
          "type": "uint256"
        }
      ],
      "stateMutability": "view",
      "type": "function"
    },
    {
      "inputs": [],
      "name": "DILITHIUM_Q",
      "outputs": [
        {
          "internalType": "uint256",
          "name": "",
          "type": "uint256"
        }
      ],
      "stateMutability": "view",
      "type": "function"
    },
    {
      "inputs": [],
      "name": "XMSS_HEIGHT",
      "outputs": [
        {
          "internalType": "uint256",
          "name": "",
          "type": "uint256"
        }
      ],
      "stateMutability": "view",
      "type": "function"
    },
    {
      "inputs": [],
      "name": "XMSS_N",
      "outputs": [
        {
          "internalType": "uint256",
          "name": "",
          "type": "uint256"
        }
      ],
      "stateMutability": "view",
      "type": "function"
    }
  ],
  "bytecode": "0x6101ee610053600b82828239805160001a607314610046577f4e487b7100000000000000000000000000000000000000000000000000000000600052600060045260246000fd5b30600052607381538281f3fe73000000000000000000000000000000000000000030146080604052600436106100875760003560e01c80635579856b116100655780635579856b146100e657806362d14b6014610104578063a4551bae14610122578063c3e8faa61461014057610087565b806301c957661461008c578063403ac7c0146100aa5780634838e307146100c8575b600080fd5b61009461015e565b6040516100a1919061019d565b60405180910390f35b6100b2610163565b6040516100bf919061019d565b60405180910390f35b6100d0610168565b6040516100dd919061019d565b60405180910390f35b6100ee61016d565b6040516100fb919061019d565b60405180910390f35b61010c610172565b604051610119919061019d565b60405180910390f35b61012a610179565b604051610137919061019d565b60405180910390f35b61014861017e565b604051610155919061019d565b60405180910390f35b602081565b600481565b600481565b600a81565b627fe00181565b600d81565b61010081565b6000819050919050565b61019781610184565b82525050565b60006020820190506101b2600083018461018e565b9291505056fea2646970667358221220ed8b396cfc6edf0289a4eaef49f5e9010d88fc6d1b999798455472a9bdd5869264736f6c63430008130033",
  "linkReferences": {},
  "deployedLinkReferences": {}
}