{
  "_format": "hh-sol-artifact-1",
  "contractName": "GodToken",
  "sourceName": "contracts/GodToken.sol",
  "abi": [
    {
      "inputs": [
        {
          "internalType": "address",
          "name": "_aiVerifier",
          "type": "address"
        }
      ],
      "stateMutability": "nonpayable",
      "type": "constructor"
    },
    {
      "anonymous": false,
      "inputs": [
        {
          "indexed": true,
          "internalType": "address",
          "name": "owner",
          "type": "address"
        },
        {
          "indexed": true,
          "internalType": "address",
          "name": "spender",
          "type": "address"
        },
        {
          "indexed": false,
          "internalType": "uint256",
          "name": "value",
          "type": "uint256"
        }
      ],
      "name": "Approval",
      "type": "event"
    },
    {
      "anonymous": false,
      "inputs": [
        {
          "indexed": false,
          "internalType": "uint256",
          "name": "goldOunces",
          "type": "uint256"
        },
        {
          "indexed": false,
          "internalType": "uint256",
          "name": "silverOunces",
          "type": "uint256"
        },
        {
          "indexed": false,
          "internalType": "uint256",
          "name": "totalValue",
          "type": "uint256"
        }
      ],
      "name": "MetalReserveUpdated",
      "type": "event"
    },
    {
      "anonymous": false,
      "inputs": [
        {
          "indexed": true,
          "internalType": "address",
          "name": "previousOwner",
          "type": "address"
        },
        {
          "indexed": true,
          "internalType": "address",
          "name": "newOwner",
          "type": "address"
        }
      ],
      "name": "OwnershipTransferred",
      "type": "event"
    },
    {
      "anonymous": false,
      "inputs": [
        {
          "indexed": true,
          "internalType": "address",
          "name": "from",
          "type": "address"
        },
        {
          "indexed": false,
          "internalType": "uint256",
          "name": "amount",
          "type": "uint256"
        }
      ],
      "name": "TokensBurned",
      "type": "event"
    },
    {
      "anonymous": false,
      "inputs": [
        {
          "indexed": true,
          "internalType": "address",
          "name": "to",
          "type": "address"
        },
        {
          "indexed": false,
          "internalType": "uint256",
          "name": "amount",
          "type": "uint256"
        },
        {
          "indexed": false,
          "internalType": "bytes32",
          "name": "verificationId",
          "type": "bytes32"
        }
      ],
      "name": "TokensMinted",
      "type": "event"
    },
    {
      "anonymous": false,
      "inputs": [
        {
          "indexed": true,
          "internalType": "address",
          "name": "from",
          "type": "address"
        },
        {
          "indexed": true,
          "internalType": "address",
          "name": "to",
          "type": "address"
        },
        {
          "indexed": false,
          "internalType": "uint256",
          "name": "value",
          "type": "uint256"
        }
      ],
      "name": "Transfer",
      "type": "event"
    },
    {
      "inputs": [],
      "name": "MAX_SUPPLY",
      "outputs": [
        {
          "internalType": "uint256",
          "name": "",
          "type": "uint256"
        }
      ],
      "stateMutability": "view",
      "type": "function"
    },
    {
      "inputs": [],
      "name": "METAL_BACKING_RATIO",
      "outputs": [
        {
          "internalType": "uint256",
          "name": "",
          "type": "uint256"
        }
      ],
      "stateMutability": "view",
      "type": "function"
    },
    {
      "inputs": [],
      "name": "MIN_MINT_AMOUNT",
      "outputs": [
        {
          "internalType": "uint256",
          "name": "",
          "type": "uint256"
        }
      ],
      "stateMutability": "view",
      "type": "function"
    },
    {
      "inputs": [],
      "name": "aiVerifier",
      "outputs": [
        {
          "internalType": "address",
          "name": "",
          "type": "address"
        }
      ],
      "stateMutability": "view",
      "type": "function"
    },
    {
      "inputs": [
        {
          "internalType": "address",
          "name": "owner",
          "type": "address"
        },
        {
          "internalType": "address",
          "name": "spender",
          "type": "address"
        }
      ],
      "name": "allowance",
      "outputs": [
        {
          "internalType": "uint256",
          "name": "",
          "type": "uint256"
        }
      ],
      "stateMutability": "view",
      "type": "function"
    },
    {
      "inputs": [
        {
          "internalType": "address",
          "name": "spender",
          "type": "address"
        },
        {
          "internalType": "uint256",
          "name": "amount",
          "type": "uint256"
        }
      ],
      "name": "approve",
      "outputs": [
        {
          "internalType": "bool",
          "name": "",
          "type": "bool"
        }
      ],
      "stateMutability": "nonpayable",
      "type": "function"
    },
    {
      "inputs": [
        {
          "internalType": "address",
          "name": "account",
          "type": "address"
        }
      ],
      "name": "balanceOf",
      "outputs": [
        {
          "internalType": "uint256",
          "name": "",
          "type": "uint256"
        }
      ],
      "stateMutability": "view",
      "type": "function"
    },
    {
      "inputs": [
        {
          "internalType": "uint256",
          "name": "_amount",
          "type": "uint256"
        }
      ],
      "name": "burn",
      "outputs": [],
      "stateMutability": "nonpayable",
      "type": "function"
    },
    {
      "inputs": [],
      "name": "decimals",
      "outputs": [
        {
          "internalType": "uint8",
          "name": "",
          "type": "uint8"
        }
      ],
      "stateMutability": "view",
      "type": "function"
    },
    {
      "inputs": [
        {
          "internalType": "address",
          "name": "spender",
          "type": "address"
        },
        {
          "internalType": "uint256",
          "name": "subtractedValue",
          "type": "uint256"
        }
      ],
      "name": "decreaseAllowance",
      "outputs": [
        {
          "internalType": "bool",
          "name": "",
          "type": "bool"
        }
      ],
      "stateMutability": "nonpayable",
      "type": "function"
    },
    {
      "inputs": [],
      "name": "getMetalBackingRatio",
      "outputs": [
        {
          "internalType": "uint256",
          "name": "",
          "type": "uint256"
        }
      ],
      "stateMutability": "view",
      "type": "function"
    },
    {
      "inputs": [
        {
          "internalType": "address",
          "name": "spender",
          "type": "address"
        },
        {
          "internalType": "uint256",
          "name": "addedValue",
          "type": "uint256"
        }
      ],
      "name": "increaseAllowance",
      "outputs": [
        {
          "internalType": "bool",
          "name": "",
          "type": "bool"
        }
      ],
      "stateMutability": "nonpayable",
      "type": "function"
    },
    {
      "inputs": [
        {
          "internalType": "address",
          "name": "_to",
          "type": "address"
        },
        {
          "internalType": "uint256",
          "name": "_amount",
          "type": "uint256"
        },
        {
          "internalType": "bytes32",
          "name": "_verificationId",
          "type": "bytes32"
        }
      ],
      "name": "mintWithVerification",
      "outputs": [],
      "stateMutability": "nonpayable",
      "type": "function"
    },
    {
      "inputs": [],
      "name": "name",
      "outputs": [
        {
          "internalType": "string",
          "name": "",
          "type": "string"
        }
      ],
      "stateMutability": "view",
      "type": "function"
    },
    {
      "inputs": [],
      "name": "owner",
      "outputs": [
        {
          "internalType": "address",
          "name": "",
          "type": "address"
        }
      ],
      "stateMutability": "view",
      "type": "function"
    },
    {
      "inputs": [],
      "name": "renounceOwnership",
      "outputs": [],
      "stateMutability": "nonpayable",
      "type": "function"
    },
    {
      "inputs": [],
      "name": "reserves",
      "outputs": [
        {
          "internalType": "uint256",
          "name": "goldOunces",
          "type": "uint256"
        },
        {
          "internalType": "uint256",
          "name": "silverOunces",
          "type": "uint256"
        },
        {
          "internalType": "uint256",
          "name": "totalValue",
          "type": "uint256"
        },
        {
          "internalType": "uint256",
          "name": "lastAudit",
          "type": "uint256"
        }
      ],
      "stateMutability": "view",
      "type": "function"
    },
    {
      "inputs": [
        {
          "internalType": "address",
          "name": "_newVerifier",
          "type": "address"
        }
      ],
      "name": "setAIVerifier",
      "outputs": [],
      "stateMutability": "nonpayable",
      "type": "function"
    },
    {
      "inputs": [],
      "name": "symbol",
      "outputs": [
        {
          "internalType": "string",
          "name": "",
          "type": "string"
        }
      ],
      "stateMutability": "view",
      "type": "function"
    },
    {
      "inputs": [],
      "name": "totalSupply",
      "outputs": [
        {
          "internalType": "uint256",
          "name": "",
          "type": "uint256"
        }
      ],
      "stateMutability": "view",
      "type": "function"
    },
    {
      "inputs": [
        {
          "internalType": "address",
          "name": "to",
          "type": "address"
        },
        {
          "internalType": "uint256",
          "name": "amount",
          "type": "uint256"
        }
      ],
      "name": "transfer",
      "outputs": [
        {
          "internalType": "bool",
          "name": "",
          "type": "bool"
        }
      ],
      "stateMutability": "nonpayable",
      "type": "function"
    },
    {
      "inputs": [
        {
          "internalType": "address",
          "name": "from",
          "type": "address"
        },
        {
          "internalType": "address",
          "name": "to",
          "type": "address"
        },
        {
          "internalType": "uint256",
          "name": "amount",
          "type": "uint256"
        }
      ],
      "name": "transferFrom",
      "outputs": [
        {
          "internalType": "bool",
          "name": "",
          "type": "bool"
        }
      ],
      "stateMutability": "nonpayable",
      "type": "function"
    },
    {
      "inputs": [
        {
          "internalType": "address",
          "name": "newOwner",
          "type": "address"
        }
      ],
      "name": "transferOwnership",
      "outputs": [],
      "stateMutability": "nonpayable",
      "type": "function"
    },
    {
      "inputs": [
        {
          "internalType": "uint256",
          "name": "_goldOunces",
          "type": "uint256"
        },
        {
          "internalType": "uint256",
          "name": "_silverOunces",
          "type": "uint256"
        },
        {
          "internalType": "uint256",
          "name": "_totalValue",
          "type": "uint256"
        }
      ],
      "name": "updateReserves",
      "outputs": [],
      "stateMutability": "nonpayable",
      "type": "function"
    },
    {
      "inputs": [
        {
          "internalType": "bytes32",
          "name": "",
          "type": "bytes32"
        }
      ],
      "name": "verifiedMints",
      "outputs": [
        {
          "internalType": "bool",
          "name": "",
          "type": "bool"
        }
      ],
      "stateMutability": "view",
      "type": "function"
    }
  ],
  "bytecode": "0x60803462000446576001600160401b0390601f1990601f620016bd3881900382810185168401868111858210176200034a578492829160405283396020938491810103126200044657516001600160a01b039190828116908190036200044657620000696200044b565b600981526823a7a2102a37b5b2b760b91b85820152620000886200044b565b9660038089526211d3d160ea1b878a015282518281116200034a5781546001948582811c921680156200043b575b8a83101462000425578188849311620003cf575b5089908883116001146200036c5760009262000360575b505060001982841b1c191690841b1781555b88519182116200034a5760049788548481811c911680156200033f575b898210146200032a57868111620002df575b50879086841160011462000277575082939495969798996000936200026b575b505082841b92600019911b1c19161786555b600580546001600160a01b0319808216339081179093556040519690939291167f8be0079c531659141344cd1fd0a4f28419497f9722a3daafe3b4186f6b6457e0600080a3600655600b541617600b5533156200022e57505060025469d3c21bcecceda1000000928382018092116200021957506000917fddf252ad1be2c89b69c2b068fc378daa952ba7f163c4a11628f55a4df523b3ef91600255338352828152604083208481540190556040519384523393a360405161125190816200046c8239f35b601190634e487b7160e01b6000525260246000fd5b6064928462461bcd60e51b845283015260248201527f45524332303a206d696e7420746f20746865207a65726f2061646472657373006044820152fd5b01519150388062000142565b60008a81528981209392918516905b818110620002c957509a84869798999a9b9c10620002ae575b50505050811b01865562000154565b01519060f884600019921b161c19169055388080806200029f565b8c830151855593860193918a01918a0162000286565b89600052886000208780860160051c8201928b871062000320575b0160051c019085905b8281106200031357505062000122565b6000815501859062000303565b92508192620002fa565b60228a634e487b7160e01b6000525260246000fd5b90607f169062000110565b634e487b7160e01b600052604160045260246000fd5b015190503880620000e1565b908b87941691856000528b6000209260005b8d828210620003b857505084116200039f575b505050811b018155620000f3565b015160001983861b60f8161c1916905538808062000391565b8385015186558a979095019493840193016200037e565b90915083600052896000208880850160051c8201928c86106200041b575b918891869594930160051c01915b8281106200040b575050620000ca565b60008155859450889101620003fb565b92508192620003ed565b634e487b7160e01b600052602260045260246000fd5b91607f1691620000b6565b600080fd5b60408051919082016001600160401b038111838210176200034a5760405256fe60806040908082526004918236101561001757600080fd5b600092833560e01c9283620d907314610ddd5750826306fdde0314610ce9578263095ea7b314610cbf57826318160ddd14610ca057826323b872dd14610bd7578263313ce56714610bbb57826332cb6b0c14610b945782633950935114610b4457826342966c68146109785782636148813c146108c85782636e4e15b91461089f57826370a0823114610868578263715018a61461080b57826375172a8b146107d25782638a79d3e5146107ae5782638da5cb5b1461078557826395d89b41146106825782639c2cc93114610654578263a138bfd614610395578263a457c2d7146102f2578263a9059cbb146102c1578263d56926a01461029e578263dd62ed3e14610251578263f2fde38b1461018057505063f8bf95891461013957600080fd5b3461017d57602036600319011261017d57610152610e41565b61015a610e72565b60018060a01b03166bffffffffffffffffffffffff60a01b600b541617600b5580f35b80fd5b9091503461024d57602036600319011261024d5761019c610e41565b906101a5610e72565b6001600160a01b039182169283156101fb575050600554826bffffffffffffffffffffffff60a01b821617600555167f8be0079c531659141344cd1fd0a4f28419497f9722a3daafe3b4186f6b6457e08380a380f35b906020608492519162461bcd60e51b8352820152602660248201527f4f776e61626c653a206e6577206f776e657220697320746865207a65726f206160448201526564647265737360d01b6064820152fd5b8280fd5b83823461029a578060031936011261029a578060209261026f610e41565b610277610e5c565b6001600160a01b0391821683526001865283832091168252845220549051908152f35b5080fd5b83823461029a578160031936011261029a5760209051670de0b6b3a76400008152f35b83823461029a578060031936011261029a576020906102eb6102e1610e41565b6024359033610f25565b5160018152f35b833461017d578260031936011261017d5761030b610e41565b918360243592338152600160205281812060018060a01b0386168252602052205490828210610344576020856102eb8585038733611093565b608490602086519162461bcd60e51b8352820152602560248201527f45524332303a2064656372656173656420616c6c6f77616e63652062656c6f77604482015264207a65726f60d81b6064820152fd5b83823461029a57606036600319011261029a576103b0610e41565b906024918235906044908135916103c5611195565b600b546001600160a01b03908116330361061357670de0b6b3a7640000928386106105df576b033b2e3c9fd0803ce800000061040387600254610f02565b116105a957848952602093600c855260ff888b20541661056857606487028781046064148815171561055657046009541061051557848952600c8452868920805460ff19166001179055169586156104d55750507f7369d801113c713520ca653010d32c6bcd6778f0ffb3df0bc9efb8d85b687e449495965061048883600254610f02565b60025585875286815283872083815401905585877fddf252ad1be2c89b69c2b068fc378daa952ba7f163c4a11628f55a4df523b3ef838751878152a38351928352820152a2600160065580f35b8891601f7f45524332303a206d696e7420746f20746865207a65726f2061646472657373009260649589519562461bcd60e51b8752860152840152820152fd5b865162461bcd60e51b8152808b01859052601b818a01527f496e73756666696369656e74206d6574616c207265736572766573000000000081850152606490fd5b634e487b7160e01b8b5260118c52898bfd5b875162461bcd60e51b8152808c01869052601c818b01527f566572696669636174696f6e20494420616c726561647920757365640000000081860152606490fd5b865162461bcd60e51b81526020818c01526012818a01527145786365656473206d617820737570706c7960701b81850152606490fd5b865162461bcd60e51b81526020818c01526010818a01526f105b5bdd5b9d081d1bdbc81cdb585b1b60821b81850152606490fd5b855162461bcd60e51b81526020818b01526019818901527f4f6e6c792041492076657269666965722063616e206d696e740000000000000081840152606490fd5b9091503461024d57602036600319011261024d578160209360ff92358152600c855220541690519015158152f35b83823461029a578160031936011261029a57805191809380549160019083821c9282851694851561077b575b60209586861081146107685785895290811561074457506001146106ec575b6106e887876106de828c0383610eca565b5191829182610df8565b0390f35b81529295507f8a35acfbc15ff81a39ae7d344fd709f28e8600b4aa8c65c6b64bfe7fe36bd19b5b82841061073157505050826106e8946106de928201019486806106cd565b8054868501880152928601928101610713565b60ff19168887015250505050151560051b83010192506106de826106e886806106cd565b634e487b7160e01b845260228352602484fd5b93607f16936106ae565b83823461029a578160031936011261029a5760055490516001600160a01b039091168152602090f35b83823461029a578160031936011261029a576020906107cb6111eb565b9051908152f35b83823461029a578160031936011261029a57608090600754906008549060095490600a5492815194855260208501528301526060820152f35b833461017d578060031936011261017d57610824610e72565b600580546001600160a01b0319811690915581906001600160a01b03167f8be0079c531659141344cd1fd0a4f28419497f9722a3daafe3b4186f6b6457e08280a380f35b83823461029a57602036600319011261029a5760209181906001600160a01b03610890610e41565b16815280845220549051908152f35b83823461029a578160031936011261029a57600b5490516001600160a01b039091168152602090f35b83823461029a57606036600319011261029a57823590604435906024356108ed610e72565b81516080810181811067ffffffffffffffff82111761096557918391606095937f4a37f90278ca7b5205e43068141e76ab67aef6562b0d2e77a5cf6abdce6c92e89795528481528160208201528383820152854291015283600755806008558260095542600a5581519384526020840152820152a180f35b634e487b7160e01b875260418852602487fd5b83823461029a5760208060031936011261024d57833591610997611195565b338452838252828185205410610b0a573315610abd5733845283825280842054838110610a6f578390338652858452038185205582600254036002558381518481527fddf252ad1be2c89b69c2b068fc378daa952ba7f163c4a11628f55a4df523b3ef843392a36064830283810460641484151715610a5c57670de0b6b3a764000060095491048103908111610a5c576009555191825233917ffd38818f5291bf0bb3a2a48aadc06ba8757865d1dabd804585338aab3009dcb69190a2600160065580f35b634e487b7160e01b855260118652602485fd5b815162461bcd60e51b8152808701849052602260248201527f45524332303a206275726e20616d6f756e7420657863656564732062616c616e604482015261636560f01b6064820152608490fd5b5162461bcd60e51b815280850191909152602160248201527f45524332303a206275726e2066726f6d20746865207a65726f206164647265736044820152607360f81b6064820152608490fd5b5162461bcd60e51b8152808501919091526014602482015273496e73756666696369656e742062616c616e636560601b6044820152606490fd5b83823461029a578060031936011261029a576102eb602092610b8d610b67610e41565b338352600186528483206001600160a01b03821684528652918490205460243590610f02565b9033611093565b83823461029a578160031936011261029a57602090516b033b2e3c9fd0803ce80000008152f35b83823461029a578160031936011261029a576020905160128152f35b83903461029a57606036600319011261029a57610bf2610e41565b610bfa610e5c565b91846044359460018060a01b038416815260016020528181203382526020522054906000198203610c34575b6020866102eb878787610f25565b848210610c5d5750918391610c52602096956102eb95033383611093565b919394819350610c26565b606490602087519162461bcd60e51b8352820152601d60248201527f45524332303a20696e73756666696369656e7420616c6c6f77616e63650000006044820152fd5b83823461029a578160031936011261029a576020906002549051908152f35b83823461029a578060031936011261029a576020906102eb610cdf610e41565b6024359033611093565b91503461024d578260031936011261024d57805191836003549060019082821c928281168015610dd3575b6020958686108214610dc05750848852908115610d9e5750600114610d45575b6106e886866106de828b0383610eca565b929550600383527fc2575a0e9e593c00f959f8c92f12db2869c3395a3b0502d05e2516446f71f85b5b828410610d8b57505050826106e8946106de928201019438610d34565b8054868501880152928601928101610d6e565b60ff191687860152505050151560051b83010192506106de826106e838610d34565b634e487b7160e01b845260229052602483fd5b93607f1693610d14565b84903461029a578160031936011261029a5780606460209252f35b6020808252825181830181905290939260005b828110610e2d57505060409293506000838284010152601f8019910116010190565b818101860151848201604001528501610e0b565b600435906001600160a01b0382168203610e5757565b600080fd5b602435906001600160a01b0382168203610e5757565b6005546001600160a01b03163303610e8657565b606460405162461bcd60e51b815260206004820152602060248201527f4f776e61626c653a2063616c6c6572206973206e6f7420746865206f776e65726044820152fd5b90601f8019910116810190811067ffffffffffffffff821117610eec57604052565b634e487b7160e01b600052604160045260246000fd5b91908201809211610f0f57565b634e487b7160e01b600052601160045260246000fd5b6001600160a01b039081169182156110405716918215610fef57600082815280602052604081205491808310610f9b57604082827fddf252ad1be2c89b69c2b068fc378daa952ba7f163c4a11628f55a4df523b3ef958760209652828652038282205586815220818154019055604051908152a3565b60405162461bcd60e51b815260206004820152602660248201527f45524332303a207472616e7366657220616d6f756e7420657863656564732062604482015265616c616e636560d01b6064820152608490fd5b60405162461bcd60e51b815260206004820152602360248201527f45524332303a207472616e7366657220746f20746865207a65726f206164647260448201526265737360e81b6064820152608490fd5b60405162461bcd60e51b815260206004820152602560248201527f45524332303a207472616e736665722066726f6d20746865207a65726f206164604482015264647265737360d81b6064820152608490fd5b6001600160a01b0390811691821561114457169182156110f45760207f8c5be1e5ebec7d5bd14f71427d1e84f3dd0314c0f7b2291e5b200ac8c7c3b925918360005260018252604060002085600052825280604060002055604051908152a3565b60405162461bcd60e51b815260206004820152602260248201527f45524332303a20617070726f766520746f20746865207a65726f206164647265604482015261737360f01b6064820152608490fd5b60405162461bcd60e51b8152602060048201526024808201527f45524332303a20617070726f76652066726f6d20746865207a65726f206164646044820152637265737360e01b6064820152608490fd5b6002600654146111a6576002600655565b60405162461bcd60e51b815260206004820152601f60248201527f5265656e7472616e637947756172643a207265656e7472616e742063616c6c006044820152606490fd5b600254801561121557600954670de0b6b3a764000090818102918183041490151715610f0f570490565b5060009056fea2646970667358221220e5fece9ba10933becc886b045bd780f5f4477126d22218454a0604513827741d64736f6c63430008130033",
  "linkReferences": {},
  "deployedLinkReferences": {}
}