{
  "_format": "hh-sol-artifact-1",
  "contractName": "GodToken",
  "sourceName": "contracts/GodToken.sol",
  "abi": [
    {
      "inputs": [
        {
          "internalType": "address",
          "name": "_aiVerifier",
          "type": "address"
        }
      ],
      "stateMutability": "nonpayable",
      "type": "constructor"
    },
    {
      "anonymous": false,
      "inputs": [
        {
          "indexed": true,
          "internalType": "address",
          "name": "owner",
          "type": "address"
        },
        {
          "indexed": true,
          "internalType": "address",
          "name": "spender",
          "type": "address"
        },
        {
          "indexed": false,
          "internalType": "uint256",
          "name": "value",
          "type": "uint256"
        }
      ],
      "name": "Approval",
      "type": "event"
    },
    {
      "anonymous": false,
      "inputs": [
        {
          "indexed": false,
          "internalType": "uint256",
          "name": "goldOunces",
          "type": "uint256"
        },
        {
          "indexed": false,
          "internalType": "uint256",
          "name": "silverOunces",
          "type": "uint256"
        },
        {
          "indexed": false,
          "internalType": "uint256",
          "name": "totalValue",
          "type": "uint256"
        }
      ],
      "name": "MetalReserveUpdated",
      "type": "event"
    },
    {
      "anonymous": false,
      "inputs": [
        {
          "indexed": true,
          "internalType": "address",
          "name": "previousOwner",
          "type": "address"
        },
        {
          "indexed": true,
          "internalType": "address",
          "name": "newOwner",
          "type": "address"
        }
      ],
      "name": "OwnershipTransferred",
      "type": "event"
    },
    {
      "anonymous": false,
      "inputs": [
        {
          "indexed": true,
          "internalType": "address",
          "name": "from",
          "type": "address"
        },
        {
          "indexed": false,
          "internalType": "uint256",
          "name": "amount",
          "type": "uint256"
        }
      ],
      "name": "TokensBurned",
      "type": "event"
    },
    {
      "anonymous": false,
      "inputs": [
        {
          "indexed": true,
          "internalType": "address",
          "name": "to",
          "type": "address"
        },
        {
          "indexed": false,
          "internalType": "uint256",
          "name": "amount",
          "type": "uint256"
        },
        {
          "indexed": false,
          "internalType": "bytes32",
          "name": "verificationId",
          "type": "bytes32"
        }
      ],
      "name": "TokensMinted",
      "type": "event"
    },
    {
      "anonymous": false,
      "inputs": [
        {
          "indexed": true,
          "internalType": "address",
          "name": "from",
          "type": "address"
        },
        {
          "indexed": true,
          "internalType": "address",
          "name": "to",
          "type": "address"
        },
        {
          "indexed": false,
          "internalType": "uint256",
          "name": "value",
          "type": "uint256"
        }
      ],
      "name": "Transfer",
      "type": "event"
    },
    {
      "inputs": [],
      "name": "MAX_SUPPLY",
      "outputs": [
        {
          "internalType": "uint256",
          "name": "",
          "type": "uint256"
        }
      ],
      "stateMutability": "view",
      "type": "function"
    },
    {
      "inputs": [],
      "name": "METAL_BACKING_RATIO",
      "outputs": [
        {
          "internalType": "uint256",
          "name": "",
          "type": "uint256"
        }
      ],
      "stateMutability": "view",
      "type": "function"
    },
    {
      "inputs": [],
      "name": "MIN_MINT_AMOUNT",
      "outputs": [
        {
          "internalType": "uint256",
          "name": "",
          "type": "uint256"
        }
      ],
      "stateMutability": "view",
      "type": "function"
    },
    {
      "inputs": [],
      "name": "aiVerifier",
      "outputs": [
        {
          "internalType": "address",
          "name": "",
          "type": "address"
        }
      ],
      "stateMutability": "view",
      "type": "function"
    },
    {
      "inputs": [
        {
          "internalType": "address",
          "name": "owner",
          "type": "address"
        },
        {
          "internalType": "address",
          "name": "spender",
          "type": "address"
        }
      ],
      "name": "allowance",
      "outputs": [
        {
          "internalType": "uint256",
          "name": "",
          "type": "uint256"
        }
      ],
      "stateMutability": "view",
      "type": "function"
    },
    {
      "inputs": [
        {
          "internalType": "address",
          "name": "spender",
          "type": "address"
        },
        {
          "internalType": "uint256",
          "name": "amount",
          "type": "uint256"
        }
      ],
      "name": "approve",
      "outputs": [
        {
          "internalType": "bool",
          "name": "",
          "type": "bool"
        }
      ],
      "stateMutability": "nonpayable",
      "type": "function"
    },
    {
      "inputs": [
        {
          "internalType": "address",
          "name": "account",
          "type": "address"
        }
      ],
      "name": "balanceOf",
      "outputs": [
        {
          "internalType": "uint256",
          "name": "",
          "type": "uint256"
        }
      ],
      "stateMutability": "view",
      "type": "function"
    },
    {
      "inputs": [
        {
          "internalType": "uint256",
          "name": "_amount",
          "type": "uint256"
        }
      ],
      "name": "burn",
      "outputs": [],
      "stateMutability": "nonpayable",
      "type": "function"
    },
    {
      "inputs": [],
      "name": "decimals",
      "outputs": [
        {
          "internalType": "uint8",
          "name": "",
          "type": "uint8"
        }
      ],
      "stateMutability": "view",
      "type": "function"
    },
    {
      "inputs": [
        {
          "internalType": "address",
          "name": "spender",
          "type": "address"
        },
        {
          "internalType": "uint256",
          "name": "subtractedValue",
          "type": "uint256"
        }
      ],
      "name": "decreaseAllowance",
      "outputs": [
        {
          "internalType": "bool",
          "name": "",
          "type": "bool"
        }
      ],
      "stateMutability": "nonpayable",
      "type": "function"
    },
    {
      "inputs": [],
      "name": "getMetalBackingRatio",
      "outputs": [
        {
          "internalType": "uint256",
          "name": "",
          "type": "uint256"
        }
      ],
      "stateMutability": "view",
      "type": "function"
    },
    {
      "inputs": [
        {
          "internalType": "address",
          "name": "spender",
          "type": "address"
        },
        {
          "internalType": "uint256",
          "name": "addedValue",
          "type": "uint256"
        }
      ],
      "name": "increaseAllowance",
      "outputs": [
        {
          "internalType": "bool",
          "name": "",
          "type": "bool"
        }
      ],
      "stateMutability": "nonpayable",
      "type": "function"
    },
    {
      "inputs": [
        {
          "internalType": "address",
          "name": "_to",
          "type": "address"
        },
        {
          "internalType": "uint256",
          "name": "_amount",
          "type": "uint256"
        },
        {
          "internalType": "bytes32",
          "name": "_verificationId",
          "type": "bytes32"
        }
      ],
      "name": "mintWithVerification",
      "outputs": [],
      "stateMutability": "nonpayable",
      "type": "function"
    },
    {
      "inputs": [],
      "name": "name",
      "outputs": [
        {
          "internalType": "string",
          "name": "",
          "type": "string"
        }
      ],
      "stateMutability": "view",
      "type": "function"
    },
    {
      "inputs": [],
      "name": "owner",
      "outputs": [
        {
          "internalType": "address",
          "name": "",
          "type": "address"
        }
      ],
      "stateMutability": "view",
      "type": "function"
    },
    {
      "inputs": [],
      "name": "renounceOwnership",
      "outputs": [],
      "stateMutability": "nonpayable",
      "type": "function"
    },
    {
      "inputs": [],
      "name": "reserves",
      "outputs": [
        {
          "internalType": "uint256",
          "name": "goldOunces",
          "type": "uint256"
        },
        {
          "internalType": "uint256",
          "name": "silverOunces",
          "type": "uint256"
        },
        {
          "internalType": "uint256",
          "name": "totalValue",
          "type": "uint256"
        },
        {
          "internalType": "uint256",
          "name": "lastAudit",
          "type": "uint256"
        }
      ],
      "stateMutability": "view",
      "type": "function"
    },
    {
      "inputs": [
        {
          "internalType": "address",
          "name": "_newVerifier",
          "type": "address"
        }
      ],
      "name": "setAIVerifier",
      "outputs": [],
      "stateMutability": "nonpayable",
      "type": "function"
    },
    {
      "inputs": [],
      "name": "symbol",
      "outputs": [
        {
          "internalType": "string",
          "name": "",
          "type": "string"
        }
      ],
      "stateMutability": "view",
      "type": "function"
    },
    {
      "inputs": [],
      "name": "totalSupply",
      "outputs": [
        {
          "internalType": "uint256",
          "name": "",
          "type": "uint256"
        }
      ],
      "stateMutability": "view",
      "type": "function"
    },
    {
      "inputs": [
        {
          "internalType": "address",
          "name": "to",
          "type": "address"
        },
        {
          "internalType": "uint256",
          "name": "amount",
          "type": "uint256"
        }
      ],
      "name": "transfer",
      "outputs": [
        {
          "internalType": "bool",
          "name": "",
          "type": "bool"
        }
      ],
      "stateMutability": "nonpayable",
      "type": "function"
    },
    {
      "inputs": [
        {
          "internalType": "address",
          "name": "from",
          "type": "address"
        },
        {
          "internalType": "address",
          "name": "to",
          "type": "address"
        },
        {
          "internalType": "uint256",
          "name": "amount",
          "type": "uint256"
        }
      ],
      "name": "transferFrom",
      "outputs": [
        {
          "internalType": "bool",
          "name": "",
          "type": "bool"
        }
      ],
      "stateMutability": "nonpayable",
      "type": "function"
    },
    {
      "inputs": [
        {
          "internalType": "address",
          "name": "newOwner",
          "type": "address"
        }
      ],
      "name": "transferOwnership",
      "outputs": [],
      "stateMutability": "nonpayable",
      "type": "function"
    },
    {
      "inputs": [
        {
          "internalType": "uint256",
          "name": "_goldOunces",
          "type": "uint256"
        },
        {
          "internalType": "uint256",
          "name": "_silverOunces",
          "type": "uint256"
        },
        {
          "internalType": "uint256",
          "name": "_totalValue",
          "type": "uint256"
        }
      ],
      "name": "updateReserves",
      "outputs": [],
      "stateMutability": "nonpayable",
      "type": "function"
    },
    {
      "inputs": [
        {
          "internalType": "bytes32",
          "name": "",
          "type": "bytes32"
        }
      ],
      "name": "verifiedMints",
      "outputs": [
        {
          "internalType": "bool",
          "name": "",
          "type": "bool"
        }
      ],
      "stateMutability": "view",
      "type": "function"
    }
  ],
  "bytecode": "0x60806040523480156200001157600080fd5b506040516200308f3803806200308f833981810160405281019062000037919062000404565b6040518060400160405280600981526020017f474f4420546f6b656e00000000000000000000000000000000000000000000008152506040518060400160405280600381526020017f474f4400000000000000000000000000000000000000000000000000000000008152508160039081620000b49190620006b0565b508060049081620000c69190620006b0565b505050620000e9620000dd6200015560201b60201c565b6200015d60201b60201c565b600160068190555080600b60006101000a81548173ffffffffffffffffffffffffffffffffffffffff021916908373ffffffffffffffffffffffffffffffffffffffff1602179055506200014e3369d3c21bcecceda10000006200022360201b60201c565b50620008b2565b600033905090565b6000600560009054906101000a900473ffffffffffffffffffffffffffffffffffffffff16905081600560006101000a81548173ffffffffffffffffffffffffffffffffffffffff021916908373ffffffffffffffffffffffffffffffffffffffff1602179055508173ffffffffffffffffffffffffffffffffffffffff168173ffffffffffffffffffffffffffffffffffffffff167f8be0079c531659141344cd1fd0a4f28419497f9722a3daafe3b4186f6b6457e060405160405180910390a35050565b600073ffffffffffffffffffffffffffffffffffffffff168273ffffffffffffffffffffffffffffffffffffffff160362000295576040517f08c379a00000000000000000000000000000000000000000000000000000000081526004016200028c90620007f8565b60405180910390fd5b620002a9600083836200039060201b60201c565b8060026000828254620002bd919062000849565b92505081905550806000808473ffffffffffffffffffffffffffffffffffffffff1673ffffffffffffffffffffffffffffffffffffffff168152602001908152602001600020600082825401925050819055508173ffffffffffffffffffffffffffffffffffffffff16600073ffffffffffffffffffffffffffffffffffffffff167fddf252ad1be2c89b69c2b068fc378daa952ba7f163c4a11628f55a4df523b3ef8360405162000370919062000895565b60405180910390a36200038c600083836200039560201b60201c565b5050565b505050565b505050565b600080fd5b600073ffffffffffffffffffffffffffffffffffffffff82169050919050565b6000620003cc826200039f565b9050919050565b620003de81620003bf565b8114620003ea57600080fd5b50565b600081519050620003fe81620003d3565b92915050565b6000602082840312156200041d576200041c6200039a565b5b60006200042d84828501620003ed565b91505092915050565b600081519050919050565b7f4e487b7100000000000000000000000000000000000000000000000000000000600052604160045260246000fd5b7f4e487b7100000000000000000000000000000000000000000000000000000000600052602260045260246000fd5b60006002820490506001821680620004b857607f821691505b602082108103620004ce57620004cd62000470565b5b50919050565b60008190508160005260206000209050919050565b60006020601f8301049050919050565b600082821b905092915050565b600060088302620005387fffffffffffffffffffffffffffffffffffffffffffffffffffffffffffffffff82620004f9565b620005448683620004f9565b95508019841693508086168417925050509392505050565b6000819050919050565b6000819050919050565b6000620005916200058b62000585846200055c565b62000566565b6200055c565b9050919050565b6000819050919050565b620005ad8362000570565b620005c5620005bc8262000598565b84845462000506565b825550505050565b600090565b620005dc620005cd565b620005e9818484620005a2565b505050565b5b81811015620006115762000605600082620005d2565b600181019050620005ef565b5050565b601f82111562000660576200062a81620004d4565b6200063584620004e9565b8101602085101562000645578190505b6200065d6200065485620004e9565b830182620005ee565b50505b505050565b600082821c905092915050565b6000620006856000198460080262000665565b1980831691505092915050565b6000620006a0838362000672565b9150826002028217905092915050565b620006bb8262000436565b67ffffffffffffffff811115620006d757620006d662000441565b5b620006e382546200049f565b620006f082828562000615565b600060209050601f83116001811462000728576000841562000713578287015190505b6200071f858262000692565b8655506200078f565b601f1984166200073886620004d4565b60005b8281101562000762578489015182556001820191506020850194506020810190506200073b565b868310156200078257848901516200077e601f89168262000672565b8355505b6001600288020188555050505b505050505050565b600082825260208201905092915050565b7f45524332303a206d696e7420746f20746865207a65726f206164647265737300600082015250565b6000620007e0601f8362000797565b9150620007ed82620007a8565b602082019050919050565b600060208201905081810360008301526200081381620007d1565b9050919050565b7f4e487b7100000000000000000000000000000000000000000000000000000000600052601160045260246000fd5b600062000856826200055c565b915062000863836200055c565b92508282019050808211156200087e576200087d6200081a565b5b92915050565b6200088f816200055c565b82525050565b6000602082019050620008ac600083018462000884565b92915050565b6127cd80620008c26000396000f3fe608060405234801561001057600080fd5b50600436106101725760003560e01c8063715018a6116100de578063a138bfd611610097578063d56926a011610071578063d56926a014610454578063dd62ed3e14610472578063f2fde38b146104a2578063f8bf9589146104be57610172565b8063a138bfd6146103d8578063a457c2d7146103f4578063a9059cbb1461042457610172565b8063715018a61461032357806375172a8b1461032d5780638a79d3e51461034e5780638da5cb5b1461036c57806395d89b411461038a5780639c2cc931146103a857610172565b806332cb6b0c1161013057806332cb6b0c1461024f578063395093511461026d57806342966c681461029d5780636148813c146102b95780636e4e15b9146102d557806370a08231146102f357610172565b80620d90731461017757806306fdde0314610195578063095ea7b3146101b357806318160ddd146101e357806323b872dd14610201578063313ce56714610231575b600080fd5b61017f6104da565b60405161018c91906117c7565b60405180910390f35b61019d6104df565b6040516101aa9190611872565b60405180910390f35b6101cd60048036038101906101c89190611923565b610571565b6040516101da919061197e565b60405180910390f35b6101eb610594565b6040516101f891906117c7565b60405180910390f35b61021b60048036038101906102169190611999565b61059e565b604051610228919061197e565b60405180910390f35b6102396105cd565b6040516102469190611a08565b60405180910390f35b6102576105d6565b60405161026491906117c7565b60405180910390f35b61028760048036038101906102829190611923565b6105e6565b604051610294919061197e565b60405180910390f35b6102b760048036038101906102b29190611a23565b61061d565b005b6102d360048036038101906102ce9190611a50565b610714565b005b6102dd6107aa565b6040516102ea9190611ab2565b60405180910390f35b61030d60048036038101906103089190611acd565b6107d0565b60405161031a91906117c7565b60405180910390f35b61032b610818565b005b61033561082c565b6040516103459493929190611afa565b60405180910390f35b61035661084a565b60405161036391906117c7565b60405180910390f35b610374610894565b6040516103819190611ab2565b60405180910390f35b6103926108be565b60405161039f9190611872565b60405180910390f35b6103c260048036038101906103bd9190611b75565b610950565b6040516103cf919061197e565b60405180910390f35b6103f260048036038101906103ed9190611ba2565b610970565b005b61040e60048036038101906104099190611923565b610c15565b60405161041b919061197e565b60405180910390f35b61043e60048036038101906104399190611923565b610c8c565b60405161044b919061197e565b60405180910390f35b61045c610caf565b60405161046991906117c7565b60405180910390f35b61048c60048036038101906104879190611bf5565b610cbb565b60405161049991906117c7565b60405180910390f35b6104bc60048036038101906104b79190611acd565b610d42565b005b6104d860048036038101906104d39190611acd565b610dc5565b005b606481565b6060600380546104ee90611c64565b80601f016020809104026020016040519081016040528092919081815260200182805461051a90611c64565b80156105675780601f1061053c57610100808354040283529160200191610567565b820191906000526020600020905b81548152906001019060200180831161054a57829003601f168201915b5050505050905090565b60008061057c610e11565b9050610589818585610e19565b600191505092915050565b6000600254905090565b6000806105a9610e11565b90506105b6858285610fe2565b6105c185858561106e565b60019150509392505050565b60006012905090565b6b033b2e3c9fd0803ce800000081565b6000806105f1610e11565b90506106128185856106038589610cbb565b61060d9190611cc4565b610e19565b600191505092915050565b6106256112e4565b8061062f336107d0565b1015610670576040517f08c379a000000000000000000000000000000000000000000000000000000000815260040161066790611d44565b60405180910390fd5b61067a3382611333565b6000670de0b6b3a76400006064836106929190611d64565b61069c9190611dd5565b905080600760020160008282546106b39190611e06565b925050819055503373ffffffffffffffffffffffffffffffffffffffff167ffd38818f5291bf0bb3a2a48aadc06ba8757865d1dabd804585338aab3009dcb68360405161070091906117c7565b60405180910390a250610711611500565b50565b61071c61150a565b6040518060800160405280848152602001838152602001828152602001428152506007600082015181600001556020820151816001015560408201518160020155606082015181600301559050507f4a37f90278ca7b5205e43068141e76ab67aef6562b0d2e77a5cf6abdce6c92e883838360405161079d93929190611e3a565b60405180910390a1505050565b600b60009054906101000a900473ffffffffffffffffffffffffffffffffffffffff1681565b60008060008373ffffffffffffffffffffffffffffffffffffffff1673ffffffffffffffffffffffffffffffffffffffff168152602001908152602001600020549050919050565b61082061150a565b61082a6000611588565b565b60078060000154908060010154908060020154908060030154905084565b600080610855610594565b036108635760009050610891565b61086b610594565b670de0b6b3a76400006007600201546108849190611d64565b61088e9190611dd5565b90505b90565b6000600560009054906101000a900473ffffffffffffffffffffffffffffffffffffffff16905090565b6060600480546108cd90611c64565b80601f01602080910402602001604051908101604052809291908181526020018280546108f990611c64565b80156109465780601f1061091b57610100808354040283529160200191610946565b820191906000526020600020905b81548152906001019060200180831161092957829003601f168201915b5050505050905090565b600c6020528060005260406000206000915054906101000a900460ff1681565b6109786112e4565b600b60009054906101000a900473ffffffffffffffffffffffffffffffffffffffff1673ffffffffffffffffffffffffffffffffffffffff163373ffffffffffffffffffffffffffffffffffffffff1614610a08576040517f08c379a00000000000000000000000000000000000000000000000000000000081526004016109ff90611ebd565b60405180910390fd5b670de0b6b3a7640000821015610a53576040517f08c379a0000000000000000000000000000000000000000000000000000000008152600401610a4a90611f29565b60405180910390fd5b6b033b2e3c9fd0803ce800000082610a69610594565b610a739190611cc4565b1115610ab4576040517f08c379a0000000000000000000000000000000000000000000000000000000008152600401610aab90611f95565b60405180910390fd5b600c600082815260200190815260200160002060009054906101000a900460ff1615610b15576040517f08c379a0000000000000000000000000000000000000000000000000000000008152600401610b0c90612001565b60405180910390fd5b6000670de0b6b3a7640000606484610b2d9190611d64565b610b379190611dd5565b9050806007600201541015610b81576040517f08c379a0000000000000000000000000000000000000000000000000000000008152600401610b789061206d565b60405180910390fd5b6001600c600084815260200190815260200160002060006101000a81548160ff021916908315150217905550610bb7848461164e565b8373ffffffffffffffffffffffffffffffffffffffff167f7369d801113c713520ca653010d32c6bcd6778f0ffb3df0bc9efb8d85b687e448484604051610bff92919061209c565b60405180910390a250610c10611500565b505050565b600080610c20610e11565b90506000610c2e8286610cbb565b905083811015610c73576040517f08c379a0000000000000000000000000000000000000000000000000000000008152600401610c6a90612137565b60405180910390fd5b610c808286868403610e19565b60019250505092915050565b600080610c97610e11565b9050610ca481858561106e565b600191505092915050565b670de0b6b3a764000081565b6000600160008473ffffffffffffffffffffffffffffffffffffffff1673ffffffffffffffffffffffffffffffffffffffff16815260200190815260200160002060008373ffffffffffffffffffffffffffffffffffffffff1673ffffffffffffffffffffffffffffffffffffffff16815260200190815260200160002054905092915050565b610d4a61150a565b600073ffffffffffffffffffffffffffffffffffffffff168173ffffffffffffffffffffffffffffffffffffffff1603610db9576040517f08c379a0000000000000000000000000000000000000000000000000000000008152600401610db0906121c9565b60405180910390fd5b610dc281611588565b50565b610dcd61150a565b80600b60006101000a81548173ffffffffffffffffffffffffffffffffffffffff021916908373ffffffffffffffffffffffffffffffffffffffff16021790555050565b600033905090565b600073ffffffffffffffffffffffffffffffffffffffff168373ffffffffffffffffffffffffffffffffffffffff1603610e88576040517f08c379a0000000000000000000000000000000000000000000000000000000008152600401610e7f9061225b565b60405180910390fd5b600073ffffffffffffffffffffffffffffffffffffffff168273ffffffffffffffffffffffffffffffffffffffff1603610ef7576040517f08c379a0000000000000000000000000000000000000000000000000000000008152600401610eee906122ed565b60405180910390fd5b80600160008573ffffffffffffffffffffffffffffffffffffffff1673ffffffffffffffffffffffffffffffffffffffff16815260200190815260200160002060008473ffffffffffffffffffffffffffffffffffffffff1673ffffffffffffffffffffffffffffffffffffffff168152602001908152602001600020819055508173ffffffffffffffffffffffffffffffffffffffff168373ffffffffffffffffffffffffffffffffffffffff167f8c5be1e5ebec7d5bd14f71427d1e84f3dd0314c0f7b2291e5b200ac8c7c3b92583604051610fd591906117c7565b60405180910390a3505050565b6000610fee8484610cbb565b90507fffffffffffffffffffffffffffffffffffffffffffffffffffffffffffffffff8114611068578181101561105a576040517f08c379a000000000000000000000000000000000000000000000000000000000815260040161105190612359565b60405180910390fd5b6110678484848403610e19565b5b50505050565b600073ffffffffffffffffffffffffffffffffffffffff168373ffffffffffffffffffffffffffffffffffffffff16036110dd576040517f08c379a00000000000000000000000000000000000000000000000000000000081526004016110d4906123eb565b60405180910390fd5b600073ffffffffffffffffffffffffffffffffffffffff168273ffffffffffffffffffffffffffffffffffffffff160361114c576040517f08c379a00000000000000000000000000000000000000000000000000000000081526004016111439061247d565b60405180910390fd5b6111578383836117a4565b60008060008573ffffffffffffffffffffffffffffffffffffffff1673ffffffffffffffffffffffffffffffffffffffff168152602001908152602001600020549050818110156111dd576040517f08c379a00000000000000000000000000000000000000000000000000000000081526004016111d49061250f565b60405180910390fd5b8181036000808673ffffffffffffffffffffffffffffffffffffffff1673ffffffffffffffffffffffffffffffffffffffff16815260200190815260200160002081905550816000808573ffffffffffffffffffffffffffffffffffffffff1673ffffffffffffffffffffffffffffffffffffffff168152602001908152602001600020600082825401925050819055508273ffffffffffffffffffffffffffffffffffffffff168473ffffffffffffffffffffffffffffffffffffffff167fddf252ad1be2c89b69c2b068fc378daa952ba7f163c4a11628f55a4df523b3ef846040516112cb91906117c7565b60405180910390a36112de8484846117a9565b50505050565b600260065403611329576040517f08c379a00000000000000000000000000000000000000000000000000000000081526004016113209061257b565b60405180910390fd5b6002600681905550565b600073ffffffffffffffffffffffffffffffffffffffff168273ffffffffffffffffffffffffffffffffffffffff16036113a2576040517f08c379a00000000000000000000000000000000000000000000000000000000081526004016113999061260d565b60405180910390fd5b6113ae826000836117a4565b60008060008473ffffffffffffffffffffffffffffffffffffffff1673ffffffffffffffffffffffffffffffffffffffff16815260200190815260200160002054905081811015611434576040517f08c379a000000000000000000000000000000000000000000000000000000000815260040161142b9061269f565b60405180910390fd5b8181036000808573ffffffffffffffffffffffffffffffffffffffff1673ffffffffffffffffffffffffffffffffffffffff1681526020019081526020016000208190555081600260008282540392505081905550600073ffffffffffffffffffffffffffffffffffffffff168373ffffffffffffffffffffffffffffffffffffffff167fddf252ad1be2c89b69c2b068fc378daa952ba7f163c4a11628f55a4df523b3ef846040516114e791906117c7565b60405180910390a36114fb836000846117a9565b505050565b6001600681905550565b611512610e11565b73ffffffffffffffffffffffffffffffffffffffff16611530610894565b73ffffffffffffffffffffffffffffffffffffffff1614611586576040517f08c379a000000000000000000000000000000000000000000000000000000000815260040161157d9061270b565b60405180910390fd5b565b6000600560009054906101000a900473ffffffffffffffffffffffffffffffffffffffff16905081600560006101000a81548173ffffffffffffffffffffffffffffffffffffffff021916908373ffffffffffffffffffffffffffffffffffffffff1602179055508173ffffffffffffffffffffffffffffffffffffffff168173ffffffffffffffffffffffffffffffffffffffff167f8be0079c531659141344cd1fd0a4f28419497f9722a3daafe3b4186f6b6457e060405160405180910390a35050565b600073ffffffffffffffffffffffffffffffffffffffff168273ffffffffffffffffffffffffffffffffffffffff16036116bd576040517f08c379a00000000000000000000000000000000000000000000000000000000081526004016116b490612777565b60405180910390fd5b6116c9600083836117a4565b80600260008282546116db9190611cc4565b92505081905550806000808473ffffffffffffffffffffffffffffffffffffffff1673ffffffffffffffffffffffffffffffffffffffff168152602001908152602001600020600082825401925050819055508173ffffffffffffffffffffffffffffffffffffffff16600073ffffffffffffffffffffffffffffffffffffffff167fddf252ad1be2c89b69c2b068fc378daa952ba7f163c4a11628f55a4df523b3ef8360405161178c91906117c7565b60405180910390a36117a0600083836117a9565b5050565b505050565b505050565b6000819050919050565b6117c1816117ae565b82525050565b60006020820190506117dc60008301846117b8565b92915050565b600081519050919050565b600082825260208201905092915050565b60005b8381101561181c578082015181840152602081019050611801565b60008484015250505050565b6000601f19601f8301169050919050565b6000611844826117e2565b61184e81856117ed565b935061185e8185602086016117fe565b61186781611828565b840191505092915050565b6000602082019050818103600083015261188c8184611839565b905092915050565b600080fd5b600073ffffffffffffffffffffffffffffffffffffffff82169050919050565b60006118c482611899565b9050919050565b6118d4816118b9565b81146118df57600080fd5b50565b6000813590506118f1816118cb565b92915050565b611900816117ae565b811461190b57600080fd5b50565b60008135905061191d816118f7565b92915050565b6000806040838503121561193a57611939611894565b5b6000611948858286016118e2565b92505060206119598582860161190e565b9150509250929050565b60008115159050919050565b61197881611963565b82525050565b6000602082019050611993600083018461196f565b92915050565b6000806000606084860312156119b2576119b1611894565b5b60006119c0868287016118e2565b93505060206119d1868287016118e2565b92505060406119e28682870161190e565b9150509250925092565b600060ff82169050919050565b611a02816119ec565b82525050565b6000602082019050611a1d60008301846119f9565b92915050565b600060208284031215611a3957611a38611894565b5b6000611a478482850161190e565b91505092915050565b600080600060608486031215611a6957611a68611894565b5b6000611a778682870161190e565b9350506020611a888682870161190e565b9250506040611a998682870161190e565b9150509250925092565b611aac816118b9565b82525050565b6000602082019050611ac76000830184611aa3565b92915050565b600060208284031215611ae357611ae2611894565b5b6000611af1848285016118e2565b91505092915050565b6000608082019050611b0f60008301876117b8565b611b1c60208301866117b8565b611b2960408301856117b8565b611b3660608301846117b8565b95945050505050565b6000819050919050565b611b5281611b3f565b8114611b5d57600080fd5b50565b600081359050611b6f81611b49565b92915050565b600060208284031215611b8b57611b8a611894565b5b6000611b9984828501611b60565b91505092915050565b600080600060608486031215611bbb57611bba611894565b5b6000611bc9868287016118e2565b9350506020611bda8682870161190e565b9250506040611beb86828701611b60565b9150509250925092565b60008060408385031215611c0c57611c0b611894565b5b6000611c1a858286016118e2565b9250506020611c2b858286016118e2565b9150509250929050565b7f4e487b7100000000000000000000000000000000000000000000000000000000600052602260045260246000fd5b60006002820490506001821680611c7c57607f821691505b602082108103611c8f57611c8e611c35565b5b50919050565b7f4e487b7100000000000000000000000000000000000000000000000000000000600052601160045260246000fd5b6000611ccf826117ae565b9150611cda836117ae565b9250828201905080821115611cf257611cf1611c95565b5b92915050565b7f496e73756666696369656e742062616c616e6365000000000000000000000000600082015250565b6000611d2e6014836117ed565b9150611d3982611cf8565b602082019050919050565b60006020820190508181036000830152611d5d81611d21565b9050919050565b6000611d6f826117ae565b9150611d7a836117ae565b9250828202611d88816117ae565b91508282048414831517611d9f57611d9e611c95565b5b5092915050565b7f4e487b7100000000000000000000000000000000000000000000000000000000600052601260045260246000fd5b6000611de0826117ae565b9150611deb836117ae565b925082611dfb57611dfa611da6565b5b828204905092915050565b6000611e11826117ae565b9150611e1c836117ae565b9250828203905081811115611e3457611e33611c95565b5b92915050565b6000606082019050611e4f60008301866117b8565b611e5c60208301856117b8565b611e6960408301846117b8565b949350505050565b7f4f6e6c792041492076657269666965722063616e206d696e7400000000000000600082015250565b6000611ea76019836117ed565b9150611eb282611e71565b602082019050919050565b60006020820190508181036000830152611ed681611e9a565b9050919050565b7f416d6f756e7420746f6f20736d616c6c00000000000000000000000000000000600082015250565b6000611f136010836117ed565b9150611f1e82611edd565b602082019050919050565b60006020820190508181036000830152611f4281611f06565b9050919050565b7f45786365656473206d617820737570706c790000000000000000000000000000600082015250565b6000611f7f6012836117ed565b9150611f8a82611f49565b602082019050919050565b60006020820190508181036000830152611fae81611f72565b9050919050565b7f566572696669636174696f6e20494420616c7265616479207573656400000000600082015250565b6000611feb601c836117ed565b9150611ff682611fb5565b602082019050919050565b6000602082019050818103600083015261201a81611fde565b9050919050565b7f496e73756666696369656e74206d6574616c2072657365727665730000000000600082015250565b6000612057601b836117ed565b915061206282612021565b602082019050919050565b600060208201905081810360008301526120868161204a565b9050919050565b61209681611b3f565b82525050565b60006040820190506120b160008301856117b8565b6120be602083018461208d565b9392505050565b7f45524332303a2064656372656173656420616c6c6f77616e63652062656c6f7760008201527f207a65726f000000000000000000000000000000000000000000000000000000602082015250565b60006121216025836117ed565b915061212c826120c5565b604082019050919050565b6000602082019050818103600083015261215081612114565b9050919050565b7f4f776e61626c653a206e6577206f776e657220697320746865207a65726f206160008201527f6464726573730000000000000000000000000000000000000000000000000000602082015250565b60006121b36026836117ed565b91506121be82612157565b604082019050919050565b600060208201905081810360008301526121e2816121a6565b9050919050565b7f45524332303a20617070726f76652066726f6d20746865207a65726f2061646460008201527f7265737300000000000000000000000000000000000000000000000000000000602082015250565b60006122456024836117ed565b9150612250826121e9565b604082019050919050565b6000602082019050818103600083015261227481612238565b9050919050565b7f45524332303a20617070726f766520746f20746865207a65726f20616464726560008201527f7373000000000000000000000000000000000000000000000000000000000000602082015250565b60006122d76022836117ed565b91506122e28261227b565b604082019050919050565b60006020820190508181036000830152612306816122ca565b9050919050565b7f45524332303a20696e73756666696369656e7420616c6c6f77616e6365000000600082015250565b6000612343601d836117ed565b915061234e8261230d565b602082019050919050565b6000602082019050818103600083015261237281612336565b9050919050565b7f45524332303a207472616e736665722066726f6d20746865207a65726f20616460008201527f6472657373000000000000000000000000000000000000000000000000000000602082015250565b60006123d56025836117ed565b91506123e082612379565b604082019050919050565b60006020820190508181036000830152612404816123c8565b9050919050565b7f45524332303a207472616e7366657220746f20746865207a65726f206164647260008201527f6573730000000000000000000000000000000000000000000000000000000000602082015250565b60006124676023836117ed565b91506124728261240b565b604082019050919050565b600060208201905081810360008301526124968161245a565b9050919050565b7f45524332303a207472616e7366657220616d6f756e742065786365656473206260008201527f616c616e63650000000000000000000000000000000000000000000000000000602082015250565b60006124f96026836117ed565b91506125048261249d565b604082019050919050565b60006020820190508181036000830152612528816124ec565b9050919050565b7f5265656e7472616e637947756172643a207265656e7472616e742063616c6c00600082015250565b6000612565601f836117ed565b91506125708261252f565b602082019050919050565b6000602082019050818103600083015261259481612558565b9050919050565b7f45524332303a206275726e2066726f6d20746865207a65726f2061646472657360008201527f7300000000000000000000000000000000000000000000000000000000000000602082015250565b60006125f76021836117ed565b91506126028261259b565b604082019050919050565b60006020820190508181036000830152612626816125ea565b9050919050565b7f45524332303a206275726e20616d6f756e7420657863656564732062616c616e60008201527f6365000000000000000000000000000000000000000000000000000000000000602082015250565b60006126896022836117ed565b91506126948261262d565b604082019050919050565b600060208201905081810360008301526126b88161267c565b9050919050565b7f4f776e61626c653a2063616c6c6572206973206e6f7420746865206f776e6572600082015250565b60006126f56020836117ed565b9150612700826126bf565b602082019050919050565b60006020820190508181036000830152612724816126e8565b9050919050565b7f45524332303a206d696e7420746f20746865207a65726f206164647265737300600082015250565b6000612761601f836117ed565b915061276c8261272b565b602082019050919050565b6000602082019050818103600083015261279081612754565b905091905056fea264697066735822122020496001d61014a7b7203b591f45b3ac16cb932e74a2a1a988a1e837cbb2bfe864736f6c63430008130033",
  "linkReferences": {},
  "deployedLinkReferences": {}
}