{
  "_format": "hh-sol-artifact-1",
  "contractName": "QuantumAIVerifier",
  "sourceName": "contracts/QuantumAIVerifier.sol",
  "abi": [
    {
      "inputs": [],
      "stateMutability": "nonpayable",
      "type": "constructor"
    },
    {
      "anonymous": false,
      "inputs": [
        {
          "indexed": true,
          "internalType": "uint256",
          "name": "requestId",
          "type": "uint256"
        },
        {
          "indexed": false,
          "internalType": "uint256",
          "name": "boostFactor",
          "type": "uint256"
        }
      ],
      "name": "AIQuantumBoost",
      "type": "event"
    },
    {
      "anonymous": false,
      "inputs": [
        {
          "indexed": true,
          "internalType": "address",
          "name": "previousOwner",
          "type": "address"
        },
        {
          "indexed": true,
          "internalType": "address",
          "name": "newOwner",
          "type": "address"
        }
      ],
      "name": "OwnershipTransferred",
      "type": "event"
    },
    {
      "anonymous": false,
      "inputs": [
        {
          "indexed": true,
          "internalType": "bytes32",
          "name": "hash",
          "type": "bytes32"
        },
        {
          "indexed": false,
          "internalType": "bool",
          "name": "valid",
          "type": "bool"
        }
      ],
      "name": "QuantumSignatureVerified",
      "type": "event"
    },
    {
      "anonymous": false,
      "inputs": [
        {
          "indexed": true,
          "internalType": "uint256",
          "name": "requestId",
          "type": "uint256"
        },
        {
          "indexed": false,
          "internalType": "bool",
          "name": "verified",
          "type": "bool"
        },
        {
          "indexed": false,
          "internalType": "uint256",
          "name": "confidence",
          "type": "uint256"
        }
      ],
      "name": "VerificationCompleted",
      "type": "event"
    },
    {
      "anonymous": false,
      "inputs": [
        {
          "indexed": true,
          "internalType": "uint256",
          "name": "requestId",
          "type": "uint256"
        },
        {
          "indexed": true,
          "internalType": "address",
          "name": "requester",
          "type": "address"
        },
        {
          "indexed": false,
          "internalType": "uint256",
          "name": "metalType",
          "type": "uint256"
        }
      ],
      "name": "VerificationRequested",
      "type": "event"
    },
    {
      "inputs": [],
      "name": "AI_VERIFICATION_FEE",
      "outputs": [
        {
          "internalType": "uint256",
          "name": "",
          "type": "uint256"
        }
      ],
      "stateMutability": "view",
      "type": "function"
    },
    {
      "inputs": [],
      "name": "QUANTUM_BOOST_FACTOR",
      "outputs": [
        {
          "internalType": "uint256",
          "name": "",
          "type": "uint256"
        }
      ],
      "stateMutability": "view",
      "type": "function"
    },
    {
      "inputs": [],
      "name": "QUANTUM_CONFIDENCE_THRESHOLD",
      "outputs": [
        {
          "internalType": "uint256",
          "name": "",
          "type": "uint256"
        }
      ],
      "stateMutability": "view",
      "type": "function"
    },
    {
      "inputs": [
        {
          "internalType": "address",
          "name": "_verifier",
          "type": "address"
        }
      ],
      "name": "authorizeVerifier",
      "outputs": [],
      "stateMutability": "nonpayable",
      "type": "function"
    },
    {
      "inputs": [
        {
          "internalType": "address",
          "name": "",
          "type": "address"
        }
      ],
      "name": "authorizedVerifiers",
      "outputs": [
        {
          "internalType": "bool",
          "name": "",
          "type": "bool"
        }
      ],
      "stateMutability": "view",
      "type": "function"
    },
    {
      "inputs": [],
      "name": "getQuantumEntropy",
      "outputs": [
        {
          "internalType": "uint256",
          "name": "",
          "type": "uint256"
        }
      ],
      "stateMutability": "view",
      "type": "function"
    },
    {
      "inputs": [
        {
          "internalType": "uint256",
          "name": "_requestId",
          "type": "uint256"
        }
      ],
      "name": "getVerification",
      "outputs": [
        {
          "internalType": "address",
          "name": "requester",
          "type": "address"
        },
        {
          "internalType": "uint256",
          "name": "metalType",
          "type": "uint256"
        },
        {
          "internalType": "uint256",
          "name": "weight",
          "type": "uint256"
        },
        {
          "internalType": "uint256",
          "name": "purity",
          "type": "uint256"
        },
        {
          "internalType": "bytes32",
          "name": "sensorDataHash",
          "type": "bytes32"
        },
        {
          "internalType": "uint256",
          "name": "timestamp",
          "type": "uint256"
        },
        {
          "internalType": "bool",
          "name": "verified",
          "type": "bool"
        },
        {
          "internalType": "bytes32",
          "name": "verificationId",
          "type": "bytes32"
        }
      ],
      "stateMutability": "view",
      "type": "function"
    },
    {
      "inputs": [
        {
          "internalType": "uint256",
          "name": "_requestId",
          "type": "uint256"
        }
      ],
      "name": "getVerificationResult",
      "outputs": [
        {
          "internalType": "bool",
          "name": "verified",
          "type": "bool"
        },
        {
          "internalType": "uint256",
          "name": "aiConfidence",
          "type": "uint256"
        },
        {
          "internalType": "uint256",
          "name": "quantumConfidence",
          "type": "uint256"
        },
        {
          "internalType": "bytes32",
          "name": "verificationId",
          "type": "bytes32"
        }
      ],
      "stateMutability": "view",
      "type": "function"
    },
    {
      "inputs": [
        {
          "internalType": "bytes32",
          "name": "_verificationId",
          "type": "bytes32"
        }
      ],
      "name": "isVerificationValid",
      "outputs": [
        {
          "internalType": "bool",
          "name": "",
          "type": "bool"
        }
      ],
      "stateMutability": "view",
      "type": "function"
    },
    {
      "inputs": [],
      "name": "nextRequestId",
      "outputs": [
        {
          "internalType": "uint256",
          "name": "",
          "type": "uint256"
        }
      ],
      "stateMutability": "view",
      "type": "function"
    },
    {
      "inputs": [],
      "name": "owner",
      "outputs": [
        {
          "internalType": "address",
          "name": "",
          "type": "address"
        }
      ],
      "stateMutability": "view",
      "type": "function"
    },
    {
      "inputs": [
        {
          "internalType": "bytes32",
          "name": "",
          "type": "bytes32"
        }
      ],
      "name": "processedVerifications",
      "outputs": [
        {
          "internalType": "bool",
          "name": "",
          "type": "bool"
        }
      ],
      "stateMutability": "view",
      "type": "function"
    },
    {
      "inputs": [],
      "name": "quantumEntropy",
      "outputs": [
        {
          "internalType": "uint256",
          "name": "",
          "type": "uint256"
        }
      ],
      "stateMutability": "view",
      "type": "function"
    },
    {
      "inputs": [],
      "name": "renounceOwnership",
      "outputs": [],
      "stateMutability": "nonpayable",
      "type": "function"
    },
    {
      "inputs": [
        {
          "internalType": "uint256",
          "name": "_metalType",
          "type": "uint256"
        },
        {
          "internalType": "uint256",
          "name": "_weight",
          "type": "uint256"
        },
        {
          "internalType": "uint256",
          "name": "_purity",
          "type": "uint256"
        },
        {
          "internalType": "bytes32",
          "name": "_sensorDataHash",
          "type": "bytes32"
        }
      ],
      "name": "requestQuantumAIVerification",
      "outputs": [
        {
          "internalType": "uint256",
          "name": "",
          "type": "uint256"
        }
      ],
      "stateMutability": "payable",
      "type": "function"
    },
    {
      "inputs": [
        {
          "internalType": "address",
          "name": "_verifier",
          "type": "address"
        }
      ],
      "name": "revokeVerifier",
      "outputs": [],
      "stateMutability": "nonpayable",
      "type": "function"
    },
    {
      "inputs": [
        {
          "internalType": "uint256",
          "name": "_requestId",
          "type": "uint256"
        },
        {
          "internalType": "bool",
          "name": "_verified",
          "type": "bool"
        },
        {
          "internalType": "uint256",
          "name": "_aiConfidence",
          "type": "uint256"
        },
        {
          "internalType": "bytes",
          "name": "_quantumAnalysis",
          "type": "bytes"
        }
      ],
      "name": "submitQuantumAIVerification",
      "outputs": [],
      "stateMutability": "nonpayable",
      "type": "function"
    },
    {
      "inputs": [],
      "name": "totalVerifications",
      "outputs": [
        {
          "internalType": "uint256",
          "name": "",
          "type": "uint256"
        }
      ],
      "stateMutability": "view",
      "type": "function"
    },
    {
      "inputs": [
        {
          "internalType": "address",
          "name": "newOwner",
          "type": "address"
        }
      ],
      "name": "transferOwnership",
      "outputs": [],
      "stateMutability": "nonpayable",
      "type": "function"
    },
    {
      "inputs": [
        {
          "internalType": "uint256",
          "name": "",
          "type": "uint256"
        }
      ],
      "name": "verifications",
      "outputs": [
        {
          "internalType": "uint256",
          "name": "requestId",
          "type": "uint256"
        },
        {
          "internalType": "address",
          "name": "requester",
          "type": "address"
        },
        {
          "internalType": "uint256",
          "name": "metalType",
          "type": "uint256"
        },
        {
          "internalType": "uint256",
          "name": "weight",
          "type": "uint256"
        },
        {
          "internalType": "uint256",
          "name": "purity",
          "type": "uint256"
        },
        {
          "internalType": "bytes32",
          "name": "sensorDataHash",
          "type": "bytes32"
        },
        {
          "internalType": "uint256",
          "name": "timestamp",
          "type": "uint256"
        },
        {
          "internalType": "bool",
          "name": "verified",
          "type": "bool"
        },
        {
          "internalType": "uint256",
          "name": "aiConfidence",
          "type": "uint256"
        },
        {
          "internalType": "uint256",
          "name": "quantumConfidence",
          "type": "uint256"
        },
        {
          "internalType": "bytes32",
          "name": "verificationId",
          "type": "bytes32"
        },
        {
          "components": [
            {
              "internalType": "uint256[4]",
              "name": "publicKey",
              "type": "uint256[4]"
            },
            {
              "internalType": "uint256[8]",
              "name": "privateKey",
              "type": "uint256[8]"
            }
          ],
          "internalType": "struct QuantumSafeCrypto.DilithiumKeyPair",
          "name": "quantumKey",
          "type": "tuple"
        }
      ],
      "stateMutability": "view",
      "type": "function"
    },
    {
      "inputs": [
        {
          "internalType": "uint256",
          "name": "_requestId",
          "type": "uint256"
        },
        {
          "internalType": "bytes",
          "name": "_message",
          "type": "bytes"
        },
        {
          "internalType": "bytes",
          "name": "_signature",
          "type": "bytes"
        },
        {
          "internalType": "uint256[4]",
          "name": "_commitment",
          "type": "uint256[4]"
        }
      ],
      "name": "verifyQuantumSignature",
      "outputs": [
        {
          "internalType": "bool",
          "name": "",
          "type": "bool"
        }
      ],
      "stateMutability": "nonpayable",
      "type": "function"
    },
    {
      "inputs": [],
      "name": "withdrawFees",
      "outputs": [],
      "stateMutability": "nonpayable",
      "type": "function"
    }
  ],
  "bytecode": "0x6080346100b15760008054336001600160a01b0319821681178355906001600160a01b03167f8be0079c531659141344cd1fd0a4f28419497f9722a3daafe3b4186f6b6457e08380a36020820142815244604084015260408352606083019280841060018060401b0385111761009d576040848152905190912060065533825260026020529020805460ff191660011790556115b090816100b78239f35b634e487b7160e01b83526041600452602483fd5b600080fdfe608080604052600436101561001357600080fd5b60003560e01c9081630266b76d1461115857508063155a3b1b1461113657806320ad8cab146110ed578063375736f1146106075780633ea8807a14610c56578063476343ee14610c0857806358937cc814610af85780636a84a98514610ada578063715018a614610a81578063875824d7146108e45780638da5cb5b146108bb5780639a891716146108785780639d0202101461085c578063ac90c1401461083e578063b90b0a101461074f578063bd02a23514610709578063cada7aad1461050b578063d1fddfdf14610625578063f07318d014610607578063f2fde38b1461053c578063f645a4f81461050b5763fc6b48321461011157600080fd5b608036600319011261050657662386f26fc1000034106104c15760016004351480156104b5575b1561047b576024351561043657610384604435101580610428575b156103f25760045461016481611379565b60045560405160208101903382528260408201524260608201526060815261018b816111c8565b519020610196611408565b5061019f611408565b9060005b600481106103b857506020820160005b6008811061035757505050604051906101cb82611172565b82825233602083015260043560408301526024356060830152604435608083015260643560a08301524260c0830152600060e08301526000610100830152600061012083015260006101408301526101608201528160005260016020526040600020815181556001810160018060a01b036020840151166bffffffffffffffffffffffff60a01b82541617905560408201516002820155606082015160038201556080820151600482015560a0820151600582015560c082015160068201556102a960e08301511515600783019060ff801983541691151516179055565b61016061010083015192600893848401556101208101516009840155610140810151600a8401550151805160005b60048110610340575050602001519060005b838110610329576020856040516004358152817fdeb7003ffed8f3df9845e492fd4d38d5871c0b5215d4ce4d14d144e600f7e87a843393a3604051908152f35b60019060208451940193600f8285010155016102e9565b60019060208351930192600b8287010155016102d7565b60648101908181116103a257627fe00161039d926040516020810191878352604082015260408152610388816111e4565b51902006610397828551611469565b52611379565b6101b3565b634e487b7160e01b600052601160045260246000fd5b6103ed90627fe0016040516020810190858252836040820152604081526103de816111e4565b51902006610397828651611442565b6101a3565b60405162461bcd60e51b815260206004820152600e60248201526d496e76616c69642070757269747960901b6044820152606490fd5b506103e86044351115610153565b60405162461bcd60e51b815260206004820152601760248201527f576569676874206d75737420626520706f7369746976650000000000000000006044820152606490fd5b60405162461bcd60e51b8152602060048201526012602482015271496e76616c6964206d6574616c207479706560701b6044820152606490fd5b50600260043514610138565b60405162461bcd60e51b815260206004820152601d60248201527f496e73756666696369656e7420766572696669636174696f6e206665650000006044820152606490fd5b600080fd5b34610506576020366003190112610506576004356000526003602052602060ff604060002054166040519015158152f35b34610506576020366003190112610506576004356001600160a01b03818116918290036105065761056b611321565b81156105b357600054826bffffffffffffffffffffffff60a01b821617600055167f8be0079c531659141344cd1fd0a4f28419497f9722a3daafe3b4186f6b6457e0600080a3005b60405162461bcd60e51b815260206004820152602660248201527f4f776e61626c653a206e6577206f776e657220697320746865207a65726f206160448201526564647265737360d01b6064820152608490fd5b34610506576000366003190112610506576020600654604051908152f35b346105065760203660031901126105065760043560005260016020526080604060002060405161065481611172565b8154815260018060a01b0360018301541660208201526002820154604082015260038201546060820152600482015483820152600582015460a0820152600682015460c082015260ff6007830154169160e082019215158352600881015492610100830193845260098201549261012081019384526101606106e5600b600a86015495610140850196875201611279565b91015251151592519151905191604051938452602084015260408301526060820152f35b34610506576020366003190112610506576004356001600160a01b0381169081900361050657610737611321565b6000908152600260205260409020805460ff19169055005b346105065760208060031936011261050657600435600052600181526040600020908082549260018060a01b0360018201541690600281015460038201546004830154600584015460068501549060ff600787015416926008870154946009880154966107c3600b600a8b01549a01611279565b998b6040519e8f908152015260408d015260608c015260808b015260a08a015260c0890152151560e0880152610100870152610120860152610140850152610810610160850182516112f9565b01519060006101e084015b60088210610829576102e085f35b8280600192865181520194019101909261081b565b34610506576000366003190112610506576020600554604051908152f35b3461050657600036600319011261050657602060405160028152f35b34610506576020366003190112610506576004356001600160a01b03811690819003610506576000526002602052602060ff604060002054166040519015158152f35b34610506576000366003190112610506576000546040516001600160a01b039091168152602090f35b346105065760e03660031901126105065767ffffffffffffffff60243581811161050657610916903690600401611222565b906044359081116105065761092f903690600401611222565b36608312156105065760405191610945836111c8565b8260e492368411610506576020946064905b858210610a72575050610a2a929350600435600052600185526040600020610a216040519161098583611172565b8054835260018101546001600160a01b03908116898501908152600283015460408601526003830154606086015260048301546080860152600583015460a0860152600683015460c0860152600783015460ff16151560e086015260088301546101008601526009830154610120860152600a830154610140860152909161016090610a1390600b01611279565b940193845251161515611388565b5151908461147a565b9081610a3c575b506040519015158152f35b8281519101207fde8fb9885b9e76b22aa2b4eeabf4e07fd5e0dfcd4ed06004f4426a70e33f389e8360405160018152a282610a31565b81358152908601908601610957565b3461050657600036600319011261050657610a9a611321565b600080546001600160a01b0319811682556001600160a01b03167f8be0079c531659141344cd1fd0a4f28419497f9722a3daafe3b4186f6b6457e08280a3005b34610506576000366003190112610506576020600454604051908152f35b34610506576020366003190112610506576004356000526001602052604060002060405190610b2682611172565b8054825260018060a01b03806001830154169160208401928352600281015492604085019384526003820154926060860193845260048301546080870190815260058401549060a0880191825260068501549260c0890193845260ff6007870154169460e08a0195151586526008870154996101009a8b8201526009880154610120820152610160610bc7600b600a8b01549a61014085019b8c5201611279565b91015251169651955190519151925193511515945195604051978852602088015260408701526060860152608085015260a084015260c083015260e0820152f35b3461050657600036600319011261050657610c21611321565b60008080804760018060a01b03825416828215610c4d575bf115610c4157005b6040513d6000823e3d90fd5b506108fc610c39565b34610506576080366003190112610506576024351515602435036105065760643567ffffffffffffffff811161050657610c94903690600401611222565b33600052600260205260ff60406000205416156110a8576004356000526001602052610cd160018060a01b03600160406000200154161515611388565b600435600052600160205260ff60076040600020015416611070576004356000526001602052604060002090601f815160208301200691826046016046116103a25760443592604681810111611017575b6046818501018085116103a25760011c936050851061100e575b60243580611003575b610d5e90600785019060ff801983541691151516179055565b6008830155604601600982015560ff600782015416610df4575b60079060ff92610da5610db3600654926040519283916020830195865260408084015260608301906113c8565b03601f198101835282611200565b51902060065501541690604051911515825260208201527fcb01610cf8552014d2b9dacc2cc7ed558f6e40e4ba49782c655df3a042f722b3604060043592a2005b60018060a01b036001820154169060028101549260038201546004830154600584015491604051966020880196600435885260408901526060880152608087015260a086015260c08501528460e085015260e08452610e52846111ab565b8351832080600a840155610e68600b8401611279565b936080604051610e77816111c8565b369037855190209360405194610e8c866111c8565b608036873760005b60048110610fbc575050604051610eaa816111c8565b608036823760005b60048110610f6d57505050610ece6040519460208601906112f9565b6080845260a084019484861067ffffffffffffffff871117610f575785610f1f60079660ff98604052610f0d60c08201946020865260e08301906113c8565b0360bf1981018352609f190182611200565b5190201880600a8401556000526003602052604060002060018519825416179055610f4b600554611379565b60055592509050610d78565b634e487b7160e01b600052604160045260246000fd5b80627fe001610f7f610fb7938a611442565b51610f8b838751611442565b516040519060208201928352604082015260408152610fa9816111e4565b519020066103978285611442565b610eb2565b80627fe001610fd2610ffe936020870151611469565b516040516020810191868352604082015260408152610ff0816111e4565b51902006610397828a611442565b610e94565b506050851015610d45565b60509450610d3c565b8360011b93808504600214901517156103a25760648411611067575b604051600281527f8376d4f28ee19b4a2fa547cf9f8545780c9eabf38fa37e375a9e0d34717397f0602060043592a2610d22565b60649350611033565b60405162461bcd60e51b815260206004820152601060248201526f105b1c9958591e481d995c9a599a595960821b6044820152606490fd5b60405162461bcd60e51b815260206004820152601760248201527f4e6f7420617574686f72697a65642076657269666965720000000000000000006044820152606490fd5b34610506576020366003190112610506576004356001600160a01b038116908190036105065761111b611321565b6000908152600260205260409020805460ff19166001179055005b34610506576000366003190112610506576020604051662386f26fc100008152f35b346105065760003660031901126105065780605060209252f35b610180810190811067ffffffffffffffff821117610f5757604052565b6040810190811067ffffffffffffffff821117610f5757604052565b610100810190811067ffffffffffffffff821117610f5757604052565b6080810190811067ffffffffffffffff821117610f5757604052565b6060810190811067ffffffffffffffff821117610f5757604052565b90601f8019910116810190811067ffffffffffffffff821117610f5757604052565b81601f820112156105065780359067ffffffffffffffff8211610f575760405192611257601f8401601f191660200185611200565b8284526020838301011161050657816000926020809301838601378301015290565b90604051916112878361118f565b6040518390826000825b600482106112e3575050506112a5816111c8565b8152604051916004016000835b600882106112cd575050506020906112c9836111ab565b0152565b60016020819285548152019301910190916112b2565b6001602081928554815201930191019091611291565b6000915b6004831061130a57505050565b6001908251815260208091019201920191906112fd565b6000546001600160a01b0316330361133557565b606460405162461bcd60e51b815260206004820152602060248201527f4f776e61626c653a2063616c6c6572206973206e6f7420746865206f776e65726044820152fd5b60001981146103a25760010190565b1561138f57565b60405162461bcd60e51b815260206004820152601160248201527014995c5d595cdd081b9bdd08199bdd5b99607a1b6044820152606490fd5b919082519283825260005b8481106113f4575050826000602080949584010152601f8019910116010190565b6020818301810151848301820152016113d3565b604051906114158261118f565b81604051611422816111c8565b60803682378152602060405191611438836111ab565b6101003684370152565b9060048110156114535760051b0190565b634e487b7160e01b600052603260045260246000fd5b9060088110156114535760051b0190565b919282516020809401209082518301936080848287019603126105065784603f85011215610506576040948551946114b1866111c8565b859060a081019283116105065783809101915b83831061156a5750505050600094855b600481106114e9575050505050505050600190565b6114f38189611442565b518251848101918783528482015283815261150d816111e4565b627fe00191829151902006906115238389611442565b5161152e8488611442565b5185519087820192835286820152858152611548816111e4565b519020060361155f5761155a90611379565b6114d4565b505050505050905090565b82518152918101918491016114c456fea26469706673582212206c73850de8b3e1caa59768e6090a06bfd0b7ccff8aa1f15dea0d5d472dcc6a2164736f6c63430008130033",
  "linkReferences": {},
  "deployedLinkReferences": {}
}