{
  "_format": "hh-sol-artifact-1",
  "contractName": "QuantumAIVerifier",
  "sourceName": "contracts/QuantumAIVerifier.sol",
  "abi": [
    {
      "inputs": [],
      "stateMutability": "nonpayable",
      "type": "constructor"
    },
    {
      "anonymous": false,
      "inputs": [
        {
          "indexed": true,
          "internalType": "uint256",
          "name": "requestId",
          "type": "uint256"
        },
        {
          "indexed": false,
          "internalType": "uint256",
          "name": "boostFactor",
          "type": "uint256"
        }
      ],
      "name": "AIQuantumBoost",
      "type": "event"
    },
    {
      "anonymous": false,
      "inputs": [
        {
          "indexed": true,
          "internalType": "address",
          "name": "previousOwner",
          "type": "address"
        },
        {
          "indexed": true,
          "internalType": "address",
          "name": "newOwner",
          "type": "address"
        }
      ],
      "name": "OwnershipTransferred",
      "type": "event"
    },
    {
      "anonymous": false,
      "inputs": [
        {
          "indexed": true,
          "internalType": "bytes32",
          "name": "hash",
          "type": "bytes32"
        },
        {
          "indexed": false,
          "internalType": "bool",
          "name": "valid",
          "type": "bool"
        }
      ],
      "name": "QuantumSignatureVerified",
      "type": "event"
    },
    {
      "anonymous": false,
      "inputs": [
        {
          "indexed": true,
          "internalType": "uint256",
          "name": "requestId",
          "type": "uint256"
        },
        {
          "indexed": false,
          "internalType": "bool",
          "name": "verified",
          "type": "bool"
        },
        {
          "indexed": false,
          "internalType": "uint256",
          "name": "confidence",
          "type": "uint256"
        }
      ],
      "name": "VerificationCompleted",
      "type": "event"
    },
    {
      "anonymous": false,
      "inputs": [
        {
          "indexed": true,
          "internalType": "uint256",
          "name": "requestId",
          "type": "uint256"
        },
        {
          "indexed": true,
          "internalType": "address",
          "name": "requester",
          "type": "address"
        },
        {
          "indexed": false,
          "internalType": "uint256",
          "name": "metalType",
          "type": "uint256"
        }
      ],
      "name": "VerificationRequested",
      "type": "event"
    },
    {
      "inputs": [],
      "name": "AI_VERIFICATION_FEE",
      "outputs": [
        {
          "internalType": "uint256",
          "name": "",
          "type": "uint256"
        }
      ],
      "stateMutability": "view",
      "type": "function"
    },
    {
      "inputs": [],
      "name": "QUANTUM_BOOST_FACTOR",
      "outputs": [
        {
          "internalType": "uint256",
          "name": "",
          "type": "uint256"
        }
      ],
      "stateMutability": "view",
      "type": "function"
    },
    {
      "inputs": [],
      "name": "QUANTUM_CONFIDENCE_THRESHOLD",
      "outputs": [
        {
          "internalType": "uint256",
          "name": "",
          "type": "uint256"
        }
      ],
      "stateMutability": "view",
      "type": "function"
    },
    {
      "inputs": [
        {
          "internalType": "address",
          "name": "_verifier",
          "type": "address"
        }
      ],
      "name": "authorizeVerifier",
      "outputs": [],
      "stateMutability": "nonpayable",
      "type": "function"
    },
    {
      "inputs": [
        {
          "internalType": "address",
          "name": "",
          "type": "address"
        }
      ],
      "name": "authorizedVerifiers",
      "outputs": [
        {
          "internalType": "bool",
          "name": "",
          "type": "bool"
        }
      ],
      "stateMutability": "view",
      "type": "function"
    },
    {
      "inputs": [],
      "name": "getQuantumEntropy",
      "outputs": [
        {
          "internalType": "uint256",
          "name": "",
          "type": "uint256"
        }
      ],
      "stateMutability": "view",
      "type": "function"
    },
    {
      "inputs": [
        {
          "internalType": "uint256",
          "name": "_requestId",
          "type": "uint256"
        }
      ],
      "name": "getVerification",
      "outputs": [
        {
          "internalType": "address",
          "name": "requester",
          "type": "address"
        },
        {
          "internalType": "uint256",
          "name": "metalType",
          "type": "uint256"
        },
        {
          "internalType": "uint256",
          "name": "weight",
          "type": "uint256"
        },
        {
          "internalType": "uint256",
          "name": "purity",
          "type": "uint256"
        },
        {
          "internalType": "bytes32",
          "name": "sensorDataHash",
          "type": "bytes32"
        },
        {
          "internalType": "uint256",
          "name": "timestamp",
          "type": "uint256"
        },
        {
          "internalType": "bool",
          "name": "verified",
          "type": "bool"
        },
        {
          "internalType": "bytes32",
          "name": "verificationId",
          "type": "bytes32"
        }
      ],
      "stateMutability": "view",
      "type": "function"
    },
    {
      "inputs": [
        {
          "internalType": "uint256",
          "name": "_requestId",
          "type": "uint256"
        }
      ],
      "name": "getVerificationResult",
      "outputs": [
        {
          "internalType": "bool",
          "name": "verified",
          "type": "bool"
        },
        {
          "internalType": "uint256",
          "name": "aiConfidence",
          "type": "uint256"
        },
        {
          "internalType": "uint256",
          "name": "quantumConfidence",
          "type": "uint256"
        },
        {
          "internalType": "bytes32",
          "name": "verificationId",
          "type": "bytes32"
        }
      ],
      "stateMutability": "view",
      "type": "function"
    },
    {
      "inputs": [
        {
          "internalType": "bytes32",
          "name": "_verificationId",
          "type": "bytes32"
        }
      ],
      "name": "isVerificationValid",
      "outputs": [
        {
          "internalType": "bool",
          "name": "",
          "type": "bool"
        }
      ],
      "stateMutability": "view",
      "type": "function"
    },
    {
      "inputs": [],
      "name": "nextRequestId",
      "outputs": [
        {
          "internalType": "uint256",
          "name": "",
          "type": "uint256"
        }
      ],
      "stateMutability": "view",
      "type": "function"
    },
    {
      "inputs": [],
      "name": "owner",
      "outputs": [
        {
          "internalType": "address",
          "name": "",
          "type": "address"
        }
      ],
      "stateMutability": "view",
      "type": "function"
    },
    {
      "inputs": [
        {
          "internalType": "bytes32",
          "name": "",
          "type": "bytes32"
        }
      ],
      "name": "processedVerifications",
      "outputs": [
        {
          "internalType": "bool",
          "name": "",
          "type": "bool"
        }
      ],
      "stateMutability": "view",
      "type": "function"
    },
    {
      "inputs": [],
      "name": "quantumEntropy",
      "outputs": [
        {
          "internalType": "uint256",
          "name": "",
          "type": "uint256"
        }
      ],
      "stateMutability": "view",
      "type": "function"
    },
    {
      "inputs": [],
      "name": "renounceOwnership",
      "outputs": [],
      "stateMutability": "nonpayable",
      "type": "function"
    },
    {
      "inputs": [
        {
          "internalType": "uint256",
          "name": "_metalType",
          "type": "uint256"
        },
        {
          "internalType": "uint256",
          "name": "_weight",
          "type": "uint256"
        },
        {
          "internalType": "uint256",
          "name": "_purity",
          "type": "uint256"
        },
        {
          "internalType": "bytes32",
          "name": "_sensorDataHash",
          "type": "bytes32"
        }
      ],
      "name": "requestQuantumAIVerification",
      "outputs": [
        {
          "internalType": "uint256",
          "name": "",
          "type": "uint256"
        }
      ],
      "stateMutability": "payable",
      "type": "function"
    },
    {
      "inputs": [
        {
          "internalType": "address",
          "name": "_verifier",
          "type": "address"
        }
      ],
      "name": "revokeVerifier",
      "outputs": [],
      "stateMutability": "nonpayable",
      "type": "function"
    },
    {
      "inputs": [
        {
          "internalType": "uint256",
          "name": "_requestId",
          "type": "uint256"
        },
        {
          "internalType": "bool",
          "name": "_verified",
          "type": "bool"
        },
        {
          "internalType": "uint256",
          "name": "_aiConfidence",
          "type": "uint256"
        },
        {
          "internalType": "bytes",
          "name": "_quantumAnalysis",
          "type": "bytes"
        }
      ],
      "name": "submitQuantumAIVerification",
      "outputs": [],
      "stateMutability": "nonpayable",
      "type": "function"
    },
    {
      "inputs": [],
      "name": "totalVerifications",
      "outputs": [
        {
          "internalType": "uint256",
          "name": "",
          "type": "uint256"
        }
      ],
      "stateMutability": "view",
      "type": "function"
    },
    {
      "inputs": [
        {
          "internalType": "address",
          "name": "newOwner",
          "type": "address"
        }
      ],
      "name": "transferOwnership",
      "outputs": [],
      "stateMutability": "nonpayable",
      "type": "function"
    },
    {
      "inputs": [
        {
          "internalType": "uint256",
          "name": "",
          "type": "uint256"
        }
      ],
      "name": "verifications",
      "outputs": [
        {
          "internalType": "uint256",
          "name": "requestId",
          "type": "uint256"
        },
        {
          "internalType": "address",
          "name": "requester",
          "type": "address"
        },
        {
          "internalType": "uint256",
          "name": "metalType",
          "type": "uint256"
        },
        {
          "internalType": "uint256",
          "name": "weight",
          "type": "uint256"
        },
        {
          "internalType": "uint256",
          "name": "purity",
          "type": "uint256"
        },
        {
          "internalType": "bytes32",
          "name": "sensorDataHash",
          "type": "bytes32"
        },
        {
          "internalType": "uint256",
          "name": "timestamp",
          "type": "uint256"
        },
        {
          "internalType": "bool",
          "name": "verified",
          "type": "bool"
        },
        {
          "internalType": "uint256",
          "name": "aiConfidence",
          "type": "uint256"
        },
        {
          "internalType": "uint256",
          "name": "quantumConfidence",
          "type": "uint256"
        },
        {
          "internalType": "bytes32",
          "name": "verificationId",
          "type": "bytes32"
        },
        {
          "components": [
            {
              "internalType": "uint256[4]",
              "name": "publicKey",
              "type": "uint256[4]"
            },
            {
              "internalType": "uint256[8]",
              "name": "privateKey",
              "type": "uint256[8]"
            }
          ],
          "internalType": "struct QuantumSafeCrypto.DilithiumKeyPair",
          "name": "quantumKey",
          "type": "tuple"
        }
      ],
      "stateMutability": "view",
      "type": "function"
    },
    {
      "inputs": [
        {
          "internalType": "uint256",
          "name": "_requestId",
          "type": "uint256"
        },
        {
          "internalType": "bytes",
          "name": "_message",
          "type": "bytes"
        },
        {
          "internalType": "bytes",
          "name": "_signature",
          "type": "bytes"
        },
        {
          "internalType": "uint256[4]",
          "name": "_commitment",
          "type": "uint256[4]"
        }
      ],
      "name": "verifyQuantumSignature",
      "outputs": [
        {
          "internalType": "bool",
          "name": "",
          "type": "bool"
        }
      ],
      "stateMutability": "nonpayable",
      "type": "function"
    },
    {
      "inputs": [],
      "name": "withdrawFees",
      "outputs": [],
      "stateMutability": "nonpayable",
      "type": "function"
    }
  ],
  "bytecode": "0x60806040523480156200001157600080fd5b506200003262000026620000c460201b60201c565b620000cc60201b60201c565b424460405160200162000047929190620001ab565b6040516020818303038152906040528051906020012060001c6006819055506001600260003373ffffffffffffffffffffffffffffffffffffffff1673ffffffffffffffffffffffffffffffffffffffff16815260200190815260200160002060006101000a81548160ff021916908315150217905550620001d8565b600033905090565b60008060009054906101000a900473ffffffffffffffffffffffffffffffffffffffff169050816000806101000a81548173ffffffffffffffffffffffffffffffffffffffff021916908373ffffffffffffffffffffffffffffffffffffffff1602179055508173ffffffffffffffffffffffffffffffffffffffff168173ffffffffffffffffffffffffffffffffffffffff167f8be0079c531659141344cd1fd0a4f28419497f9722a3daafe3b4186f6b6457e060405160405180910390a35050565b6000819050919050565b620001a58162000190565b82525050565b6000604082019050620001c260008301856200019a565b620001d160208301846200019a565b9392505050565b612f2880620001e86000396000f3fe6080604052600436106101355760003560e01c80639a891716116100ab578063cada7aad1161006f578063cada7aad14610416578063d1fddfdf14610453578063f07318d014610493578063f2fde38b146104be578063f645a4f8146104e7578063fc6b48321461052457610135565b80639a891716146103125780639d0202101461034f578063ac90c1401461037a578063b90b0a10146103a5578063bd02a235146103ed57610135565b8063476343ee116100fd578063476343ee1461020d57806358937cc8146102245780636a84a98514610268578063715018a614610293578063875824d7146102aa5780638da5cb5b146102e757610135565b80630266b76d1461013a578063155a3b1b1461016557806320ad8cab14610190578063375736f1146101b95780633ea8807a146101e4575b600080fd5b34801561014657600080fd5b5061014f610554565b60405161015c9190611d94565b60405180910390f35b34801561017157600080fd5b5061017a610559565b6040516101879190611d94565b60405180910390f35b34801561019c57600080fd5b506101b760048036038101906101b29190611e21565b610564565b005b3480156101c557600080fd5b506101ce6105c7565b6040516101db9190611d94565b60405180910390f35b3480156101f057600080fd5b5061020b60048036038101906102069190611ff8565b6105d1565b005b34801561021957600080fd5b50610222610a87565b005b34801561023057600080fd5b5061024b6004803603810190610246919061207b565b610ae5565b60405161025f9897969594939291906120df565b60405180910390f35b34801561027457600080fd5b5061027d610cc2565b60405161028a9190611d94565b60405180910390f35b34801561029f57600080fd5b506102a8610cc8565b005b3480156102b657600080fd5b506102d160048036038101906102cc9190612213565b610cdc565b6040516102de91906122b2565b60405180910390f35b3480156102f357600080fd5b506102fc610f49565b60405161030991906122cd565b60405180910390f35b34801561031e57600080fd5b5061033960048036038101906103349190611e21565b610f72565b60405161034691906122b2565b60405180910390f35b34801561035b57600080fd5b50610364610f92565b6040516103719190611d94565b60405180910390f35b34801561038657600080fd5b5061038f610f97565b60405161039c9190611d94565b60405180910390f35b3480156103b157600080fd5b506103cc60048036038101906103c7919061207b565b610f9d565b6040516103e49c9b9a99989796959493929190612447565b60405180910390f35b3480156103f957600080fd5b50610414600480360381019061040f9190611e21565b6110be565b005b34801561042257600080fd5b5061043d6004803603810190610438919061252d565b611121565b60405161044a91906122b2565b60405180910390f35b34801561045f57600080fd5b5061047a6004803603810190610475919061207b565b611141565b60405161048a949392919061255a565b60405180910390f35b34801561049f57600080fd5b506104a86112fa565b6040516104b59190611d94565b60405180910390f35b3480156104ca57600080fd5b506104e560048036038101906104e09190611e21565b611300565b005b3480156104f357600080fd5b5061050e6004803603810190610509919061252d565b611383565b60405161051b91906122b2565b60405180910390f35b61053e6004803603810190610539919061259f565b6113ad565b60405161054b9190611d94565b60405180910390f35b605081565b662386f26fc1000081565b61056c61171a565b6001600260008373ffffffffffffffffffffffffffffffffffffffff1673ffffffffffffffffffffffffffffffffffffffff16815260200190815260200160002060006101000a81548160ff02191690831515021790555050565b6000600654905090565b600260003373ffffffffffffffffffffffffffffffffffffffff1673ffffffffffffffffffffffffffffffffffffffff16815260200190815260200160002060009054906101000a900460ff1661065d576040517f08c379a000000000000000000000000000000000000000000000000000000000815260040161065490612663565b60405180910390fd5b600073ffffffffffffffffffffffffffffffffffffffff166001600086815260200190815260200160002060010160009054906101000a900473ffffffffffffffffffffffffffffffffffffffff1673ffffffffffffffffffffffffffffffffffffffff1603610702576040517f08c379a00000000000000000000000000000000000000000000000000000000081526004016106f9906126cf565b60405180910390fd5b6001600085815260200190815260200160002060070160009054906101000a900460ff1615610766576040517f08c379a000000000000000000000000000000000000000000000000000000000815260040161075d9061273b565b60405180910390fd5b6000600160008681526020019081526020016000209050600061078883611798565b9050600084905060468211156107ef576002856107a5919061278a565b905060648111156107b557606490505b867f8376d4f28ee19b4a2fa547cf9f8545780c9eabf38fa37e375a9e0d34717397f060026040516107e69190611d94565b60405180910390a25b6000600283836107ff91906127cc565b610809919061282f565b9050868015610819575060508110155b8460070160006101000a81548160ff0219169083151502179055508184600801819055508284600901819055508360070160009054906101000a900460ff16156109fe576000888560010160009054906101000a900473ffffffffffffffffffffffffffffffffffffffff168660020154876003015488600401548960050154876040516020016108b09796959493929190612860565b60405160208183030381529060405290506108ca816117c3565b85600a01819055506109748186600b0160405180604001604052908160008201600480602002604051908101604052809291908260048015610921576020028201915b81548152602001906001019080831161090d575b5050505050815260200160048201600880602002604051908101604052809291908260088015610966576020028201915b815481526020019060010190808311610952575b5050505050815250506117d4565b505080604051602001610987919061294e565b6040516020818303038152906040528051906020012060001c85600a015460001c1860001b85600a018190555060016003600087600a0154815260200190815260200160002060006101000a81548160ff021916908315150217905550600560008154809291906109f790612970565b9190505550505b60065485604051602001610a139291906129b8565b6040516020818303038152906040528051906020012060001c600681905550877fcb01610cf8552014d2b9dacc2cc7ed558f6e40e4ba49782c655df3a042f722b38560070160009054906101000a900460ff1683604051610a759291906129e8565b60405180910390a25050505050505050565b610a8f61171a565b6000479050610a9c610f49565b73ffffffffffffffffffffffffffffffffffffffff166108fc829081150290604051600060405180830381858888f19350505050158015610ae1573d6000803e3d6000fd5b5050565b6000806000806000806000806000600160008b815260200190815260200160002060405180610180016040529081600082015481526020016001820160009054906101000a900473ffffffffffffffffffffffffffffffffffffffff1673ffffffffffffffffffffffffffffffffffffffff1673ffffffffffffffffffffffffffffffffffffffff16815260200160028201548152602001600382015481526020016004820154815260200160058201548152602001600682015481526020016007820160009054906101000a900460ff161515151581526020016008820154815260200160098201548152602001600a8201548152602001600b820160405180604001604052908160008201600480602002604051908101604052809291908260048015610c29576020028201915b815481526020019060010190808311610c15575b5050505050815260200160048201600880602002604051908101604052809291908260088015610c6e576020028201915b815481526020019060010190808311610c5a575b50505050508152505081525050905080602001518160400151826060015183608001518460a001518560c001518660e001518761014001519850985098509850985098509850985050919395975091939597565b60045481565b610cd061171a565b610cda6000611962565b565b6000806001600087815260200190815260200160002060405180610180016040529081600082015481526020016001820160009054906101000a900473ffffffffffffffffffffffffffffffffffffffff1673ffffffffffffffffffffffffffffffffffffffff1673ffffffffffffffffffffffffffffffffffffffff16815260200160028201548152602001600382015481526020016004820154815260200160058201548152602001600682015481526020016007820160009054906101000a900460ff161515151581526020016008820154815260200160098201548152602001600a8201548152602001600b820160405180604001604052908160008201600480602002604051908101604052809291908260048015610e15576020028201915b815481526020019060010190808311610e01575b5050505050815260200160048201600880602002604051908101604052809291908260088015610e5a576020028201915b815481526020019060010190808311610e46575b505050505081525050815250509050600073ffffffffffffffffffffffffffffffffffffffff16816020015173ffffffffffffffffffffffffffffffffffffffff1603610edc576040517f08c379a0000000000000000000000000000000000000000000000000000000008152600401610ed3906126cf565b60405180910390fd5b6000610ef386868461016001516000015187611a26565b90508015610f3c5785805190602001207fde8fb9885b9e76b22aa2b4eeabf4e07fd5e0dfcd4ed06004f4426a70e33f389e6001604051610f3391906122b2565b60405180910390a25b8092505050949350505050565b60008060009054906101000a900473ffffffffffffffffffffffffffffffffffffffff16905090565b60026020528060005260406000206000915054906101000a900460ff1681565b600281565b60055481565b60016020528060005260406000206000915090508060000154908060010160009054906101000a900473ffffffffffffffffffffffffffffffffffffffff16908060020154908060030154908060040154908060050154908060060154908060070160009054906101000a900460ff169080600801549080600901549080600a01549080600b016040518060400160405290816000820160048060200260405190810160405280929190826004801561106b576020028201915b815481526020019060010190808311611057575b50505050508152602001600482016008806020026040519081016040528092919082600880156110b0576020028201915b81548152602001906001019080831161109c575b50505050508152505090508c565b6110c661171a565b6000600260008373ffffffffffffffffffffffffffffffffffffffff1673ffffffffffffffffffffffffffffffffffffffff16815260200190815260200160002060006101000a81548160ff02191690831515021790555050565b60036020528060005260406000206000915054906101000a900460ff1681565b60008060008060006001600087815260200190815260200160002060405180610180016040529081600082015481526020016001820160009054906101000a900473ffffffffffffffffffffffffffffffffffffffff1673ffffffffffffffffffffffffffffffffffffffff1673ffffffffffffffffffffffffffffffffffffffff16815260200160028201548152602001600382015481526020016004820154815260200160058201548152602001600682015481526020016007820160009054906101000a900460ff161515151581526020016008820154815260200160098201548152602001600a8201548152602001600b82016040518060400160405290816000820160048060200260405190810160405280929190826004801561127f576020028201915b81548152602001906001019080831161126b575b50505050508152602001600482016008806020026040519081016040528092919082600880156112c4576020028201915b8154815260200190600101908083116112b0575b5050505050815250508152505090508060e001518161010001518261012001518361014001519450945094509450509193509193565b60065481565b61130861171a565b600073ffffffffffffffffffffffffffffffffffffffff168173ffffffffffffffffffffffffffffffffffffffff1603611377576040517f08c379a000000000000000000000000000000000000000000000000000000000815260040161136e90612a83565b60405180910390fd5b61138081611962565b50565b60006003600083815260200190815260200160002060009054906101000a900460ff169050919050565b6000662386f26fc100003410156113f9576040517f08c379a00000000000000000000000000000000000000000000000000000000081526004016113f090612aef565b60405180910390fd5b60018514806114085750600285145b611447576040517f08c379a000000000000000000000000000000000000000000000000000000000815260040161143e90612b5b565b60405180910390fd5b6000841161148a576040517f08c379a000000000000000000000000000000000000000000000000000000000815260040161148190612bc7565b60405180910390fd5b610384831015801561149e57506103e88311155b6114dd576040517f08c379a00000000000000000000000000000000000000000000000000000000081526004016114d490612c33565b60405180910390fd5b6000600460008154809291906114f290612970565b919050559050600033824260405160200161150f93929190612c53565b6040516020818303038152906040528051906020012060001c9050600061153582611b52565b90506040518061018001604052808481526020013373ffffffffffffffffffffffffffffffffffffffff16815260200189815260200188815260200187815260200186815260200142815260200160001515815260200160008152602001600081526020016000801b815260200182815250600160008581526020019081526020016000206000820151816000015560208201518160010160006101000a81548173ffffffffffffffffffffffffffffffffffffffff021916908373ffffffffffffffffffffffffffffffffffffffff16021790555060408201518160020155606082015181600301556080820151816004015560a0820151816005015560c0820151816006015560e08201518160070160006101000a81548160ff0219169083151502179055506101008201518160080155610120820151816009015561014082015181600a015561016082015181600b0160008201518160000190600461169f929190611c73565b506020820151816004019060086116b7929190611cb3565b5050509050503373ffffffffffffffffffffffffffffffffffffffff16837fdeb7003ffed8f3df9845e492fd4d38d5871c0b5215d4ce4d14d144e600f7e87a8a6040516117049190611d94565b60405180910390a3829350505050949350505050565b611722611c6b565b73ffffffffffffffffffffffffffffffffffffffff16611740610f49565b73ffffffffffffffffffffffffffffffffffffffff1614611796576040517f08c379a000000000000000000000000000000000000000000000000000000000815260040161178d90612cd6565b60405180910390fd5b565b6000808280519060200120905060008160001c90506065816117ba9190612cf6565b92505050919050565b600081805190602001209050919050565b60606117de611cf3565b6000848051906020012090506117f2611cf3565b60005b600481101561188257627fe001838760200151836008811061181a57611819612d27565b5b6020020151604051602001611830929190612d56565b6040516020818303038152906040528051906020012060001c6118539190612cf6565b82826004811061186657611865612d27565b5b602002018181525050808061187a90612970565b9150506117f5565b5061188b611cf3565b60005b600481101561193257627fe0018382600481106118ae576118ad612d27565b5b6020020151886000015183600481106118ca576118c9612d27565b5b60200201516040516020016118e0929190612d7f565b6040516020818303038152906040528051906020012060001c6119039190612cf6565b82826004811061191657611915612d27565b5b602002018181525050808061192a90612970565b91505061188e565b50816040516020016119449190612e0a565b60405160208183030381529060405281945094505050509250929050565b60008060009054906101000a900473ffffffffffffffffffffffffffffffffffffffff169050816000806101000a81548173ffffffffffffffffffffffffffffffffffffffff021916908373ffffffffffffffffffffffffffffffffffffffff1602179055508173ffffffffffffffffffffffffffffffffffffffff168173ffffffffffffffffffffffffffffffffffffffff167f8be0079c531659141344cd1fd0a4f28419497f9722a3daafe3b4186f6b6457e060405160405180910390a35050565b60008085805190602001209050600085806020019051810190611a499190612ec5565b905060005b6004811015611b42576000627fe00184888460048110611a7157611a70612d27565b5b6020020151604051602001611a87929190612d56565b6040516020818303038152906040528051906020012060001c611aaa9190612cf6565b90506000627fe001848460048110611ac557611ac4612d27565b5b6020020151888560048110611add57611adc612d27565b5b6020020151604051602001611af3929190612d7f565b6040516020818303038152906040528051906020012060001c611b169190612cf6565b9050808214611b2d57600095505050505050611b4a565b50508080611b3a90612970565b915050611a4e565b506001925050505b949350505050565b611b5a611d15565b611b62611d15565b60005b6004811015611bdb57627fe0018482604051602001611b85929190612d7f565b6040516020818303038152906040528051906020012060001c611ba89190612cf6565b82600001518260048110611bbf57611bbe612d27565b5b6020020181815250508080611bd390612970565b915050611b65565b5060005b6008811015611c6157627fe00184606483611bfa91906127cc565b604051602001611c0b929190612d7f565b6040516020818303038152906040528051906020012060001c611c2e9190612cf6565b82602001518260088110611c4557611c44612d27565b5b6020020181815250508080611c5990612970565b915050611bdf565b5080915050919050565b600033905090565b8260048101928215611ca2579160200282015b82811115611ca1578251825591602001919060010190611c86565b5b509050611caf9190611d3b565b5090565b8260088101928215611ce2579160200282015b82811115611ce1578251825591602001919060010190611cc6565b5b509050611cef9190611d3b565b5090565b6040518060800160405280600490602082028036833780820191505090505090565b6040518060400160405280611d28611cf3565b8152602001611d35611d58565b81525090565b5b80821115611d54576000816000905550600101611d3c565b5090565b604051806101000160405280600890602082028036833780820191505090505090565b6000819050919050565b611d8e81611d7b565b82525050565b6000602082019050611da96000830184611d85565b92915050565b6000604051905090565b600080fd5b600080fd5b600073ffffffffffffffffffffffffffffffffffffffff82169050919050565b6000611dee82611dc3565b9050919050565b611dfe81611de3565b8114611e0957600080fd5b50565b600081359050611e1b81611df5565b92915050565b600060208284031215611e3757611e36611db9565b5b6000611e4584828501611e0c565b91505092915050565b611e5781611d7b565b8114611e6257600080fd5b50565b600081359050611e7481611e4e565b92915050565b60008115159050919050565b611e8f81611e7a565b8114611e9a57600080fd5b50565b600081359050611eac81611e86565b92915050565b600080fd5b600080fd5b6000601f19601f8301169050919050565b7f4e487b7100000000000000000000000000000000000000000000000000000000600052604160045260246000fd5b611f0582611ebc565b810181811067ffffffffffffffff82111715611f2457611f23611ecd565b5b80604052505050565b6000611f37611daf565b9050611f438282611efc565b919050565b600067ffffffffffffffff821115611f6357611f62611ecd565b5b611f6c82611ebc565b9050602081019050919050565b82818337600083830152505050565b6000611f9b611f9684611f48565b611f2d565b905082815260208101848484011115611fb757611fb6611eb7565b5b611fc2848285611f79565b509392505050565b600082601f830112611fdf57611fde611eb2565b5b8135611fef848260208601611f88565b91505092915050565b6000806000806080858703121561201257612011611db9565b5b600061202087828801611e65565b945050602061203187828801611e9d565b935050604061204287828801611e65565b925050606085013567ffffffffffffffff81111561206357612062611dbe565b5b61206f87828801611fca565b91505092959194509250565b60006020828403121561209157612090611db9565b5b600061209f84828501611e65565b91505092915050565b6120b181611de3565b82525050565b6000819050919050565b6120ca816120b7565b82525050565b6120d981611e7a565b82525050565b6000610100820190506120f5600083018b6120a8565b612102602083018a611d85565b61210f6040830189611d85565b61211c6060830188611d85565b61212960808301876120c1565b61213660a0830186611d85565b61214360c08301856120d0565b61215060e08301846120c1565b9998505050505050505050565b600067ffffffffffffffff82111561217857612177611ecd565b5b602082029050919050565b600080fd5b600061219b6121968461215d565b611f2d565b905080602084028301858111156121b5576121b4612183565b5b835b818110156121de57806121ca8882611e65565b8452602084019350506020810190506121b7565b5050509392505050565b600082601f8301126121fd576121fc611eb2565b5b600461220a848285612188565b91505092915050565b60008060008060e0858703121561222d5761222c611db9565b5b600061223b87828801611e65565b945050602085013567ffffffffffffffff81111561225c5761225b611dbe565b5b61226887828801611fca565b935050604085013567ffffffffffffffff81111561228957612288611dbe565b5b61229587828801611fca565b92505060606122a6878288016121e8565b91505092959194509250565b60006020820190506122c760008301846120d0565b92915050565b60006020820190506122e260008301846120a8565b92915050565b600060049050919050565b600081905092915050565b6000819050919050565b61231181611d7b565b82525050565b60006123238383612308565b60208301905092915050565b6000602082019050919050565b612345816122e8565b61234f81846122f3565b925061235a826122fe565b8060005b8381101561238b5781516123728782612317565b965061237d8361232f565b92505060018101905061235e565b505050505050565b600060089050919050565b600081905092915050565b6000819050919050565b6000602082019050919050565b6123c981612393565b6123d3818461239e565b92506123de826123a9565b8060005b8381101561240f5781516123f68782612317565b9650612401836123b3565b9250506001810190506123e2565b505050505050565b6101808201600082015161242e600085018261233c565b50602082015161244160808501826123c0565b50505050565b60006102e08201905061245d600083018f611d85565b61246a602083018e6120a8565b612477604083018d611d85565b612484606083018c611d85565b612491608083018b611d85565b61249e60a083018a6120c1565b6124ab60c0830189611d85565b6124b860e08301886120d0565b6124c6610100830187611d85565b6124d4610120830186611d85565b6124e26101408301856120c1565b6124f0610160830184612417565b9d9c50505050505050505050505050565b61250a816120b7565b811461251557600080fd5b50565b60008135905061252781612501565b92915050565b60006020828403121561254357612542611db9565b5b600061255184828501612518565b91505092915050565b600060808201905061256f60008301876120d0565b61257c6020830186611d85565b6125896040830185611d85565b61259660608301846120c1565b95945050505050565b600080600080608085870312156125b9576125b8611db9565b5b60006125c787828801611e65565b94505060206125d887828801611e65565b93505060406125e987828801611e65565b92505060606125fa87828801612518565b91505092959194509250565b600082825260208201905092915050565b7f4e6f7420617574686f72697a6564207665726966696572000000000000000000600082015250565b600061264d601783612606565b915061265882612617565b602082019050919050565b6000602082019050818103600083015261267c81612640565b9050919050565b7f52657175657374206e6f7420666f756e64000000000000000000000000000000600082015250565b60006126b9601183612606565b91506126c482612683565b602082019050919050565b600060208201905081810360008301526126e8816126ac565b9050919050565b7f416c726561647920766572696669656400000000000000000000000000000000600082015250565b6000612725601083612606565b9150612730826126ef565b602082019050919050565b6000602082019050818103600083015261275481612718565b9050919050565b7f4e487b7100000000000000000000000000000000000000000000000000000000600052601160045260246000fd5b600061279582611d7b565b91506127a083611d7b565b92508282026127ae81611d7b565b915082820484148315176127c5576127c461275b565b5b5092915050565b60006127d782611d7b565b91506127e283611d7b565b92508282019050808211156127fa576127f961275b565b5b92915050565b7f4e487b7100000000000000000000000000000000000000000000000000000000600052601260045260246000fd5b600061283a82611d7b565b915061284583611d7b565b92508261285557612854612800565b5b828204905092915050565b600060e082019050612875600083018a611d85565b61288260208301896120a8565b61288f6040830188611d85565b61289c6060830187611d85565b6128a96080830186611d85565b6128b660a08301856120c1565b6128c360c0830184611d85565b98975050505050505050565b600081519050919050565b600082825260208201905092915050565b60005b838110156129095780820151818401526020810190506128ee565b60008484015250505050565b6000612920826128cf565b61292a81856128da565b935061293a8185602086016128eb565b61294381611ebc565b840191505092915050565b600060208201905081810360008301526129688184612915565b905092915050565b600061297b82611d7b565b91507fffffffffffffffffffffffffffffffffffffffffffffffffffffffffffffffff82036129ad576129ac61275b565b5b600182019050919050565b60006040820190506129cd6000830185611d85565b81810360208301526129df8184612915565b90509392505050565b60006040820190506129fd60008301856120d0565b612a0a6020830184611d85565b9392505050565b7f4f776e61626c653a206e6577206f776e657220697320746865207a65726f206160008201527f6464726573730000000000000000000000000000000000000000000000000000602082015250565b6000612a6d602683612606565b9150612a7882612a11565b604082019050919050565b60006020820190508181036000830152612a9c81612a60565b9050919050565b7f496e73756666696369656e7420766572696669636174696f6e20666565000000600082015250565b6000612ad9601d83612606565b9150612ae482612aa3565b602082019050919050565b60006020820190508181036000830152612b0881612acc565b9050919050565b7f496e76616c6964206d6574616c20747970650000000000000000000000000000600082015250565b6000612b45601283612606565b9150612b5082612b0f565b602082019050919050565b60006020820190508181036000830152612b7481612b38565b9050919050565b7f576569676874206d75737420626520706f736974697665000000000000000000600082015250565b6000612bb1601783612606565b9150612bbc82612b7b565b602082019050919050565b60006020820190508181036000830152612be081612ba4565b9050919050565b7f496e76616c696420707572697479000000000000000000000000000000000000600082015250565b6000612c1d600e83612606565b9150612c2882612be7565b602082019050919050565b60006020820190508181036000830152612c4c81612c10565b9050919050565b6000606082019050612c6860008301866120a8565b612c756020830185611d85565b612c826040830184611d85565b949350505050565b7f4f776e61626c653a2063616c6c6572206973206e6f7420746865206f776e6572600082015250565b6000612cc0602083612606565b9150612ccb82612c8a565b602082019050919050565b60006020820190508181036000830152612cef81612cb3565b9050919050565b6000612d0182611d7b565b9150612d0c83611d7b565b925082612d1c57612d1b612800565b5b828206905092915050565b7f4e487b7100000000000000000000000000000000000000000000000000000000600052603260045260246000fd5b6000604082019050612d6b60008301856120c1565b612d786020830184611d85565b9392505050565b6000604082019050612d946000830185611d85565b612da16020830184611d85565b9392505050565b600081905092915050565b612dbc816122e8565b612dc68184612da8565b9250612dd1826122fe565b8060005b83811015612e02578151612de98782612317565b9650612df48361232f565b925050600181019050612dd5565b505050505050565b6000608082019050612e1f6000830184612db3565b92915050565b600081519050612e3481611e4e565b92915050565b6000612e4d612e488461215d565b611f2d565b90508060208402830185811115612e6757612e66612183565b5b835b81811015612e905780612e7c8882612e25565b845260208401935050602081019050612e69565b5050509392505050565b600082601f830112612eaf57612eae611eb2565b5b6004612ebc848285612e3a565b91505092915050565b600060808284031215612edb57612eda611db9565b5b6000612ee984828501612e9a565b9150509291505056fea26469706673582212200fd4efd73603fb694f63e4b04e05b83c2e512dd8b5c9a5285f9fb30cd4cf1b8564736f6c63430008130033",
  "linkReferences": {},
  "deployedLinkReferences": {}
}